:020000040800F2
:10000000D00A0024C1020008B72A00083D230008D6
:10001000B52A0008CF030008E141000800000000F5
:100020000000000000000000000000002F3D00085C
:10003000D103000800000000932E0008313D0008A5
:10004000DB020008DB020008DB020008DB0200081C
:10005000DB020008DB020008DB020008DB0200080C
:10006000DB020008DB020008DB020008DB020008FC
:10007000DB020008DB020008DB020008DB020008EC
:10008000DB020008DB020008DB020008DB020008DC
:10009000DB020008DB020008DB020008DB020008CC
:1000A000DB020008DB020008DB020008DB020008BC
:1000B000DB020008DB020008DB020008DB020008AC
:1000C000DB020008DB020008DB020008DB0200089C
:1000D000DB020008DB020008DB020008DB0200088C
:1000E000DB020008DB020008DB020008DB0200087C
:1000F000DB020008DB020008DB020008DB0200086C
:10010000DB020008DB020008DB020008DB0200085B
:10011000DB020008DB020008DB020008DB0200084B
:10012000DB020008DB020008DB020008DB0200083B
:10013000DB0200080000000000000000DB020008F5
:10014000DB020008DB020008DB020008DB0200081B
:10015000DB020008DB020008DB020008DB0200080B
:10016000DB020008DB020008DB020008DB020008FB
:10017000DB020008DB020008DB020008DB020008EB
:10018000DB020008DB020008DB020008DB020008DB
:10019000DB020008DB020008DB020008DB020008CB
:1001A000DB020008DB020008DB020008DB020008BB
:1001B000DB020008DB020008DB020008DB020008AB
:1001C000DB020008DB020008000000000000000065
:1001D0000000000000000000DB020008000000003A
:1001E000000000000000000000000000000000000F
:1001F0000000000000000000DB020008DB02000835
:10020000DB020008DB02000800000000DB0200083F
:10021000DB020008DB020008DB020008DB0200084A
:10022000DB020008DB020008DB020008000000001F
:10023000DB020008DB02000800000000DB0200080F
:10024000DB020008DB020008DB020008DB0200081A
:10025000DB020008DB020008DB020008DB0200080A
:10026000DB020008DB020008DB020008DB020008FA
:10027000DB020008DB020008DB02000800000000CF
:10028000DB020008DB02000800000000DB020008BF
:1002900000000000DB020008DB020008DB020008AF
:1002A000DB020008DB020008DB020008DFF80CD0EC
:1002B00000F05CF8004800474D430008D00A0024D5
:1002C0000648804706480047FEE7FEE7FEE7FEE7F0
:1002D000FEE7FEE7FEE7FEE7FEE7FEE7E93D000892
:1002E000AD020008D2B201E000F8012B491EFBD29A
:1002F00070470022F6E710B513460A460446194631
:10030000FFF7F0FF204610BD2DE9F05F0546002005
:1003100092469B4688460646814640241BE0284676
:1003200041464746224600F042F853465A46C01A14
:10033000914110D311461846224600F029F82D1A93
:1003400067EB01084F4622460120002100F020F80B
:1003500017EB00094E41201EA4F10104DFDC4846E2
:1003600031462A464346BDE8F09F0000064C074D43
:1003700006E0E06840F0010394E807009847103475
:10038000AC42F6D3FFF796FF80B80008A0B800088B
:10039000202A04DB203A00FA02F100207047914045
:1003A000C2F1200320FA03F3194390407047202A3A
:1003B00004DB203A21FA02F00021704721FA02F30F
:1003C000D040C2F120029140084319467047FEE731
:1003D0007047EFF3108072B6FEE70000B0B5044638
:1003E00000F0E2F805469C48611C007818BF044400
:1003F00000F0DAF8401BA042FAD3B0BD2DE9FC4F63
:100400005C4A0A244FF0000A4FF0000990425A4A11
:1004100008BF092402444FEAB223092B38BF4FEA30
:10042000B224009400220E6836FA02F700F0A08091
:10043000012303FA02F716EA070B00F09380D1F8C4
:1004400004E003230EF0030CACF10105012D13D8D9
:1004500003FA09F58468CB68AC4303FA09F36FEA41
:10046000050823438360CEF300134468BC439340E4
:100470005700234343600BE003FA09F3BCF1030F79
:100480004F466FEA030803D14F464FF0030C20E0BC
:10049000C3688C6803EA0803BC402343C360BCF113
:1004A000020F16D10AF01C030F2404FA03FC6FF0AC
:1004B000030404EA520505442C6A24EA0C0C0C6976
:1004C00004FA03F343EA0C032B62D1F804E00EF0C4
:1004D000030C04680CFA07F304EA080423430360DE
:1004E0001EF4403F3ED0854C254E236843F0020366
:1004F000236023680F2403F002030193019D0AF097
:100500000C0322F003059C40AF5927EA0404009F26
:1005100007FA03F32343AB514FF0B04633684D68FD
:1005200043EA0B04EF0258BF23EA0B043460134E76
:10053000AF02336843EA0B0458BF23EA0B0434606C
:10054000AF03D6F8803043EA0B0458BF23EA0B040C
:10055000C6F88040ED03F36F43EA0B0458BF23EA6B
:100560000B04F4670AF1040A09F1020901325AE79F
:10057000BDE8FC8F002402580000FEA704000058CC
:10058000080400580069084018BF01207047002A7D
:1005900008BF090481617047024800686FF31F308B
:1005A000704700BF0010005C05480068704700BF3E
:1005B0002948034900780A6810440860704700BF62
:1005C000CC06002480B5032000F0B6F800F082FDD0
:1005D0000E490F4B0A68096801F00F01C2F30322AC
:1005E000595C9A5C01F01F0102F01F02D0401B4AC7
:1005F0001060C840074908600F2000F00DF808B1EE
:10060000012080BD00F06CF8002080BD1844025825
:10061000A04900080C00002470B50F4E0446307845
:10062000B0B14FF47A71B1FBF0F00C490968B1FB3D
:10063000F0F001F0E7FC01250F2C0AD848B94FF083
:10064000FF3021460022002500F05AF8746000E0D7
:100650000125284670BD00BF0000002408000024CA
:100660000278114943780B60D2B143684B60037B39
:1006700042EA0372C37A42EA0362837A42EAC342DD
:10068000437B42EA8342837B42EA4342C37B42EAA2
:100690000342437A007A42EA032242EA400001E040
:1006A000002048608860704798ED00E00B48BFF379
:1006B0005F8F016821F4803101600021016770477C
:1006C000064940F001000867086840F4803008607F
:1006D000BFF34F8FBFF36F8F704700BF24ED00E073
:1006E00081B00648016841F002010160006800F035
:1006F00002000090009801B0704700BF54450258B6
:1007000070B5134B4FF0FF351B68C3F30223DC1E9B
:1007100083F0070338BF002405FA04F6B243042B24
:1007200028BF042305FA03F39943A1401143BDE810
:10073000704003F057BD00BF05494FF6FF030A683C
:100740001A4060F30A22034810430860704700BF54
:100750000CED00E00000FA05B0B50F4D2A682968DD
:10076000520705D401F00701081A18BF0120B0BDD7
:1007700021F00701084302F0DDF9044655F8080CA2
:10078000800406D4FFF710FF02F0ADF9F6D901207E
:10079000B0BD0020B0BD00BF0C480258024801683F
:1007A00041F4807101607047004802582DE9F0471C
:1007B0000446C078A54F00071CD5A06E4FEA305103
:1007C000032908D8DFE801F002090C11F96941F4A6
:1007D0000031F96109E001260DE002F02DFA01E097
:1007E00002F0BBFA064630B9A06E396C21F4401114
:1007F0000843386400266078BA46C00701D1354600
:1008000020E0606D04280BD83546DFE800F0030CCB
:100810000F121200F869354640F40030F86108E024
:10082000012501270FE002F029FB01E002F0D4F9D5
:1008300005462F463DB9606D02F0C0F921F0070171
:1008400002F00EFA3746607880071ED5A06D4FEA99
:10085000B010052807D8DFE800F003090C0F0F0FD0
:1008600002F060F908E0012501260FE002F006FB26
:1008700001E002F0B1F905462E463DB9A06D02F047
:100880009DF921F4E07102F0EBF93E4660784007F3
:100890001ED5E06D4FEA7020052807D8DFE800F08C
:1008A00003090C0F0F0F02F03DF908E001250127A5
:1008B0000FE002F0E3FA01E002F08EF905462F4660
:1008C0003DB9E06D02F07AF921F4606102F0C8F9F7
:1008D0003746E07880071DD5A06C4FEA301003281A
:1008E00006D8DFE800F00B02080B02F01BF905E068
:1008F000012501260FE002F09FF905462E4655B965
:10090000A06CDAF83C100025524621F03001084373
:10091000CAF83C003E466078C0061ED5206E4FEAFD
:100920003030042807D8DFE800F003090C0F0F006F
:1009300002F0F8F808E0012501270FE002F09EFA26
:1009400001E002F049F905462F463DB9206E02F05C
:1009500035F921F4E04102F083F9374660788006EA
:100960001BD5606E4FEA3040052807D8DFE800F05D
:100970000C03090C0C0C02F017F904E00125012608
:100980000CE002F06DFA05462E463DB9606E02F0AD
:1009900015F921F4E02102F063F93E466078400643
:1009A0001ED5D4F8AC004FEA3070062808D8DFE82E
:1009B00000F00D040A0D0D0D0D0002F0F5F804E035
:1009C000012501270DE002F04BFA05462F4645B9F7
:1009D000D4F8AC0002F013F921F0E04102F052F932
:1009E00037466078000616D5606F58B1B0F1005FE9
:1009F00005D0B0F1805F22D102F094F802E002F05D
:100A0000D3F805462E463DB9606F02F0D7F821F0C5
:100A1000405102F025F93E46E078C00702D1B046C9
:100A2000574622E0606C574603280BD8DFE800F0F9
:100A300013021013F86940F40030F8610BE001254F
:100A40000126E9E701254FF001080EE010440258A5
:100A500002F0F2F80546A8463DB9606CF96B002536
:100A6000B04621F003010843F863A078400601D4A2
:100A7000474616E0D7F8F00340F48070C7F8F0035B
:100A8000FFF792FD0646D7F8F003C00507D4FFF73D
:100A90008BFD801B6428F6D90325032701E02F4630
:100AA00085B12078C00748D0D4F880004FEAF00024
:100AB000052832D8DFE800F037033437373702F043
:100AC00073F82FE0DAF86010D4F8B00055464140D2
:100AD00011F4407F0BD0296E2A6E42F480322A66D0
:100AE00021F440712A6E22F480322A662966B0F51C
:100AF000807F40F0CA81FFF757FD064641F28839F2
:100B00000327DAF86000800700F1BC81FFF74CFD95
:100B1000801B03254845F4D9C3E7012501260DE0D4
:100B200002F09EF905462E4645B9D4F8800002F041
:100B30008CF821F0380102F0CBF83E46207880078F
:100B400019D5E06F052807D8DFE800F00C03090C81
:100B50000C0C02F029F804E0012501270CE002F05A
:100B60007FF905462F463DB9E06F02F06EF821F09F
:100B7000070102F0ADF83746207840071BD5D4F8BE
:100B80009800052807D8DFE800F00C03090C0C0CCE
:100B900002F00AF804E0012501260DE002F060F9F8
:100BA00005462E4645B9D4F8980002F028F821F001
:100BB000070102F067F83E46207880061DD5D4F87C
:100BC00094004FEA3070052807D8DFE800F00C03E6
:100BD000090C0C0C02F052F904E0012501270DE08C
:100BE00002F0BBF805462F4645B9D4F8940002F050
:100BF0002CF821F0E04102F06BF8374620784006EF
:100C00001DD5D4F8A0004FEAB020052807D8DFE8AA
:100C100000F00C03090C0C0C02F030F904E0012583
:100C200001260DE002F099F805462E4645B9D4F8A4
:100C3000A00001F0E4FF21F4E05102F023F83E4669
:100C4000207800061DD5D4F8A4004FEA703005289E
:100C500007D8DFE800F00C03090C0C0C02F00EF9C9
:100C600004E0012501270DE002F077F805462F4644
:100C700045B9D4F8A40001F0C2FF21F4604102F0AC
:100C800001F837462068010714D5D4F88810B1F56B
:100C9000805F07D102F061F8002818BF01272068A3
:100CA000D4F88810DAF84420534622F44052114315
:100CB000CAF84410C10614D5D4F89C10B1F5807F51
:100CC00007D102F04AF8002818BF01272068D4F89D
:100CD0009C10DAF84820534622F440721143CAF8B7
:100CE0004810000318D5D4F8A800B0F5003F09D08B
:100CF000B0F5803F03D010BB02F0C0F801E002F075
:100D00002CF805462E4645B9D4F8A80001F077FF27
:100D100021F4403101F0B6FF3E46A07840071ED5D1
:100D2000D4F88C00B0F5401F0FD0B0F5001F09D0EB
:100D3000B0F5801F40F0A38001F0F4FE05E001252E
:100D40000126EAE702F08CF805462F4645B9D4F8AB
:100D50008C0001F07AFF21F4401101F0B9FF374611
:100D6000A078C00701D13E4619E0E06CB0F5803FA5
:100D700003D090B901F0D6FE02E001F05DFF054618
:100D80002E4665B9E06CDAF83C100025524621F495
:100D900080310843CAF83C00E5E7012501262068B8
:100DA000810005D501F0D9FF002818BF0126206871
:100DB00081031CD5D4F884106FF0010202EB3122BC
:100DC000022A0AD34FEA31223AB1012A06D1DAF8CF
:100DD0001C2042F40032CAF81C200DB1012606E0A6
:100DE000DAF8442022F440721143CAF84410C102D8
:100DF00007D5A16FDAF8402022F000421143CAF86B
:100E00004010810207D5E16EDAF8402022F08072AE
:100E10001143CAF84010010507D5216FDAF84820C0
:100E200022F000621143CAF8481041000CD5DAF8EC
:100E3000001021F40041CAF80010D4F8B410DAF818
:100E400000201143CAF80010B0F1FF3F07DC216D0C
:100E5000DAF83C2022F040521143CAF83C1000025C
:100E600007D5D4F89000DAF8441021F4400101F0DD
:100E70002FFF002E18BF01263046BDE8F087012560
:100E800001276DE75546D4F8B0002A68094900F4F7
:100E9000407322F47C5201EA1011B3F5407F6FF3E6
:100EA0001F3008BF0A432A60296E084328660025C0
:100EB000DEE500BFCFFFFF002DE9F843002800F07A
:100EC000FB807F4D04468846286800F00F0088426A
:100ED0000BD2286820F00F0040EA0800286028683C
:100EE00000F00F00404540F0E7802068AE4F41071A
:100EF00009D52169BA6901F01CFF04D9BA6922F049
:100F000070021143B961010709D56169FA6901F0FD
:100F100010FF04D9FA6922F070021143F961C10689
:100F20000AD5A169FA6902F4E062914204D9FA692A
:100F300022F4E0621143F961810609D5E1693A6A58
:100F400001F0F7FE04D93A6A22F0700211433962C7
:100F500010F002010AD0E268BB6903F00F039A4265
:100F600004D9BB6923F00F031A43BA61C2073AD010
:100F7000D4E90101BA6922F470621143B961012810
:100F800007D0032809D002280BD1396889030CD473
:100F900092E03968C90508D48EE03968890104D423
:100FA0008AE03968490740F187803969A94621F00C
:100FB000070108433861FFF7F7FA064641F2883522
:100FC0006068396901F03801B1EBC00F07D0FFF755
:100FD000EBFA801BA842F3D90320BDE8F883206810
:100FE0004D4600F0020151B1E168BA6902F00F020A
:100FF000914204D2BA6922F00F021143B961296803
:1010000001F00F0141450AD9296821F00F0141EA99
:1010100008012960296801F00F0141454CD14107C1
:1010200009D52169BA6901F084FE04D2BA6922F0B7
:1010300070021143B961010709D56169FA6901F0CC
:1010400078FE04D2FA6922F070021143F961C106F8
:101050000AD5A169FA6902F4E062914204D2FA6900
:1010600022F4E0621143F96180060AD5E069396A29
:1010700001F07001884204D2396A21F070010843FE
:10108000386200F027F8B9690E4A0F4BC1F303210B
:10109000515C01F01F01C840B969186001F00F01EF
:1010A000515C01F01F01C840084908600848006809
:1010B000BDE8F843FFF7B0BA0120BDE8F88300BFF0
:1010C00000200052A0490008080000240C00002461
:1010D0000400002410B534490869C0F3C200032895
:1010E0000FD0022804BF324810BD40B908688006FE
:1010F000334858D50968C1F3C101C84010BD2B4819
:1011000010BD8A6A886ACB6A4C6BC0F30510F0B1D7
:1011100003F00103C4F3CC0402F003026343022A88
:1011200000EE103AB8EE400A13D0AAB90A68920647
:1011300051BF9FED221A0A68C2F3C102204B42BF81
:1011400023FA02F201EE102AB8EE411A06E000205E
:1011500010BD9FED191A01E09FED161A0A6B9FED65
:10116000193A6FF35F2202EE102AB8EE422A00EE1F
:10117000032AB7EE000A32EE000A02EE100A086BEC
:10118000C0F34620B8EE422A013081EE021A21EE69
:10119000000A01EE100AB8EE411A80EE010ABCEE18
:1011A000C00A10EE100A10BD0044025800093D00AC
:1011B00040787D010024744A20BCBE4B0024744C4E
:1011C0000090D00300000039F8B5002800F0C58079
:1011D00004460078DA4EC0071FD12078800766D514
:1011E000306910F03801B06A44D0182901D1800765
:1011F00040D03068E168002900F00C8120F019002F
:10120000084301F06DFC05463068400748D4FFF7FD
:10121000CBF9401B0228F7D990E1306900F0380182
:10122000B06A102905D018290AD100F0030002285D
:1012300006D130688003D0D560680028CDD18CE01D
:101240006068002800F04681B0F5A81F00F05981C1
:10125000B0F5A02F00F05D81B0F5803F00F05F8118
:10126000306820F480303060306820F4802001F055
:1012700093FD57E1E0683168490701D500286CD03B
:10128000316821F01901084301F02AFC0546306855
:10129000400705D4FFF788F901F040FCF7D9F8BD05
:1012A0002069716821F0FE4141EA00607060207899
:1012B000C00618D5306900F03801B06A082905D099
:1012C000182971D100F0030001286DD13068C005E4
:1012D00002D5E069802840D1206AF16821F07C5174
:1012E00041EA0060F0602078000738D4207880065A
:1012F00048D4207840076AD4676A67B3306900F041
:101300003800182840F0CA80B16A306B012F24D011
:10131000A26A01F0030393421FD1E26AC1F30511EF
:1013200091421AD10146226B6FF35F21013A91423B
:1013300013D1626BC0F34621013A91420DD1A26BE9
:10134000C0F30641013A914207D1E16BC0F3066058
:101350000139884201D10020F8BD0120F8BD706F2D
:101360006169002946D040F001007067FFF71CF961
:101370000546706F8007B9D4FFF716F9401B0228A5
:10138000F7D9DBE03068A169002969D040F48050CA
:1013900001F0A6FB054630688004AAD4FFF704F9E3
:1013A000401B0228F7D9C9E03068E169002966D0FE
:1013B00040F0800001F094FB05463068C0053FF521
:1013C0008BAFFFF7F1F801F0A9FBF6D967E7D6F884
:1013D000000440F48070C6F80004FFF7E5F8054605
:1013E000D6F80004C00524D4FFF7DEF8401B6428BB
:1013F000F6D9A3E020F001007067FFF7D5F80546A5
:10140000706F80077FF572AFFFF7CEF801F086FBB3
:10141000F6D944E720F0010001F062FB0546306890
:1014200040077FF544AFFFF7BFF801F077FBF6D92F
:1014300035E7A068002800F08580852800F09C80B2
:10144000052800F0A180012800F0A480306F20F072
:1014500001003067306F20F0040001F02AFC9CE0AE
:1014600020F4805001F03CFB0546306880047FF595
:1014700040AFFFF799F801F051FBF6D90FE720F0E4
:10148000800001F02DFB05463068C0057FF52BAFCD
:10149000FFF78AF801F042FBF6D900E7306820F048
:1014A000807001F01DFB0546022F09D130688001D4
:1014B00040F18480FFF778F801F030FBF6D9EEE6D2
:1014C000306880017FF547AFFFF76EF801F026FB2B
:1014D000F6D9E4E6306820F4803001F05DFC30603D
:1014E000306820F4802001F0FBFA05463068800364
:1014F0007FF573AEFFF758F8411B03206429F5D937
:10150000CDE6306840F480203060306840F48010D0
:1015100004E0306840F4802001F03EFC3060306828
:1015200040F4803001F0DCFA0546306880033FF576
:1015300054AEFFF739F8401B6428F6D90320F8BDF4
:1015400000440258306F20F0010001F0B2FB306718
:10155000306F20F004003067FFF726F8054641F2AF
:101560008837306F80077FF5C7AEFFF71DF8411B46
:101570000320B942F5D992E6306F40F0040030679D
:10158000306F40F0800004E0306F40F0040001F064
:1015900090FB3067306F40F001003067FFF704F8D0
:1015A000054641F28837306F80073FF5A5AEFEF75C
:1015B000FBFF411B0320B942F5D970E604F1280571
:1015C000B06A40F2F33188432ECD0843591E40EAF9
:1015D0000210B0626FF35F214FF4FE024FF47E40C1
:1015E00000EB452080B20844A16B02EB01414FF0B3
:1015F000FE4201F4FE010844E16B02EB016101F0DF
:10160000FE41084430634FF6F871F06A20F00100A3
:10161000F062706B8843A16C40EAC1007063206C7B
:10162000F16A21F00C010843F062F06A616C20F06D
:1016300002000843F062F06A40F48030F062F06A21
:1016400040F40030F062F06A40F48020F062F06A0A
:1016500040F00100F062306840F0807001F040FA24
:101660000446306880013FF576AEFEF79DFF011B12
:1016700003200229F5D912E670B500684068030C12
:1016800000F03F05CB708D70C0F30424C0F34236E8
:101690004C700E70CAB92409020A2D0900F00F0619
:1016A000C0F3035002F00F0244EA840445EA8505C2
:1016B00000EB800002EB44024A7006EB45058D709A
:1016C00003F00F0202EB4000C870002070BD70B53F
:1016D000006883684B6003696FF3DF338B600468D5
:1016E00004F07F058D70C4F38050C870C4F30623E6
:1016F0004B70C4F305400870CAB91B09220A2D09B2
:101700000009260C04F00F0402F00F0203EB830320
:1017100005EB850540EA800002EB43024A7004EBCA
:1017200045048C7006F00F0202EB400008700020A8
:1017300070BD000070B5B8B3044690F8250028B914
:10174000002084F82400204600F038F8022084F8B5
:101750002500CA212068416201F045FB00BB94E8E6
:101760000F00154E85693540856125692943A569B6
:10177000294385692943816143EA0241016101F0FE
:1017800022FA68B92068D4E9072361691A43856998
:10179000114325F060458561826911438161002014
:1017A00001F01FFA02D070BD012070BD012084F845
:1017B0002500002070BD00BFBFFF8FFB10B5AEB08D
:1017C00004466846B4210430FEF793FD20680B49B7
:1017D000884210D14FF480702C904FF4800000901C
:1017E0006846FEF7E3FF08B1FEF7F3FD0448016821
:1017F00041F4004101602EB010BD00BF0040005810
:10180000704402582DE9F04101F097F93ED084F878
:101810002500012084F8240032B16878E978AE7898
:10182000000240EA014714E06E78F00604D506F0A5
:10183000EF0000F10A066E70E878DFF8F480C04728
:1018400007463046C047000240EA0747A878C0472D
:1018500006462068CA2141625321416220462D7804
:1018600001F0ECFB48B947EA0600216820F0C0000F
:1018700040EA4530486001F0A6F901F0B2F902D122
:10188000012184F82510002184F82410BDE8F0819E
:101890002DE9F04101F051F947D084F82500CA2123
:1018A000164620684162012184F8241001F09BFA59
:1018B00090BB2768B86900F040001EB198B90020BD
:1018C000E87012E008B90020E8702878DFF860803E
:1018D000C04706466878C04701F0A3FAE97830446B
:1018E00040EA815009E0E87880056A782978AB7889
:1018F000120242EA0141194408430E490840386087
:10190000B86920F48020B861D5E903010843B969BA
:101910000843B86101F057F901F063F902D10121E0
:1019200084F82510002184F82410BDE8F08100BF60
:10193000193000087F7F7F00B0B504460068C16899
:1019400021F0A001C160FEF72FFE05462068C068A7
:10195000800606D4FEF728FE01F004FAF6D903202B
:10196000B0BD0020B0BD0000F8B538B3044600207B
:101970004749A0622068884208D0464A904205D074
:10198000454A904202D0E2680F2A17D8E268E36B1A
:101990000125083205EB5313D2085A4388420BD075
:1019A0003D49884208D03B4B984218BF082A05D8C9
:1019B000884218BF984203D1102A01D90120F8BDEE
:1019C00094F8811029B901F011F9204600F066F869
:1019D0002068022184F8811001F08DF9D4F818C034
:1019E0006168836803F4F813BCF1806F12D139B1D8
:1019F000B1F5800F0ED1A56B35B14FF4800109E030
:101A0000A56BB5F1805F04D1056845F4805505608C
:101A100000E00021E56904F1080762692B43A56A2B
:101A20002B43E56B2B43E0CF33438360636B666AE4
:101A300043EA0C033343A66B33433B431A43236A05
:101A40001A43D4E912360A4332432A431A43A36D98
:101A50001A43C26049B98268012363F3CC228260D1
:101A60000223826863F34A228260026D490222F0F7
:101A70000102026505D5616DC26822F00042114382
:101A8000C1600020C4F88400012184F88110F8BDF1
:101A900000380040003C00400030014010B5B4B0B8
:101AA00004462FA81421FEF724FC01A8B421043019
:101AB000FEF71FFC2068184988422AD14FF40050D5
:101AC00000241A94019001A8FEF770FE08B1FEF7F9
:101AD00080FC1248016941F400510161016901F47F
:101AE000005100910099016841F010010160006807
:101AF00000F010000090CDE9314405203390022021
:101B000030904FF4A0402F9000982FA90448FEF782
:101B100075FC34B010BD00BF003401404045025890
:101B2000001002582DE9F8430446D0E900509946C8
:101B300017460E46B0F5800F02D1A068002856D097
:101B400094F8800001284FD0012084F88000FEF72F
:101B50002BFD804601F0CBF844D1002E54D0002F4D
:101B600052D0042001F076F8A4F86A70A4F86870E6
:101B70006666A4F86000E065C4E91C00A4F8620091
:101B8000A1682068B1F5C02F03D1016821F400617C
:101B9000016001F0EBF801D101F02AF9E0681028AA
:101BA00036D348F2080509F10106B4F86A000028A6
:101BB00061D020684169294206D0006B616E01C185
:101BC000616600F0C1FFF0E7FEF7EEFC002EECD0FE
:101BD000A0EB08004845E8D300F0F8FF00F087FFCD
:101BE000BDE8F88301F002F80220BDE8F883042084
:101BF00084F88100314632463B46CDF800902046BD
:101C000000F00BF9BDE8F88301F02EF8BDE8F88389
:101C1000072819D909F10106B4F86A0058B32068F9
:101C20004069C00708D1FEF7BFFC002EF4D0A0EB3E
:101C300008004845F0D3CFE7288E616E21F8020BEB
:101C4000616600F081FFE7E709F10105B4F86A0079
:101C500088B120684169C90708D1FEF7A5FC002DAD
:101C6000F4D0A0EB08004845F0D3B5E701F00EF83A
:101C700000F06AFFEAE700F0A9FF01F01FF818BFC3
:101C80000120BDE8F8832DE9F04700F0BDFF49D001
:101C900001201D4617460E4600F0EEFF804601F07B
:101CA00026F83DD1002E40D0002F3ED0032000F07A
:101CB000D1FFA4F86270A4F86070E665A4F868002B
:101CC0006066C4E91C00A4F86A00A1682068B1F548
:101CD000C02F03D1016841F40061016001F046F8B2
:101CE00001D101F085F8E068102822D36E1CB4F809
:101CF000620000287BD020684169890708D4FEF77C
:101D000053FC002EF3D0A0EB0800A842EFD37EE0F6
:101D100001F013F8B4F862000138A4F86200E6E7B5
:101D200000F064FF0220BDE8F08700F09DFFBDE8F1
:101D3000F087072825D900F0EFFFB4F862000028EB
:101D400055D020684169890708D4FEF72DFC002E84
:101D5000F3D0A0EB0800A842EFD358E0B4F862102B
:101D6000022905D3E16B19B100F0E7FF504602E00C
:101D700000F0C6FF3846B4F862100844A4F86200C8
:101D8000DBE700F0C9FFB4F8620080B32068416966
:101D9000890708D4FEF708FC002EF4D0A0EB080059
:101DA000A842F0D333E0B4F86210042907D3E16B02
:101DB000412904D300F0C1FF4FF6FC7011E0B4F8E4
:101DC0006210022905D3E16B19B100F099FF50466A
:101DD00007E0E16D097880F82010E06D0130E065E2
:101DE0003846B4F862100844A4F86200CBE72046F5
:101DF00041462A4601F0C6F908B100F071FF00F033
:101E0000E5FE00F05BFF18BF0120BDE8F08700F0A1
:101E1000DDFE00F06CFEBDE8F0872DE9F84F00F024
:101E2000F3FE73D001209B4615460F4600F024FFB9
:101E3000804600F05CFF5ED1002F6AD0002D68D094
:101E4000BBF1000F65D094F88100042802D0052072
:101E500084F881000021C4F88410A4F86AB0A4F8C2
:101E600062B04FF6FF76D4E900024368B3435B44A7
:101E700043606566A4F868B0E765C4E91C11A4F87E
:101E800060B0B2F5800F016841F00101016001D13D
:101E900000F0AEFFE068DDF828A010283DD348F23E
:101EA00008050AF101075E4656EA0B0000F099802A
:101EB00000F048FF18BF11F0020104D0E16D04C921
:101EC000026200F0ABFE416966B129400AD0006BA6
:101ED000B4F86A100139A4F86A10616E01C1616634
:101EE000B4F86A60FEF760FB002FDDD0A0EB0800BD
:101EF0005045D9D36FE06168B1F5800F04D1042853
:101F000002D1A068002897D000F070FE0220BDE842
:101F1000F88F00F0A9FEBDE8F88F0AF10105072847
:101F200028D95E4656EA0B005BD000F00BFF18BFC5
:101F300011F0020106D0E16D31F8022BA9F8202042
:101F400000F06CFE406966B110F0010009D0B9F8EC
:101F50003000616E21F8020B00F0F6FD6166B4F806
:101F60006A60FEF721FB002DDCD0A0EB0800504595
:101F7000D8D330E05F4657EA0B0032D000F0E2FEE3
:101F800018BF11F002010ED0E16D097880F8201021
:101F9000B4F862000138A4F86200E16D20680131F4
:101FA000E165B4F862B041696FB111F001010AD086
:101FB00090F83000616E087000F0C6FD606E013070
:101FC0006066B4F86A70FEF7EFFA002DD3D0A0EB8C
:101FD00008005045CFD300F0F9FD00F088FDBDE8C2
:101FE000F88F20464146524601F0CCF808B100F087
:101FF00077FE00F0EBFD00F061FE18BF0120BDE8A8
:10200000F88F0000411E0020B0EB116F01D00120BD
:102010007047044AF023516003490B709060072118
:102020001160704710E000E023ED00E0F0B590F89B
:102030003C20012A01D1022140E091E83C00204EE1
:1020400025F47C5524F47054334022F477222C4339
:10205000684D23431A430B6923F476231A434B69D3
:102060001A430B6B22F4742223F470231A438B69F6
:1020700042EA0343026842F48064AC4202BF23F0A8
:102080008053CE693343AC4214D1AE468D6A0D4FB6
:10209000D1E9086C23F07C7307EA05552B4326F041
:1020A00000752B4343EA0C03744502BF23F0005331
:1020B000C96A0B43002180F83C1053640846F0BD08
:1020C000FF87F0FF0000F0FC70B590F83C30022272
:1020D000012B2CD080F83D20464C026842F48066EB
:1020E00055689368A64202BF25F470054E683543D3
:1020F0000E6825F0700535435560B2F1804F0BD066
:10210000374DAA421CBF374DAA4205D0364DAA42D0
:102110001CBF364DAA420CD123F0800389681943B5
:102120009160002280F83C20012180F83D1010468B
:1021300070BD804DAA42EFD02D4DAA4218BFA242D9
:10214000EAD0EEE710B5044641B108290ED00429C3
:1021500014BF04F1470004F1450009E094F844007D
:10216000012812D1022084F8440012E004F1460054
:102170000078012809D10220082908D0042914BFB9
:1021800084F8470084F8450003E0012010BD84F87E
:1021900046002068042201F0CFFE00F0F6FC0BD0D0
:1021A0000F4881421CBF0F48814205D00E48814232
:1021B0001CBF0E48814208D188680F4A00F08CFD90
:1021C00018BFB2F5803F09D110BD5A488142F3D003
:1021D00007488142F0D007488142EDD000F026BE8A
:1021E0000004004000080040000C004000180040BF
:1021F000004001400004014007000100FEB50068F6
:102200004C49884217D10D48016841F01001016026
:10221000006800F010000090012005900020CDE93A
:102220000300022002904FF480600190009801A901
:102230000348FEF7E3F806B080BD00BF40450258F2
:1022400000100258B0B500F0FEFD04BF0220B0BD82
:1022500000F0F2FD052948D8DFE801F0030B131B5D
:1022600023332068294601F077FE206850F8181FB4
:102270001EE02068294601F0AFFE206850F8181FC4
:1022800026E02068294601F0E1FE206850F81C1F76
:102290000EE02068294601F015FF206850F81C1F49
:1022A00016E02068294601F03DFF206850F8541FD1
:1022B00041F008010160016821F004010160296911
:1022C0000FE02068294601F057FF206850F8541F9E
:1022D00041F400610160016821F4806101602969B5
:1022E00009020268114301600020002184F83C10BB
:1022F000B0BD58B110B500F06DFD03D100F007FD81
:1023000000F006F800F0BEFD00F024BC012070478C
:1023100081B000680749884209D10748016841F047
:1023200001010160006800F001000090009801B018
:10233000704700BF0000014050450258FEE7000012
:1023400070B52DED048B194E0C463168896B8142B6
:1023500028D03CB300EE101A01EE104AB8EE408AC5
:1023600000EE100AB8EE411AB8EE400A30EE480A04
:1023700080EE019AFEF718F905460120FEF72EF8C7
:10238000FEF712F9401BB0EE481A316800EE100A51
:10239000A042B8EE400A09EE001ABCEEC10A81ED77
:1023A0000E0AEAD3BDEC048B70BD00BF800600248A
:1023B0002DE9F04F03AF91B0814608208A461D46B3
:1023C00016466C460C2B08BF062047F8200C5843D5
:1023D000072101EB4000934920F00700B1F800B05D
:1023E000ADEB000047F8280C85468F48A7F118018F
:1023F00000F10808404601F09DF8A7F1140140469D
:1024000047F8448C01F09CF8A6F1200047F81CBC6A
:1024100047F8409C47F8344CC1B2B86947F82C1CC7
:1024200000286FD07F4857F8146C4FF000085446CE
:102430004FF0000C47F8389C008800BA020C57F89F
:10244000180C47F83C0C794800EB011047F8240CB5
:1024500010465A46A84500F0CC80864657F82C0C0A
:1024600057F8241C0C2D01EB080300EB40017048C9
:1024700000EB810108BF01EB080357F8280C28F096
:1024800001011B7800EB010B70464FF0000E04F1C8
:10249000080147F8301CBEF1070F2ED859B2B1F130
:1024A000FF3F08DC1FFA8CF157F8202C514357F8F6
:1024B0001C2C2BF811000CF1010C1FFA8CF1A94215
:1024C0004FF0000128BF8C4601341FFA84F94E45B5
:1024D00040F29E80A9EB0A015B000EF1010EA942B9
:1024E000D9D157F8381C57F83C3C5446013147F8CD
:1024F000381C89B28B4202D88AE057F8304C08F178
:102500000108A7E79BFA9BF047F8240C57F814BC86
:1025100000264FF0000E47F8489CC748008890FA04
:1025200080F857F8180C47F84C0C404800EB0110A5
:1025300047F8380C5046AE425BD057F82C2C57F871
:10254000381C0C2D314402EB4203394A02EB830361
:1025500008BF99190C7857F8282C47F8306C26F0EA
:102560000101002302EB010900F1080147F83C1CBE
:102570002C490988072B34D861B21FFA8EF20EF16C
:10258000010EB1F1FF3F57F8241CC8BF4FEA1841B4
:1025900057F8206C724329F812101FFA8EF2AA42E3
:1025A0004FF0000228BF964601301FFA80FCE34539
:1025B00057F81C2C2CD9ACEB0A0201336400AA4258
:1025C000D8D1184857F81C2C018057F8480C57F8F8
:1025D0004C1C013047F8480C80B28142504604D868
:1025E00016E01048018057F83C0C57F8306C013663
:1025F000A1E782B057F8200CCDE90005524657F804
:10260000283C57E9110100F0EBFE57F81C2C02B0F2
:102610000448028057F834DCA7F10C04A546BDE855
:10262000F08F00BF10000024800000246DB200086D
:10263000F9AD00082DE9F84F834658180C46DDF82F
:1026400028900B9F02EB0B014FEA590886B25D46BA
:102650001FFA81FA3A78A2F12000C0B25E2811D8A0
:10266000A8B2504524BF5FFA8BF54C44A1B2B142E9
:1026700008D2002000904B46A8B2FFF799FE4544CF
:102680000137E7E7BDE8F88F2DE9F04F87B0694CD7
:102690004FF48070684D694905F1080BA081032053
:1026A000A060584601F094F9654E5846052122462F
:1026B00033689847B268291D58469047DFF884A1CF
:1026C0000021614B0022DAF80000816358460021A6
:1026D000B46AA047FDF768FF05465C485C4E642776
:1026E000A0EB050900F0DAFA012858D00A20FDF71E
:1026F00075FEFDF759FF0446FDF756FFA0EB0508F0
:10270000601BB0F57A7F09D808FB07F04FF47A71A7
:10271000B0FBF1F0DAF800108863E3E7FDF744FF5F
:1027200040F6B831884531D848440A2102ACB0FBA4
:10273000F1F2204647A101F0D9FEDFF8F880102021
:1027400001211023B8F80020CDE90004A2F11E00F9
:1027500080B2FFF76FFF3A483746D8F80460846BC1
:10276000FDF722FFD8F800104844032200924843A6
:102770004FF6FF724FF4FA610192F21E3E46642753
:10278000B0FBF1F358460021A047ABE7401B40F6F1
:10279000B9318842A6D302E00A20FDF71FFE00F0FF
:1027A0007DFA0128F8D000204FF496710024FFF73D
:1027B000C7FD23481F4E00210022856BD6E900305B
:1027C000CDE900045846A84724480290274C10231E
:1027D000102522A0D0E90112CDE90312007B328836
:1027E0008DF8140004200421009502AF0197A04742
:1027F000FDF7D2FE02461EA1384601F077FE328870
:10280000042016211023CDE90057A0470A481CA137
:102810004268384601F06AFE3288042028211023DD
:10282000CDE90057A0476420C82107B0BDE8F04FAC
:10283000FFF786BDC0000024800000246000002453
:102840001400002480060024B049000818FCFFFF93
:1028500000080258253033640000000057654163CA
:10286000742053747564696F0000000035260008F9
:1028700053544D333248377878203078255800004B
:102880004C43442049443A307825580070B586B00E
:10289000254800260596254C0022016841F01001CC
:1028A0000160016801F0100100910099016841F098
:1028B00004010160016801F00401009100990168C0
:1028C00041F080010160016801F0800100910099F0
:1028D000016841F0010101600068082100F0010079
:1028E000009000982046FDF752FE20464FF42051FC
:1028F00001220125FDF74BFE42F6080001900496E7
:10290000CDE9025601AD20462946FDF777FD0220AC
:10291000CDE9026029464FF400500190A4F5006013
:10292000FDF76CFD06B070BD40450258001002581E
:10293000B0B586B0194800244FF08041184DFF22F1
:102940007F23CDE90244CDE90044C0E90054C0E949
:102950000232C0E90444C0E90641FEF7EBFE08B1CB
:10296000FDF737FD1220ADF80400CDE904448DF8E1
:10297000064001A901220948FEF78AFF08B1FDF7C8
:1029800028FD08480090694601220448FEF73AFFF6
:1029900008B1FDF71EFD06B0B0BD00BFD005002494
:1029A0000040005803060122F8B5144C00204FF0F7
:1029B00000514FF0806207234FF4C0254FF480068A
:1029C0000F4F2062C4E90400C4E90900E0624FF03F
:1029D0008040C4E9062160632421C4E90076C4E98B
:1029E000025304F13800FDF784FC2046FEF7BCFFDB
:1029F00018B1BDE8F840FDF7ECBCF8BDF8050024BF
:102A000000340140B0B598B00EA81C21FDF771FC50
:102A100001A83421FDF76DFC2448002440F2E73181
:102A20000D22234BC0E90032C0E90241C0E9044451
:102A30008461FFF75EFC08B1FDF7CBFC1794CDE98C
:102A400015441A4815A9FFF73FFB08B1FDF7C1FC73
:102A50000820119000251495CDE91255CDE90F55A8
:102A6000042260200E900EA91048FFF7EBFB08B17E
:102A7000FDF7AFFC01AC14212046FDF73AFC4FF006
:102A80000070CDE9095021460D950B9507954FF43F
:102A9000005006900548FFF7C9FA08B1FDF799FC08
:102AA0000248FFF7ABFB18B0B0BD00BF80060024A2
:102AB00000000140FEE7FEE7A0221023CDE90084DC
:102AC000FFF7B8BD0D4606464FF4006100222046D0
:102AD000FDF75DBD8DF8EF003946012230465847BD
:102AE0003060FDF761BD001BB0F57A7F7047D4F808
:102AF000840040F48070C4F88400002084F88000D2
:102B0000012084F88100032070474FF40061012206
:102B1000FDF73DBD3046394601227047411B032079
:102B200002297047DAF81C00514640F40030CAF818
:102B30001C0070472860FDF737BD0D4690F8241043
:102B40000446022001297047B4F86A000138A4F84D
:102B50006A007047012084F8480084F83E0084F839
:102B60003F0084F8400084F8410084F8420084F873
:102B7000430084F8440084F8450084F8460084F853
:102B8000470084F83D00002010BD2168B1F1804F5E
:102B9000486C40F40040486470471321002307F15B
:102BA00020044A4620462847201D012100F072B922
:102BB0003846294601228DF813604047DAF8401064
:102BC000002552467047204600F05CBA204600F0CF
:102BD00083BA08461146184704F12400002100F08A
:102BE000B9B9FF22216800284A627047002084F8A2
:102BF00080007047204636214A4600232847DAF8ED
:102C00004810002552467047044690F8800001287D
:102C100070473A4601238DF8EF902047B4F86220C0
:102C2000013AA4F86220E165B4F862B070473A4610
:102C300001238DF8EF502047201D022100F02AB912
:102C40008DF8EF00394601227047DAF8441000256C
:102C50005246704784F881000020C4F88400704711
:102C60000843CAF840007047002084F88000012023
:102C700070473860FDF798BCD4F8009084F8800065
:102C8000FDF792BC0843CAF84800704790F830003E
:102C9000616E0870606E01306066704730464FF4B8
:102CA0000051FDF76FBC3046394601228DF8EF9098
:102CB00058473067306F20F080007047012084F85B
:102CC0008100002084F88000D4F884000028704738
:102CD0000843CAF84400704702400020062A7047A3
:102CE000D4F8840040F02000C4F88400704794F8C1
:102CF000810001287047016821F0010101607047DF
:102D0000E06D30F8021BA9F82010E0657047002044
:102D100084F83C00204670474FF6FC706E1C00F1B2
:102D2000020AC71C70473046394601228DF8EF5021
:102D3000584702F0700291427047E16D04C9026287
:102D4000E16570472068BBF1000F4169704730466C
:102D5000394601228DF8EF80584704F12400022102
:102D600000F0F8B8401BB0F57A7F704741684FF625
:102D7000FF72914339444160016841F001010160F3
:102D80006168B1F5800F70470D188DF8032020465B
:102D90004946012201F0A2BB3060306820F4801067
:102DA0007047B8626FF35F214FF47E4000EB422022
:102DB0004FF0FE4280B208444FF4FE0101EB0341A4
:102DC00001F4FE010844296902EB016101F0FE41B2
:102DD00008447047044690F83D0000287047384684
:102DE0000A2100F0B5BB53214162204600F026B90C
:102DF000016841F40071016070470262B042D1F88D
:102E000000C08B68046A456870470262B842026A73
:102E100046680C688B68456D70473A46012330461A
:102E20002047000240EA0646A8784047086840F07C
:102E300001000860002010BD0D4601204FEAB201DC
:102E400084F83C007047044690F83C000128704725
:102E50003046394601228DF8EF804FF02D08584753
:102E600004F12400012100F075B88A68097B03EBA6
:102E7000C202002906EB080152687047201D00219C
:102E800000F008B8022084F83D00211D206800F001
:102E9000F9BF7047F8B55F4F0546B86A00F0030008
:102EA000032804BF0120F8BD38680C4620F080607C
:102EB000FFF7DFFE06463868000105D5FDF774FB15
:102EC000801B0228F7D941E095E80F00BE6A26F47E
:102ED0007C36013946EA0030FFF763FFB863686962
:102EE000F96A21F0C0010843F862A869F96A21F083
:102EF00020010843F8624FF6F871F86A20F01000DC
:102F0000F862F86B8843E969012C40EAC100F86374
:102F1000F86A40F01000F8624FF4001008BF4FF458
:102F20008010002C08BF4FF40020F96A0843F862B3
:102F3000386840F08060FFF79CFE04463868000166
:102F400006D4FDF731FB001B0328F7D30320F8BD9F
:102F50000020F8BDF8B52F4F0546B86A00F0030011
:102F6000032804BF0120F8BD38680C4620F08050CB
:102F7000FFF77FFE06463868800005D5FDF714FB95
:102F8000801B0228F7D941E095E80F00BE6A26F0C1
:102F90007C76013946EA0050FFF703FF3864686920
:102FA000F96A21F440610843F862A869F96A21F4DA
:102FB00000710843F8624FF6F871F86A20F48070E7
:102FC000F862786C8843E969012C40EAC1007864B2
:102FD000F86A40F48070F8624FF0807008BF4FF4D8
:102FE0000000002C08BF4FF48000F96A0843F86223
:102FF000386840F08050FFF73CFE04463868800097
:1030000006D4FDF7D1FA001B0328F7D30320F8BD3F
:103010000020F8BD004402580928014698BF092144
:10302000CAB20A23B2FBF3F202EB8203A1EB430321
:10303000591A084440EA0210C0B27047F8B5044675
:103040000068C168490619D4C1680026012741F00B
:103050008001C160FDF7A8FA05462168F843C968F8
:1030600040EA9110C0070AD1FDF79EFAFFF77AFEF9
:10307000F3D9032684F825600027EEE70026F0B296
:10308000F8BD0000B0B5134D044655F80C0C20F007
:10309000800045F80C0C2868800607D42046FEF70F
:1030A0004BFC78B1032084F82500B0BD286820F0DF
:1030B000200028602046FEF73FFC28B1032084F85A
:1030C000250002E00020B0BD0020296841F0200169
:1030D0002960B0BD1840005810B5016840F26F3447
:1030E0004A698B6943F008038B618B6943F01003D5
:1030F0008B610B6823F001030B600B69A3430B6129
:103100008B6823F440438B6090F88130042B0BD004
:10311000930609D5D0F8843043F08003C0F884309A
:103120008B6943F020038B6190F88130032B0BD027
:10313000530609D5D0F8843043F00403C0F8843036
:103140008B6943F040038B61930509D5D0F8843037
:1031500043F00103C0F884308B6943F400738B6142
:10316000D20509D5D0F8842042F00802C0F88420A6
:103170008A6942F480728A610021A0F86210A0F886
:103180006A1010BDF8B514460D460646571C306847
:103190004069000708D4FDF707FA002FF7D0401B5D
:1031A000A042F4D30320F8BD0020F8BD00207047F2
:1031B0002DE9F843074600200DF103098DF80300BF
:1031C000234DFFF7EAFC8046FFF709FE2046282141
:1031D0004A460023A8470646FFF701FEFFF70AFD0F
:1031E000DA495A4BFFF741FE08BF42F00802FFF7E9
:1031F000CBFD4042281A18BF4FF0FF30BDE8F883DE
:103200002DE9F843074600200DF103098DF803006E
:103210000F4DFFF7C2FC8046FFF7E1FD2046292154
:103220004A460023A8470646FFF7D9FDFFF7E2FC10
:10323000C649464BFFF719FE08BF42F00802FFF7E8
:10324000A3FD4042281A18BF4FF0FF30BDE8F883B5
:10325000E34400082DE9FE4FDFF8BC9A1E46044601
:103260000F46D3F802B0D3F80AA0D3F81230D9F839
:103270000400D6F816100091801A451A20463946E7
:103280002A4600F043FCE0B9D9F808002F4904F1C0
:1032900020080DF1090251F8300099F80C100029AE
:1032A00008BF40F008008DF8090040463621012390
:1032B00001F017F928B9204639462A4600F0B8FB34
:1032C00020B14FF0FF352846BDE8FE8F5644ABEBEA
:1032D0000A0700250DF10A0A705D514602228DF899
:1032E0000B00701940788DF80A00404601F0F6F89E
:1032F00020B90235BD42EFD3002601E04FF0FF3682
:103300001249D9F808000DF1090201EBC00099F843
:103310000C104068002908BF40F008008DF8090033
:1033200036210123404601F0DCF84FF0FF3500283C
:10333000C9D1D9E90030009000210022204600F0D8
:10334000E5FB002808BF3546BDE700BF60B80008B0
:10335000B0B505461C4658187C4B1B68984203D8EC
:10336000284600F065FB10B14FF0FF30B0BD0B49AF
:10337000049823460131020A2BB101F8020B013BEC
:1033800001F8032CF8E705F120006200034901F081
:10339000A5F8002818BF4FF0FF30B0BDD0000024C2
:1033A0002DE9F0410E466949074698184968884258
:1033B0000ED81C461546DDF818806CB138463146EB
:1033C0002A46434600F084FC0135013C0028F4D035
:1033D0004FF0FF30BDE8F0810020BDE8F08100BF74
:1033E0002DE9FE4F07460C980E46154601445748F6
:1033F0000268914202D94FF0FF393AE0DDF834B06B
:1034000040684FF0FF390BEB0501814231D80C9831
:103410001C464FF000084FF0000A4000029007F1F0
:1034200020000190144801300090DA4520D00AEBCA
:1034300005023846314600F0FBFA10B14FF0FF3874
:1034400013E000980C9941B12278013900F8012C61
:103450006278023400F8022BF5E701980649029AD7
:1034600001F03CF8002818BFC8460AF1010ADCE761
:10347000C1464846BDE8FE8F500300242DE9F843BD
:10348000994615460E460746DDE908485CB13846C0
:1034900031462A464B46CDF80080FFF759FF28B940
:1034A000013C0135F2E70020BDE8F8834FF0FF3022
:1034B000BDE8F8834FF0FF30704700002348806874
:1034C00008600020704700BF2DE9FC47984606467B
:1034D00000F0AEFA0DF10507203681462E21304668
:1034E0003A4600F0F5FF8246114CFFF713FBA04768
:1034F00007460DF1070130460122A04705460DF1B0
:10350000060130460122A0479DF806109DF80720CD
:10351000404242EA0121C8F800100AEB090139448F
:103520002944081A18BF4FF0FF30BDE8FC8700BFE0
:10353000D74400080548006808600020704700BFB5
:103540000248406808600020704700BFC0000024A7
:1035500070B50546C0690C4680470646E869804755
:10356000801BA042FAD370BD2DE9F04FBDB00028FA
:103570003A923C9100F0F98100210DF1EF0700F142
:1035800020068DF8EF100546FA4C00234FF0000995
:10359000304601213A46A047284678213995FFF761
:1035A000D7FF304601213A4600238DF8EF90A0471F
:1035B000389028467821FFF7CBFF30461121FFF7DE
:1035C00028FB37903046B1213A460023A047369079
:1035D000DFF85CB6FFF79EFA01258DF8EF50D8476B
:1035E00035902C20FFF72CFB4FF02C093046D847A4
:1035F00034902D20FFF724FB4FF02D083046D8479C
:1036000033903046B2213A4601238DF8EF504FF007
:10361000010AA04732903046394601228DF8EF90DA
:103620002C25D8473190FFF713FC30903046B3215A
:103630003A4601238DF8EFA04FF00109A0472F90E3
:103640003046394601228DF8EF502C25D8472E9070
:10365000FFF7FEFB2D90FFF726FB2C90FFF763FB97
:103660002B90FFF774FB2A9007208DF8EF00B42110
:103670003A4601234FF007083046A0472990A22080
:103680008DF8EF00C021FFF7C8FB28900220FFF75C
:10369000D7FA4FF002093046D84727908420FFF729
:1036A00019FA2690C5208DF8EF00C121FFF7B5FB70
:1036B00025900A208DF8EF00C221FFF7AEFB249081
:1036C0000020FFF707FA23903046C3213A46012332
:1036D0008A258DF8EF50A04722902A20FFF7FAF9AB
:1036E00021903046C421FFF7A2FA2090EE20FFF788
:1036F000F1F91F900E208DF8EF00C521FFF78DFB2B
:103700001E903A9820213A46007B002808BF2121CC
:1037100030460023A0471D903CAA30463A210123A1
:10372000A0471C903046E021FFF773FA1B901C2045
:10373000FFF7D0F91A90FFF70AFB19901220FFF754
:10374000C9F91890FFF7E6F94FF037088DF8EF80C8
:10375000D84717903220FFF7BDF91690FFF7DAF936
:103760004FF029098DF8EF90D8471590FFF7D2F95F
:103770004FF02D0A8DF8EFA0D8471490FFF793FA79
:1037800013902520FFF7A6F912902B20FFF7A2F93E
:1037900011903920FFF79EF910900020FFF79AF959
:1037A0000F900120FFF796F90E90FFF7B3F903256C
:1037B0008DF8EF50D8470D901020FFF78BF90C9043
:1037C0003046E121FFF733FA0B901D20FFF782F915
:1037D0000A900720FFF77EF909900620FFF77AF993
:1037E0000890FFF797F92E258DF8EF50D8470790EE
:1037F0002C20FFF76FF90690FFF755FA0590FFF7B9
:1038000089F98DF8EFA0D8470490FFF78CFA039060
:10381000FFF789FA0290FFF79AFA01903F20FFF72D
:1038200059F98146FFF776F900248DF8EF40D84723
:103830000546FFF76FF98DF8EF404FF00008D847C5
:1038400082460220FFF746F904461020FFF742F9AE
:10385000DDE9372101238DF8EF801144369A1144B8
:10386000359A1144349A1144339A1144329A1144CE
:10387000319A1144309A11442F9A11442E9A1144CE
:103880002D9A11442C9A11442B9A11442A9A1144CE
:10389000299A1144289A1144279A1144269A1144CE
:1038A000259A1144249A1144239A1144229A1144CE
:1038B000219A1144209A11441F9A11441E9A1144CE
:1038C0001D9A11441C9A11441B9A11441A9A1144CE
:1038D000199A1144189A1144179A1144169A1144CE
:1038E000159A1144149A1144139A1144129A1144CE
:1038F000119A1144109A11440F9A11440E9A1144CE
:103900000D9A11440C9A11440B9A11440A9A1144CD
:10391000099A1144089A1144079A1144069A1144CD
:10392000059A1144049A1144039A1144029A1144CD
:10393000019A11443A4649442944734D5144214463
:103940000C1830461321A8470444304629213A4632
:103950000123A8470444DDE9390100F06BF9404236
:10396000201A18BF4FF0FF3001E04FF0FF303DB09C
:10397000BDE8F08FE34400087CB500F120050DF1AF
:1039800005060C46DA212846324600F0A1FD58B95A
:10399000721C2846DB2100F09BFD28B9B21C28468A
:1039A000DC2100F095FD10B14FF0FF307CBDBDF87B
:1039B00006009DF80510000400BA40EA01402060AE
:1039C00000207CBD0369FFF704B98369FFF701B9E3
:1039D000E8B1B0B50F4A4262D1E90345C0E90345F9
:1039E00000630D4AC2620D4A82620D4A0262D1E949
:1039F0000023C0E900230B8903814B6943618B6974
:103A0000C9698361C161BDE8B04002B110474FF0A0
:103A1000FF307047C5390008CB390008253A000847
:103A20001D3D00084369FFF7D4B84FF0FF307047E1
:103A30002DE9F84F0C46B8498B684D7B012B0AD80D
:103A4000022D10D0012D1BD1097B002912BF183483
:103A500001321A3414E0022D0BD0012D10D1097B54
:103A600061B118320CE0097B012909D1013202341D
:103A700006E0097B012903D1023200E01A32013449
:103A800000F120060DF1030791461F4D2A21002366
:103A900030463A46A8478246200A8DF80300DFF8F0
:103AA0009081394601223046C0478346FFF732F8FD
:103AB0008DF80340C047044630462B213A46002388
:103AC000A84705464FEA19208DF803003946012220
:103AD0003046C0470BEB0A0101228DF803902144C8
:103AE00029440C1830463946C047044430462C213E
:103AF0003A460023044DA8474042201A18BF4FF011
:103B0000FF30BDE8F88F00BFE34400082DE9F04F17
:103B100085B00E4680491C4692468B684A7B012B35
:103B20000BD8022A16D0012A21D1097B002912BF05
:103B300018360AF1010A1A3619E0022A11D0012AB0
:103B400015D1097B0136002914BF0AF1180A0AF1C0
:103B50001A0A0CE0097B012909D10AF1010A02368F
:103B600005E0097B012904BF0AF1020A013600F1D0
:103B700020070DF113052A21002338462A4600F0BC
:103B8000B0FC0390300A8DF81300DFF8A4802946BA
:103B900001223846C0470290FFF70AF80190A019A9
:103BA00029460122441E200A8DF813003846C047DA
:103BB00000903846294601228DF81340C04704463C
:103BC00038462B212A46002300F08BFC81464FEA21
:103BD0001A208DF81300294601223846C047564660
:103BE0008246FEF7E5FF83460E98294601223044BF
:103BF000461E300A8DF813003846C047DDE9022121
:103C00008DF813601144019A1144009A1144012265
:103C100021444944514459440C1838462946C04768
:103C20004042201A18BF4FF0FF3005B0BDE8F08FBA
:103C3000DD4400087CB5044688684A7B012808D822
:103C40009AB1022A11D0012A18D1334AA023502553
:103C500007E072B1022A0CD0012A0FD12E4A50235C
:103C6000A025C2E90053012208E02B4BA0258026A5
:103C700002E0294B8025A026C3E90065264EB060EE
:103C8000087B7273002100223073D6E90030009067
:103C90002046FFF73BFF0546B0680C490DF10702CF
:103CA00001EBC000317B4068002908BF40F00800EC
:103CB0008DF807003621012304F1200000F011FCEB
:103CC0004042281A18BF4FF0FF307CBD60B8000892
:103CD000BCB50446180240EA13200F4BADF80600AD
:103CE0004FF0FF301D688D4214D95B68934211D9A3
:103CF0002046FFF79DFE10B14FF0FF30BCBD04F130
:103D000020000DF10601022200F0E8FB002818BF98
:103D10004FF0FF30BCBD00BFC000002410B51C46F2
:103D2000C368084611462246BDE810401847704750
:103D3000FCF73EBCB0B59CB009A818210C30FCF7CC
:103D4000D8FA01A82021FCF7D4FA0220FCF704FDE0
:103D5000234C00200090206840F440402060206800
:103D600000F440400090009820688004FCD5FCF7E7
:103D700015FD1C480825215821F01801215002206A
:103D80001890CDE91600CDE912000024CDE91A44BF
:103D90001995012070210B9015914FF48030052169
:103DA0001491CDE9091009A8FDF70EFA18B1EFF347
:103DB000108072B6FEE73F2001900594CDE90345DF
:103DC000CDE90644089403210320029001A8FDF7E1
:103DD00073F818B1EFF3108072B6FEE71CB0B0BDF7
:103DE0001848025858FCFFFF10B51E481E4A0168CB
:103DF00041F470010160106800F00F00022804D83F
:103E00001068032161F3030010601848184C016822
:103E100041F001010160002101610368234003605A
:103E2000136813F00C0F04D01368032464F3030326
:103E30001360104A8161C161016282620E4AC262EE
:103E40000E4A026341638263C16302644164026893
:103E500022F4802202600166094843F2D201016027
:103E600010BD00BF88ED00E0002000520044025861
:103E70007FEDF6EA000202020000FF01800201016C
:103E80000040005270B5D04A0368904205D0B0F1AE
:103E9000804F1CBF254CA04234D123F070034C68E6
:103EA000234390420ED0B0F1804F0BD01F4CA04264
:103EB0001CBF1F4CA04205D01E4CA0421CBFC34CCF
:103EC000A04229D1CC6823F4407323434E6923F0E8
:103ED00080030C688D6833430360C562846290423E
:103EE0000BD0BA4A904208D0B94A904205D0B94A9C
:103EF000904202D0B84A904201D109690163012180
:103F0000416170BD0A4CA042C7D0B04CA042C4D0A1
:103F1000084CA042C1D0C6E7AD4CA042D2D0AD4CB7
:103F2000A042CFD0AC4CA042CCD0CFE700040040A0
:103F300000080040000C004010B501F01F010423F0
:103F4000046A8B4002FA01F124EA03030362026A65
:103F50001143016210BD0000F0B5026A9A4E22F0D2
:103F6000010202620A688B68046A456824F0020450
:103F700023438469B0420BD0944FB84208D0944F89
:103F8000B84205D0934FB84202D0934FB84207D100
:103F9000CF6823F00C0327F004073B43B0420BD05B
:103FA0008A4EB04208D08A4EB04205D0894EB04207
:103FB00002D0894EB04205D125F44075D1E905679C
:103FC00035433D4345603E4D2C4022438261496864
:103FD00041630362F0BD00BFF0B5026A7A4E22F081
:103FE0001002FEF70AFF24F0200444EA0313846958
:103FF00003D006F58067B84209D1CF686FF0400260
:1040000023F0C00302EA07121343B0420BD06F4AF9
:10401000904208D06E4A904205D06E4A904202D03B
:104020006D4A904207D1D1E9052625F4406545EA5D
:10403000820242EA86053A4A4560224042EA0C2260
:104040008261496881630362F0BD00BFF0B5026A16
:104050005D4E22F48072FEF7D0FE24F4007444EA30
:104060000323C46903D006F58067B8420AD1CF683C
:1040700040F2FF4223F440633F0227EA0202134367
:10408000B0420BD0514A904208D0514A904205D0DC
:10409000504A904202D0504A904207D1D1E90526B9
:1040A00025F4405545EA021242EA0615044A4560E5
:1040B000224042EA0C02C2614968C1630362F0BD5A
:1040C0008CFFFEFFF0B5026A3F4F22F4805202627D
:1040D000B842026A46680C688B68C5691CBF3B4FD2
:1040E000B84212D14F6926F4804646EA87164660E8
:1040F0000B4E354045EA0424C4614968016422F44A
:10410000005141EA03310162F0BD314FB842E9D0BC
:10411000304FB842E6D0304FB842E3D0E7E700BFB7
:10412000FF8CFFFEF0B5026A274F22F48032FEF7C3
:104130006CFE1CBF254FB84211D14F6926F4803662
:1041400046EA072646600B4E35402C4344654968D5
:10415000816522F4003141EA03410162F0BD1C4F48
:10416000B842EAD01B4FB842E7D01B4FB842E4D068
:10417000E8E700BF8FFFFEFFF0B5026A124F22F49E
:104180008012FEF742FE1CBF104FB84212D14F6999
:1041900026F4802646EA87264660104E354045EADA
:1041A000042444654968C16522F4001141EA0351C1
:1041B0000162F0BD064FB842E9D0064FB842E6D0E2
:1041C000054FB842E3D0E7E700000140000401409A
:1041D000004001400048014000440140FF8FFFFEC5
:1041E000FEE7000010B500F00F03AB4CB0F1FF3F4D
:1041F000034A2344C8BF83180801187010BD00BFCC
:1042000000E400E0FCF7D0B980B503480421FDF7D5
:1042100099FF002080BD00BF800600242DE9FC41ED
:104220009E4C88468DF80700464E4FF400610022F0
:104230002046B04720464FF400510022B047424D7F
:104240000DF10701012264232846FDF71CFD0746F6
:1042500020464FF400510122B04728464146012232
:104260004FF4FA73FDF75EFC054620464FF40061FB
:104270000122B0476842381A18BF4FF0FF30BDE83E
:10428000FC8100BF70B5854CFEF71CFCAAB22E481D
:1042900031464FF4FA73FDF745FC05462046FEF71C
:1042A00034FC002D18BF4FF0FF35284670BD00BF0D
:1042B00070B57A4CFEF706FCAAB223483146642357
:1042C000FDF7E1FC05462046FEF71FFC002D18BF58
:1042D0004FF0FF35284670BD2DE9FC476F4D17465E
:1042E00088468DF80700DFF85CA04FF400610022DB
:1042F00000242846D04728464FF400510022D047DA
:1043000011480DF1070101226423FDF7BCFC0646AC
:1043100028464FF400510122A946D0473FB1BAB216
:10432000094841464FF4FA73FDF7ADFC0644484690
:10433000FEF7EBFB002EC8BF4FF0FF342046BDE870
:10434000FC8700BF8F050008F80500248EB0524896
:104350000168890312D4BFF34F8F0021BFF36F8F21
:10436000C0F83C12BFF34F8FBFF36F8F016841F469
:1043700000310160BFF34F8FBFF36F8F0168C90336
:1043800026D40021016743F6E07CBFF34F8FC26E55
:10439000C2F3C903C2F34E319A0701330CEA411547
:1043A00016461F4646EA050406F14046013FC0F89E
:1043B0004C42F7D14C1E00292146EFD1BFF34F8F5D
:1043C000016841F480310160BFF34F8FBFF36F8FFD
:1043D00001200990FCF76AF940F201100C9048F2B4
:1043E0001F700B9000200A9009AC2046FCF738F9AA
:1043F0000420FCF765F9FCF7E5F8FFF79BFCFEF7F6
:1044000045FAFEF795FAFEF7CFFAFEF7FBFAFEF74C
:104410003BF9224D224E0DF120090FF2880A0FF2CE
:10442000940B4FF0100827A7304603A90022FDF790
:104430004EF9304649460022FDF71EF99DF80E0060
:104440009DF80C209DF80D305946C00708BF514615
:10445000204600F04BF804203A21FEF72DFBFCF734
:10446000A3F802462046394600F040F804204A21CD
:10447000FEF722FB284608210122FCF788F80220DB
:10448000FBF7ACFF284608210022FCF780F840F239
:10449000F310FBF7A3FFC7E714ED00E0001002588C
:1044A000D005002454696D653A20253032642025FA
:1044B0003032640054696D653A20253032643A2503
:1044C000303264005469636B3A202564206D7300B8
:1044D000436800691847D0E90330184783680069CA
:1044E0001847D0F800C00069604700000FB4084BBF
:1044F00010B504A902AA039800F01CF8044602A90A
:10450000002000F048FA204610BC5DF814FB0000C3
:104510009749000802E008C8121F08C1002AFAD112
:1045200070477047002001E001C1121F002AFBD133
:10453000704700002DE9FF4F8DB00F46054600265D
:1045400006E025280BD0DDE90F1290476D1C761C84
:1045500028780028F5D111B03046BDE8F08F00244E
:10456000A246A1460122EC4900E0044315F8013FB0
:10457000203B02FA03F00842F7D128782A2810D00D
:104580006FF02F022878A0F13001092914D80AEB26
:104590008A0102EB410144F0020400EB010A6D1CA8
:1045A000F0E701CF5FEA000A03D544F40054CAF1F2
:1045B000000A44F002046D1C28782E2817D115F843
:1045C000010F44F004042A280ED06FF02F0228783F
:1045D000A0F1300109290AD809EB890102EB410158
:1045E00000EB01096D1CF2E757F8049B6D1C28785D
:1045F0006C280FD006DC4C2817D068280DD06A280C
:1046000014D104E0742810D07A280FD10DE044F4BE
:1046100000140AE044F4801401E044F44014697882
:10462000814202D104F580146D1C6D1C2A786E2A1B
:104630001FD00CDC632A31D004DC002A8BD0582A2E
:1046400011D1A3E0642A68D0692A0CD165E0732AED
:104650002ED004DC6F2A73D0702A04D19BE0752A17
:104660006FD0782A6ED01046DDE90F129047761C85
:1046700050E1C4F30250022806D0032809D00428D0
:1046800001CF09D0066045E101CFF117C0E9006113
:1046900040E101CF06803DE106703BE117F8040BD5
:1046A0008DF8000000208DF80100EB46012003E0AA
:1046B00057F804BB4FF0FF3061074FF0000102D400
:1046C0000DE008F10101884649450FDA8045F8DB25
:1046D0001BF808100029F4D108E008F10101884610
:1046E0008142FADB1BF808100029F6D1DDE90F231F
:1046F000AAEB08008146214600F036F9304400EB71
:10470000080604E0DDE90F121BF8010B9047B8F131
:104710000108F7D221464846F7E00A21C4F30253C4
:104720004FF0000B0891022B04D001CFC117032BCF
:1047300009D00AE0FF1D27F00707F7E8020108E0AB
:1047400032E01FE020E000B2C117042B01D140B2DB
:10475000C117031E71F1000307DA4FF0000CD0EB14
:104760000C006CEB01012D2302E0230504D52B2363
:104770008DF82430012303E0E30701D02023F7E77D
:10478000984658E00A2110E010210EE010204FF06A
:10479000000B08900CE010214FF0000B44F00404D3
:1047A0004FF00809089103E008214FF0000B089131
:1047B000C4F30253022B04D001CF0021032B06D0F7
:1047C00006E0FF1D27F00707F7E8020103E080B2CB
:1047D000042B00D1C0B24FF0000823072BD5702A5C
:1047E00007D0DDF820C08CF0100C5CEA0B0C05D073
:1047F0000EE040238DF82430012308E050EA010345
:1048000006D030238DF824308DF8252002239846D9
:10481000DDF820C08CF0080C5CEA0B0C0BD150EAE0
:10482000010301D1630706D530238DF824304FF002
:104830000108A9F10109582A04D038A20B9208AA4C
:104840000A920BE03AA2F9E75B46089AFBF75CFD97
:104850000B9B9B5C0A9A521E0A92137050EA01024B
:10486000F2D10A98ADEB000000F1200B600702D5F1
:1048700024F4803401E04FF00109D94502DDA9EBB1
:104880000B0000E0002000EB0B0141440890AAEB74
:10489000010AE00306D4DDE90F232146504600F06B
:1048A00063F806444FF0000908E009A911F809006F
:1048B000DDE90F12904709F10109761CC145F4DBCF
:1048C000E0030CD5DDE90F232146504600F04CF8FB
:1048D000064404E0DDE90F1230209047761C089969
:1048E000481E08900029F5DC08E00A980A9900782B
:1048F000491C0A91DDE90F129047761CBBF10001BB
:10490000ABF1010BF1DC21465046DDE90F2300F04D
:1049100019F806446D1C1BE60928010030313233BA
:1049200034353637383961626364656600000000EB
:1049300030313233343536373839414243444546D5
:10494000000000002DE9F041044600251E461746F0
:10495000880404D405E039462020B0476D1C641E4D
:10496000F9D52846BDE8F0812DE9F041044600253F
:104970001E469046C80301D5302700E02027880452
:1049800004D505E041463846B0476D1C641EF9D594
:104990002846BDE8F0810A68531C0B601070704710
:1049A00000000000010203040102030406070809D5
:1049B000424D48640000000000004600000038003E
:1049C0000000A000000050000000010010000300E3
:1049D000000002640000120B0000120B0000000037
:1049E00000000000000000F80000E00700001F00C9
:1049F00000000000000000000000000000000000B7
:104A000000000000000000000000000000000000A6
:104A10000000000000000000000000000000000096
:104A20000000000000000000000000000000000086
:10596000000008422D6B2D6B2D6B242100000000E0
:105970000000000000000000000000000000000027
:105980000000000000000000000000000000000017
:105990000000000000000000000000000000000007
:1059A00000000000000000000000000000000000F7
:1059B00000000000000000000000000000000000E7
:1059C00000000000000000000000000000000000D7
:1059D00000000000000000000000000000000000C7
:1059E00000000000000000000000000000000000B7
:1059F00000000000000000000000000000000000A7
:105A00000000000000000000000000000000000096
:105A10000000000000000000000000000000000086
:105A20000000000000000000000000000000000076
:105A30000000000000000000000000000000000066
:105A40000000000000000000000000000000000056
:105A50000000000000000000000000000000000046
:105A60000000000000000000000000000000000036
:105A70000000000000000000000000000000000026
:105A80000000000000000000000000000000000016
:105A90000000000000000000000000000842D7BD28
:105AA000BEF7BEF79AD69AD6BEF7FFFF5CE7D7BD22
:105AB000AA520000000000000000000000000000EA
:105AC00000003084FBDEFFFFFFFFBEF7D7BD2D6B6C
:105AD000000000000000000000000842D7BD5CE7A5
:105AE000FFFFFFFFBEF738C6308424210000AA5212
:105AF0009AD69AD69AD69AD69AD69AD69AD6000096
:105B000000000000000000000000242114A5FBDEBE
:105B1000FFFFFFFF5CE714A52421000075AD9AD6B6
:105B20009AD69AD69AD69AD69AD630840000000091
:105B300030849AD69AD69AD69AD69AD69AD675ADEF
:105B40000000000000000000000000000000CF7B0B
:105B500038C65CE7FFFFFFFFFBDED7BDAA5200009F
:105B60000000000000000000000000000000000035
:105B70000000000000000000000000000000000025
:105B80000000000000000000000000000000000015
:105B90000000000000000000000000000000000005
:105BA00000000000000000000000000000000000F5
:105BB00000000000000000000000000000000000E5
:105BC00000000000000000000000000000000000D5
:105BD0000000000000000000242175ADFFFFD7BDCC
:105BE000AA520000000000002421FFFFFFFFFFFF7A
:105BF000FFFF38C624210000000000000000000064
:105C0000D7BDFFFFFFFFFFFFFFFFFFFFFFFFFFFF0E
:105C100075AD000000000000CF7BFFFFFFFFFFFF1E
:105C2000FFFFFFFFFFFFFFFFFFFFBEF714A52D6B78
:105C3000FFFFFFFFFFFFFFFFFFFFFFFFFFFF000072
:105C400000000000000000003084BEF7FFFFFFFFEF
:105C5000FFFFFBDE14A5FBDE5CE7AA529AD6FFFF2E
:105C6000FFFFFFFFFFFFFFFFFFFF14A50000000085
:105C700014A5FFFFFFFFFFFFFFFFFFFFFFFF9AD607
:105C80000000000000000000000008429AD6FFFF5C
:105C9000FFFFFFFF14A500000842B2945CE738C67E
:105CA00024210000000000000000000000000000AF
:105CB00000000000000000000000000000000000E4
:105CC00000000000000000000000000000000000D4
:105CD00000000000000000000000000000000000C4
:105CE00000000000000000000000000000000000B4
:105CF00000000000000000000000000000000000A4
:105D00000000000000000000000000000000000093
:105D10000000000000002421FBDEFBDEAA52000090
:105D200000000000000000002D6BFFFFFFFFFFFFE1
:105D3000FFFFFFFFFBDE00000000000000003084DA
:105D4000FFFFFFFFFFFFFFFFFFFFFFFFB2940842CF
:105D5000FBDEB29400002421BEF7FFFFFFFFFFFF30
:105D6000FFFFFFFFBEF72421000030845CE7BEF791
:105D7000FFFFFFFFFFFFFFFFFFFFFFFFFFFF000031
:105D80000000000000003084FFFFFFFFFFFFFFFF67
:105D9000FFFF2D6B00000000B294BEF75CE7FFFF31
:105DA000FFFFFFFFFFFFFFFFFFFF14A50000000044
:105DB00014A5FFFFFFFFFFFFFFFFFFFFFFFF9AD6C6
:105DC0000000000000000000AA52BEF7FFFFFFFF26
:105DD000FFFFFFFF14A5000000000000000014A555
:105DE000FBDE242100000000000000000000000095
:105DF00000000000000000000000000000000000A3
:105E00000000000000000000000000000000000092
:105E10000000000000000000000000000000000082
:105E20000000000000000000000000000000000072
:105E30000000000000000000000000000000000062
:105E40000000000000000000000000000000000052
:105E5000000000000000084238C6242100000000B5
:105E60000000000000000842BEF7FFFFFFFFFFFF39
:105E7000FFFFFFFFFFFF14A50000000000009AD6FF
:105E8000FFFFFFFFFFFFFFFFFFFFFFFF2D6B000086
:105E900008425CE72421CF7BFFFFFFFFFFFFFFFFEE
:105EA000FFFFFFFF9AD6000000000000000075AD64
:105EB000FFFFFFFFFFFFFFFFFFFFFFFFFFFF0000F0
:105EC000000000002D6BFFFFFFFFFFFFFFFFFFFF44
:105ED000FFFF2D6B0000000000003084FFFFFFFF7C
:105EE000FFFFFFFFFFFFFFFFFFFF14A50000000003
:105EF00014A5FFFFFFFFFFFFFFFFFFFFFFFF9AD685
:105F00000000000000002421BEF7FFFFFFFFFFFF9D
:105F1000FFFFFFFF14A500000000000000000000CC
:105F2000B2949AD6000000000000000000000000BB
:105F30000000000000000000000000000000000061
:105F40000000000000000000000000000000000051
:105F50000000000000000000000000000000000041
:105F60000000000000000000000000000000000031
:105F70000000000000000000000000000000000021
:105F80000000000000000000000000000000000011
:105F90000000000000000000000000000000000001
:105FA000000000002421FBDEFFFFFFFFFFFFFFFFDB
:105FB000FFFFFFFFFFFF5CE7000000000000FFFFA6
:105FC000FFFFFFFFFFFFFFFFFFFFFFFF2D6B000045
:105FD0000000D7BD2D6B14A5FFFFFFFFFFFFFFFFE4
:105FE000FFFFFFFF9AD600000000000000002D6BAD
:105FF000FFFFFFFFFFFFFFFFFFFFFFFFFFFF0000AF
:10600000000000005CE7FFFFFFFFFFFFFFFFFFFF57
:10601000FFFF2D6B00000000000000009AD6FFFF7C
:10602000FFFFFFFFFFFFFFFFFFFF14A500000000C1
:1060300014A5FFFFFFFFFFFFFFFFFFFFFFFF9AD643
:10604000000000000000D7BDFFFFFFFFFFFFFFFFC4
:10605000FFFFFFFF14A5000000000000000000008B
:1060600000009AD63084000000000000000000000C
:106070000000000000000000000000000000000020
:106080000000000000000000000000000000000010
:106090000000000000000000000000000000000000
:1060A00000000000000000000000000000000000F0
:1060B00000000000000000000000000000000000E0
:1060C00000000000000000000000000000000000D0
:1060D00000000000000000000000000000000000C0
:1060E00000002421FBDEFFFFFFFFFFFFFFFFFFFF9C
:1060F000FFFFFFFFFFFFFFFF000000000000FFFFAA
:10610000FFFFFFFFFFFFFFFFFFFFFFFF2D6B000003
:1061100000000000000014A5FFFFFFFFFFFFFFFFCE
:10612000FFFFFFFF9AD600000000000000002D6B6B
:10613000FFFFFFFFFFFFFFFFFFFFFFFFFFFF00006D
:106140000000CF7BFFFFFFFFFFFFFFFFFFFFFFFF11
:10615000FFFF2D6B00000000000000009AD6FFFF3B
:10616000FFFFFFFFFFFFFFFFFFFF14A50000000080
:1061700014A5FFFFFFFFFFFFFFFFFFFFFFFF9AD602
:10618000000000002421FFFFFFFFFFFFFFFFFFFFD4
:10619000FFFFFFFF14A5000000000000000000004A
:1061A00000002D6B9AD600000000000000000000E7
:1061B00000000000000000000000000000000000DF
:1061C00000000000000000000000000000000000CF
:1061D00000000000000000000000000000000000BF
:1061E00000000000000000000000000000000000AF
:1061F000000000000000000000000000000000009F
:10620000000000000000000000000000000000008E
:10621000000000000000000000000000000000007E
:106220002421FBDEFFFFFFFFFFFFFFFFFFFFFFFF5C
:10623000FFFFFFFFFFFFBEF7000000000000FFFFB1
:10624000FFFFFFFFFFFFFFFFFFFFFFFF2D6B0000C2
:1062500000000000000014A5FFFFFFFFFFFFFFFF8D
:10626000FFFFFFFF9AD600000000000000002D6B2A
:10627000FFFFFFFFFFFFFFFFFFFFFFFFFFFF00002C
:10628000000075ADFFFFFFFFFFFFFFFFFFFFFFFFF8
:10629000FFFF2D6B00000000000000009AD6FFFFFA
:1062A000FFFFFFFFFFFFFFFFFFFF14A5000000003F
:1062B00014A5FFFFFFFFFFFFFFFFFFFFFFFF9AD6C1
:1062C00000000000CF7BFFFFFFFFFFFFFFFFFFFF8E
:1062D000FFFFFFFF14A50000000000000000000009
:1062E00000000000BEF724210000000000000000B4
:1062F000000000000000000000000000000000009E
:10630000000000000000000000000000000000008D
:10631000000000000000000000000000000000007D
:10632000000000000000000000000000000000006D
:10633000000000000000000000000000000000005D
:10634000000000000000000000000000000000004D
:1063500000000000000000000000000000002421F8
:10636000FBDEFFFFFFFFFFFFFFFFFFFFFFFFFFFF62
:10637000FFFFFFFFFFFFD7BD000000000000FFFF91
:10638000FFFFFFFFFFFFFFFFFFFFFFFF2D6B000081
:1063900000000000000014A5FFFFFFFFFFFFFFFF4C
:1063A000FFFFFFFF9AD600000000000000002D6BE9
:1063B000FFFFFFFFFFFFFFFFFFFFFFFFFFFF0000EB
:1063C00000009AD6FFFFFFFFFFFFFFFFFFFFFFFF69
:1063D000FFFF2D6B00000000000000009AD6FFFFB9
:1063E000FFFFFFFFFFFFFFFFFFFF14A500000000FE
:1063F00014A5FFFFFFFFFFFFFFFFFFFFFFFF9AD680
:106400000000000014A5FFFFFFFFFFFFFFFFFFFFDD
:10641000FFFFFFFF14A500000000000000000000C7
:10642000000000009AD62D6B000000000000000064
:10643000000000000000000000000000000000005C
:10644000000000000000000000000000000000004C
:10645000000000000000000000000000000000003C
:10646000000000000000000000000000000000002C
:10647000000000000000000000000000000000001C
:10648000000000000000000000000000000000000C
:106490000000000000000000000000000000D7BD68
:1064A000FFFFFFFFFFFFFFFFFFFFFFFFFFFFFFFFFC
:1064B000FFFFFFFFFFFF0842000000000000FFFF9A
:1064C000FFFFFFFFFFFFFFFFFFFFFFFF2D6B000040
:1064D00000000000000014A5FFFFFFFFFFFFFFFF0B
:1064E000FFFFFFFF9AD600000000000000002D6BA8
:1064F000FFFFFFFFFFFFFFFFFFFFFFFFFFFF0000AA
:1065000000009AD6FFFFFFFFFFFFFFFFFFFFFFFF27
:10651000FFFF2D6B00000000000000009AD6FFFF77
:10652000FFFFFFFFFFFFFFFFFFFF14A500000000BC
:1065300014A5FFFFFFFFFFFFFFFFFFFFFFFF9AD63E
:106540000000000014A5FFFFFFFFFFFFFFFFFFFF9C
:10655000FFFFFFFF14A50000000000000000000086
:10656000000000009AD62D6B000000000000000023
:10657000000000000000000000000000000000001B
:10658000000000000000000000000000000000000B
:1065900000000000000000000000000000000000FB
:1065A00000000000000000000000000000000000EB
:1065B00000000000000000000000000000000000DB
:1065C00000000000000000000000000000000000CB
:1065D00000000000000000000000000075ADFFFF9B
:1065E000FFFFFFFFFFFFFFFFFFFFFFFFFFFFFFFFBB
:1065F000FFFFFFFF14A50000000000000000FFFFE8
:10660000FFFFFFFFFFFFFFFFFFFFFFFF2D6B0000FE
:1066100000000000000014A5FFFFFFFFFFFFFFFFC9
:10662000FFFFFFFF9AD600000000000000002D6B66
:10663000FFFFFFFFFFFFFFFFFFFFFFFFFFFF000068
:1066400000009AD6FFFFFFFFFFFFFFFFFFFFFFFFE6
:10665000FFFF2D6B00000000000000009AD6FFFF36
:10666000FFFFFFFFFFFFFFFFFFFF14A5000000007B
:1066700014A5FFFFFFFFFFFFFFFFFFFFFFFF9AD6FD
:1066800000000000B294FFFFFFFFFFFFFFFFFFFFCE
:10669000FFFFFFFF14A50000000000000000000045
:1066A000000000005CE7084200000000000000005D
:1066B00000000000000000000000000000000000DA
:1066C00000000000000000000000000000000000CA
:1066D00000000000000000000000000000000000BA
:1066E00000000000000000000000000000000000AA
:1066F000000000000000000000000000000000009A
:106700000000000000000000000000000000000089
:1067100000000000000000000000CF7BFFFFFFFF33
:10672000FFFFFFFFFFFFFFFFFFFFFFFFFFFFFFFF79
:10673000FFFF38C600000000000000000000FFFF5F
:10674000FFFFFFFFFFFFFFFFFFFFFFFF2D6B0000BD
:1067500000000000000014A5FFFFFFFFFFFFFFFF88
:10676000FFFFFFFF9AD600000000000000002D6B25
:10677000FFFFFFFFFFFFFFFFFFFFFFFFFFFF000027
:10678000000014A5FFFFFFFFFFFFFFFFFFFFFFFF5C
:10679000FFFF2D6B00000000000000009AD6FFFFF5
:1067A000FFFFFFFFFFFFFFFFFFFF14A5000000003A
:1067B00014A5FFFFFFFFFFFFFFFFFFFFFFFF9AD6BC
:1067C00000000000AA52FFFFFFFFFFFFFFFFFFFFD7
:1067D000FFFFFFFF14A50000000000000000000004
:1067E00000000842BEF700000000000000000000AA
:1067F0000000000000000000000000000000000099
:106800000000000000000000000000000000000088
:106810000000000000000000000000000000000078
:106820000000000000000000000000000000000068
:106830000000000000000000000000000000000058
:106840000000000000000000000000000000000048
:1068500000000000000000002421BEF7FFFFFFFF42
:10686000FFFFFFFFFFFFFFFFFFFFFFFFFFFFFFFF38
:10687000FBDE242100000000000000000000FFFFFC
:10688000FFFFFFFFFFFFFFFFFFFFFFFF2D6B00007C
:1068900000000000000014A5FFFFFFFFFFFFFFFF47
:1068A000FFFFFFFF9AD600000000000000002D6BE4
:1068B000FFFFFFFFFFFFFFFFFFFFFFFFFFFF0000E6
:1068C0000000AA52FFFFFFFFFFFFFFFFFFFFFFFFD8
:1068D000FFFF2D6B00000000000000009AD6FFFFB4
:1068E000FFFFFFFFFFFFFFFFFFFF14A500000000F9
:1068F00014A5FFFFFFFFFFFFFFFFFFFFFFFF9AD67B
:106900000000000000005CE7FFFFFFFFFFFFFFFF4C
:10691000FFFFFFFF14A500000000000000000000C2
:10692000000014A575AD000000000000000000008C
:106930000000000000000000000000000000000057
:106940000000000000000000000000000000000047
:106950000000000000000000000000000000000037
:106960000000000000000000000000000000000027
:106970000000000000000000000000000000000017
:106980000000000000000000000000000000000007
:10699000000000000000000014A5FFFFFFFFFFFF44
:1069A000FFFFFFFFFFFFFFFFFFFFFFFFFFFF5CE7B2
:1069B0002421000000000000000000000000FFFF94
:1069C000FFFFFFFFFFFFFFFFFFFFFFFF2D6B00003B
:1069D00000000000000014A5FFFFFFFFFFFFFFFF06
:1069E000FFFFFFFF9AD600000000000000002D6BA3
:1069F000FFFFFFFFFFFFFFFFFFFFFFFFFFFF0000A5
:106A00000000000038C6FFFFFFFFFFFFFFFFFFFF92
:106A1000FFFF2D6B00000000000000009AD6FFFF72
:106A2000FFFFFFFFFFFFFFFFFFFF14A500000000B7
:106A300014A5FFFFFFFFFFFFFFFFFFFFFFFF9AD639
:106A4000000000000000CF7BFFFFFFFFFFFFFFFF04
:106A5000FFFFFFFF14A50000000000000000000081
:106A6000AA525CE7242100000000000000000000A2
:106A70000000000000000000000000000000000016
:106A80000000000000000000000000000000000006
:106A900000000000000000000000000000000000F6
:106AA00000000000000000000000000000000000E6
:106AB00000000000000000000000000000000000D6
:106AC00000000000000000000000000000000000C6
:106AD00000000000000000005CE7FFFFFFFFFFFF79
:106AE000FFFFFFFFFFFFFFFFFFFFFFFFBEF7AA5201
:106AF0000000000000000000000000000000FFFF98
:106B0000FFFFFFFFFFFFFFFFFFFFFFFF2D6B0000F9
:106B100000000000000014A5FFFFFFFFFFFFFFFFC4
:106B2000FFFFFFFF9AD600000000000000002D6B61
:106B3000FFFFFFFFFFFFFFFFFFFFFFFFFFFF000063
:106B40000000000024215CE7FFFFFFFFFFFFFFFFC5
:106B5000FFFF2D6B00000000000024215CE7FFFF19
:106B6000FFFFFFFFFFFFFFFFFFFF14A50000000076
:106B700014A5FFFFFFFFFFFFFFFFFFFFFFFF9AD6F8
:106B80000000000000000000D7BDFFFFFFFFFFFF77
:106B9000FFFFFFFF14A50000000000000000AA5244
:106BA000BEF730840000000000000000000000007C
:106BB00000000000000000000000000000000000D5
:106BC00000000000000000000000000000000000C5
:106BD00000000000000000000000000000000000B5
:106BE00000000000000000000000000000000000A5
:106BF0000000000000000000000000000000000095
:106C00000000000000000000000000000000000084
:106C10000000000000000000FFFFFFFFFFFFFFFF7C
:106C2000FFFFFFFFFFFFFFFFFFFFBEF7AA520000BD
:106C30000000000000000000000000000000FFFF56
:106C4000FFFFFFFFFFFFFFFFFFFFFFFF2D6B0000B8
:106C500000000000000014A5FFFFFFFFFFFFFFFF83
:106C6000FFFFFFFF9AD600000000000000002D6B20
:106C7000FFFFFFFFFFFFFFFFFFFFFFFFFFFF000022
:106C8000000000000000AA52FBDEFFFFFFFFFFFF35
:106C9000FFFF2D6B000000002D6BFBDE5CE7FFFFAC
:106CA000FFFFFFFFFFFFFFFFFFFF14A50000000035
:106CB00014A5FFFFFFFFFFFFFFFFFFFFFFFF9AD6B7
:106CC0000000000000000000000075ADFFFFFFFFA6
:106CD000FFFFFFFF14A5000000000000B2945CE776
:106CE00030840000000000000000000000000000F0
:106CF0000000000000000000000000000000000094
:106D00000000000000000000000000000000000083
:106D10000000000000000000000000000000000073
:106D20000000000000000000000000000000000063
:106D30000000000000000000000000000000000053
:106D40000000000000000000000000000000000043
:106D50000000000000000000FFFFFFFFFFFFFFFF3B
:106D6000FFFFFFFFFFFFFFFFFFFFAA520000000031
:106D7000000000000000000008429AD69AD6FFFFEB
:106D8000FFFFFFFFFFFFFFFFFFFFFFFFFBDE9AD6C6
:106D90009AD63084000014A5FFFFFFFFFFFFFFFF1E
:106DA000FFFFFFFF9AD600000000000000002D6BDF
:106DB000FFFFFFFFFFFFFFFFFFFFFFFFFFFF0000E1
:106DC0000000000000000000242114A5BEF7FFFF12
:106DD000FFFFFBDE14A5FBDE9AD608429AD6FFFF22
:106DE000FFFFFFFFFFFFFFFFFFFF14A500000000F4
:106DF00014A5FFFFFFFFFFFFFFFFFFFFFFFF9AD676
:106E00000000000000000000000000002D6B9AD67A
:106E1000FFFFFFFF9AD614A5D7BDBEF7D7BD084226
:106E20000000000000000000000000000000000062
:106E30000000000000000000000000000000000052
:106E40000000000000000000000000000000000042
:106E50000000000000000000000000000000000032
:106E60000000000000000000000000000000000022
:106E70000000000000000000000000000000000012
:106E80000000000000000000000000000000000002
:106E9000000000000000000038C6FFFFFFFFFFFFFA
:106EA000FFFFFFFFFFFFFFFF308400000000000036
:106EB000000000000000000024212D6B2D6BFFFF5F
:106EC000FFFFFFFFFFFFFFFFFFFFFFFF2D6B2D6B9E
:106ED0002D6B0842000008422D6B2D6B2D6B2D6B26
:106EE0002D6B2D6BAA520000000000000000242131
:106EF0002D6B2D6B2D6B2D6B2D6B2D6B2D6B00006A
:106F000000000000000000000000000000002D6BE9
:106F100014A514A530840842000000009AD6FFFF93
:106F2000FFFFFFFFFFFFFFFFFFFF14A500000000B2
:106F300008422D6B2D6B2D6B2D6B2D6B2D6BAA527B
:106F40000000000000000000000000000000000041
:106F50000842308414A514A5CF7B24210000000032
:106F60000000000000000000000000000000000021
:106F70000000000000000000000000000000000011
:106F80000000000000000000000000000000000001
:106F900000000000000000000000000000000000F1
:106FA00000000000000000000000000000000000E1
:106FB00000000000000000000000000000000000D1
:106FC00000000000000000000000000000000000C1
:106FD0000000000000000000AA52FFFFFFFFFFFFBB
:106FE000FFFFFFFFFFFF14A50000000000000000EE
:106FF0000000AA52AA520000000000000000FFFF9B
:10700000FFFFFFFFFFFFFFFFFFFFFFFF2421000047
:107010000000000000000000000000000000000070
:107020000000000000000000000000000000000060
:107030000000000000000000000000000000000050
:107040000000000000000000000000000000000040
:107050000000000000000000000000009AD6FFFFC2
:10706000FFFFFFFFFFFFFFFFFFFF14A50000000071
:1070700000002421308414A514A5308408420000A7
:107080000000000000000000000000000000000000
:1070900000000000000000000000000000000000F0
:1070A00000000000000000000000000000000000E0
:1070B00000000000000000000000000000000000D0
:1070C00000000000000000000000000000000000C0
:1070D00000000000000000000000000000000000B0
:1070E00000000000000000000000000000000000A0
:1070F0000000000000000000000000000000000090
:10710000000000000000000000000000000000007F
:10711000000000000000000000003084FFFFFFFFBF
:10712000FFFFFFFFFFFF2421000000000000000020
:10713000B294FFFF2D6B0000000000000000084229
:1071400014A55CE7FFFFFFFFFFFFFFFF2D6B0000B3
:10715000000000000000000000000000000000002F
:10716000000000000000000000000000000000001F
:10717000000000000000000000000000000000000F
:1071800000000000000000000000000000000000FF
:107190000000000000000000000000009AD6FFFF81
:1071A000FFFFFFFFFFFFFFFFFFFF14A50000000030
:1071B0000842BEF7FFFFFFFFFFFFFFFFBEF7CF7BD9
:1071C00000000000000000000000000000000000BF
:1071D00000000000000000000000000000000000AF
:1071E000000000000000000000000000000000009F
:1071F000000000000000000000000000000000008F
:10720000000000000000000000000000000000007E
:10721000000000000000000000000000000000006E
:10722000000000000000000000000000000000005E
:10723000000000000000000000000000000000004E
:10724000000000000000000000000000000000003E
:10725000000000000000000000000000AA529AD6C2
:10726000FFFFFFFFFFFF14A52D6B2D6B75AD5CE7D6
:107270009AD6AA52000000000000000000000000A2
:107280000000000030845CE7FFFFFFFF2D6B000073
:1072900000000000000000000000000000000000EE
:1072A00000000000000000000000000000000000DE
:1072B00000000000000000000000000000000000CE
:1072C00000000000000000000000000000000000BE
:1072D0000000000000000000000000009AD6FFFF40
:1072E000FFFFFFFFFFFFFFFFFFFF14A500000000EF
:1072F00014A5FFFFFFFFFFFFFFFFFFFFFFFF9AD671
:10730000000000000000000000000000000000007D
:10731000000000000000000000000000000000006D
:10732000000000000000000000000000000000005D
:10733000000000000000000000000000000000004D
:10734000000000000000000000000000000000003D
:10735000000000000000000000000000000000002D
:10736000000000000000000000000000000000001D
:10737000000000000000000000000000000000000D
:1073800000000000000000000000000000000000FD
:1073900000000000000000000000000000000000ED
:1073A0000842B294D7BD9AD69AD638C614A5AA5226
:1073B00000000000000000000000000000000000CD
:1073C000000000000000000030845CE72D6B00002E
:1073D00000000000000000000000000000000000AD
:1073E000000000000000000000000000000000009D
:1073F000000000000000000000000000000000008D
:10740000000000000000000000000000000000007C
:10741000000000000000000000000000AA522D6BD8
:107420002D6B2D6B2D6B2D6B2D6B0842000000001A
:107430002D6BFFFFFFFFFFFFFFFFFFFFFFFF14A507
:10744000000000000000000000000000000000003C
:10745000000000000000000000000000000000002C
:10746000000000000000000000000000000000001C
:10747000000000000000000000000000000000000C
:1074800000000000000000000000000000000000FC
:1074900000000000000000000000000000000000EC
:1074A00000000000000000000000000000000000DC
:1074B00000000000000000000000000000000000CC
:1074C00000000000000000000000000000000000BC
:1074D00000000000000000000000000000000000AC
:1074E000000000000000000000000000000000009C
:1074F000000000000000000000000000000000008C
:1075000000000000000000000000242124210000F1
:10751000000000000000000000000000000000006B
:10752000000000000000000000000000000000005B
:10753000000000000000000000000000000000004B
:10754000000000000000000000000000000000003B
:10755000000000000000000000000000000000002B
:10756000000000000000000000000000000000001B
:1075700000002D6BD7BD9AD69AD638C6308400004D
:1075800000000000000000000000000000000000FB
:1075900000000000000000000000000000000000EB
:1075A00000000000000000000000000000000000DB
:1075B00000000000000000000000000000000000CB
:107AD0002421000000000000000000000000000061
:107AE0000000000000000000000024210000000051
:107AF0000000000000000000000000000000000086
:107B00000000000000000000000000000000000075
:107B10000000000000000000000000000000000065
:107B20000000000000000000000000000000000055
:107B30000000000000000000000000000000000045
:107B40000000000000000000000000000000000035
:107B50000000000000000000000000000000000025
:107B60000000000000000000000000000000000015
:107B70000000000000000000000000000000000005
:107B800000000000000000000000000000000000F5
:107B900000000000000000000000000000000000E5
:107BA00000000000000000000000000000000000D5
:107BB00000000000000000000000000000000000C5
:107BC00000000000000000000000000000000000B5
:107BD00000000000000000000000000000000000A5
:107BE0000000000000000000000000000000000095
:107BF0000000000000000000000000000000000085
:107C00000000000000000000000000000000000074
:107C1000D7BD0000000000000000000000000000D0
:107C20000000000000000000242138C60000000011
:107C30000000000000000000000000000000000044
:107C40000000000000000000000000000000000034
:107C50000000000000000000000000000000000024
:107C6000AA52000000000000000000000000000018
:107C70000000000000000000000000000000000004
:107C800000000000000000000000000000000000F4
:107C900000000000000000000000000000000000E4
:107CA00000000000000000000000000000000000D4
:107CB00000000000000000000000000000000000C4
:107CC00000000000000000000000000000000000B4
:107CD00000000000000000000000000000000000A4
:107CE0000000000000000000000000000000000094
:107CF0000000000000000000000000000000000084
:107D00000000000000000000000000000000000073
:107D10000000000000000000000000000000000063
:107D20000000000000000000000000000000000053
:107D30000000000000000000000000000000000043
:107D40000000000000000000000000000000CF7BE9
:107D5000FFFF2D6B0000000000000000000000008D
:107D6000000000000000000014A5FFFF0842000012
:107D70000000000000000000000000000000000003
:107D8000000000000000084275ADFBDEFFFFFFFFB2
:107D9000BEF738C630842421000000000000000037
:107DA0005CE7CF7B00000000000000000000000046
:107DB0000000000000000000000008429AD69AD699
:107DC0009AD69AD69AD69AD69AD69AD69AD69AD633
:107DD00024210000000000000000308438C65CE769
:107DE000FFFFFFFF5CE7D7BD2D6B00000000000028
:107DF0000000000000000000242114A55CE7FFFF44
:107E0000FFFF5CE775AD08420000000000000000C5
:107E10000000000000000000000000000000000062
:107E20000000000000000000000000000000000052
:107E30000000000000000000000000000000000042
:107E40000000000000000000000000000000000032
:107E50000000000000000000000000000000000022
:107E60000000000000000000000000000000000012
:107E70000000000000000000000000000000000002
:107E8000000000000000000000000000000038C6F4
:107E9000FFFF5CE7000000000000000000000000A1
:107EA0000000000000000842FFFFFFFFD7BD0000F8
:107EB00000000000000000000000000000000000C2
:107EC0000000000014A5FFFFFFFFBEF7AA5200004C
:107ED0002421CF7B9AD6BEF7B294000000000000A8
:107EE00030845CE724210000000000000000000056
:107EF00000000000000000000000D7BDFFFFFFFFF2
:107F0000FFFFFFFFFFFFFFFFFFFFFFFFFFFF14A5C6
:107F1000000000000000AA52FBDEFFFFFFFFFFFF92
:107F200038C600002421CF7B9AD69AD6084200009A
:107F30000000000000002421FBDEFFFFFFFFFFFF29
:107F4000FFFFFFFFFFFFBEF73084000000000000CE
:107F50000000000000000000000000000000000021
:107F60000000000000000000000000000000000011
:107F70000000000000000000000000000000000001
:107F800000000000000000000000000000000000F1
:107F900000000000000000000000000000000000E1
:107FA00000000000000000000000000000000000D1
:107FB00000000000000000000000000000000000C1
:107FC0000000000000000000000000000842FFFF69
:107FD000FFFFFFFF308400000000000000000000F1
:107FE000000000000000D7BDFFFFFFFFFFFF2421BE
:107FF0000000000000000000000000000000000081
:108000000000D7BDFFFFFFFFFFFF9AD60000000072
:108010000000000000002D6BBEF738C624210000D0
:1080200000009AD6D7BD2D6B2D6B2D6B2D6B2D6B54
:108030002D6B2D6B2D6B2D6B3084FFFFFFFFFFFF32
:10804000FFFFFFFFFFFFFFFFFFFFFFFFBEF7242142
:1080500000000000AA52BEF7FFFFFFFFFFFFFFFF77
:1080600014A50000000000000000CF7B5CE7AA52CE
:10807000000000000000D7BDFFFFFFFFFFFFFFFF74
:10808000FFFFFFFFAA522D6BBEF7AA5200000000AF
:1080900000000000000000000000000000000000E0
:1080A00000000000000000000000000000000000D0
:1080B00000000000000000000000000000000000C0
:1080C00000000000000000000000000000000000B0
:1080D00000000000000000000000000000000000A0
:1080E0000000000000000000000000000000000090
:1080F0000000000000000000000000000000000080
:1081000000000000000000000000000014A5FFFFB8
:10811000FFFFFFFFBEF72421000000000000000069
:10812000000000000842FFFFFFFFFFFFFFFF14A554
:10813000000000000000000000000000000000003F
:1081400014A5FFFFFFFFFFFFFFFF9AD6000000000E
:1081500000000000000000002421FBDE9AD6000091
:1081600000002D6BFFFFFBDE9AD69AD69AD69AD6E0
:108170009AD69AD69AD69AD6BEF7FFFFFFFFFFFF90
:10818000FFFFFFFFFFFFFFFFFFFFFFFFB2940000B5
:1081900000002421BEF7FFFFFFFFFFFFFFFFFFFFEF
:1081A00014A500000000000000000000AA525CE7D7
:1081B000AA5200000000FFFFFFFFFFFFFFFFFFFFCD
:1081C000FFFFFFFF00000000CF7B9AD600000000F9
:1081D000000000000000000000000000000000009F
:1081E000000000000000000000000000000000008F
:1081F000000000000000000000000000000000007F
:10820000000000000000000000000000000000006E
:10821000000000000000000000000000000000005E
:10822000000000000000000000000000000000004E
:10823000000000000000000000000000000000003E
:108240000000000000000000000000005CE7FFFFED
:10825000FFFFFFFFFFFF14A500000000000000006B
:1082600000000000D7BDFFFFFFFFFFFFFFFFBEF7CD
:1082700000000000000000000000000000000842B4
:10828000FFFFFFFFFFFFFFFFFFFF9AD60000000088
:1082900000000000000000000000AA52BEF7AA5231
:1082A00000000000D7BDD7BD0000000000000000A6
:1082B000000000000000AA52FFFFFFFFFFFFFFFFCA
:1082C000FFFFFFFFFFFFFFFFFFFF5CE70000000075
:1082D0000000D7BDFFFFFFFFFFFFFFFFFFFFFFFF16
:1082E00014A5000000000000000000000000B2948F
:1082F00038C600002D6BFFFFFFFFFFFFFFFFFFFFF2
:10830000FFFFFFFF0000000000005CE7000000002E
:10831000000000000000000000000000000000005D
:10832000000000000000000000000000000000004D
:10833000000000000000000000000000000000003D
:10834000000000000000000000000000000000002D
:10835000000000000000000000000000000000001D
:10836000000000000000000000000000000000000D
:1083700000000000000000000000000000000000FD
:1083800000000000000000000000CF7BFFFFFFFFA7
:10839000FFFFFFFFFFFFBEF72421000000000000E9
:1083A00000002D6BFFFFFFFFFFFFFFFFFFFFFFFF41
:1083B000308400000000000000000000000014A550
:1083C000FFFFFFFFFFFFFFFFFFFF9AD60000000047
:1083D0000000000000000000000000000842000053
:1083E000000000002421BEF7AA5200000000000097
:1083F0000000000000009AD6FFFFFFFFFFFFFFFF15
:10840000FFFFFFFFFFFFFFFFFFFFCF7B000000002C
:108410002421FFFFFFFFFFFFFFFFFFFFFFFFFFFF25
:1084200014A5000000000000000000000000000093
:10843000084200002D6BFFFFFFFFFFFFFFFFFFFF64
:10844000FFFFFFFF00000000000000000000000030
:10845000000000000000000000000000000000001C
:10846000000000000000000000000000000000000C
:1084700000000000000000000000000000000000FC
:1084800000000000000000000000000000000000EC
:1084900000000000000000000000000000000000DC
:1084A00000000000000000000000000000000000CC
:1084B00000000000000000000000000000000000BC
:1084C000000000000000000000009AD6FFFFFFFF40
:1084D000FFFFFFFFFFFFFFFFD7BD00000000000010
:1084E00000009AD6FFFFFFFFFFFFFFFFFFFFFFFF28
:1084F0005CE7000000000000000000000000FBDE60
:10850000FFFFFFFFFFFFFFFFFFFF9AD60000000005
:10851000000000000000000000000000000000005B
:10852000000000000000B2949AD600000000000095
:10853000000000002D6BFFFFFFFFFFFFFFFFFFFFAD
:10854000FFFFFFFFFFFFFFFF9AD6000000000000C3
:10855000CF7BFFFFFFFFFFFFFFFFFFFFFFFFFFFFDF
:1085600014A5000000000000000000000000000052
:10857000000000002D6BFFFFFFFFFFFFFFFFFFFF6D
:10858000FFFFFFFF000000000000000000000000EF
:1085900000000000000000000000000000000000DB
:1085A00000000000000000000000000000000000CB
:1085B00000000000000000000000000000000000BB
:1085C00000000000000000000000000000000000AB
:1085D000000000000000000000000000000000009B
:1085E000000000000000000000000000000000008B
:1085F000000000000000000000000000000000007B
:1086000000000000000000000842FFFFFFFFFFFF26
:10861000FFFFFFFFFFFFFFFFFFFF0842000000001A
:108620002D6BFFFFFFFFFFFFFFFFFFFFFFFFFFFFC0
:10863000FFFF2D6B00000000000000000000FFFFA6
:10864000FFFFFFFFFFFFFFFFFFFFFBDE2D6B2D6B2B
:108650002D6B2D6B2D6B2D6B2D6B2D6B2D6BAA52F6
:1086600000000000000000005CE7CF7B000000007D
:10867000000000009AD6FFFFFFFFFFFFFFFFFFFF94
:10868000FFFFFFFFFFFFFFFF2D6B0000000000005A
:1086900014A5FFFFFFFFFFFFFFFFFFFFFFFFFFFF2F
:1086A00014A5000000000000000000000000000011
:1086B000000000002D6BFFFFFFFFFFFFFFFFFFFF2C
:1086C000FFFFFFFF000000000000000000000000AE
:1086D000000000000000000000000000000000009A
:1086E000000000000000000000000000000000008A
:1086F000000000000000000000000000000000007A
:108700000000000000000000000000000000000069
:108710000000000000000000000000000000000059
:108720000000000000000000000000000000000049
:108730000000000000000000000000000000000039
:10874000000000000000000075ADFFFFFFFFFFFF0D
:10875000FFFFFFFFFFFFFFFFFFFF9AD600000000B3
:108760005CE7FFFFFFFFFFFFFFFFFFFFFFFFFFFFD4
:10877000FFFF9AD600000000000000000000FFFF8D
:10878000FFFFFFFFFFFFFFFFFFFFBEF79AD69AD65E
:108790009AD6FBDEFFFFFFFFFFFFFFFFFFFF9AD62A
:1087A00000000000000000002D6B5CE724210000A9
:1087B00000003084FFFFFFFFFFFFFFFFFFFFFFFF11
:1087C000FFFFFFFFFFFFD7BD00000000000000001B
:1087D00014A5FFFFFFFFFFFFFFFFFFFFFFFFFFFFEE
:1087E00014A50000000000000000000000000000D0
:1087F000000000002D6BFFFFFFFFFFFFFFFFFFFFEB
:10880000FFFFFFFF0000000000000000000000006C
:108810000000000000000000000000000000000058
:108820000000000000000000000000000000000048
:108830000000000000000000000000000000000038
:108840000000000000000000000000000000000028
:108850000000000000000000000000000000000018
:108860000000000000000000000000000000000008
:1088700000000000000000000000000000000000F8
:108880000000000000000000BEF7FFFFFFFFFFFF39
:10889000FFFFFFFFFFFFFFFFFFFFFFFF2D6BB29406
:1088A000FFFFFFFFFFFFFFFFFFFFFFFFFFFFFFFFD8
:1088B000FFFFBEF7AA5200000000000000005CE7C6
:1088C000FFFFFFFFFFFFFFFFFFFF9AD60000000042
:1088D00000002D6BFFFFFFFFFFFFFFFFFFFFD7BD76
:1088E0000000000000000000000038C614A50000D1
:1088F00000005CE7FFFFFFFFFFFFFFFFFFFFFFFF41
:10890000FFFFFFFFBEF7084200000000000000006C
:10891000B294FFFFFFFFFFFFFFFFFFFFFFFFFFFF1F
:1089200014A500000000000000000000000000008E
:10893000000000002D6BFFFFFFFFFFFFFFFFFFFFA9
:10894000FFFFFFFF0000000000000000000000002B
:108950000000000000000000000000000000000017
:108960000000000000000000000000000000000007
:1089700000000000000000000000000000000000F7
:1089800000000000000000000000000000000000E7
:1089900000000000000000000000000000000000D7
:1089A00000000000000000000000000000000000C7
:1089B00000000000000000000000000000000000B7
:1089C0000000000000003084FFFFFFFFFFFFFFFFFB
:1089D000FFFFFFFFFFFFFFFFD7BD14A55CE7BEF75A
:1089E000FFFFFFFFFFFFFFFFFFFFFFFFFFFFFFFF97
:1089F000D7BDD7BDD7BD0000000000000000D7BD27
:108A0000FFFFFFFFFFFFFFFFFFFF9AD60000000000
:108A100000002D6BFFFFFFFFFFFFFFFFFFFFB29482
:108A20000000000000000000000008425CE708426F
:108A30003084FFFFFFFFFFFFFFFFFFFFFFFFFFFF90
:108A4000FFFFFFFF14A50000000000000000000071
:108A5000AA52FFFFFFFFFFFFFFFFFFFFFFFFFFFF28
:108A600014A500000000000000000000000000004D
:108A7000000000002D6BFFFFFFFFFFFFFFFFFFFF68
:108A8000FFFFFFFF000000000000000000000000EA
:108A900000000000000000000000000000000000D6
:108AA00000000000000000000000000000000000C6
:108AB00000000000000000000000000000000000B6
:108AC00000000000000000000000000000000000A6
:108AD0000000000000000000000000000000000096
:108AE0000000000000000000000000000000000086
:108AF0000000000000000000000000000000000076
:108B00000000000000009AD6FFFFFFFFFFFFFFFFFD
:108B1000FFFFFFFFFFFFFFFFAA522421BEF7FFFF69
:108B2000FFFFFFFFFFFFFFFFFFFFFFFFFFFFBEF79E
:108B300024210842FFFF08420000000000002D6BC6
:108B4000FFFFFFFFFFFFFFFFFFFF9AD600000000BF
:108B500000002D6BFFFFFFFFFFFFFFFFFFFF08423D
:108B600000000000000000000000000014A538C64E
:108B70005CE7FFFFFFFFFFFFFFFFFFFFFFFFFFFFC0
:108B8000FFFFBEF7242100000000000000000000ED
:108B900000005CE7FFFFFFFFFFFFFFFFFFFFFFFF9E
:108BA00014A500000000000000000000000000000C
:108BB000000000002D6BFFFFFFFFFFFFFFFFFFFF27
:108BC000FFFFFFFF000000000000000000000000A9
:108BD0000000000000000000000000000000000095
:108BE0000000000000000000000000000000000085
:108BF0000000000000000000000000000000000075
:108C00000000000000000000000000000000000064
:108C10000000000000000000000000000000000054
:108C20000000000000000000000000000000000044
:108C30000000000000000000000000000000000034
:108C4000000000000842FFFFFFFFFFFFFFFFFFFFE4
:108C5000FFFFFFFFFFFF9AD6000000003084FFFFF8
:108C6000FFFFFFFFFFFFFFFFFFFFFFFFFFFF14A559
:108C70000000000038C614A500000000000000003D
:108C80009AD6FFFFFFFFFFFFFFFF9AD6000000000C
:108C900000002D6BFFFFFFFFFFFFFFFF75AD000022
:108CA00000000000000000000000000024215CE73C
:108CB000FFFFFFFFFFFFFFFFFFFFFFFFFFFFFFFFC4
:108CC000FFFF3084000000000000000000000000F2
:108CD0000000CF7BFFFFFFFFFFFFFFFFFFFFFFFF56
:108CE00014A5000000000000000000002421D7BDF2
:108CF000000000002D6BFFFFFFFFFFFFFFFFFFFFE6
:108D0000FFFFFFFF00000000000000000000000067
:108D10000000000000000000000000000000000053
:108D20000000000000000000000000000000000043
:108D30000000000000000000000000000000000033
:108D40000000000000000000000000000000000023
:108D50000000000000000000000000000000000013
:108D60000000000000000000000000000000000003
:108D700000000000000000000000000000000000F3
:108D80000000000075ADFFFFFFFFFFFFFFFFFFFFCB
:108D9000FFFFFFFFFFFF30840000000000005CE7E2
:108DA000FFFFFFFFFFFFFFFFFFFFFFFF5CE7242147
:108DB000000000002D6BBEF7242100000000000021
:108DC0000842BEF7FFFFFFFFFFFF9AD6000000003A
:108DD00000002D6BFFFFFFFFFFFFFBDE24210000E3
:108DE0000000000000000000000000000000CF7B39
:108DF000FFFFFFFFFFFFFFFFFFFFFFFFFFFFFFFF83
:108E00005CE700000000000000000000000000001F
:108E100000000000D7BDFFFFFFFFFFFFFFFFFFFFC8
:108E200014A500000000000000000000D7BD9AD685
:108E3000000000002D6BFFFFFFFFFFFFFFFFFFFFA4
:108E4000FFFFFFFF00000000000000000000000026
:108E50000000000000000000000000000000000012
:108E60000000000000000000000000000000000002
:108E700000000000000000000000000000000000F2
:108E800000000000000000000000000000000000E2
:108E900000000000000000000000000000000000D2
:108EA00000000000000000000000000000000000C2
:108EB00000000000000000000000000000000000B2
:108EC00000002421BEF7FFFFFFFFFFFFFFFFFFFFB2
:108ED000FFFFFFFFBEF700000000000000002D6B49
:108EE000FFFFFFFFFFFFFFFFFFFFFFFF30840000DA
:108EF0000000000000005CE730840000000000007B
:108F00000000AA525CE7FFFFFFFF5CE700000000E3
:108F10000000CF7BFFFFFFFFFBDE242100000000ED
:108F20000000000000000000000000000000000041
:108F30009AD6FFFFFFFFFFFFFFFFFFFFFFFFFFFFCF
:108F40002D6B000000000000000000000000000089
:108F500000000000000075ADFFFFFFFFFFFFFFFFF7
:108F600075AD0000000000002D6B9AD6FBDE2421B9
:108F7000000000002D6BFFFFFFFFFFFFFFFFFFFF63
:108F8000FFFFFFFF000000000000000000000000E5
:108F900000000000000000000000000000000000D1
:108FA00000000000000000000000000000000000C1
:108FB00000000000000000000000000000000000B1
:108FC00000000000000000000000000000000000A1
:108FD0000000000000000000000000000000000091
:108FE0000000000000000000000000000000000081
:108FF0000000000000000000000000000000000071
:1090000000003084FFFFFFFFFFFFFFFFFFFFFFFFB8
:10901000FFFFFFFF14A5000000000000000000009B
:109020009AD6FFFFFFFFFFFFFFFF5CE70000000095
:10903000000000000000B2945CE7000000000000A7
:1090400000000000242114A5BEF7FFFF9AD614A546
:1090500075ADBEF75CE714A500000000000000003D
:109060000000000000000000000000000000000000
:109070000842FFFFFFFFFFFFFFFFFFFFFFFF9AD642
:1090800000000000000000000000000000000000E0
:1090900000000000000000002D6B9AD6FFFFFFFFCC
:1090A000BEF775AD14A5FBDE5CE714A5000000005B
:1090B000CF7B9AD6FBDEFFFFFFFFFFFFFFFFFFFF27
:1090C000FFFFFFFF9AD69AD69AD6AA520000000058
:1090D0000000000000000000000000000000000090
:1090E0000000000000000000000000000000000080
:1090F0000000000000000000000000000000000070
:10910000000000000000000000000000000000005F
:10911000000000000000000000000000000000004F
:10912000000000000000000000000000000000003F
:10913000000000000000000000000000000000002F
:1091400000005CE7FFFFFFFFFFFFFFFFFFFFFFFFE8
:10915000FFFFFFFF084200000000000000000000C9
:109160002D6BFFFFFFFFFFFFFFFF2D6B00000000D7
:109170000000000000002421BEF730840000000041
:10918000000000000000000000002D6B14A514A5D5
:1091900014A52D6B0000000000000000000000007E
:1091A00000000000000000000000000000000000BF
:1091B000000014A5FFFFFFFFFFFFFFFFFFFFAA5204
:1091C000000000000000000000000000000000009F
:1091D0000000000000000000000000000842308491
:1091E00014A514A5B2942D6B00000000000000002F
:1091F00008422D6BB294FFFFFFFFFFFFFFFFFFFF51
:10920000FFFFFBDE2D6B2D6B2D6B2421000000007A
:10921000000000000000000000000000000000004E
:10922000000000000000000000000000000000003E
:10923000000000000000000000000000000000002E
:10924000000000000000000000000000000000001E
:10925000000000000000000000000000000000000E
:1092600000000000000000000000000000000000FE
:1092700000000000000000000000000000000000EE
:109280002D6BFFFFFFFFFFFFFFFFFFFFFFFFFFFF54
:10929000FFFF38C6000000000000000000000000D2
:1092A0000000D7BDFFFFFFFF9AD6000000000000BE
:1092B0000000000000000000D7BD9AD600000000AA
:1092C000000000000000000000000000000000009E
:1092D000000000000000000000000000000000008E
:1092E000000000000000000000000000000000007E
:1092F00000002421BEF7FFFFFFFFFFFFD7BD0000E6
:10930000000000000000000000000000000000005D
:10931000000000000000000000000000000000004D
:10932000000000000000000000000000000000003D
:10933000000000002D6BFFFFFFFFFFFFFFFFFFFF9F
:10934000FFFFFBDE00000000000000000000000046
:10935000000000000000000000000000000000000D
:1093600000000000000000000000000000000000FD
:1093700000000000000000000000000000000000ED
:1093800000000000000000000000000000000000DD
:1093900000000000000000000000000000000000CD
:1093A00000000000000000000000000000000000BD
:1093B00000000000000000000000000000000000AD
:1093C00038C6FFFFFFFFFFFFFFFFFFFFFFFFFFFFAD
:1093D000FFFF3084000000000000000000000000DB
:1093E00000000842FFFFFFFF2D6B0000000000009F
:1093F0000000000000000000AA52FFFF2D6B0000DB
:10940000000000000000000000000000000000005C
:10941000000000000000000000000000000000004C
:10942000000000000000000000000000000000003C
:10943000000000003084FFFFFFFFBEF72421000082
:10944000000000000000000000000000000000001C
:10945000000000000000000000000000000000000C
:1094600000000000000000000000000000000000FC
:10947000000000000000AA52D7BDBEF7FFFFFFFFAB
:10948000FFFFFFFF000000000000000000000000E0
:1094900000000000000000000000000000000000CC
:1094A00000000000000000000000000000000000BC
:1094B00000000000000000000000000000000000AC
:1094C000000000000000000000000000000000009C
:1094D000000000000000000000000000000000008C
:1094E000000000000000000000000000000000007C
:1094F0000000000000000000000000000000084222
:10950000FFFFFFFFFFFFFFFFFFFFFFFFFFFFFFFF6B
:10951000BEF7000000000000000000000000000096
:109520000000000075AD9AD60000000000000000A9
:1095300000000000000000000000FBDED7BD0000BE
:10954000000000000000000000000000000000001B
:10955000000000000000000000000000000000000B
:1095600000000000000000000000000000000000FB
:109570000000000000009AD6FFFF14A500000000C4
:1095800000000000000000000000000000000000DB
:1095900000000000000000000000000000000000CB
:1095A00000000000000000000000000000000000BB
:1095B00000000000000000000000242114A5BEF7F8
:1095C000FFFFFFFF0000000000000000000000009F
:1095D000000000000000000000000000000000008B
:1095E000000000000000000000000000000000007B
:1095F000000000000000000000000000000000006B
:10960000000000000000000000000000000000005A
:10961000000000000000000000000000000000004A
:10962000000000000000000000000000000000003A
:1096300000000000000000000000000000000842E0
:109640002D6B2D6B2D6B2D6B2D6B2D6B2D6B2D6B5A
:10965000AA5200000000000000000000000000000E
:109660000000000024212D6B00000000000000001D
:109670000000000000000000000008420842000056
:1096800000000000000000000000000000000000DA
:1096900000000000000000000000000000000000CA
:1096A00000000000000000000000000000000000BA
:1096B0000000000000002D6B5CE72421000000008A
:1096C000000000000000000000000000000000009A
:1096D000000000000000000000000000000000008A
:1096E000000000000000000000000000000000007A
:1096F0000000000000000000000000000000242125
:1097000014A5BEF7000000000000000000000000EB
:109710000000000000000000000000000000000049
:109720000000000000000000000000000000000039
:109730000000000000000000000000000000000029
:109740000000000000000000000000000000000019
:109750000000000000000000000000000000000009
:1097600000000000000000000000000000000000F9
:1097700000000000000000000000000000000000E9
:1097800000000000000000000000000000000000D9
:1097900000000000000000000000000000000000C9
:1097A00000000000000000000000000000000000B9
:1097B00000000000000000000000000000000000A9
:1097C0000000000000000000000000000000000099
:1097D0000000000000000000000000000000000089
:1097E0000000000000000000000000000000000079
:1097F000000000000000000008420000000000001F
:109800000000000000000000000000000000000058
:109810000000000000000000000000000000000048
:109820000000000000000000000000000000000038
:109830000000000000000000000000000000000028
:1098400000000842000000000000000000000000CE
:109850000000000000000000000000000000000008
:1098600000000000000000000000000000000000F8
:1098700000000000000000000000000000000000E8
:1098800000000000000000000000000000000000D8
:10A5300000000000000000F800F800F800F800F843
:10A5400000F800F800F800F800F800F800F800F84B
:10A5500000F800F800F800F800F800000000000023
:10A560000000E007E007E007E007E007E007E0079A
:10A57000E007E007E007E007E007E007E007E007A3
:10A58000E007E007E00700000000000000001F00F7
:10A590001F001F001F001F001F001F001F001F00C3
:10A5A0001F001F001F001F001F001F001F001F00B3
:10A5B0001F0000000000000000000000000000007C
:10A5C000000000000000000000000000000000008B
:10A5D000000000000000000000000000000000007B
:10A5E000000000000000000000000000000000006B
:10A5F000000000000000000000000000000000005B
:10A60000000000000000000000000000000000004A
:10A61000000000000000000000000000000000003A
:10A62000000000000000000000000000000000002A
:10A63000000000000000000000000000000000001A
:10A64000000000000000000000000000000000000A
:10A6500000000000000000000000000000000000FA
:10A6600000000000000000000000000000000000EA
:10A6700000000000000000F800F800F800F800F802
:10A6800000F800F800F800F800F800F800F800F80A
:10A6900000F800F800F800F800F8000000000000E2
:10A6A0000000E007E007E007E007E007E007E00759
:10A6B000E007E007E007E007E007E007E007E00762
:10A6C000E007E007E00700000000000000001F00B6
:10A6D0001F001F001F001F001F001F001F001F0082
:10A6E0001F001F001F001F001F001F001F001F0072
:10A6F0001F0000000000000000000000000000003B
:10A700000000000000000000000000000000000049
:10A710000000000000000000000000000000000039
:10A720000000000000000000000000000000000029
:10A730000000000000000000000000000000000019
:10A740000000000000000000000000000000000009
:10A7500000000000000000000000000000000000F9
:10A7600000000000000000000000000000000000E9
:10A7700000000000000000000000000000000000D9
:10A7800000000000000000000000000000000000C9
:10A7900000000000000000000000000000000000B9
:10A7A00000000000000000000000000000000000A9
:10A7B00000000000000000F800F800F800F800F8C1
:10A7C00000F800F800F800F800F800F800F800F8C9
:10A7D00000F800F800F800F800F8000000000000A1
:10A7E0000000E007E007E007E007E007E007E00718
:10A7F000E007E007E007E007E007E007E007E00721
:10A80000E007E007E00700000000000000001F0074
:10A810001F001F001F001F001F001F001F001F0040
:10A820001F001F001F001F001F001F001F001F0030
:10A830001F000000000000000000000000000000F9
:10A840000000000000000000000000000000000008
:10A8500000000000000000000000000000000000F8
:10A8600000000000000000000000000000000000E8
:10A8700000000000000000000000000000000000D8
:10A8800000000000000000000000000000000000C8
:10A8900000000000000000000000000000000000B8
:10A8A00000000000000000000000000000000000A8
:10A8B0000000000000000000000000000000000098
:10A8C0000000000000000000000000000000000088
:10A8D0000000000000000000000000000000000078
:10A8E0000000000000000000000000000000000068
:10A8F00000000000000000F800F800F800F800F880
:10A9000000F800F800F800F800F800F800F800F887
:10A9100000F800F800F800F800F80000000000005F
:10A920000000E007E007E007E007E007E007E007D6
:10A93000E007E007E007E007E007E007E007E007DF
:10A94000E007E007E00700000000000000001F0033
:10A950001F001F001F001F001F001F001F001F00FF
:10A960001F001F001F001F001F001F001F001F00EF
:10A970001F000000000000000000000000000000B8
:10A9800000000000000000000000000000000000C7
:10A9900000000000000000000000000000000000B7
:10A9A00000000000000000000000000000000000A7
:10A9B0000000000000000000000000000000000097
:10A9C0000000000000000000000000000000000087
:10A9D0000000000000000000000000000000000077
:10A9E0000000000000000000000000000000000067
:10A9F0000000000000000000000000000000000057
:10AA00000000000000000000000000000000000046
:10AA10000000000000000000000000000000000036
:10AA20000000000000000000000000000000000026
:10AA300000000000000000F800F800F800F800F83E
:10AA400000F800F800F800F800F800F800F800F846
:10AA500000F800F800F800F800F80000000000001E
:10AA60000000E007E007E007E007E007E007E00795
:10AA7000E007E007E007E007E007E007E007E0079E
:10AA8000E007E007E00700000000000000001F00F2
:10AA90001F001F001F001F001F001F001F001F00BE
:10AAA0001F001F001F001F001F001F001F001F00AE
:10AAB0001F00000000000000000000000000000077
:10AAC0000000000000000000000000000000000086
:10AAD0000000000000000000000000000000000076
:10AAE0000000000000000000000000000000000066
:10AAF0000000000000000000000000000000000056
:10AB00000000000000000000000000000000000045
:10AB10000000000000000000000000000000000035
:10AB20000000000000000000000000000000000025
:10AB30000000000000000000000000000000000015
:10AB40000000000000000000000000000000000005
:10AB500000000000000000000000000000000000F5
:10AB600000000000000000000000000000000000E5
:10AB700000000000000000F800F800F800F800F8FD
:10AB800000F800F800F800F800F800F800F800F805
:10AB900000F800F800F800F800F8000000000000DD
:10ABA0000000E007E007E007E007E007E007E00754
:10ABB000E007E007E007E007E007E007E007E0075D
:10ABC000E007E007E00700000000000000001F00B1
:10ABD0001F001F001F001F001F001F001F001F007D
:10ABE0001F001F001F001F001F001F001F001F006D
:10ABF0001F00000000000000000000000000000036
:10AC00000000000000000000000000000000000044
:10AC10000000000000000000000000000000000034
:10AC20000000000000000000000000000000000024
:10AC30000000000000000000000000000000000014
:10AC40000000000000000000000000000000000004
:10AC500000000000000000000000000000000000F4
:10AC600000000000000000000000000000000000E4
:10AC700000000000000000000000000000000000D4
:10AC800000000000000000000000000000000000C4
:10AC900000000000000000000000000000000000B4
:10ACA00000000000000000000000000000000000A4
:10ACB00000000000000000F800F800F800F800F8BC
:10ACC00000F800F800F800F800F800F800F800F8C4
:10ACD00000F800F800F800F800F80000000000009C
:10ACE0000000E007E007E007E007E007E007E00713
:10ACF000E007E007E007E007E007E007E007E0071C
:10AD0000E007E007E00700000000000000001F006F
:10AD10001F001F001F001F001F001F001F001F003B
:10AD20001F001F001F001F001F001F001F001F002B
:10AD30001F000000000000000000000000000000F4
:10AD40000000000000000000000000000000000003
:10AD500000000000000000000000000000000000F3
:10AD600000000000000000000000000000000000E3
:10AD700000000000000000000000000000000000D3
:10AD800000000000000000000000000000000000C3
:10AD900000000000000000000000000000000000B3
:10ADA00000000000000000000000000000000000A3
:10ADB0000000000000000000000000000000000093
:10ADC0000000000000000000000000000000000083
:10ADD0000000000000000000000000000000000073
:10ADE0000000000000000000000000000000000063
:10ADF0000000000000000000000000000000000053
:10AE00000000000000000000003F400000000000C3
:10AE10000000003000400030004000000009000B3E
:10AE2000C03D000BC03D00090018C024407FE02257
:10AE30004031800000180024C01B000D803240010A
:10AE40008003801C4027401C8007400040100060A9
:10AE50000000000000000000000000000000001FD3
:10AE600080204040200000402020401F8000000043
:10AE700000090006001F800600090000000400040D
:10AE8000003F80040004000000001000600000008B
:10AE9000000000000004000400040004000400009E
:10AEA0000000000040000000000000000000200141
:10AEB000C006003800400000001F802040204020D5
:10AEC000401F800000000010403FC0004000000014
:10AED0000018C0214022402440184000001080206B
:10AEE00040244024401B80000002000D0011003F60
:10AEF000C0014000003C80244024402440238000C6
:10AF0000001F802440244034400380000030002093
:10AF10000027C03800200000001B8024402440246B
:10AF2000401B8000001C0022C0224022401F8000E5
:10AF300000000000000840000000000000000000C9
:10AF4000000460000000000000000004000A00117E
:10AF500000208040400900090009000900090000A4
:10AF60000000004040208011000A0004001800206A
:10AF70000023402400180000001F802040274029A3
:10AF8000401F400000004007C039000F0001C00012
:10AF90004020403FC0244024401B8000001F8020F0
:10AFA00040204020403080000020403FC020402012
:10AFB000401F80000020403FC024402E4030C00091
:10AFC0000020403FC024402E00300000000F001041
:10AFD00080204022403380020020403FC004000413
:10AFE000003FC02040204020403FC0204020400083
:10AFF000000060202020203FC02000200020403F93
:10B00000C024400B0030C0204020403FC020400002
:10B0100040004000C03FC03C0003C03C003FC000B7
:10B020000020403FC00C4023003FC020001F802074
:10B0300040204020401F80000020403FC02440248A
:10B0400000180000001F802140214020E01FA000C8
:10B050000020403FC02440260019C0004018C024F2
:10B06000402440224031800000300020403FC0207A
:10B07000403000000020003F80004000403F802022
:10B080000020003E0001C007003800200038000703
:10B09000C03C0007C038000000204039C00600391D
:10B0A000C0204000002000384007C0384020000089
:10B0B00000304021C02640384020C0000000000081
:10B0C000007FE0402040200000000070000C0003E2
:10B0D00080004000000000402040207FE000000091
:10B0E00000000020004000200000000000001000D0
:10B0F00010001000100010001000000000400000C0
:10B100000000000000000002800540054003C00070
:10B110004020003FC00440044003800000000003C2
:10B1200080044004400640000000000380044024E6
:10B13000403FC00040000003800540054003400040
:10B1400000000004401FC0244024402000000002F2
:10B15000E0055005500650042020403FC004400444
:10B160000003C000400000044027C0004000000071
:10B170000000100010041027E00000000020403FF5
:10B18000C00140070004C00440204020403FC000F0
:10B19000400040000007C0040007C0040003C000D6
:10B1A00000044007C00440040003C0004000000346
:10B1B000800440044003800000041007F0045004A1
:10B1C0004003800000000003800440045007F000AA
:10B1D00010044007C0024004000400000000000604
:10B1E000400540054004C00000000004001F80042A
:10B1F0004000400000040007800040044007C000F9
:10B20000400400070004C00180060004000600019D
:10B21000C0070001C006000000044006C00100068F
:10B22000C0044000000410071004E0018006000480
:10B23000000000044005C00640044000000000007B
:10B240000004007BE040200000000000000000FF40
:10B25000F000000000000040207BE004000000003F
:10B26000004000800040002000200040000000005E
:10B2700000000000000000000000000000000000CE
:10B280000000001FCC000C000000000000000008BF
:10B290000030006000080030006000000002200361
:10B2A000FC1E20022003FC1E200220000000000ED5
:10B2B0001811043FFF10840C78000000000F0010EC
:10B2C000840F3800C0077818840078000000780FD9
:10B2D0008410C411240E9800E4008400080800685B
:10B2E00000700000000000000000000000000000EE
:10B2F00000000007E0181820044002000000004091
:10B30000022004181807E0000000000000024002BC
:10B310004001800FF00180024002400000008000E8
:10B320008000800FF8008000800080000000010095
:10B330000D000E00000000000000000000000000F2
:10B34000800080008000800080008000800000007D
:10B350000C000C00000000000000000000000000D5
:10B360000600180060018006001800200000000799
:10B37000F0080810041004080807F0000000000896
:10B380000408041FFC000400040000000000000E7C
:10B390000C10141024104411840E0C000000000C3A
:10B3A0001810041104110412880C70000000000031
:10B3B000E00320042408241FFC0024000000001FD8
:10B3C0009810841104110410881070000000000708
:10B3D000F008881104110418880070000000001C97
:10B3E00000100010FC13001C001000000000000EF4
:10B3F0003811441084108411440E380000000007F6
:10B4000000088C10441044088807F0000000000079
:10B41000000000030C030C0000000000000000000E
:10B420000000010106000000000000000000000014
:10B4300080014002200410080810040000022002CD
:10B440002002200220022002200220000000001022
:10B450000408080410022001400080000000000ED3
:10B46000001200100C106C10800F00000003E00CA4
:10B470001813E4142417C4082807D000000004009F
:10B480003C03C41C40074000E4001C000410041FDF
:10B49000FC1104110411040E880070000003E00C7C
:10B4A0001810041004100410081C10000010041FD1
:10B4B000FC100410041004080807F0000010041F1A
:10B4C000FC1104110417C410040818000010041F14
:10B4D000FC1104110017C010000800000003E00C6C
:10B4E000181004100410441C780040000010041FC1
:10B4F000FC10840080008010841FFC1004000010E9
:10B500000410041FFC1004100400000000000300DD
:10B5100001100110011FFE10001000000010041F98
:10B52000FC110403801464181C1004000010041F94
:10B53000FC1004000400040004000C000010041FB0
:10B54000FC1F0000FC1F001FFC1004000010041F63
:10B55000FC0C04030000E010181FFC100007F008AA
:10B5600008100410041004080807F0000010041F5D
:10B57000FC10841080108010800F00000007F0087D
:10B580001810241024101C080A07F2000010041FD1
:10B59000FC1104110011C011300E0C000400000E4B
:10B5A0001C11041084108410441C38000018001072
:10B5B0000010041FFC100410001800000010001FF1
:10B5C000F810040004000410041FF8100010001EFE
:10B5D0000011E0001C007013801C0010001FC01040
:10B5E0003C00E01F0000E0103C1FC00000100418E9
:10B5F0000C163401C001C01634180C100410001CC5
:10B6000000130400FC13041C0010000000080410C8
:10B610001C1064108413041C0410180000000000A7
:10B620000000007FFE4002400240020000000030A7
:10B63000000C0003800060001C00030000000040BC
:10B6400002400240027FFE000000000000000000F7
:10B6500000200040004000400020000000000100E9
:10B660000100010001000100010001000100004093
:10B67000004000200000000000000000000000006A
:10B6800098012401440144014400FC000410001FFF
:10B69000FC00880104010400880070000000000024
:10B6A000700088010401040104008800000000000B
:10B6B0007000880104010411081FFC000400000050
:10B6C000F8014401440144014400C80000000001A5
:10B6D0000401040FFC110411041100180000000003
:10B6E000D601290129012901C90106000010041F02
:10B6F000FC008401000100010400FC0004000001C2
:10B7000004190419FC0004000400000000000000FB
:10B710000300010101190119FE0000000010041FBF
:10B72000FC0024004001B4010C01040000000010E2
:10B730000410041FFC0004000400000000010401C8
:10B74000FC0104010001FC0104010000FC010401F2
:10B75000FC008401000100010400FC000400000062
:10B76000F8010401040104010400F80000010101D2
:10B77000FF00850104010400880070000000000043
:10B7800070008801040104010501FF0001010401AA
:10B790000401FC008401040100018000000000009D
:10B7A000CC0124012401240124019800000000019F
:10B7B00000010007F801040104000000000100017D
:10B7C000F8000400040004010801FC000401000169
:10B7D000800170000C001001600180010001F00187
:10B7E0000C003001C00030010C01F001000000012C
:10B7F00004018C00740170018C010400000101013E
:10B80000810171000E00180160018001000000013B
:10B8100084010C013401440184010C00000000008B
:10B82000000000000001003EFC4002400200000059
:10B830000000000000FFFF000000000000000040CA
:10B840000240023EFC010000000000000000006019
:10B850000080008000400040002000200000000028
:10B8600040000000C0000000800000000000000058
:10B870002000000060000000E0000000A0000000C8
:10B88000A0B8000800000024800000001445000853
:10B8900020B9000880000024500A00002445000858
:10B8A00001000000100000000090D0030090D003C1
:10B8B000FFFF000069350008AD3100087939000844
:10B8C00001320008B13100082B3A0008B5340008F5
:10B8D000353C0008BD340008313A000855320008F4
:10B8E000E133000851330008A13300087D3400081B
:10B8F000C9340008D13C000835350008413500083E
:10B90000094200080000000000000000D9420008C1
:10B910001D420008B14200088542000805420008A7
:04000005080002AD40
:00000001FF
