:020000040800F2
:10000000C8420024C10200083B4C000835410008EA
:10001000394C000825040008538B0008000000003C
:10002000000000000000000000000000DD6F00087C
:100030002704000800000000A7530008DF6F000835
:10004000DB020008DB020008DB020008DB0200081C
:10005000DB020008DB020008DB020008DB0200080C
:10006000DB020008DB020008DB020008DB020008FC
:10007000DB020008DB020008DB020008DB020008EC
:10008000DB020008DB020008DB020008DB020008DC
:10009000DB020008DB020008DB020008DB020008CC
:1000A000DB020008DB020008DB020008DB020008BC
:1000B000DB020008DB020008DB020008DB020008AC
:1000C000DB020008DB020008DB020008DB0200089C
:1000D000DB020008DB020008DB020008DB0200088C
:1000E000DB020008DB020008DB020008DB0200087C
:1000F000DB020008DB020008DB020008DB0200086C
:10010000DB020008F95B0008DB020008DB020008E4
:10011000DB020008DB020008DB020008DB0200084B
:10012000DB020008DB020008DB020008DB0200083B
:10013000DB0200080000000000000000DB020008F5
:10014000DB020008DB020008DB020008DB0200081B
:10015000DB020008DB020008DB020008DB0200080B
:10016000DB020008DB020008DB020008DB020008FB
:10017000DB0200083D4C0008DB020008DB0200083F
:10018000DB020008DB020008DB020008DB020008DB
:10019000DB020008DB020008DB020008DB020008CB
:1001A000DB020008DB020008DB020008DB020008BB
:1001B000DB020008DB020008DB020008DB020008AB
:1001C000DB020008DB020008000000000000000065
:1001D0000000000000000000DB020008000000003A
:1001E000000000000000000000000000000000000F
:1001F0000000000000000000DB020008DB02000835
:10020000DB020008DB02000800000000DB0200083F
:10021000DB020008DB020008DB020008DB0200084A
:10022000DB020008DB020008DB020008000000001F
:10023000DB020008DB02000800000000DB0200080F
:10024000DB020008DB020008DB020008DB0200081A
:10025000DB020008DB020008DB020008DB0200080A
:10026000DB020008DB020008DB020008DB020008FA
:10027000DB020008DB020008DB02000800000000CF
:10028000DB020008DB02000800000000DB020008BF
:1002900000000000DB020008DB020008DB020008AF
:1002A000DB020008DB020008DB020008DFF80CD0EC
:1002B00000F05CF800480047C18C0008C8420024E8
:1002C0000648804706480047FEE7FEE7FEE7FEE7F0
:1002D000FEE7FEE7FEE7FEE7FEE7FEE799700008AF
:1002E000AD020008D2B201E000F8012B491EFBD29A
:1002F00070470022F6E710B513460A460446194631
:10030000FFF7F0FF204610BD2DE9F05F0546002005
:1003100092469B4688460646814640241BE0284676
:1003200041464746224600F042F853465A46C01A14
:10033000914110D311461846224600F029F82D1A93
:1003400067EB01084F4622460120002100F020F80B
:1003500017EB00094E41201EA4F10104DFDC4846E2
:1003600031462A464346BDE8F09F0000064C074D43
:1003700006E0E06840F0010394E807009847103475
:10038000AC42F6D3FFF796FF0402010824020108ED
:10039000202A04DB203A00FA02F100207047914045
:1003A000C2F1200320FA03F3194390407047202A3A
:1003B00004DB203A21FA02F00021704721FA02F30F
:1003C000D040C2F12002914008431946704770B5F1
:1003D0008C1810F8015B15F0070301D110F8013BF0
:1003E0002A1106D110F8012B03E010F8016B01F877
:1003F000016B5B1EF9D12B0705D40023521E0DD4CF
:1004000001F8013BFAE710F8013BCB1A921C03E01C
:1004100013F8015B01F8015B521EF9D5A142D8D354
:10042000002070BDFEE770474FF4FA7004F040F909
:10043000FAE70000B0B5044600F0E2F805469C4833
:10044000611C007818BF044400F0DAF8401BA04299
:10045000FAD3B0BD2DE9FC4F5C4A0A244FF0000AE4
:100460004FF0000990425A4A08BF092402444FEA5B
:10047000B223092B38BF4FEAB224009400220E6841
:1004800036FA02F700F0A080012303FA02F716EA19
:10049000070B00F09380D1F804E003230EF0030C67
:1004A000ACF10105012D13D803FA09F58468CB6876
:1004B000AC4303FA09F36FEA050823438360CEF3E4
:1004C00000134468BC4393405700234343600BE050
:1004D00003FA09F3BCF1030F4F466FEA030803D197
:1004E0004F464FF0030C20E0C3688C6803EA080312
:1004F000BC402343C360BCF1020F16D10AF01C03B9
:100500000F2404FA03FC6FF0030404EA52050544C7
:100510002C6A24EA0C0C0C6904FA03F343EA0C037A
:100520002B62D1F804E00EF0030C04680CFA07F318
:1005300004EA0804234303601EF4403F3ED0854C88
:10054000254E236843F00203236023680F2403F041
:1005500002030193019D0AF00C0322F003059C4065
:10056000AF5927EA0404009F07FA03F32343AB5172
:100570004FF0B04633684D6843EA0B04EF0258BFB2
:1005800023EA0B043460134EAF02336843EA0B04D2
:1005900058BF23EA0B043460AF03D6F8803043EA37
:1005A0000B0458BF23EA0B04C6F88040ED03F36F39
:1005B00043EA0B0458BF23EA0B04F4670AF1040A68
:1005C00009F1020901325AE7BDE8FC8F0024025804
:1005D0000000FEA704000058080400580069084005
:1005E00018BF01207047002A08BF090481617047C5
:1005F000024800686FF31F30704700BF0010005CB6
:1006000005480068704700BF2948034900780A6818
:1006100010440860704700BFC422002480B5032046
:1006200000F0C4F801F006FE0E490F4B0A68096895
:1006300001F00F01C2F30322595C9A5C01F01F0123
:1006400002F01F02D0401B4A1060C84007490860F2
:100650000F2000F00DF808B1012080BD00F06CF80B
:10066000002080BD18440258009300080C000024AC
:1006700070B50F4E04463078B0B14FF47A71B1FBCB
:10068000F0F00C490968B1FBF0F003F0B7FB01256D
:100690000F2C0AD848B94FF0FF3021460022002520
:1006A00000F068F8746000E00125284670BD00BFC6
:1006B00000000024080000240278114943780B60F0
:1006C000D2B143684B60037B42EA0372C37A42EAC9
:1006D0000362837A42EAC342437B42EA8342837BDA
:1006E00042EA4342C37B42EA0342437A007A42EA47
:1006F000032242EA400001E0002048608860704721
:1007000098ED00E00B48BFF35F8F016821F4803162
:100710000160002101677047064940F00100086749
:10072000086840F480300860BFF34F8FBFF36F8FCD
:10073000704700BF24ED00E081B00648016841F039
:1007400002010160006800F002000090009801B012
:10075000704700BF54450258002808D400F01F011C
:100760000122400902FA01F1014A42F820107047C3
:1007700000E100E070B5134B4FF0FF351B68C3F389
:100780000223DC1E83F0070338BF002405FA04F6B9
:10079000B243042B28BF042305FA03F39943A14075
:1007A0001143BDE8704008F0D5B900BF05494FF6C8
:1007B000FF030A681A4060F30A22034810430860E6
:1007C000704700BF0CED00E00000FA0501688A697F
:1007D00042F000628A610122C0F80025002280F800
:1007E000F424486D024A104348650020704700BF5A
:1007F0000300001070470068416200207047B0B5E8
:100800000068436AB1B1846A013903EB14430024E0
:10081000E5B2A94207D900EB85050134D5F80451AA
:1008200003EB1543F4E700EB810043EA0241C0F813
:10083000041102E043EA024181620020B0BDD0F819
:10084000080506F0C1BF01EBC10200EB8202D0F83F
:100850000805D26C06F035BF01EBC10200EB820245
:10086000D0F80805D2F88C2206F07CBFD0F8080535
:1008700006F0ACBF01F00F02090602EBC20200EB6A
:10088000820303F13C0258BF03F51F720068114652
:1008900007F0BABF10B5044601F00F0004F0EFFCFA
:1008A0005DBF002281F87D2201F51F71012244BF46
:1008B00081F83D203C31087094F8BC04012804BF45
:1008C000022010BD04F052FC07F0EEFC04F06DBBFA
:1008D000B0B5044601F00F006268904201D90125CD
:1008E0001BE004F0CCFC5DBF002281F87D2201F505
:1008F0001F71012244BF81F83D203C310870002562
:100900008D7094F8BC04012801D1022505E004F0A3
:100910002DFC07F07DFE84F8BC542846B0BD10B510
:1009200004F006FA04BF022010BD04F01FFC0A0602
:1009300002D407F0A5FF03E001F00F0107F0C0FFAC
:1009400004F033BB01F00F0101EBC10100EB8100AA
:10095000D0F89C027047B0B5044601F00F0004F0D7
:100960008EFC5DBF002581F87D5201F51F710125C8
:1009700044BF81F83D503C31CA600B7108704A7821
:1009800002B10881022B01D10020487194F8BC0407
:10099000012804BF0220B0BD04F0E8FB07F0D6FB3D
:1009A00004F028BCB0B501F00F0404EBC40100EB67
:1009B00081050021C5F894320369C5F89C1285F8B9
:1009C0007D12C5F88C2285F87C4205F51F71012B3C
:1009D00008BFC5F89022DAB2006814B107F04CFEE7
:1009E00001E007F071FD0020B0BDB0B5044601F094
:1009F0000F054068854284BF0120B0BD080609D4B8
:100A000001EBC100002104EB800080F87D1200F5AD
:100A10001F7108E005EBC500012104EB800080F8A0
:100A20003D1000F13C0194F8BC2401200D70887049
:100A3000012A04BF0220B0BD84F8BC04206807F07E
:100A4000FFFD2DB9217C206804F2C44207F0B4FDFB
:100A500004F0D0BB70B501F00F04002604EBC40114
:100A600000EB8105294601F83C4F8B6101234B7057
:100A70000E620A610369012B08BF2A65DAB20068B9
:100A800014B107F0F9FD01E007F01EFD002070BD74
:100A90002DE9F04F89B005688246284607F043FFEC
:100AA00010B109B0BDE8F08F04F0DCF80028F8D0F0
:100AB000D5F80808C0F30D20CAF8FC0404F0D2F8F9
:100AC0000146DAF80000890703D5416901F0020107
:100AD000416105F50061049107F051FF0146DAF824
:100AE00000000595C9063FD5816921F0100181619B
:100AF0002C6A04F00F05C4F3434006281CD00228DA
:100B00002BD147F6F070044027D005EBC500220931
:100B10000AEB80050598D5F88C1207F034FFD5F85C
:100B20008C02D5F89C1200EB1410C5F88C0201EB76
:100B30001410C5F89C0210E00AF2C441059808227E
:100B400007F021FF05EBC500C4F30A120AEB800091
:100B5000D0F89C121144C0F89C12DAF800008169A8
:100B600041F010018161059D07F009FF00030DD4DC
:100B700004F078F84003049E00F1E18004F072F87C
:100B8000002800F1A681DAF80000BAE1DAF80000E6
:100B900007F0D4FE06460AF527744FF430684FF08C
:100BA000000B0AF2C4400890002EE1D0F00700F0DC
:100BB000B8805FFA8BF9DAF80000494607F0D7FEF3
:100BC0000746C0075CD005EB080001218160DAF818
:100BD000000008EB0001036C8A68DAF81050012D60
:100BE00024D115072FD4950647D412F0280F059D60
:100BF00046D1AC46DD4DAB4202D9120400F19880DB
:100C000054F8042C096965466FF3DF41511A2160DD
:100C1000B8F5306F2CD1DAF89422002A00F08D80DC
:100C2000DAF88C020844CAF88C0221E0CF4D05F5B1
:100C30008075AB4211D11004059D0AD4900617D5DA
:100C40002020886014E0C948059D834218D910040B
:100C500016D54FF40040886012E0B8F5306F059D5E
:100C600006D1DAF8941219B90021089A07F0A4FC09
:100C700050464946FFF7F0FD02E020208860059DC0
:100C8000380722D505EB08000821B84B8160DAF857
:100C9000001008EB01000A6C81689A4212D909041D
:100CA00002D54FF400418160504600F0B4FBDAF801
:100CB0001000012809D1DAF800000121089A07F094
:100CC0007BFC02E0504600F0A6FBF80603D505EBDE
:100CD000080010218160B80716D56869000604D5A0
:100CE0000499486840F48060486014F81D0C01289D
:100CF00006D1002004F81D0C4946504600F05FFA6A
:100D000005EB080002218160B80603D505EB080059
:100D100020218160B80404D505EB08004FF4005190
:100D20008160243408F1200876080BF1010B3BE7C1
:100D30004FF4004088606546A2E7012195E7DAF8A4
:100D4000000007F0F4FD07460AF2C44000220290BA
:100D500005F510600690002F3FF410AFF80700F083
:100D6000B580D1B2DAF800000792089107F0EDFDE6
:100D70000446C00727D0079B0122716B03F00F00C8
:100D800002FA00F021EA00007063069800EB4310BD
:100D90008260DAF81000012811D103EBC3000AEBDE
:100DA0008000D0E912121144C16443B9DAF854004A
:100DB00028B9DAF800000121029A07F0FDFB50463D
:100DC0000899FFF740FD2007079A04D506980821E7
:100DD00000EB42108160E00604D50698102100EB7C
:100DE00042108160600604D50698402100EB421055
:100DF0008160A00718D52846114607F061FD079AC3
:100E000002EBC2000AEB800010F83F1F012906D157
:100E1000002101705046089900F0CDF9079A069814
:100E2000022100EB4210816020064FD502EBC20088
:100E30000AEB800BD94659F8541FC84658F8080FDA
:100E4000814243D3DAF800400D1A5BF8481F03973C
:100E500057460BF104068D4288BF0D4604EB421144
:100E600001F5106A15E03D7C3168DBF80030009533
:100E7000151A20469D4288BF1D46ABB2089A07F05E
:100E800057FE306828443060D8F800002844C8F87D
:100E90000000D9F80020DAF81830E91C9BB2B3EB57
:100EA000910F28BF8242DED88242BA46059DDDE915
:100EB0000376079A0AD802F00F00012101FA00F028
:100EC000D4F8341821EA0000C4F834087F0801324D
:100ED00041E7706820F0010070609AF8F40401287E
:100EE00007D100208AF8F40400215046FFF782FC65
:100EF00002E0504600F079FA04F0EBF801F000410E
:100F0000416107F03CFD000502D4DAF800000AE078
:100F1000B068C00702D0504600F09CFA04F0D9F83F
:100F200001F40061416107F02AFD000117D504F0CA
:100F3000D0F801F0006141619AF8F41419B15046FB
:100F400000F088FA0BE001218AF8F414406D0121C9
:100F5000C0F38300CAF8F8045046FFF74BFC03F0D7
:100F600081FEC00404D4DAF8000055E00A30544F82
:100F7000D5F80408102120F00100C5F80408DAF8BB
:100F8000000007F09DFC05F51060DAF804104FF63C
:100F90007F32A9B182600139036823F40013036032
:100FA000C0F80822D0F8003223F40013C0F8003251
:100FB000D0F8003243F00063C0F800322030E8E798
:100FC000F06940F00110F061DAF8300040B1D6F875
:100FD000840040F00B00C6F8840006F1440006E0EF
:100FE000706942F22B010843706106F1100001683C
:100FF0000AF2C44241F00B010160306820F4FE6047
:1010000030609AF81010DAF8000007F0D5FA04F012
:1010100060F801F48051416107F0B1FC0146DAF853
:101020000000890419D507F0C9F8DAF8000007F0C4
:101030006BFCCAF80C00DAF8004001F0DBF89AF813
:101040000C200146204607F0FBFC504600F0B8F9A2
:1010500004F03FF801F40051416107F090FC0007F3
:1010600002D4DAF8000007E0504600F0C2F904F0BC
:1010700030F801F00801416107F081FC000606D458
:1010800003F0F0FDC00219D4DAF8000038E0059949
:10109000012440F2A325886920F080008861DAF8F5
:1010A00004008442ECD21AF80500012803D1E1B211
:1010B0005046FFF7DFFB24350134F0E705980AF1CD
:1010C00063040126012700F51265DAF8040087425F
:1010D00011D260782968B1F1FF3F08DC012806D100
:1010E00047F080002670C1B25046FFF7C3FB24349E
:1010F00020350137E9E703F0ECFF01F4801141618D
:10110000059C07F03CFC800202D4DAF8000030E0D5
:1011100004F532610AF52970DAF80420012301246C
:10112000944221D206780D68B5F1FF3F13DC012E01
:1011300011D1DAF8FC6405F4803506F00106B542F9
:1011400009D1059EB56945F08005B56100F8013CFF
:1011500075692D0603D5243020310134E0E7049968
:10116000486840F40070486003F0B3FF01F40011D8
:10117000416107F004FC400002D4DAF8000007E007
:101180005046FFF75CFB03F0A4FF01F08041416192
:1011900007F0F5FB40077FF584ACDAF800004468FF
:1011A000610704D55046FFF761FBDAF8000041689B
:1011B0002143416075E4D0F8080506F06BBBD0F818
:1011C000080506F076BB2DE9F04F8BB0002800F043
:1011D00087800446056890F8BD0428B9002084F88B
:1011E000BC04204600F092F8032084F8BD04E86BAC
:1011F000C00501D400202061206807F05FF904F1E8
:10120000040B04F1140E04F1240A20680A90D4E9B6
:101210000C509BE80E089EE8C0509AE80007CDE904
:101220000850CDE900B602A880E8805005A880E803
:1012300000070A9806F0D0FF00284ED12068002150
:10124000002507F0BBFB616801200022D3B2994260
:1012500010D903EBC30604EB860686F83C20A6F8FB
:10126000443086F83D007565C6E9125586F8405051
:101270000132EBE700200022D3B299420FD903EBF1
:10128000C30304EB830383F87C22C3F89402C3E90D
:10129000A20083F8800283F87D020132ECE704F1BA
:1012A000140E04F1240AA0680A902268D4E9033BD2
:1012B000D4E90C509EE8C0509AE80007CDE90850E8
:1012C000CDE900B602A880E8805005A880E80007B4
:1012D00010460A9A07F036F830B1022084F8BD04AF
:1012E00001200BB0BDE8F08F002084F83800012009
:1012F00084F8BD04606A012802D12046FFF766FA2F
:10130000206807F013F80020EBE7000070B5B4B0D8
:1013100004462FA81421FEF7ECFF01A8B4210430E5
:10132000FEF7E7FF20682349884241D14FF40010BF
:10133000249002250024CDE910440E954FF400605E
:101340000F900A20CDE90C5060200B9005200A90E8
:101350004FF48020019001A800F0BEFA08B1FFF719
:1013600063F800F0AFF8144EB06840F00100B060D0
:10137000B06800F0010000903294CDE930544FF491
:10138000C0502F9000982FA90C48FFF763F83068E1
:101390000021002240F000703060306800F00070E2
:1013A000009000984D20FFF7E5F94D20FFF7D4F9A4
:1013B00034B070BD000004403845025800000258A7
:1013C00010B50446C06828B1022801D0FFF72CF8F8
:1013D000012100E00021D4F8080506F0D5FAD4F880
:1013E0000805BDE8104006F088BAD0F8080506F0F8
:1013F000B4BAD0F8080506F0BABA10B503F098FCF4
:1014000004BF022010BD84F8381003F0AFFE07F0CF
:1014100006FB03F0CABDD0F8082500F2C44110460F
:1014200006F0BEBA10B503F083FC04BF022010BD65
:1014300003F065FF06D1A169012903D0816B41F456
:101440008031816307F016FA206806F063FF03F02D
:10145000ACBD000010B50446D0F8080506F0E2FA6D
:101460002068D0F8001E41F00101C0F8001E206A7B
:1014700020B10348016841F00601016010BD00BFC2
:1014800010ED00E0B0B5124D2A682968520705D466
:1014900001F00701081A18BF0120B0BD21F00701B3
:1014A000084303F05AFC044655F8080C800406D49F
:1014B000FFF7A6F803F0F4FBF6D90120B0BD002039
:1014C000B0BD00BF0248016841F080710160704703
:1014D0000C4802580248016841F48071016070476D
:1014E0000048025880B500F085FE0249024A03F028
:1014F000ECBC00BF2044025800930008B0B51D4961
:101500008B6A8A6ACC6A4D6BC2F305126AB104F029
:10151000010403F0FBFE0CD0012B0DD013B90B68B6
:101520009B060CD49FED161A13E00021C0E90011B0
:101530001DE09FED121A0CE09FED0F1A09E00B68F9
:10154000104CC3F3C10324FA03F301EE103AB8EED2
:10155000411A0B6B9FED0C3A03F0A2FE0A6B03F0ED
:1015600088FB0A6B03F0C6FD096B03F027FD816061
:10157000B0BD00BF004402580024744A20BCBE4BDA
:101580000024744C0090D00300000039B0B51C4911
:101590008B6A8A6ACC6ACD6BC2F30532B2B1C4F3EE
:1015A000001403F0B3FE15D0BBB90B689B0651BF06
:1015B0009FED161A0B68C3F3C103154C42BF24FA02
:1015C00003F301EE103AB8EE411A08E00021C0E939
:1015D000001112E09FED0C1A01E09FED0A1A8B6BCF
:1015E0009FED0C3A03F05CFE8A6B03F042FB8A6BC2
:1015F00003F080FD896B03F0E1FC8160B0BD00BFAA
:10160000004402580024744A20BCBE4B0024744C91
:101610000090D00300000039B0B51C498B6A8A6A7B
:10162000CC6A4D6CC2F30552B2B1C4F3002403F08E
:101630006DFE15D0BBB90B689B0651BF9FED161A06
:101640000B68C3F3C103154C42BF24FA03F301EE48
:10165000103AB8EE411A08E00021C0E9001112E08A
:101660009FED0C1A01E09FED0A1A0B6C9FED0C3AEE
:1016700003F016FE0A6C03F0FCFA0A6C03F03AFD64
:10168000096C03F09BFC8160B0BD00BF00440258B0
:101690000024744A20BCBE4B0024744C0090D0033C
:1016A00000000039F8B5B0F5002F00F05F80B0F50C
:1016B000007F21D0B0F5806F00F06780B0F5805FCB
:1016C00000F07080B0F5804F23D0B0F5004F31D0DE
:1016D000B0F5803F3ED0B0F5807F40F0CF807949B3
:1016E000086D00F00702042A00F2C8807748DFE89E
:1016F00002F065676EC676007249086DC0F382120B
:10170000042A00F2BB807148DFE802F0585A61B940
:1017100069006C49886DC0F30272062A00F2AE803F
:101720006A48DFE802F00499A0A8AEB2AC00FFF767
:10173000D9FEA4E06348016D01F04051B1F1005FB2
:1017400000F06A80B1F1805F68D0002940F0968097
:1017500000689BE05B48C16C0068C9035FD500016D
:1017600040F18C8001A8FFF711FF73E05548816DAF
:1017700001F44031B1F5003F57D0B1F5803F63D05F
:10178000002940F07B8000681BE04E49086DC0F3E3
:101790004222042A00F272804C48DFE802F00F1166
:1017A000187020004749086DC0F30232042A65D83A
:1017B0004648DFE802F003050C64140008682EE0D8
:1017C000086800015AD501A8FFF7E0FE05E00868A7
:1017D000800053D501A8FFF71FFF01984FE0C86CA8
:1017E0000B6810F04052086805D113F0040302D0D2
:1017F000C0F3C10024E0B2F1805F02D110F4807028
:101800004FD1086810F400301CBF47F64000C0F20A
:101810007D10B2F1005F52E000681EE000688001B8
:101820002CD501A8FFF76AFE23E0C16C03680268AB
:1018300011F040512FD113F004032CD0C2F3C1009A
:10184000244921FA00F01AE00068800016D501A8AA
:10185000FFF7E2FE039812E0086800010ED501A828
:10186000FFF794FE05E00868800007D501A8FFF7A0
:10187000D3FE029803E00868400714D4002004B0A7
:1018800080BD08681249C00502E0086880030E495F
:1018900001EAE070F3E7B1F1805F06D112F48072E3
:1018A00003D00B48EBE70868A2E7006810F40030AB
:1018B0001CBF47F64000C0F27D10B1F1005F18BFB9
:1018C0000020DCE70044025840787D010080BB0026
:1018D00000093D000090D0032DE9F0470446C07890
:1018E000A54F00071CD5A06E4FEA3051032908D838
:1018F000DFE801F002090C11F96941F40031F961E6
:1019000009E001260DE003F0FEFA01E003F03BFCE4
:10191000064630B9A06E396C21F440110843386492
:1019200000266078BA46C00701D1354620E0606DD8
:1019300004280BD83546DFE800F0030C0F12120024
:10194000F869354640F40030F86108E001250127C8
:101950000FE003F017FD01E003F08DFA05462F4676
:101960003DB9606D03F075FA21F0070103F0EBFA61
:101970003746607880071ED5A06D4FEAB010052865
:1019800007D8DFE800F003090C0F0F0F03F0DDF9B3
:1019900008E0012501260FE003F0F4FC01E003F06C
:1019A0006AFA05462E463DB9A06D03F052FA21F4BD
:1019B000E07103F0C8FA3E46607840071ED5E06D3E
:1019C0004FEA7020052807D8DFE800F003090C0F64
:1019D0000F0F03F0BAF908E0012501270FE003F02B
:1019E000D1FC01E003F047FA05462F463DB9E06D12
:1019F00003F02FFA21F4606103F0A5FA3746E0788E
:101A000080071DD5A06C4FEA3010032806D8DFE808
:101A100000F00B02080B03F098F905E00125012600
:101A20000FE003F070FA05462E4655B9A06CDAF8BF
:101A30003C100025524621F030010843CAF83C0012
:101A40003E466078C0061ED5206E4FEA303004282E
:101A500007D8DFE800F003090C0F0F0003F075F959
:101A600008E0012501270FE003F08CFC01E003F002
:101A700002FA05462F463DB9206E03F0EAF921F43B
:101A8000E04103F060FA3746607880061BD5606E4F
:101A90004FEA3040052807D8DFE800F00C03090CB6
:101AA0000C0C03F0C5F904E0012501260CE003F05D
:101AB0005BFC05462E463DB9606E03F0CAF921F481
:101AC000E02103F040FA3E46607840061ED5D4F887
:101AD000AC004FEA3070062808D8DFE800F00D04AB
:101AE0000A0D0D0D0D0003F0A3F904E001250127F7
:101AF0000DE003F039FC05462F4645B9D4F8AC009B
:101B000003F0D0F921F0E04103F035FA3746607870
:101B1000000616D5606F58B1B0F1005F05D0B0F186
:101B2000805F22D103F011F902E003F081F905464C
:101B30002E463DB9606F03F08CF921F0405103F05F
:101B400002FA3E46E078C00702D1B046574622E08E
:101B5000606C574603280BD8DFE800F0130210131F
:101B6000F86940F40030F8610BE001250126E9E74F
:101B700001254FF001080EE01044025803F0C3F9AC
:101B80000546A8463DB9606CF96B0025B04621F0CA
:101B900003010843F863A078400601D4474616E0E5
:101BA000D7F8F00340F48070C7F8F003FEF728FD83
:101BB0000646D7F8F003C00507D4FEF721FD801BC9
:101BC0006428F6D90325032701E02F4685B1207844
:101BD000C00748D0D4F880004FEAF000052832D87A
:101BE000DFE800F037033437373703F021F92FE00F
:101BF000DAF86010D4F8B0005546414011F4407F47
:101C00000BD0296E2A6E42F480322A6621F440718C
:101C10002A6E22F480322A662966B0F5807F40F071
:101C2000CA81FEF7EDFC064641F288390327DAF84F
:101C30006000800700F1BC81FEF7E2FC801B0325F9
:101C40004845F4D9C3E7012501260DE003F08CFBDC
:101C500005462E4645B9D4F8800003F065F921F019
:101C6000380103F0EDF93E462078800719D5E06F82
:101C7000052807D8DFE800F00C03090C0C0C03F072
:101C8000D7F804E0012501270CE003F06DFB0546C1
:101C90002F463DB9E06F03F047F921F0070103F04B
:101CA000CFF93746207840071BD5D4F8980005288F
:101CB00007D8DFE800F00C03090C0C0C03F0B8F8AF
:101CC00004E0012501260DE003F04EFB05462E46FB
:101CD00045B9D4F8980003F0E5F821F0070103F0C6
:101CE0004AF93E46207880061DD5D4F894004FEA84
:101CF0003070052807D8DFE800F00C03090C0C0C45
:101D000003F040FB04E0012501270DE003F03BFA5E
:101D100005462F4645B9D4F8940003F005F921F0A3
:101D2000E04103F08DF93746207840061DD5D4F800
:101D3000A0004FEAB020052807D8DFE800F00C0328
:101D4000090C0C0C03F01EFB04E0012501260DE03C
:101D500003F019FA05462E4645B9D4F8A00003F061
:101D6000A1F821F4E05103F006F93E462078000680
:101D70001DD5D4F8A4004FEA7030052807D8DFE855
:101D800000F00C03090C0C0C03F0FCFA04E0012534
:101D900001270DE003F0F7F905462F4645B9D4F8C1
:101DA000A40003F07FF821F4604103F0E4F8374623
:101DB0002068010714D5D4F88810B1F5805F07D1E9
:101DC00003F0E1F9002818BF01272068D4F8881033
:101DD000DAF84420534622F440521143CAF8441022
:101DE000C10614D5D4F89C10B1F5807F07D103F05B
:101DF000CAF9002818BF01272068D4F89C10DAF827
:101E00004820534622F440721143CAF84810000398
:101E100018D5D4F8A800B0F5003F09D0B0F5803F40
:101E200003D010BB03F0AEFA01E003F0ACF90546B5
:101E30002E4645B9D4F8A80003F034F821F4403117
:101E400003F099F83E46A07840071ED5D4F88C00E0
:101E5000B0F5401F0FD0B0F5001F09D0B0F5801FBE
:101E600040F0A38002F071FF05E001250126EAE7BA
:101E700003F07AFA05462F4645B9D4F88C0003F0F2
:101E800053F821F4401103F0DBF83746A078C0077F
:101E900001D13E4619E0E06CB0F5803F03D090B927
:101EA00002F053FF02E003F02EF805462E4665B916
:101EB000E06CDAF83C100025524621F480310843EA
:101EC000CAF83C00E5E7012501262068810005D518
:101ED00003F059F9002818BF0126206881031CD59A
:101EE000D4F884106FF0010202EB3122022A0AD3E7
:101EF0004FEA31223AB1012A06D1DAF81C2042F425
:101F00000032CAF81C200DB1012606E0DAF84420A0
:101F100022F440721143CAF84410C10207D5A16FE0
:101F2000DAF8402022F000421143CAF84010810242
:101F300007D5E16EDAF8402022F080721143CAF82A
:101F40004010010507D5216FDAF8482022F0006221
:101F50001143CAF8481041000CD5DAF8001021F4FA
:101F60000041CAF80010D4F8B410DAF80020114388
:101F7000CAF80010B0F1FF3F07DC216DDAF83C2011
:101F800022F040521143CAF83C10000207D5D4F8A1
:101F90009000DAF8441021F4400103F051F8002ECB
:101FA00018BF01263046BDE8F087012501276DE7FF
:101FB0005546D4F8B0002A68094900F4407322F469
:101FC0007C5201EA1011B3F5407F6FF31F3008BF58
:101FD0000A432A60296E084328660025DEE500BF13
:101FE000CFFFFF002DE9F843002800F0FB807F4D74
:101FF00004468846286800F00F0088420BD2286803
:1020000020F00F0040EA08002860286800F00F0068
:10201000404540F0E7802068BB4F410709D5216962
:10202000BA6903F063F804D9BA6922F07002114367
:10203000B961010709D56169FA6903F057F804D954
:10204000FA6922F070021143F961C1060AD5A1694B
:10205000FA6902F4E062914204D9FA6922F4E0627A
:102060001143F961810609D5E1693A6A03F03EF846
:1020700004D93A6A22F070021143396210F0020169
:102080000AD0E268BB6903F00F039A4204D9BB6926
:1020900023F00F031A43BA61C2073AD0D4E9010111
:1020A000BA6922F470621143B961012807D003288C
:1020B00009D002280BD1396889030CD492E0396821
:1020C000C90508D48EE03968890104D48AE03968EA
:1020D000490740F187803969A94621F00701084383
:1020E0003861FEF78DFA064641F288356068396935
:1020F00001F03801B1EBC00F07D0FEF781FA801B69
:10210000A842F3D90320BDE8F88320684D4600F0CB
:10211000020151B1E168BA6902F00F02914204D2A2
:10212000BA6922F00F021143B961296801F00F0169
:1021300041450AD9296821F00F0141EA08012960C7
:10214000296801F00F0141454CD1410709D52169AA
:10215000BA6902F0CBFF04D2BA6922F070021143CF
:10216000B961010709D56169FA6902F0BFFF04D2BC
:10217000FA6922F070021143F961C1060AD5A1691A
:10218000FA6902F4E062914204D2FA6922F4E06250
:102190001143F96180060AD5E069396A01F07001DE
:1021A000884204D2396A21F070010843386200F095
:1021B00041F8B9691C4A1D4BC1F30321515C01F080
:1021C0001F01C840B969186001F00F01515C01F0AE
:1021D0001F01C8401649086005480068BDE8F8437B
:1021E000FEF746BA0120BDE8F88300BF0020005288
:1021F0000400002480B500F01DF80A490A4B0A6863
:10220000096801F00F01C2F30322595C9A5C01F0E6
:102210001F0102F01F02D040044A1060C840044968
:10222000086080BD1844025800930008080000248C
:102230000C00002410B534490869C0F3C20003281B
:102240000FD0022804BF324810BD40B9086880068C
:10225000334858D50968C1F3C101C84010BD2B48A7
:1022600010BD8A6A886ACB6A4C6BC0F30510F0B166
:1022700003F00103C4F3CC0402F003026343022A17
:1022800000EE103AB8EE400A13D0AAB90A689206D6
:1022900051BF9FED221A0A68C2F3C102204B42BF10
:1022A00023FA02F201EE102AB8EE411A06E00020ED
:1022B00010BD9FED191A01E09FED161A0A6B9FEDF4
:1022C000193A6FF35F2202EE102AB8EE422A00EEAE
:1022D000032AB7EE000A32EE000A02EE100A086B7B
:1022E000C0F34620B8EE422A013081EE021A21EEF8
:1022F000000A01EE100AB8EE411A80EE010ABCEEA7
:10230000C00A10EE100A10BD0044025800093D003A
:1023100040787D010024744A20BCBE4B0024744CDC
:102320000090D00300000039F8B5002800F0C58007
:1023300004460078DA4EC0071FD12078800766D5A2
:10234000306910F03801B06A44D0182901D18007F3
:1023500040D03068E168002900F00C8120F01900BD
:10236000084302F083FC05463068400748D4FEF776
:1023700047F9401B0228F7D990E1306900F0380195
:10238000B06A102905D018290AD100F003000228EC
:1023900006D130688003D0D560680028CDD18CE0AC
:1023A0006068002800F04681B0F5A81F00F0598150
:1023B000B0F5A02F00F05D81B0F5803F00F05F81A7
:1023C000306820F480303060306820F4802002F0E3
:1023D00015FF57E1E0683168490701D500286CD046
:1023E000316821F01901084302F040FC05463068CD
:1023F000400705D4FEF704F902F0A3FCF7D9F8BDB5
:102400002069716821F0FE4141EA00607060207827
:10241000C00618D5306900F03801B06A082905D027
:10242000182971D100F0030001286DD13068C00572
:1024300002D5E069802840D1206AF16821F07C5102
:1024400041EA0060F0602078000738D420788006E8
:1024500048D4207840076AD4676A67B3306900F0CF
:102460003800182840F0CA80B16A306B012F24D0A0
:10247000A26A01F0030393421FD1E26AC1F305117E
:1024800091421AD10146226B6FF35F21013A9142CA
:1024900013D1626BC0F34621013A91420DD1A26B78
:1024A000C0F30641013A914207D1E16BC0F30660E7
:1024B0000139884201D10020F8BD0120F8BD706FBC
:1024C0006169002946D040F001007067FEF798F876
:1024D0000546706F8007B9D4FEF792F8401B0228BA
:1024E000F7D9DBE03068A169002969D040F4805059
:1024F00002F0BCFB054630688004AAD4FEF780F8E1
:10250000401B0228F7D9C9E03068E169002966D08C
:1025100040F0800002F0AAFB05463068C0053FF598
:102520008BAFFEF76DF802F00CFCF6D967E7D6F832
:10253000000440F48070C6F80004FEF761F8054618
:10254000D6F80004C00524D4FEF75AF8401B6428CE
:10255000F6D9A3E020F001007067FEF751F80546B8
:10256000706F80077FF572AFFEF74AF802F0E9FB63
:10257000F6D944E720F0010002F078FB0546306808
:1025800040077FF544AFFEF73BF802F0DAFBF6D9DF
:1025900035E7A068002800F08580852800F09C8041
:1025A000052800F0A180012800F0A480306F20F001
:1025B00001003067306F20F0040002F0FAFC9CE06C
:1025C00020F4805002F052FB0546306880047FF50D
:1025D00040AFFEF715F802F0B4FBF6D90FE720F094
:1025E000800002F043FB05463068C0057FF52BAF45
:1025F000FEF706F802F0A5FBF6D900E7306820F0F8
:10260000807002F033FB0546022F09D1306880014B
:1026100040F18480FDF7F4FF02F093FBF6D9EEE67B
:10262000306880017FF547AFFDF7EAFF02F089FBD4
:10263000F6D9E4E6306820F4803002F0DFFD306047
:10264000306820F4802002F011FB054630688003DA
:102650007FF573AEFDF7D4FF411B03206429F5D944
:10266000CDE6306840F480203060306840F480105F
:1026700004E0306840F4802002F0C0FD3060306833
:1026800040F4803002F0F2FA0546306880033FF5EE
:1026900054AEFDF7B5FF401B6428F6D90320F8BD02
:1026A00000440258306F20F0010002F082FC3067D5
:1026B000306F20F004003067FDF7A2FF054641F2BD
:1026C0008837306F80077FF5C7AEFDF799FF411B54
:1026D0000320B942F5D992E6306F40F0040030672C
:1026E000306F40F0800004E0306F40F0040002F0F2
:1026F00060FC3067306F40F001003067FDF780FF0D
:10270000054641F28837306F80073FF5A5AEFDF7EB
:1027100077FF411B0320B942F5D970E604F1280583
:10272000B06A40F2F33188432ECD0843591E40EA87
:102730000210B0626FF35F214FF4FE024FF47E404F
:1027400000EB452080B20844A16B02EB01414FF041
:10275000FE4201F4FE010844E16B02EB016101F06D
:10276000FE41084430634FF6F871F06A20F0010032
:10277000F062706B8843A16C40EAC1007063206C0A
:10278000F16A21F00C010843F062F06A616C20F0FC
:1027900002000843F062F06A40F48030F062F06AB0
:1027A00040F40030F062F06A40F48020F062F06A99
:1027B00040F00100F062306840F0807002F056FA9C
:1027C0000446306880013FF576AEFDF719FF011B26
:1027D00003200229F5D912E670B500684068030CA1
:1027E00000F03F05CB708D70C0F30424C0F3423677
:1027F0004C700E70CAB92409020A2D0900F00F06A8
:10280000C0F3035002F00F0244EA840445EA850550
:1028100000EB800002EB44024A7006EB45058D7028
:1028200003F00F0202EB4000C870002070BD70B5CD
:10283000006883684B6003696FF3DF338B60046863
:1028400004F07F058D70C4F38050C870C4F3062374
:102850004B70C4F305400870CAB91B09220A2D0940
:102860000009260C04F00F0402F00F0203EB8303AF
:1028700005EB850540EA800002EB43024A7004EB59
:1028800045048C7006F00F0202EB40000870002037
:1028900070BD000070B5B8B3044690F8250028B9A3
:1028A000002084F82400204600F038F8022084F844
:1028B0002500CA212068416202F0FFFC00BB94E8B9
:1028C0000F00154E85693540856125692943A56945
:1028D000294385692943816143EA0241016102F08C
:1028E000BDFA68B92068D4E9072361691A4385698C
:1028F000114325F0604585618269114381610020A3
:1029000002F0BEFA02D070BD012070BD012084F833
:102910002500002070BD00BFBFFF8FFB10B5AEB01B
:1029200004466846B4210430FDF7E3FC20680B49F7
:10293000884210D14FF480702C904FF480000090AA
:102940006846FEF7C9FF08B1FDF76EFD044801684F
:1029500041F4004101602EB010BD00BF004000589E
:10296000704402582DE9F04102F0FAF93ED084F8A3
:102970002500012084F8240032B16878E978AE7827
:10298000000240EA014714E06E78F00604D506F034
:10299000EF0000F10A066E70E878DFF8F480C047B7
:1029A00007463046C047000240EA0747A878C047BC
:1029B00006462068CA2141625321416220462D7893
:1029C00002F0C6FD48B947EA0600216820F0C000C1
:1029D00040EA4530486002F041FA02F051FA02D173
:1029E000012184F82510002184F82410BDE8F0812D
:1029F0002DE9F04102F0B4F947D084F82500CA214E
:102A0000164620684162012184F8241002F055FC2A
:102A100090BB2768B86900F040001EB198B900204B
:102A2000E87012E008B90020E8702878DFF86080CC
:102A3000C04706466878C04702F073FCE978304426
:102A400040EA815009E0E87880056A782978AB7817
:102A5000120242EA0141194408430E490840386015
:102A6000B86920F48020B861D5E903010843B96949
:102A70000843B86102F0F2F902F002FA02D1012132
:102A800084F82510002184F82410BDE8F08100BFEF
:102A90002D5500087F7F7F00B0B504460068C168EF
:102AA00021F0A001C160FDF7ABFD05462068C068BC
:102AB000800606D4FDF7A4FD02F06AFBF6D90320D8
:102AC000B0BD0020B0BD7047704770477047000030
:102AD0002DE9FF41044603200D4684F83000A06B29
:102AE00003280BD14FF08050616BAC4E08436063FC
:102AF000606B00B320688663012576E0002D3FD02F
:102B0000B5F5004FEED0B5F5804F4AD102F094F9FB
:102B1000800149D402A9204603F07CFB0028E3D1C0
:102B20009DF80E00400739D502F041FB0028DBD1AB
:102B30002068022171E04FF48030FEF7B3FDD8B178
:102B40003749D4E904C7B0FBF1F38846D4E9011250
:102B50009F4243D2B646A66DB6F5007F3DD0B6F58E
:102B6000807F24D12F4B67B37E00B0FBF6F646453D
:102B700088BFB0FBF3F730E002F037FA6063BBE7E1
:102B800002F05AF980010FD402A9204603F042FB5B
:102B90000028A9D19DF80E00C00737D14FF0806002
:102BA000A2E74FF000609FE74FF400609CE77FB121
:102BB0007E00B0FBF6F01C4EB042764688BF1F4642
:102BC0000CE000277646404588BFB0FBF3F705E0F0
:102BD000154EB04298BF00231F46764620682B460C
:102BE000CDE900C703F0E4FA0025206802F09EFA60
:102BF00028B1216801258E63616B08436063012061
:102C000084F83000284604B0BDE8F08102F0CFFA25
:102C100000287FF469AF2068002103F029F863E7FA
:102C200080F0FA0200E1F50540787D017047000070
:102C3000B0B5D0E91742836BA50F0D70C4F383655F
:102C40004D70C4F301658D70250CCD70250A0D7192
:102C50004C71140DCC80C2F303440C72C2F3C03427
:102C60004C72C2F380348C72C2F34034CC72C2F323
:102C700000340C7300244C73012B30D0002B40F037
:102C8000818040F6FC73012503EA8202436E42EA2A
:102C900093720A61426EC2F3C2630B75C2F30263A0
:102CA0004B75C2F342538B75C2F38243CB75C2F3AB
:102CB000C2330B764FF4007343650B690C7E01330E
:102CC00004F007040234A34083640C7A04F00F0478
:102CD00005FA04F4C464640A6343036512E002F075
:102CE0003F02B0F8663043EA02420A614FF4806363
:102CF0004FF400724265C2640A6903EB82220265E6
:102D00008264426EC2F380334B76C2F3C6138B7675
:102D100002F07F02CA76806EC20F0A77C0F341725A
:102D20004A77C0F30043C0F382628A77C0F38352CC
:102D3000CA77C0F3405281F82020002281F8212078
:102D400081F82230C0F3C03381F82330C0F38033E0
:102D500081F82430C0F3403381F82530C0F30033CC
:102D600081F82630C0F3812381F82730C0F3012396
:102D7000C0B281F82830400881F82900012081F88C
:102D80002A0009E00168744A8A630122416B41F01C
:102D90008051416380F830201046B0BDFF0FE01F26
:102DA000B0B500F138053CCD81E83C00826C0A6189
:102DB000C26C4A61026D406DC8618A610020B0BD7D
:102DC00010B504460068616C090403F012F820B1E4
:102DD000616B08436063002010BD02F042F8C0F34D
:102DE000432010BD2DE9F04397B0044690F8300021
:102DF000032801D101253CE00D46FDF701FC80468A
:102E000002F02FF88001544E20D42068402102F0B7
:102E10001CFFB8B902F0CBF9A0B901201690002030
:102E200015900220149060201390402012904FF0D3
:102E3000FF301190206811A903F068F8206803F0B2
:102E400000F8D0B10146606B606301E04FF40061AF
:102E5000206801258663626B1143616384F83050FA
:102E600002F064F928B1216801258E63606384F85B
:102E70003050284617B0BDE8F08301AFB146206856
:102E8000426B416B12F4957F14D1080409D50026DA
:102E9000202E04D002F073F8B8510436F8E7374416
:102EA0004E46FDF7ADFBA0EB08004FF000410130AE
:102EB000E5D1CDE7090714D4416B890713D4416BE1
:102EC000890612D4416BC90411D503F087F9386023
:102ED000FDF796FBA0EB080001303AD020680437DC
:102EE000F0E70821B4E70221B2E72021B0E79549D5
:102EF0008163DDE9011CDDE90336CFB2BA092A702E
:102F0000C7F340126A706FF0FF0202EA112747EA26
:102F1000116169809CFA8CF169602B72190A6972DF
:102F2000C3F30351A97202EA1341F2B21144A98119
:102F3000C6F38521A973C6F30121E9731109297428
:102F400006F00F0169744E469DF81710A97400250C
:102F500086E74FF000417BE7FF0FE01FF8B504461E
:102F60000068E56A416B090402D5290700F18780F2
:102F7000416BC90556D4416B490402D5290700F1BC
:102F8000B780426B416B12F03A0F00F09E808907C8
:102F900003D5616B41F002016163416B090703D501
:102FA000616B41F008016163416B890603D5616B78
:102FB00041F020016163416BC90603D5616B41F0AB
:102FC000100161635F498163C16B21F49D71C1632D
:102FD000C16821F04001C160C16A41F40051C16281
:102FE000C16841F08001C16002F040FF2168626B5E
:102FF00010436063C86820F08000C8604FF4006030
:103000008863280700F18180280637D5606BA8B354
:10301000C86B20F08050C86300200865012084F848
:10302000300077E04FF4807181634CF23A12C16B4B
:103030009143C163C16B21F08051C163C16821F02C
:103040004001C160290727D4290617D500268662CA
:10305000C662066515F0220F04D002F007FF08B122
:1030600001F07DFF012084F83000E66215F0300F9A
:1030700002D0204600F0C9FAA8071CD1F8BDA06A0A
:103080002028FBD3656A0026AF19202E18D001F046
:1030900076FF02F0DBF8F7E715F0220F04D002F01C
:1030A000E5FE08B101F05BFF2068264902F06EF9E9
:1030B000E062A80733D02046BDE8F84000F0A4BA8B
:1030C000A06A67622038A062F8BDC900D6D54FF06B
:1030D00080518163006D05F02001400729D420460E
:1030E0000029BDE8F84018BFFFF7F0BCFFF7ECBCC3
:1030F000206A2028C2D3E66900276D46F019202FE8
:1031000012D001F037FE0437F8E7012084F83000D0
:103110000020E0622046BDE8F840FFF787BD20466A
:10312000BDE8F84000F071BAE061206A2038206202
:10313000F8BD20460029BDE8F84018BFFFF7C5BC20
:10314000FFF7C1BC3A0F0018B0B586B048B30446CB
:1031500090F8300020B900202076204600F040F999
:10316000042084F83000204600F03AF8C8B901A9DC
:103170002046FFF737FEA0B9A26B9DF814009DF81A
:103180001510012A06D108430CBF4FF480704FF48C
:10319000007000E00020A065E1682046FFF798FC81
:1031A00010B1012006B0B0BDFDF72AFA054601F0C6
:1031B00064FF04280CD0FDF723FA401B0130F6D140
:1031C0004FF000406063012084F830000320E9E7FD
:1031D00000206063E062012184F83010E2E7000023
:1031E0002DE9F0418EB004464FF48030FEF75AFAD4
:1031F00068B3054676480021002200230027B5FB6E
:10320000F0F62068CDE9007602F0D2FF206802F0E7
:10321000DFFF70006F49B5FBF0F0B1FBF0F001305B
:10322000FDF708F90397206802F032FDF0B9206835
:1032300002F054FDB0F1004F0FD10020E063206890
:1032400002F026FD90B9E06B012808D018E00121BA
:1032500084F830104FF000600DE00120E06320683A
:10326000002102F0CFFC58B14FF08050012184F8CA
:103270003010626B1043606308460EB0BDE8F08109
:1032800000214FF6FE76554D0020039AB0B9B242A8
:1032900014D82068002102F0B5FC0028E6D120688F
:1032A000294602F0C2FC0028DED101F0DAFD0399C4
:1032B00001310391C0F38071C00FE6E703984FF628
:1032C000FF72904202D34FF08070CFE70020A163DD
:1032D000ADF80A00FDF794F90546206802F060FF9A
:1032E00080B1A06B032810D12068042102F05CFF9C
:1032F000000D206403A92046FFF79AFC88B34FF025
:10330000805033E04FF0806030E0206802F030FD04
:1033100060BB2068DFF8C0800021C047E0662068FD
:103320000421C047206720680821C04760672068E3
:103330000C21C047A067A06B0328D5D000210DF158
:103340000A0641F2873721BB2068314602F064FD4E
:1033500060B9FDF755F9401BB84235D8BDF80A10E1
:10336000F1E7616C2068090402F0EFFC00287FF4AB
:103370007DAF206801F0DAFE48B12168F64A8A6321
:10338000616B08430121606384F8301074E7002109
:1033900072E7A06B0328A7D061642068090402F0DB
:1033A000FDFC0028E2D120680021C047E0652068CC
:1033B0000421C047206620680821C0476066206855
:1033C0000C21C047A0668FE74FF00040CEE700BF5A
:1033D00000350C0010210100A9610008000010C197
:1033E0002DE9F043B5B0044630A81421FCF781FF65
:1033F00002A8B4210430FCF77CFF206829498842E8
:103400004DD14FF480304FF00008CDF85480029039
:1034100002A8FEF761FA08B1FDF706F822484FF05E
:103420000C0903260227214C016841F48031016018
:10343000016801F4803101910199C16841F00401F2
:10344000C160C16801F0040101910199C16841F0B6
:103450000801C160C06800F0080001900198CDF833
:10346000D090CDE9328631974FF4F850309030AD9E
:1034700020462946FCF7EEFF042030902946CDE98E
:103480003369CDE9317804F58060FCF7E3FF312042
:1034900000210022FDF76EF93120FDF75DF935B00E
:1034A000BDE8F0830070005234450258000802580D
:1034B0002DE9F04F87B0984617460D460446FDF7B4
:1034C0009FF86DB1824601F034FD0CD1002161639B
:1034D00008EB0700226D90420DD901F027FF05E0AF
:1034E00001F083FD02E0606B40F00050606301205A
:1034F00007B0BDE8F08F01F0DAFC4FF00209206858
:10350000A66BC162CDE9051190210391CDF8109011
:1035100001F0ACFD01A902F0F9FC01F095FD18BF26
:103520007F02B8F1020F05D33946C4F82C9002F09F
:10353000E6FB04E00121E162394602F0F3FB38B119
:103540002168854A8A63616B084301F088FDCFE7F3
:10355000DDF84090DDF808B02068416B11F4957FEC
:1035600021D1406BBBF1200F0ED310F400400BD0E3
:103570000026AF19202E04D001F001FD01F066FEF7
:10358000F7E7ABF1200B3D46FDF73AF8A0EB0A0058
:103590004845E1D3206870498163606B40F000408A
:1035A00001F0B5FCA4E701F098FC0ED311F4807192
:1035B0000BD0A16B032908D002F058FC014620680B
:1035C00019B1654A8263606BBEE7416B090709D494
:1035D000416B89070CD4416B89060FD45F4901F018
:1035E000D5FE85E75C498163606B40F00800ACE77D
:1035F00059498163606B40F00200A6E75649816338
:10360000606B40F02000A0E7704770472DE9F04F55
:1036100087B0984615460F460446FCF7F1FF6FB198
:10362000824601F086FC0CD10021616308EB0500A5
:10363000226D90420DD901F079FE05E001F0D5FC34
:1036400002E0606B40F000506063012007B0BDE80D
:10365000F08F032084F830002068A66BC1620691C9
:10366000CDE904119021039101F000FD01A902F0C0
:103670004DFC01F0E9FC18BF6D02B8F1020F03D355
:10368000202101F002FC04E01021E162294602F051
:103690002AFC38B12168304A8A63616B084301F023
:1036A000DEFCD3E7DDF84090DDF808B06D46206819
:1036B000416B11F48D7F1ED1406BBBF1200F0DD3F8
:1036C00010F480400AD00026B819202E03D001F053
:1036D00051FB0436F8E7ABF1200B0746FCF790FFEF
:1036E000A0EB0A004845E2D320681B498163606B68
:1036F00001F00DFCAAE701F0F0FB0ED311F480718C
:103700000BD0A16B032908D002F0B0FB0146206862
:1037100019B1114A8263606BC0E7416B090709D494
:10372000416B89070CD4416BC9060FD40B4901F0DA
:103730002DFE8BE708498163606B40F00800AEE71F
:1037400005498163606B40F00200A8E7024981638C
:10375000606B40F01000A2E7FF0FE01F3A0F001867
:10376000F8B538B3044600204749A0622068884273
:1037700008D0464A904205D0454A904202D0E268BD
:103780000F2A17D8E268E36B0125083205EB5313C3
:10379000D2085A4388420BD03D49884208D03B4B5F
:1037A000984218BF082A05D8884218BF984203D10A
:1037B000102A01D90120F8BD94F8811029B901F02F
:1037C00068FB204600F066F82068022184F881102A
:1037D00001F061FCD4F818C06168836803F4F81341
:1037E000BCF1806F12D139B1B1F5800F0ED1A56B4C
:1037F00035B14FF4800109E0A56BB5F1805F04D1CC
:10380000056845F48055056000E00021E56904F194
:10381000080762692B43A56A2B43E56B2B43E0CF76
:1038200033438360636B666A43EA0C033343A66BDE
:1038300033433B431A43236A1A43D4E912360A43FB
:1038400032432A431A43A36D1A43C26049B98268BE
:10385000012363F3CC2282600223826863F34A224D
:103860008260026D490222F00102026505D5616D98
:10387000C26822F000421143C1600020C4F88400F5
:10388000012184F88110F8BD00380040003C004060
:103890000030014010B5B4B004462FA81421FCF745
:1038A00028FD01A8B4210430FCF723FD2068184945
:1038B00088422AD14FF4005000241A94019001A8A4
:1038C000FEF70AF808B1FCF7AFFD1248016941F4B0
:1038D00000510161016901F40051009100990168F2
:1038E00041F010010160006800F010000090CDE987
:1038F000314405203390022030904FF4A0402F90A7
:1039000000982FA90448FCF7A5FD34B010BD00BFF6
:103910000034014040450258001002582DE9F84398
:103920000446D0E90050994617460E46B0F5800F80
:1039300002D1A068002856D094F8800001284FD00A
:10394000012084F88000FCF75BFE804601F09FFBBD
:1039500044D1002E54D0002F52D0042001F0EDFAB3
:10396000A4F86A70A4F868706666A4F86000E06560
:10397000C4E91C00A4F86200A1682068B1F5C02F5A
:1039800003D1016821F40061016001F015FC01D14F
:1039900001F09CFCE068102836D348F2080509F1D4
:1039A0000106B4F86A00002861D020684169294204
:1039B00006D0006B616E01C1616601F0EDF9F0E7C0
:1039C000FCF71EFE002EECD0A0EB08004845E8D323
:1039D00001F04BFA01F072F9BDE8F88301F059FAF1
:1039E0000220BDE8F883042084F881003146324685
:1039F0003B46CDF80090204600F00BF9BDE8F88377
:103A000001F0A5FABDE8F883072819D909F10106E4
:103A1000B4F86A0058B320684069C00708D1FCF7C1
:103A2000EFFD002EF4D0A0EB08004845F0D3CFE71F
:103A3000288E616E21F8020B616601F0ADF9E7E7AF
:103A400009F10105B4F86A0088B120684169C90725
:103A500008D1FCF7D5FD002DF4D0A0EB08004845B7
:103A6000F0D3B5E701F08EFA01F096F9EAE701F03C
:103A7000FCF901F0BEFA18BF0120BDE8F8832DE97A
:103A8000F04701F018FA49D001201D4617460E46AE
:103A900001F06BFA804601F0FAFA3DD1002E40D0D9
:103AA000002F3ED0032001F048FAA4F86270A4F879
:103AB0006070E665A4F868006066C4E91C00A4F8BC
:103AC0006A00A1682068B1F5C02F03D1016841F4F4
:103AD0000061016001F070FB01D101F0F7FBE068CB
:103AE000102822D36E1CB4F8620000287BD0206816
:103AF0004169890708D4FCF783FD002EF3D0A0EBC1
:103B00000800A842EFD37EE001F020FBB4F8620089
:103B10000138A4F86200E6E701F0BBF90220BDE835
:103B2000F08701F014FABDE8F087072825D901F0E5
:103B3000C3FAB4F86200002855D0206841698907AB
:103B400008D4FCF75DFD002EF3D0A0EB0800A842DE
:103B5000EFD358E0B4F86210022905D3E16B19B134
:103B600001F0F4FA504602E001F09AFA3846B4F84F
:103B700062100844A4F86200DBE701F09DFAB4F893
:103B8000620080B320684169890708D4FCF738FDDA
:103B9000002EF4D0A0EB0800A842F0D333E0B4F834
:103BA0006210042907D3E16B412904D301F0CEFA56
:103BB0004FF6FC7011E0B4F86210022905D3E16BF6
:103BC00019B101F06DFA504607E0E16D097880F80F
:103BD0002010E06D0130E0653846B4F8621008440A
:103BE000A4F86200CBE7204641462A4602F0D2FB09
:103BF00008B101F045FA01F038F901F0FAF918BFFF
:103C00000120BDE8F08701F030F901F057F8BDE878
:103C1000F0872DE9F84F01F04EF973D001209B4653
:103C200015460F4601F0A1F9804601F030FA5ED149
:103C3000002F6AD0002D68D0BBF1000F65D094F83A
:103C40008100042802D0052084F881000021C4F8F6
:103C50008410A4F86AB0A4F862B04FF6FF76D4E9F5
:103C600000024368B3435B4443606566A4F868B0F0
:103C7000E765C4E91C11A4F860B0B2F5800F0168D3
:103C800041F00101016001D101F020FBE068DDF8A5
:103C900028A010283DD348F208050AF101075E4626
:103CA00056EA0B0000F0998001F055FA18BF11F0A8
:103CB000020104D0E16D04C9026201F016F9416904
:103CC00066B129400AD0006BB4F86A100139A4F833
:103CD0006A10616E01C16166B4F86A60FCF790FC1D
:103CE000002FDDD0A0EB08005045D9D36FE061680C
:103CF000B1F5800F04D1042802D1A068002897D024
:103D000001F0C7F80220BDE8F88F01F020F9BDE806
:103D1000F88F0AF10105072828D95E4656EA0B00FC
:103D20005BD001F018FA18BF11F0020106D0E16D66
:103D300031F8022BA9F8202001F0D7F8406966B1CC
:103D400010F0010009D0B9F83000616E21F8020BC3
:103D500001F022F86166B4F86A60FCF751FC002DAE
:103D6000DCD0A0EB08005045D8D330E05F4657EADE
:103D70000B0032D001F0EFF918BF11F002010ED0A4
:103D8000E16D097880F82010B4F862000138A4F8D9
:103D90006200E16D20680131E165B4F862B041690B
:103DA0006FB111F001010AD090F83000616E087017
:103DB00000F0F2FF606E01306066B4F86A70FCF7E4
:103DC0001FFC002DD3D0A0EB08005045CFD301F04D
:103DD0004CF800F073FFBDE8F88F2046414652468C
:103DE00002F0D8FA08B101F04BF901F03EF801F009
:103DF00000F918BF0120BDE8F88F0000411E002027
:103E0000B0EB116F01D001207047044AF0235160DC
:103E100003490B70906007211160704710E000E0CB
:103E200023ED00E0F0B590F83C20012A01D10221F9
:103E300040E091E83C00204E25F47C5524F4705479
:103E4000334022F477222C43684D23431A430B69F5
:103E500023F476231A434B691A430B6B22F4742222
:103E600023F470231A438B6942EA0343026842F445
:103E70008064AC4202BF23F08053CE693343AC422E
:103E800014D1AE468D6A0D4FD1E9086C23F07C73D6
:103E900007EA05552B4326F000752B4343EA0C0334
:103EA000744502BF23F00053C96A0B43002180F818
:103EB0003C1053640846F0BDFF87F0FF0000F0FCA3
:103EC00070B590F83C300222012B2CD080F83D20B8
:103ED000464C026842F4806655689368A64202BF69
:103EE00025F470054E6835430E6825F0700535439E
:103EF0005560B2F1804F0BD0374DAA421CBF374DF1
:103F0000AA4205D0364DAA421CBF364DAA420CD15A
:103F100023F08003896819439160002280F83C20D7
:103F2000012180F83D10104670BD804DAA42EFD0AF
:103F30002D4DAA4218BFA242EAD0EEE710B50446C2
:103F400041B108290ED0042914BF04F1470004F13F
:103F5000450009E094F84400012812D1022084F8B9
:103F6000440012E004F146000078012809D1022043
:103F7000082908D0042914BF84F8470084F84500B4
:103F800003E0012010BD84F846002068042203F0FD
:103F90002BF900F022FF0BD00F4881421CBF0F48C5
:103FA000814205D00E4881421CBF0E48814208D193
:103FB00088680F4A01F04FF818BFB2F5803F09D169
:103FC00010BD5A488142F3D007488142F0D00748DB
:103FD0008142EDD001F0AEB900040040000800407D
:103FE000000C004000180040004001400004014067
:103FF00007000100FEB500684C49884217D10D4802
:10400000016841F010010160006800F010000090AC
:10401000012005900020CDE90300022002904FF41A
:1040200080600190009801A90348FCF713FA06B0DC
:1040300080BD00BF4045025800100258B0B501F0E5
:1040400086F904BF0220B0BD01F07AF9052948D8ED
:10405000DFE801F0030B131B23332068294603F02C
:10406000D3F8206850F8181F1EE02068294603F096
:104070000BF9206850F8181F26E02068294603F045
:104080003DF9206850F81C1F0EE02068294603F017
:1040900071F9206850F81C1F16E02068294603F0CB
:1040A00099F9206850F8541F41F008010160016837
:1040B00021F00401016029690FE02068294603F01E
:1040C000B3F9206850F8541F41F4006101600168A1
:1040D00021F48061016029690902026811430160CD
:1040E0000020002184F83C10B0BD58B110B501F09B
:1040F000BDF803D100F0DBFF00F006F801F04CF949
:1041000000F050BE0120704781B000680749884226
:1041100009D10748016841F001010160006800F021
:1041200001000090009801B0704700BF00000140FE
:1041300050450258FEE7F0B5520000233724002511
:10414000AA4208BFF0BD070F04EB1076B0F1204F74
:1041500038BF07F130064E5545F001060235000123
:104160008B55EDE770B52DED048B194E0C4631687B
:10417000896B814228D03CB300EE101A01EE104A40
:10418000B8EE408A00EE100AB8EE411AB8EE400AC6
:1041900030EE480A80EE019AFCF732FA054601201B
:1041A000FCF748F9FCF72CFA401BB0EE481A3168CE
:1041B00000EE100AA042B8EE400A09EE001ABCEE6A
:1041C000C10A81ED0E0AEAD3BDEC048B70BD00BFBD
:1041D000782200242DE9F04F03AF91B081460820EA
:1041E0008A461D4616466C460C2B08BF062047F82B
:1041F000200C5843072101EB4000934920F00700B1
:10420000B1F800B0ADEB000047F8280C85468F48A8
:10421000A7F1180100F10808404602F093FAA7F14F
:104220001401404647F8448C02F092FAA6F12000AF
:1042300047F81CBC47F8409C47F8344CC1B2B869F9
:1042400047F82C1C00286FD07F4857F8146C4FF0AB
:10425000000854464FF0000C47F8389C008800BA1C
:10426000020C57F8180C47F83C0C794800EB011089
:1042700047F8240C10465A46A84500F0CC808646E4
:1042800057F82C0C57F8241C0C2D01EB080300EBFD
:104290004001704800EB810108BF01EB080357F8AB
:1042A000280C28F001011B7800EB010B70464FF041
:1042B000000E04F1080147F8301CBEF1070F2ED89C
:1042C00059B2B1F1FF3F08DC1FFA8CF157F8202CEE
:1042D000514357F81C2C2BF811000CF1010C1FFA5C
:1042E0008CF1A9424FF0000128BF8C4601341FFA1F
:1042F00084F94E4540F29E80A9EB0A015B000EF165
:10430000010EA942D9D157F8381C57F83C3C544605
:10431000013147F8381C89B28B4202D88AE057F83D
:10432000304C08F10108A7E79BFA9BF047F8240CF2
:1043300057F814BC00264FF0000E47F8489CC748B9
:10434000008890FA80F857F8180C47F84C0C404851
:1043500000EB011047F8380C5046AE425BD057F8DE
:104360002C2C57F8381C0C2D314402EB4203394AEF
:1043700002EB830308BF99190C7857F8282C47F8EB
:10438000306C26F00101002302EB010900F1080165
:1043900047F83C1C2C490988072B34D861B21FFA16
:1043A0008EF20EF1010EB1F1FF3F57F8241CC8BF89
:1043B0004FEA184157F8206C724329F812101FFA7F
:1043C0008EF2AA424FF0000228BF964601301FFA33
:1043D00080FCE34557F81C2C2CD9ACEB0A020133C6
:1043E0006400AA42D8D1184857F81C2C018057F80D
:1043F000480C57F84C1C013047F8480C80B28142F9
:10440000504604D816E01048018057F83C0C57F885
:10441000306C0136A1E782B057F8200CCDE90005D9
:10442000524657F8283C57E9110102F0E1F857F8D5
:104430001C2C02B00448028057F834DCA7F10C04AD
:10444000A546BDE8F08F00BF70000024980100244D
:10445000F1FB00087DF700082DE9F84F8346581856
:104460000C46DDF828900B9F02EB0B014FEA590830
:1044700086B25D461FFA81FA3A78A2F12000C0B2F6
:104480005E2811D8A8B2504524BF5FFA8BF54C4482
:10449000A1B2B14208D2002000904B46A8B2FFF76B
:1044A00099FE45440137E7E7BDE8F88F2DE9F04F65
:1044B00087B0694C4FF48070684D694905F1080B6D
:1044C000A0810320A060584602F08AFB654E584642
:1044D0000521224633689847B268291D58469047FF
:1044E000DFF884A10021614B0022DAF8000081632B
:1044F00058460021B46AA047FCF782F805465C489C
:104500005C4E6427A0EB050900F044FD012858D05B
:104510000A20FBF78FFFFCF773F80446FCF770F8EE
:10452000A0EB0508601BB0F57A7F09D808FB07F0FF
:104530004FF47A71B0FBF1F0DAF800108863E3E72A
:10454000FCF75EF840F6B831884531D848440A2176
:1045500002ACB0FBF1F2204647A104F077FCDFF893
:10456000F880102001211023B8F80020CDE90004C4
:10457000A2F11E0080B2FFF76FFF3A483746D8F825
:104580000460846BFCF73CF8D8F800104844032220
:10459000009248434FF6FF724FF4FA610192F21E07
:1045A0003E466427B0FBF1F358460021A047ABE735
:1045B000401B40F6B9318842A6D302E00A20FBF73F
:1045C00039FF00F0E7FC0128F8D000204FF4967185
:1045D0000024FFF7C7FD23481F4E00210022856BF2
:1045E000D6E90030CDE900045846A8472448029097
:1045F000274C1023102522A0D0E90112CDE9031287
:10460000007B32888DF8140004200421009502AF4D
:104610000197A047FBF7ECFF02461EA1384604F0C5
:1046200015FC3288042016211023CDE90057A0473D
:104630000A481CA14268384604F008FC328804206D
:1046400028211023CDE90057A0476420C82107B0D6
:10465000BDE8F04FFFF786BDD80100249801002483
:104660007801002474000024782200243493000888
:1046700018FCFFFF000802582530336400000000DA
:1046800057654163742053747564696F00000000BE
:104690005944000853544D333248377878203078E5
:1046A000255800004C43442049443A3078255800AE
:1046B000B0B5DC4D0446082101222846FBF793FFE4
:1046C000601EFBF7B7FE284608210022FBF78BFF90
:1046D00040F2F310BDE8B040FBF7ACBE70B500F09F
:1046E00010FB17D041F218002844017999B19E4E71
:1046F0002046317803F084F9687A02280AD13178AB
:10470000204603F07DF9994801782046BDE87040C5
:1047100003F076B970BD00680028E8D0687A0028F8
:10472000E5D192480178204603F06AF9DFE700BF3F
:1047300010B50446D0F8D40200F064FB14D0407ADF
:1047400002280BD188480178204603F059F98748A0
:1047500001782046BDE8104003F052B949B2B1F1EA
:10476000FF3F01DC012800D110BD20460121BDE83A
:10477000104000F0D9B800BF10B50446D0F8D402FC
:1047800000F040FB17D0017ACA1E022A05D220464B
:104790000021BDE8104000F0C7B802290BD141F25A
:1047A0001D0141F21F020244415C204600F036FF29
:1047B000B0F1FF3F00DD10BD20460121E9E7000018
:1047C00070B500F09EFA33D041F210002E18287A0E
:1047D000012823D060BBD6E90101C6E9090163487D
:1047E0000178204603F00BF81F280AD130682C49C5
:1047F000884206D1717B012903D8B07B08B111280A
:1048000017D3717B20460522202301F0CFF9022027
:1048100068722046BDE87040FFF760BF41F21F009C
:10482000717B2A18204600F0F9FEB0F1FF3F2EDD23
:1048300070BD41F21F002A18204600F0EFFE297AD1
:10484000B0F1FF3F21DD481E0328F1D3EB6823B30D
:10485000D4F8D40200F0D6FAEAD041F218010022CE
:1048600001440E6A81F824200A68F61A0E620421B7
:1048700001723D489A4238BF134605F11002017893
:104880002046BDE8704003F0D6B80529C1D12046C6
:104890000121BDE8704000F047B820460021F8E74C
:1048A00055534243D0F8D41200EB8100D0F8C00237
:1048B00008B100210172704770B500F022FA1AD0D9
:1048C00005F5835100222A810A808A70D0F8C4023B
:1048D000016800208847254E2046317802F086FF87
:1048E00021480178204602F081FF00F099FBBDE8E5
:1048F000704002F0F9BF70BD70B500F002FA12D03E
:104900004FF48070288118480178204602F0C7FED5
:10491000164E2046317802F0C2FE00F081FBBDE861
:10492000704002F0E1BF70BDB0B500F0EAF918D0F8
:1049300041F230000D232A180A4810600020287226
:10494000117309480178204603F075F841F2100010
:104950001F232A18054801782046BDE8B04002F020
:10496000C3BFB0BD555342531000002411000024B2
:1049700070B586B02A48002605962A4C00220168A8
:1049800041F010010160016801F0100100910099EF
:10499000016841F004010160016801F00401009127
:1049A0000099016841F080010160016801F0800117
:1049B00000910099016841F001010160016801F076
:1049C000010100910099016841F00801016000684F
:1049D000082100F00800009000982046FBF703FE35
:1049E00020464FF4205101220125FBF7FCFD42F641
:1049F000080001900496CDE9025601AD20462946F3
:104A0000FBF728FD0220CDE9026029464FF4005053
:104A10000190A4F50060FBF71DFD06B070BD00BF5E
:104A20004045025800100258B0B586B0194800241D
:104A30004FF08041184DFF227F23CDE90244CDE99C
:104A40000044C0E90054C0E90232C0E90444C0E9AE
:104A50000641FDF71FFF08B1FBF7E6FC1220ADF899
:104A60000400CDE904448DF8064001A9012209485B
:104A7000FDF7BEFF08B1FBF7D7FC08480090694678
:104A800001220448FDF76EFF08B1FBF7CDFC06B02C
:104A9000B0BD00BF4C210024004000580306012295
:104AA00010B50B480A2100224FF48043094CC0E99D
:104AB0000042C0E90223C0E90421FEF745FB08B12A
:104AC000FBF7B2FC3220BDE81040FBF7B3BC00BFDF
:104AD0007421002400700052F8B5144C00204FF0EF
:104AE00000514FF0806207234FF4C0254FF4800639
:104AF0000F4F2062C4E90400C4E90900E0624FF0EE
:104B00008040C4E9062160632421C4E90076C4E939
:104B1000025304F13800FBF7ECFB2046FEF720FEC1
:104B200018B1BDE8F840FBF77FBCF8BDF0210024C8
:104B300000340140B0B598B00EA81C21FBF7D9FB9A
:104B400001A83421FBF7D5FB2448002440F2E731CB
:104B50000D22234BC0E90032C0E90241C0E9044400
:104B60008461FFF7C2FA08B1FBF75EFC1794CDE948
:104B700015441A4815A9FFF7A3F908B1FBF754FC2F
:104B80000820119000251495CDE91255CDE90F5557
:104B9000042260200E900EA91048FFF74FFA08B1CA
:104BA000FBF742FC01AC14212046FBF7A2FB4FF0BF
:104BB0000070CDE9095021460D950B9507954FF4EE
:104BC000005006900548FFF72DF908B1FBF72CFCC3
:104BD0000248FFF70FFA18B0B0BD00BF78220024DA
:104BE0000000014080B510481049012202F044FD48
:104BF00008B1FBF719FC0C480D4903F050F808B157
:104C0000FBF712FC08480B4902F0C8FF08B1FBF79C
:104C10000BFC054803F068F808B1FBF705FCBDE89C
:104C20008040FCF74FBC00BF64190024140000242E
:104C3000D80000243C010024FEE7FEE70148FBF712
:104C400027BF00BF401C00240D4606464FF40061FC
:104C500000222046FBF7C7BC8DF8EF003946012241
:104C600030465847DAF8000003F089BE3060FBF7A1
:104C7000C7BCC2F34622B8EE433A32EE002A81EEB8
:104C8000031A21EE021A02EE102AB8EE422A32EE80
:104C9000002A81EE022ABCEEC22A80ED002A70476B
:104CA000001BB0F57A7F704704464FF480500590A2
:104CB000002004904FF4807003907047D4F8840073
:104CC00040F48070C4F88400002084F88000012043
:104CD00084F8810003207047214602F039BCD0F8E7
:104CE000D42200EB8202D2F8B822002A7047204674
:104CF00002F0EBBB00F00F0000EB800004EB800043
:104D000070470446D0F8D40204EB8000D0F8C052BB
:104D1000002D7047D0F8C4028168384608474FF428
:104D200000610122FBF75FBC304639460122704723
:104D3000044690F8BC0401287047C0F8041800200D
:104D40007047411B032002297047DAF81C005146C6
:104D500040F40030CAF81C0070472860FBF750BCD4
:104D60000D4690F824100446022001297047204681
:104D700001F038BA01780091427841EA02210091AD
:104D8000827841EA02410091C07841EA00600090D7
:104D90002946206801F038BAB4F86A000138A4F84E
:104DA0006A007047012084F8480084F83E0084F8C7
:104DB0003F0084F8400084F8410084F8420084F801
:104DC000430084F8440084F8450084F8460084F8E1
:104DD000470084F83D00002010BD2168B1F1804FEC
:104DE000486C40F40040486470470020C4F8D40286
:104DF00020461047204602F08BBB05463046012175
:104E000002F091BB04EB8000D0F8C002002870478C
:104E1000D5F8D40205EB8000D0F8C402C16838464A
:104E200008471321002307F120044A46204628475B
:104E3000201D012100F0B8BA0020CDE902000021B8
:104E4000206801F0B1B93846294601228DF8136077
:104E50004047DAF84010002552467047204600F0DF
:104E60009BBB2068002101F09FB9204601F03CBAAD
:104E700008461146184704F12400002100F0F4BA56
:104E8000FF22216800284A627047E162294601F04A
:104E900017B8002084F880007047204636214A4623
:104EA00000232847DAF848100025524670470320AF
:104EB00084F830007047044690F88000012870475D
:104EC0003A4601238DF8EF9020470968C1F302119B
:104ED000515C01F01F01C84080BDC168B8F1020FEC
:104EE00021F04001C160416B7047B4F86220013A83
:104EF000A4F86220E165B4F862B070473A46012335
:104F00008DF8EF502047201D022100F04DBA60635C
:104F1000012084F830000020E062032070478DF803
:104F2000EF00394601227047DAF844100025524656
:104F3000704794F830000128704784F88100002001
:104F4000C4F8840070470843CAF840007047002046
:104F500084F88000012070473860FBF751BB616B1B
:104F6000084360632046FDF761BED4F8009084F8E2
:104F70008000FBF745BB0843CAF84800704720682B
:104F800001F02CB990F83000616E0870606E01304D
:104F90006066704730464FF40051FBF71FBB304648
:104FA000394601228DF8EF905847002084F8BC0460
:104FB00010BD3067306F20F080007047C1F306618C
:104FC00002EE101AB8EE422A32EE000A81EE000A12
:104FD000BCEEC00A10EE101A70474FF480504FF428
:104FE00080710590039100207047606B40F0006075
:104FF0007047012084F88100002084F88000D4F8F4
:105000008400002870470020C4F8D40220460847D6
:10501000204602F03DBA04468121304602F083BAB0
:1050200041F2100031781F232A1820467047D6F825
:10503000020002BACAF85420B6F80700000470470C
:105040000843CAF8440070472068012EC16841F047
:105050004001C160704702400020062A704760632B
:10506000012084F830000021E16270474FF0FF31E9
:1050700001914FEA4821029170472046FDF7A0BEFA
:10508000D4F8840040F02000C4F88400704794F8FD
:10509000810001287047016821F00101016070471B
:1050A000E06D30F8021BA9F82010E0657047002081
:1050B00084F83C00204670474FF6FC706E1C00F1EF
:1050C000020AC71C70473046394601228DF8EF505E
:1050D0005847DAF80000416970471C6844F00064E2
:1050E0001C601C6844F080441C60704702F0700231
:1050F00091427047C2F3064202EE102AB8EE422AED
:1051000032EE002A81EE022ABCEEC22A80ED012A8C
:10511000704704464FF480500590002004904FF4EF
:10512000807003900620CDE9011070474FF40071A4
:1051300000F08BBD94F89C0201380228704703BA36
:1051400028463946CAF8583000F050BAE16D04C913
:105150000262E16570472068BBF1000F416970474A
:105160003046394601228DF8EF805847012084F8F7
:10517000BC042068704704FA03F3D0F81C482343AA
:10518000C0F81C38704704F12400022100F06CB90B
:10519000401BB0F57A7F704704464FF4805005906D
:1051A000002004904FF48070039008207047616CD9
:1051B0002068090400F026BD41684FF6FF72914354
:1051C00039444160016841F0010101606168B1F555
:1051D000800F7047D6F8020002BACAF85420D6F8F9
:1051E000060070470D188DF803202046494601221D
:1051F00003F024BE002084F8BC04B0BD30603068E9
:1052000020F480107047B8626FF35F214FF47E4046
:1052100000EB42204FF0FE4280B208444FF4FE0102
:1052200001EB034101F4FE010844296902EB01612D
:1052300001F0FE41084470474FF4FA520968B1FB8F
:10524000F2F141F288325143C9437047010EF970BF
:1052500038700436010C000AB97078707047BAF8DB
:105260004C00DAF85820DAF800107047044690F83D
:105270003D000028704738460A2101F071BA09063E
:1052800000EBC00104EB810170470A5842F0006254
:105290000A500A5842F080420A5042F21072704797
:1052A0006FF35F2302EE103AB8EE422A00EE032AB3
:1052B00003EE102AB7EE000A7047532141622046E0
:1052C00000F046B90490CDE901017047016841F44E
:1052D0000071016070470262B042D1F800C08B6873
:1052E000046A456870470262B842026A46680C6800
:1052F0008B68456D70473A460123304620470121AF
:1053000084F8BC142068A16A01297047C5F3CC0554
:1053100003F003036C43022B00EE104AB8EE400A80
:105320007047000240EA0646A8784047606B40F0AC
:1053300000707047086840F001000860002010BD50
:105340000D4601204FEAB20184F83C007047044644
:1053500090F83C00012870473046394601228DF80C
:10536000EF804FF02D08584704F12400012100F090
:105370007BB88A68097B03EBC202002906EB0801AF
:1053800052687047201D002100F00EB88163012093
:1053900084F8300000207047022084F83D00211D71
:1053A000206801F0C7BE7047F8B55F4F0546B86A80
:1053B00000F00300032804BF0120F8BD38680C4644
:1053C00020F08060FFF7C8FD06463868000105D56B
:1053D000FBF716F9801B0228F7D941E095E80F008A
:1053E000BE6A26F47C36013946EA0030FFF70BFF2F
:1053F000B8636869F96A21F0C0010843F862A869D6
:10540000F96A21F020010843F8624FF6F871F86A52
:1054100020F01000F862F86B8843E969012C40EA3B
:10542000C100F863F86A40F01000F8624FF4001011
:1054300008BF4FF48010002C08BF4FF40020F96A19
:105440000843F862386840F08060FFF785FD044645
:105450003868000106D4FBF7D3F8001B0328F7D304
:105460000320F8BD0020F8BDF8B52F4F0546B86AF7
:1054700000F00300032804BF0120F8BD38680C4683
:1054800020F08050FFF768FD06463868800005D59B
:10549000FBF7B6F8801B0228F7D941E095E80F002A
:1054A000BE6A26F07C76013946EA0050FFF7ABFE73
:1054B00038646869F96A21F440610843F862A869B0
:1054C000F96A21F400710843F8624FF6F871F86A3E
:1054D00020F48070F862786C8843E969012C40EA16
:1054E000C1007864F86A40F48070F8624FF0807010
:1054F00008BF4FF40000002C08BF4FF48000F96A89
:105500000843F862386840F08050FFF725FD0446F4
:105510003868800006D4FBF773F8001B0328F7D324
:105520000320F8BD0020F8BD0044025809280146B8
:1055300098BF0921CAB20A23B2FBF3F202EB82033D
:10554000A1EB4303591A084440EA0210C0B2704765
:10555000F8B504460068C168490619D4C168002638
:10556000012741F08001C160FBF74AF80546216838
:10557000F843C96840EA9110C0070AD1FBF740F828
:10558000FFF706FEF3D9032684F825600027EEE72F
:105590000026F0B2F8BD0000B0B5134D044655F832
:1055A0000C0C20F0800045F80C0C2868800607D40D
:1055B0002046FDF771FA78B1032084F82500B0BDCC
:1055C000286820F0200028602046FDF765FA28B101
:1055D000032084F8250002E00020B0BD00202968E7
:1055E00041F020012960B0BD1840005810B5D0F836
:1055F000D41200EB8101D1F8C01251B141F268041C
:105600001A4409598A4206D900210522212300F0B3
:10561000CDFAFF2000E0002040B210BD2DE9FC478C
:105620000546D0F8D40205EB8000D0F8C042002C2B
:1056300000F0DA810F4641F21801164604EB010A28
:105640001178A1F11A02102A26D9AA2900F0CD80DA
:10565000032900F0D480122900F0DF802F2900F008
:10566000F3805A2900F0FE809E2900F00581A829C8
:1056700000F02281002921D1DAF80010002940F041
:1056800062819AF84A10022900F05081FFF742FB2C
:10569000002840F04B816CE1DFE802F0091910109E
:1056A0002C1010101035104F101075108B0032791F
:1056B000DFF8B413172A28BF1722D8E028460021A4
:1056C0000522202300F072FA022060728CE130790A
:1056D0009AF84A1000F00300012902D1022800F0D4
:1056E0003F810021012818BF032840F03E818AF83D
:1056F0004A103EE131790020E060002918BF012105
:105700008AF84A1071E1D0F8C40269460DF1060228
:10571000436838469847002840F060819AF84A006C
:10572000022800F05B8104F11000002100220C2A05
:1057300000F0228181540132F9E7D0F8C4020AF165
:1057400050060AF14C0831464246436838469847AD
:10575000002840F043819AF84A00022800F03E8178
:105760000821E1600020A08231680139E1740A0A51
:10577000A2740A0C090E21746274B8F8001009BAF8
:10578000090CE18231E1217A002940F098809AF9F0
:105790000410002940F1D7809AF84A10022900F03D
:1057A0001D81FFF7B7FA002840F01881FFF73FFC92
:1057B0002CE1217AE9B9DAF80010002900F0C38061
:1057C0009AF90410B1F1FF3F40F3BD80FFF7A2FA50
:1057D000002840F00381FFF71BFB002800F0238125
:1057E0002846002102222723FCE0217A002900F02C
:1057F000918028463946BDE8FC4700F085B9DAF8C3
:105800000000002800F09F8004F110000021002219
:10581000122A5DD081540132FAE7DAF8001000292B
:1058200000F091807178C90740F09280D0F8C402EE
:1058300007EBC7013279C06900EB810108790530B7
:10584000904238BF024612E07078800700F18880ED
:10585000DAE9152328463946FFF7C8FE002840F14B
:105860008880C1E0327A7F491B2A28BF1B2220464C
:1058700000F0B8F90020B8E0D0F8C4020AF15009ED
:105880000AF14C0849464246436838469847002882
:1058900040F0A4809AF84A00022800F09F80D6F8D1
:1058A0000A000021002200BAE060D3B2984278D901
:1058B000234401321974F8E7217A00293FD04FF4CC
:1058C0008050E06039462846BDE8FC4700F0D2B879
:1058D0000C20E0759AF84910702020749AF848005E
:1058E000884210D004EBC0014FF4825201308A5C30
:1058F00001F58251A2748988A183C1B2043918BF0D
:1059000001468AF848101220E06030791228B1D898
:10591000E060AFE7DAF80010A9B19AF90410B1F12C
:10592000FF3F10DDFFF7F6F9002865D0284600217B
:1059300002223A2300F03AF90520207254E09AF945
:105940000410002943D4284600210522202349E0E1
:10595000B07880284CD018B945492046062287E700
:1059600028460021052224233CE0022801D10221FF
:10597000BDE60020E06038E00820E07402202083CB
:105980000C20E06000980138E075010AA175010C57
:10599000000E20756175BDF8060000BA000C60832A
:1059A00068E7D9F80010002020830139E1750A0A60
:1059B000A2750A0C090E21756275B8F8001009BAB3
:1059C000090C6183D6F80A1009BAE1600DE09AF873
:1059D0004A10022902D0FFF79DF9A8B128460021FC
:1059E00002223A2300F0E2F8FF2040B2BDE8FC8733
:1059F0001E49204608223BE7FFF70AFAB0B12846C5
:105A000000210222272395E7FFF7E4FBFFF797FB2E
:105A10000028E9D4FFF723FC504381427FF493AF81
:105A2000022020724BE7FFF702FB01E0FFF7D2FBF9
:105A3000FFF785FB0028D7D4FFF711FC02FB00F32A
:105A400099427FF480AF0120207204F11002564881
:105A5000B3F5805F28BF4FF480530178284601F0EA
:105A600043FF07E7300000244B00002468000024B7
:105A7000620000242DE9F0410446D0F8D40204EB82
:105A80008000D0F8C072CFB341F23802D0F8C4021F
:105A900007F11008BE18D0F810C0B08DD6E90D235C
:105AA00003FB00F5B5F5805F28BF4FF48055B5FBCB
:105AB000F0F083B208464146E047B0F1FF3F17DD02
:105AC000104842462B460178204601F0B4FF30686A
:105AD000D6E90D12401B3060B08DB5FBF0F00144EB
:105AE000101AC6E90D1001D103203872002006E01B
:105AF000204600210422112300F058F8FF2040B274
:105B0000BDE8F081100000242DE9F0410446D0F8F2
:105B1000D40204EB8002D2F8C002D8B341F23803B9
:105B2000D2F8C42200F11008C6180846414655694B
:105B3000B38DD6E90D275F43B7F5805F28BF4FF4DB
:105B40008057B7FBF3F39BB2A847B0F1FF3F1BDDD3
:105B50003068D6E90D12C01B3060B08DB7FBF0F392
:105B6000CD18D11AC6E90D5116D001FB00F30E482D
:105B70004246B3F5805F28BF4FF48053017820463A
:105B800001F0B2FE00250CE0204600210422032390
:105B900000F00CF8FF2504E0204600210025FEF768
:105BA000C3FE68B2BDE8F0811100002470B5D0F8E2
:105BB000D41200EB8100D0F8C00290B141F2610133
:105BC0004FF48256445C00EBC405AA55621CD4B263
:105BD000043C18BF1446445405F58250002141711D
:105BE000037170BD38B1C2600F3001391AB18B5CDE
:105BF0008354013AFAE770470148FDF7AFB900BF97
:105C00007421002410B586B0FFF74EF83720CDE997
:105C1000011001A9FFF7ABF82046372141F2883285
:105C200006B0BDE8104000F083B910B586B0FFF7AC
:105C30003BF82920CDE9011001A9FFF798F820468B
:105C400006B0BDE8104000F027BA10B586B0FFF7E7
:105C50002BF81020CDE9011001A9FFF788F82046A4
:105C6000102141F2883206B0BDE8104000F060B962
:105C700010B586B0FFF74DFA01A9FFF778F8204676
:105C8000062141F2883206B0BDE8104000F050B95C
:105C900010B586B004460020CDE90300CDE901002F
:105CA0004FF48050059001A9FFF761F8F8484FF4D0
:105CB000FA510068B0FBF1F041F288314843C0432B
:105CC000013006D2616B0906FAD5F248A0630020C4
:105CD00001E04FF0004006B010BD00BF10B586B027
:105CE000FFF75AFA02904FF4D570019001A9FFF71F
:105CF0003EF8204606B0BDE8104000F02BBA10B5C3
:105D000086B0FEF7D1FF1220CDE9011001A9FFF7FF
:105D10002EF82046122141F2883206B0BDE810402C
:105D200000F006B910B586B0FEF7BEFF1120CDE930
:105D3000011001A9FFF71BF82046112141F288321A
:105D400006B0BDE8104000F0F3B810B586B0FEF71D
:105D5000ABFF0720CDE9011001A9FFF708F82046A5
:105D6000072141F2883206B0BDE8104000F0E0B8EB
:105D700010B586B004464FF480504FF44071059042
:105D8000039100200221FFF79DFA01A9FEF7EFFF22
:105D9000204606B0BDE8104000F058B910B586B0F6
:105DA00004464FF480500590002004904FF440705A
:105DB00003900920CDE9011001A9FEF7D8FF204684
:105DC00006B0BDE8104000F041B910B586B00446F9
:105DD000FFF703F93321FFF775FA01A9FEF7C7FFB3
:105DE0002046332141F2883206B0BDE8104000F071
:105DF0009FB810B586B0FEF757FF0D20CDE9011012
:105E000001A9FEF7B4FF20460D2141F2883206B009
:105E1000BDE8104000F08CB8B0B586B00C46054621
:105E2000FFF7DBF80321FFF74DFA01A9284600F040
:105E3000D9F928460321224606B0BDE8B04000F05B
:105E400047B910B586B00446FFF7C7F80D21FFF734
:105E500039FA01A9FEF78BFF20460D2141F2883265
:105E600006B0BDE8104000F063B8000010B586B081
:105E70000446C0684FF4807140F08000E060E06844
:105E800020F04000E06003914FF480500590002026
:105E9000049001900C20029001A9FEF768FF074AC8
:105EA00020460C2100F044F8E16821F08001E16017
:105EB000B0F1007108BF084606B010BD00E1F5055D
:105EC00010B586B0FEF7F0FE1920CDE9011001A94A
:105ED000FEF74DFF2046192141F2883206B0BDE899
:105EE000104000F025B810B586B0FEF7DDFE182092
:105EF000CDE9011001A9FEF73AFF2046182141F231
:105F0000883206B0BDE8104000F012B8B0B591E894
:105F10003C00426283620A6945EA040349691A4304
:105F20001143C26A22F0FF021143C1620020B0BDDA
:105F300010B5034699484FF4FA540068B0FBF4F0EA
:105F40005043421C3F48013A70D05C6B0442FAD087
:105F500014F40054F7D15A6B52076AD45A6BD20723
:105F600069D1803098631869C0B288421CBF012093
:105F700010BD58693449084204BF002010BD0028F4
:105F80005CD4410044BF402010BD810044BF80204C
:105F900010BDC10044BF4FF4807010BD010144BF6B
:105FA0004FF4007010BD410144BF4FF4806010BD3C
:105FB000C10144BF4FF4006010BD010244BF4FF463
:105FC000805010BD410244BF4FF4005010BD81020B
:105FD00044BF4FF4804010BDC10244BF4FF40040A5
:105FE00010BD410344BF4FF4003010BD810344BFD6
:105FF0004FF4802010BDC10344BF4FF4002010BDFA
:10600000010444BF4FF4801010BD410444BF4FF45D
:10601000001010BD810444BF4FF4800010BD000784
:106020004FF4000058BF4FF4803010BD4FF00040D7
:1060300010BD042000E00120986310BD4FF00070F7
:1060400010BD00BF4500200008E0FFFD5349734626
:10605000FFF7F2F89E46013110D2426B12F0450F65
:10606000F9D012F40052F6D1416B490709D4416BC3
:10607000C90708D136498163002106E04FF000418D
:1060800003E0042100E0012181630846704700BF5E
:1060900008000024C500200040497346FFF7CCF8F3
:1060A0009E46013110D2426B12F0450FF9D012F426
:1060B0000052F6D1416B042211F0040104BFC52245
:1060C000C0F22002826301E04FF0004108467047B1
:1060D00010B5324B4FF4FA541B68B3FBF4F341F2A2
:1060E00088346343DB4301331FD2446B14F0450F04
:1060F000F9D014F40054F6D1436B5B0718D4436B0A
:10610000DB0717D10369DBB28B4217D110498163DA
:10611000406910F4604F13D0410415D400044FF4CB
:10612000805058BF4FF4803010BD4FF0004103E065
:10613000042100E001218163084610BD0121FBE735
:10614000000C10800021F7E74FF40051F4E700BF86
:10615000C500200011497346FFF76EF89E460131D5
:1061600013D2426B12F0450FF9D012F40052F6D15F
:10617000416B49070CD4416BC9070BD1416B4906F0
:1061800001D540218163002106E04FF0004103E08A
:10619000042100E0012181630846704708000024C3
:1061A000006800F003007047084440697047000031
:1061B000B0B51143049A4468044D19432C4011436F
:1061C000059A1143214341600020B0BD002CC0FF5F
:1061D000016841F00301016000207047D0F88000A1
:1061E0007047000070B591E83C008260054E234383
:1061F000C26809692B43324019431143C160002032
:1062000070BD00BFC0E0FEFF0968C0F8801000202C
:10621000704700002DE9F04786B00C460546FAF7B6
:10622000EFF9064628680821FFF70FFD002855D131
:10623000696C28680904FFF7E5FC00284ED10120AD
:1062400005906946002004900220039030200290BF
:10625000082001904FF0FF3000902868FFF756FEAD
:106260002868FFF7B2FDC8BB002740F22A5A4FF05A
:1062700000084FF0000929684A6B486B12EA0A0FC0
:1062800014D100F40020384308D10846FFF7A6FFD8
:1062900080462868FFF7A2FF81460127FAF7B0F988
:1062A000801B01304FF00040E5D117E000070FD40C
:1062B000486B80070ED4486B80060DD4094888636C
:1062C00099FA89F198FA88F0C4E90010002005E0F5
:1062D000082002E0022000E02020886306B0BDE82C
:1062E000F08700BF3A0F001810B5016840F26F3414
:1062F0004A698B6943F008038B618B6943F0100393
:106300008B610B6823F001030B600B69A3430B61E6
:106310008B6823F440438B6090F88130042B0BD0C2
:10632000930609D5D0F8843043F08003C0F8843058
:106330008B6943F020038B6190F88130032B0BD0E5
:10634000530609D5D0F8843043F00403C0F88430F4
:106350008B6943F040038B61930509D5D0F88430F5
:1063600043F00103C0F884308B6943F400738B6100
:10637000D20509D5D0F8842042F00802C0F8842064
:106380008A6942F480728A610021A0F86210A0F844
:106390006A1010BDF8B514460D460646571C306805
:1063A0004069000708D4FAF72BF9002FF7D0401BFB
:1063B000A042F4D30320F8BD0020F8BD00207047B0
:1063C0002DE9F843074600200DF103098DF803007D
:1063D000234DFEF726FD8046FEF74DFF204628217F
:1063E0004A460023A8470646FEF745FFFEF755FD3F
:1063F000DA495A4BFEF7BDFF08BF42F00802FEF72C
:10640000F1FE4042281A18BF4FF0FF30BDE8F88374
:106410002DE9F843074600200DF103098DF803002C
:106420000F4DFEF7FEFC8046FEF725FF2046292192
:106430004A460023A8470646FEF71DFFFEF72DFD3E
:10644000C649464BFEF795FF08BF42F00802FEF72B
:10645000C9FE4042281A18BF4FF0FF30BDE8F8834C
:10646000438E00082DE9FE4FDFF8BC9A1E46044615
:106470000F46D3F802B0D3F80AA0D3F81230D9F8F7
:106480000400D6F816100091801A451A20463946A5
:106490002A4600F043FCE0B9D9F808002F4904F17E
:1064A00020080DF1090251F8300099F80C1000296C
:1064B00008BF40F008008DF809004046362101234E
:1064C00002F0BFFC28B9204639462A4600F0B8FB46
:1064D00020B14FF0FF352846BDE8FE8F5644ABEBA8
:1064E0000A0700250DF10A0A705D514602228DF857
:1064F0000B00701940788DF80A00404602F09EFCAF
:1065000020B90235BD42EFD3002601E04FF0FF363F
:106510001249D9F808000DF1090201EBC00099F801
:106520000C104068002908BF40F008008DF80900F1
:1065300036210123404602F084FC4FF0FF3500284D
:10654000C9D1D9E90030009000210022204600F096
:10655000E5FB002808BF3546BDE700BFE4010108A0
:10656000B0B505461C4658187C4B1B68984203D8AA
:10657000284600F065FB10B14FF0FF30B0BD0B496D
:10658000049823460131020A2BB101F8020B013BAA
:1065900001F8032CF8E705F120006200034902F03E
:1065A0004DFC002818BF4FF0FF30B0BDE8010024BB
:1065B0002DE9F0410E466949074698184968884216
:1065C0000ED81C461546DDF818806CB138463146A9
:1065D0002A46434600F084FC0135013C0028F4D0F3
:1065E0004FF0FF30BDE8F0810020BDE8F08100BF32
:1065F0002DE9FE4F07460C980E46154601445748B4
:106600000268914202D94FF0FF393AE0DDF834B028
:1066100040684FF0FF390BEB0501814231D80C98EF
:106620001C464FF000084FF0000A4000029007F1AE
:1066300020000190144801300090DA4520D00AEB88
:1066400005023846314600F0FBFA10B14FF0FF3832
:1066500013E000980C9941B12278013900F8012C1F
:106660006278023400F8022BF5E701980649029A95
:1066700002F0E4FB002818BFC8460AF1010ADCE773
:10668000C1464846BDE8FE8F680400242DE9F84362
:10669000994615460E460746DDE908485CB138467E
:1066A00031462A464B46CDF80080FFF759FF28B9FE
:1066B000013C0135F2E70020BDE8F8834FF0FF30E0
:1066C000BDE8F8834FF0FF30704700002348806832
:1066D00008600020704700BF2DE9FC479846064639
:1066E00000F0AEFA0DF10507203681462E21304626
:1066F0003A4602F09DFB8246114CFEF715FBA0477F
:1067000007460DF1070130460122A04705460DF16D
:10671000060130460122A0479DF806109DF807208B
:10672000404242EA0121C8F800100AEB090139444D
:106730002944081A18BF4FF0FF30BDE8FC8700BF9E
:10674000378E00080548006808600020704700BFC9
:106750000248406808600020704700BFD80100244C
:1067600070B50546C0690C4680470646E869804713
:10677000801BA042FAD370BD2DE9F04FBDB00028B8
:106780003A923C9100F0F98100210DF1EF0700F100
:1067900020068DF8EF100546FA4C00234FF0000953
:1067A000304601213A46A047284678213995FFF71F
:1067B000D7FF304601213A4600238DF8EF90A047DD
:1067C000389028467821FFF7CBFF30461121FEF79D
:1067D00077FB37903046B1213A460023A0473690E8
:1067E000DFF85CB6FEF7A0FA01258DF8EF50D84728
:1067F00035902C20FEF793FB4FF02C093046D847FC
:1068000034902D20FEF78BFB4FF02D083046D847F3
:1068100033903046B2213A4601238DF8EF504FF0C5
:10682000010AA04732903046394601228DF8EF9098
:106830002C25D8473190FEF78FFD30903046B3219C
:106840003A4601238DF8EFA04FF00109A0472F90A1
:106850003046394601228DF8EF502C25D8472E902E
:10686000FEF77AFD2D90FEF79AFB2C90FEF72BFC9D
:106870002B90FEF775FC2A9007208DF8EF00B421CD
:106880003A4601234FF007083046A0472990A2203E
:106890008DF8EF00C021FEF72EFD28900220FEF7B4
:1068A0003EFB4FF002093046D84727908420FEF780
:1068B000D3F92690C5208DF8EF00C121FEF71BFD0E
:1068C00025900A208DF8EF00C221FEF714FD2490D8
:1068D0000020FEF7C1F923903046C3213A46012338
:1068E0008A258DF8EF50A04722902A20FEF7B4F9B0
:1068F00021903046C421FEF701FB2090EE20FEF7E8
:10690000ABF91F900E208DF8EF00C521FEF7F3FCC8
:106910001E903A9820213A46007B002808BF21218A
:1069200030460023A0471D903CAA30463A2101235F
:10693000A0471C903046E021FEF7C2FA1B901C20B5
:10694000FEF78AF91A90FEF70BFC19901220FEF759
:1069500083F91890FEF7E8F94FF037088DF8EF80CB
:10696000D84717903220FEF777F91690FEF7DCF93A
:106970004FF029098DF8EF90D8471590FEF7D4F91C
:106980004FF02D0A8DF8EFA0D8471490FEF707FBC3
:1069900013902520FEF760F912902B20FEF75CF98A
:1069A00011903920FEF758F910900020FEF754F9A5
:1069B0000F900120FEF750F90E90FEF7B5F9032570
:1069C0008DF8EF50D8470D901020FEF745F90C9048
:1069D0003046E121FEF792FA0B901D20FEF73CF9BC
:1069E0000A900720FEF738F909900620FEF734F9DF
:1069F0000890FEF799F92E258DF8EF50D8470790AB
:106A00002C20FEF729F90690FEF7C9FA0590FEF74B
:106A10008BF98DF8EFA0D8470490FEF754FB039054
:106A2000FEF751FB0290FEF79BFB01903F20FEF723
:106A300013F98146FEF778F900248DF8EF40D84726
:106A40000546FEF771F98DF8EF404FF00008D84782
:106A500082460220FEF700F904461020FEF7FCF8FB
:106A6000DDE9372101238DF8EF801144369A114476
:106A7000359A1144349A1144339A1144329A11448C
:106A8000319A1144309A11442F9A11442E9A11448C
:106A90002D9A11442C9A11442B9A11442A9A11448C
:106AA000299A1144289A1144279A1144269A11448C
:106AB000259A1144249A1144239A1144229A11448C
:106AC000219A1144209A11441F9A11441E9A11448C
:106AD0001D9A11441C9A11441B9A11441A9A11448C
:106AE000199A1144189A1144179A1144169A11448C
:106AF000159A1144149A1144139A1144129A11448C
:106B0000119A1144109A11440F9A11440E9A11448B
:106B10000D9A11440C9A11440B9A11440A9A11448B
:106B2000099A1144089A1144079A1144069A11448B
:106B3000059A1144049A1144039A1144029A11448B
:106B4000019A11443A4649442944734D5144214421
:106B50000C1830461321A8470444304629213A46F0
:106B60000123A8470444DDE9390100F06BF94042F4
:106B7000201A18BF4FF0FF3001E04FF0FF303DB05A
:106B8000BDE8F08F438E00087CB500F120050DF1C3
:106B900005060C46DA212846324602F049F958B972
:106BA000721C2846DB2102F043F928B9B21C2846A2
:106BB000DC2102F03DF910B14FF0FF307CBDBDF893
:106BC00006009DF80510000400BA40EA014020606C
:106BD00000207CBD0369FEF74BB98369FEF748B915
:106BE000E8B1B0B50F4A4262D1E90345C0E90345B7
:106BF00000630D4AC2620D4A82620D4A0262D1E907
:106C00000023C0E900230B8903814B6943618B6931
:106C1000C9698361C161BDE8B04002B110474FF05E
:106C2000FF307047D56B0008DB6B0008356C00083F
:106C30002D6F00084369FEF71BB94FF0FF30704716
:106C40002DE9F84F0C46B8498B684D7B012B0AD8CB
:106C5000022D10D0012D1BD1097B002912BF183441
:106C600001321A3414E0022D0BD0012D10D1097B12
:106C700061B118320CE0097B012909D101320234DB
:106C800006E0097B012903D1023200E01A32013407
:106C900000F120060DF1030791461F4D2A21002324
:106CA00030463A46A8478246200A8DF80300DFF8AE
:106CB0009081394601223046C0478346FEF734F8BA
:106CC0008DF80340C047044630462B213A46002346
:106CD000A84705464FEA19208DF8030039460122DE
:106CE0003046C0470BEB0A0101228DF80390214486
:106CF00029440C1830463946C047044430462C21FC
:106D00003A460023044DA8474042201A18BF4FF0CE
:106D1000FF30BDE8F88F00BF438E00082DE9F04F2B
:106D200085B00E4680491C4692468B684A7B012BF3
:106D30000BD8022A16D0012A21D1097B002912BFC3
:106D400018360AF1010A1A3619E0022A11D0012A6E
:106D500015D1097B0136002914BF0AF1180A0AF17E
:106D60001A0A0CE0097B012909D10AF1010A02364D
:106D700005E0097B012904BF0AF1020A013600F18E
:106D800020070DF113052A21002338462A4602F078
:106D900058F80390300A8DF81300DFF8A4802946D4
:106DA00001223846C0470290FEF74DF80190A01925
:106DB00029460122441E200A8DF813003846C04798
:106DC00000903846294601228DF81340C0470446FA
:106DD00038462B212A46002302F033F881464FEA39
:106DE0001A208DF81300294601223846C04756461E
:106DF0008246FEF728F883460E9829460122304441
:106E0000461E300A8DF813003846C047DDE90221DE
:106E10008DF813601144019A1144009A1144012223
:106E200021444944514459440C1838462946C04726
:106E30004042201A18BF4FF0FF3005B0BDE8F08F78
:106E40003D8E00087CB5044688684A7B012808D836
:106E50009AB1022A11D0012A18D1334AA023502511
:106E600007E072B1022A0CD0012A0FD12E4A50231A
:106E7000A025C2E90053012208E02B4BA025802663
:106E800002E0294B8025A026C3E90065264EB060AC
:106E9000087B7273002100223073D6E90030009025
:106EA0002046FFF73BFF0546B0680C490DF107028D
:106EB00001EBC000317B4068002908BF40F00800AA
:106EC0008DF807003621012304F1200001F0B9FFFD
:106ED0004042281A18BF4FF0FF307CBDE401010882
:106EE000BCB50446180240EA13200F4BADF806006B
:106EF0004FF0FF301D688D4214D95B68934211D961
:106F00002046FFF79DFE10B14FF0FF30BCBD04F1ED
:106F100020000DF10601022201F090FF002818BFA9
:106F20004FF0FF30BCBD00BFD801002410B51C4697
:106F3000C368084611462246BDE8104018470000C5
:106F4000B0B58AB00C46244801A91546FBF728FFC6
:106F500008B1FF2005E0DDE9070129800138206044
:106F6000002040B20AB0B0BD00207047002070473A
:106F700080B51948FBF724FF043818BF4FF0FF30E5
:106F800080BD00BF002070471CB5642058430090AE
:106F90001148FCF78DFA08B1FF2006E00E4C2046A0
:106FA000FBF70EFF0428FAD1002040B21CBD00BF41
:106FB0001CB56420584300900748FCF727FB08B134
:106FC000FF2006E0044C2046FBF7FAFE0428FAD125
:106FD000002040B21CBD00BF742100247047F9F7A7
:106FE00013BB0000B0B59CB009A818210C30F9F70C
:106FF00080F901A82021F9F77CF90220FAF742FA7A
:10700000244C00200090D4F8F00340F44040C4F831
:10701000F003D4F8F00300F4404000900098D4F856
:10702000F0038004FBD5FAF755FAA06C022108257D
:1070300020F01800A064206861F301002060CDE911
:107040001815CDE91611CDE91211012100240B917B
:10705000CDE91A44702015904FF48031052014902A
:10706000CDE9090109A8FBF75FF980B93F2001903C
:107070000594CDE90345CDE9064408940321032096
:10708000029001A8FAF7AEFF08B91CB0B0BDF9F73D
:10709000CBF900BF2844025810B51E481E4A0168AB
:1070A00041F470010160106800F00F00022804D85C
:1070B0001068032161F3030010601848184C016840
:1070C00041F0010101600021016103682340036078
:1070D000136813F00C0F04D01368032464F3030344
:1070E0001360104A8161C161016282620E4AC2620C
:1070F0000E4A026341638263C163026441640268B1
:1071000022F4802202600166094843F2D201016044
:1071100010BD00BF88ED00E000200052004402587E
:107120007FEDF6EA000202020000FF018002010189
:107130000040005270B5D04A0368904205D0B0F1CB
:10714000804F1CBF254CA04234D123F070034C6803
:10715000234390420ED0B0F1804F0BD01F4CA04281
:107160001CBF1F4CA04205D01E4CA0421CBFC34CEC
:10717000A04229D1CC6823F4407323434E6923F005
:1071800080030C688D6833430360C562846290425B
:107190000BD0BA4A904208D0B94A904205D0B94AB9
:1071A000904202D0B84A904201D10969016301219D
:1071B000416170BD0A4CA042C7D0B04CA042C4D0BF
:1071C000084CA042C1D0C6E7AD4CA042D2D0AD4CD5
:1071D000A042CFD0AC4CA042CCD0CFE700040040BE
:1071E00000080040000C004010B501F01F0104230E
:1071F000046A8B4002FA01F124EA03030362026A83
:107200001143016210BD0000F0B5026A9A4E22F0EF
:10721000010202620A688B68046A456824F002046D
:1072200023438469B0420BD0944FB84208D0944FA6
:10723000B84205D0934FB84202D0934FB84207D11D
:10724000CF6823F00C0327F004073B43B0420BD078
:107250008A4EB04208D08A4EB04205D0894EB04224
:1072600002D0894EB04205D125F44075D1E90567B9
:1072700035433D4345603E4D2C4022438261496881
:1072800041630362F0BD00BFF0B5026A7A4E22F09E
:107290001002FEF720F824F0200444EA0313846966
:1072A00003D006F58067B84209D1CF686FF040027D
:1072B00023F0C00302EA07121343B0420BD06F4A17
:1072C000904208D06E4A904205D06E4A904202D059
:1072D0006D4A904207D1D1E9052625F4406545EA7B
:1072E000820242EA86053A4A4560224042EA0C227E
:1072F0008261496881630362F0BD00BFF0B5026A34
:107300005D4E22F48072FDF7E6FF24F4007444EA37
:107310000323C46903D006F58067B8420AD1CF6859
:1073200040F2FF4223F440633F0227EA0202134384
:10733000B0420BD0514A904208D0514A904205D0F9
:10734000504A904202D0504A904207D1D1E90526D6
:1073500025F4405545EA021242EA0615044A456002
:10736000224042EA0C02C2614968C1630362F0BD77
:107370008CFFFEFFF0B5026A3F4F22F4805202629A
:10738000B842026A46680C688B68C5691CBF3B4FEF
:10739000B84212D14F6926F4804646EA8716466005
:1073A0000B4E354045EA0424C4614968016422F467
:1073B000005141EA03310162F0BD314FB842E9D0DA
:1073C000304FB842E6D0304FB842E3D0E7E700BFD5
:1073D000FF8CFFFEF0B5026A274F22F48032FDF7E2
:1073E00082FF1CBF254FB84211D14F6926F4803669
:1073F00046EA072646600B4E35402C4344654968F3
:10740000816522F4003141EA03410162F0BD1C4F65
:10741000B842EAD01B4FB842E7D01B4FB842E4D085
:10742000E8E700BF8FFFFEFFF0B5026A124F22F4BB
:107430008012FDF758FF1CBF104FB84212D14F69A0
:1074400026F4802646EA87264660104E354045EAF7
:10745000042444654968C16522F4001141EA0351DE
:107460000162F0BD064FB842E9D0064FB842E6D0FF
:10747000054FB842E3D0E7E70000014000040140B7
:10748000004001400048014000440140FF8FFFFEE2
:1074900080B5D0F8B82252689047002818BF032062
:1074A00080BD002070470020704780B513460A4613
:1074B000002100F019FA002080BD80B513460A466D
:1074C000002100F0B8FA002080BD10B580210446EC
:1074D00000F096FA20460021BDE8104000F090BA76
:1074E00080B50521C0F8941200220023002100F08D
:1074F000FBF9002080BD80B513460A460221C0E991
:107500000633C0F89412002100F095FA002080BDE7
:1075100080B50421C0F8941200220023002100F05D
:107520008AFA002080BD10B50278438893420DD9B5
:1075300094B29C420AD20478204422444478052C18
:10754000F6D184788C4208BF10BDF1E7002010BD51
:10755000B0B5C8B100230446257815B10134013314
:10756000FAE7DCB2022303EB4404148003224A70DE
:107570000C70002204783CB1DDB2023301304C556E
:1075800045F001040A55F5E7B0BD0000032805D811
:10759000C000034921FA00F0C0B2704703207047D1
:1075A0000003010310B5264C0A4602A0FDF794FB28
:1075B000204610BD4D534320436F6E66696700003F
:1075C0001220088000487047C000002410B51C4CF1
:1075D0000A4602A0FDF780FB204610BD4D53432014
:1075E000496E74657266616365000000042008805E
:1075F00000487047D400002410B5114C0A4602A080
:10760000FDF76AFB204610BD53544D6963726F65E8
:107610006C656374726F6E696373000010B5084C1B
:107620000A4602A0FDF758FB204610BD53544D33C7
:1076300032204D6173732053746F7261676500006F
:10764000EC060024B0B51A200880094908688A6849
:1076500080180BD0074D4C680822A91CFCF76BFD65
:1076600005F1120120460422FCF765FD0148B0BD7A
:1076700000F8FF085C01002478B10023C0F8D03284
:10768000C0F8C432C0F8B83209B1C0F8B412027000
:10769000012180F89C1200F0B7B80320704780B534
:1076A000D0F8C802F9F714F9BDE88040FFF76EBFC3
:1076B00080B5D0F8C802F9F7EDF8BDE88040FFF7D3
:1076C00065BFB0B5044669B194F89C02032847D160
:1076D000D4F8B8024269002A42D0FDF786FB0028A0
:1076E0003ED0B0BDD4F89402022833D1D4E90701CA
:1076F00088420DD9431A11462046E3611A46FFF726
:10770000DCFE204600210022002300F0EDF821E0FD
:107710000FD1A16981420CD3D4F89802814208D2DA
:107720002046002100220025FFF7C7FEC4F898522A
:10773000E7E794F89C02032805D1D4F8B802C168A1
:1077400009B1FDF760FC2046802100F059F9204680
:10775000FFF7C6FE94F8A00210B1002084F8A00242
:107760000020B0BD10B5044659B194F89C0203281E
:1077700028D1D4F8B802826922B3FDF736FB08B3EA
:1077800010BDD4F8940203281CD1D4E957039842C1
:107790000BD9C01AC4F85C011146984238BF0346A1
:1077A00020461A46FFF781FE0CE094F89C0203285D
:1077B00005D1D4F8B802016909B1FDF724FC2046CF
:1077C000FFF7A6FE002010BD0020704780B5012104
:1077D00080F89C12D0F8B82232B1017952689047F3
:1077E000002818BF032080BD002080BD80B5D0F8E0
:1077F000C802F9F794F8BDE88040FFF7C7BED0F89B
:10780000C802F9F79FB8000010B5017801292AD104
:107810001649C0F8C8120222C1F808050020C1E9C3
:107820000B004863C1E90620C1E90320C1E9080053
:107830000F4A0920C1E900200846F9F7C4FC08B145
:10784000F8F7F2FD094C4FF400712046F8F7D3FF2A
:10785000204600218022F8F7D2FF204601214FF474
:10786000BA72F8F7CCFF002010BD00BF401C002406
:107870000000044001F07F02D0F8C802090602EBC4
:10788000C20200EB820000F13E0258BF00F27E22ED
:107890001078704780B5FDF722FA08D090F89C3236
:1078A000032B02D1126A02B19047002080BD032051
:1078B00080BD80B5FDF713FA08D090F89C32032BF9
:1078C00002D1526A02B19047002080BD032080BDE2
:1078D00010B514461A46D0F8C8022346F9F73BF80B
:1078E000BDE81040FFF752BE80B5D0F8C802F9F7E6
:1078F00059F8BDE88040FFF749BEF8B5012680F889
:107900009C620025C0F8A452456080F8A052C0F8DF
:1079100094520446D0F8B80250B142683AB12046B9
:10792000002190470546002818BF032500E00025E8
:1079300020460021002240234027FFF7C9FF2046B0
:10794000802100224023A4F86461C4F86071FFF72D
:10795000BFFF2846A6842762F8BD90F89C12042930
:1079600003D190F89D1280F89C120020704780B5DA
:1079700090F89C12032905D1D0F8B81211B1C96949
:1079800001B18847002080BD01740020704780B598
:10799000D0F8C802F9F731FDBDE88040FFF7F6BD29
:1079A000B0B500F2AA250446284600F06DF9012082
:1079B000C4F89402B4F8B002C4F8980294F8AA0289
:1079C00000F01F01022908D001290CD089B92046F6
:1079D0002946BDE8B04000F089B920462946BDE8F7
:1079E000B04000F0DBBA20462946BDE8B04000F0C8
:1079F00077BB00F080012046BDE8B040AFF30080C7
:107A000080B5D0F8C802F8F7F0FFBDE88040FFF776
:107A1000BDBD80B5D0F8C802F9F704FDBDE88040CF
:107A2000FFF7B4BD90F89C1280F89D12042180F8F5
:107A30009C120020704780B5D0F8C802F9F70AF808
:107A4000BDE88040FFF7A2BD80B5FCF795FE0020A1
:107A500080BD80B5FCF7B4FE002080BD70B54E4EF1
:107A600004467178FFF724FE70780025FDF742F98F
:107A7000A0F8645120463178FFF71AFE3078FDF700
:107A800039F98584D4F8D40204EB8000D0F8C00220
:107A900080B12046FCF706FF04F53076D4F8D40216
:107AA00056F8200000F04CFBD4F8D40246F82050E1
:107AB000C4F8BC52002070BD0A2101800048704704
:107AC0003001002470B5184EFDF7A5FAFDF795F9C1
:107AD0000DB14021A98008B1402181802020208063
:107AE000114870BD70B5104EFDF795FAFDF785F998
:107AF00015B14FF40071A98010B14FF4007181806D
:107B000020202080084870BD70B5074EFDF783FA2D
:107B1000FDF773F90DB14021A98008B140218180A2
:107B200020202080004870BD10010024F8B50446D4
:107B300041F2740000F006FBD4F8D41204EB81018A
:107B400001F5307120B30860C4F8BC02207C124EED
:107B50004025002808BF4FF40075717820462B4659
:107B60000222FFF7B5FE7078012702222B46FDF7AF
:107B7000C1F8A0F8647120463178FFF7A9FE30788B
:107B8000FDF7B8F887842046FCF796FE0020F8BD84
:107B9000002008600220F8BD1000002439B1D0F8A0
:107BA000D42200EB8200C0F8C412002070470320EA
:107BB00070477CB50446D0F8D4020D460021ADF8DC
:107BC000061004EB8000D0F8C062002E5AD029784D
:107BD00011F0600216D0202A50D16A78FF2A22D0F4
:107BE000FE2A4BD16A88002A48D1EA88012A45D169
:107BF000090643D5D0F8C40280698047306020462A
:107C0000314636E068780B2817D001281CD00A28A6
:107C100029D098BB94F89C0203282FD10DF10601BE
:107C20002046022226E0688840BB080626D4E88861
:107C300020BB2046FCF760FE1EE094F89C0203285F
:107C40001CD1A878706017E094F89C02032813D127
:107C5000688888B929792046FFF7C8FD2979204628
:107C6000FCF766FD08E094F89C02032806D1311D5C
:107C700020460122FFF73FFC00207CBD204629461C
:107C8000FFF723FC03207CBD0A7802704A7842701B
:107C90004A8842808A888280C988C18070471CB522
:107CA00004460020ADF80600A9B1C4F8B812D4F813
:107CB000D40204F52E7151F82000C16A21B10DF1F2
:107CC00006008847C4F8D002D4F8D8020130C4F8BE
:107CD000D80200201CBD03201CBDD0F8B8220AB178
:107CE0001268104700207047FFF793BEBCB50446EA
:107CF00008780D4610F0600011D0402818BF2028E9
:107D000040F03D81D4F8D402294604EB8000D0F83D
:107D1000B8028268204602B0BDE8B04010476878DB
:107D2000092800F22C81DFE810F00A001E002A0169
:107D30002C002A01360055002A016B007D00FDF75A
:107D4000F9F900F21C81E888022840F01881D4F883
:107D5000A40203222146002808BF0122204641F840
:107D60000C2F022208E1FDF7E5F900F2088168888E
:107D70000025012840F00681C4F8A452FDF73AF826
:107D800000E1688802286BD0012840F0F8800120CB
:107D9000C4F8A402F8E0A888002840F0F080E88841
:107DA000002840F0EC8068887F2800F2E88094F892
:107DB0009C12032900F0E380C5B284F89E0220469D
:107DC0002946FFF7E4FDFDF715F8002D00F0DF80F0
:107DD0000220DDE00020ADF806004FF0FF3168889A
:107DE00001EB1021062900F2CA80DFE801F004440B
:107DF0004BC8C8586200D4F8B412207C0A68ACE0C2
:107E0000E888012840F0BB8094F89C02411E0229BA
:107E10002AD2214620460122002541F8085FFFF7BB
:107E20006AFBAFE068885C4D10F0FE0F287003D04D
:107E3000FCF75DFF0325A5E0C1B294F89C0203287E
:107E400043D0022859D1002900F09E80204661606D
:107E5000FFF743FF002867D00546FCF748FF48E0DE
:107E6000687984F8A0028FE0032840F08880211D03
:107E70002046012280E0217CD4F8B802002942D0BB
:107E8000C16A41E0C0B2052800F27980DFE800F065
:107E9000035054585C60D4F8B40242685BE0207C24
:107EA00000286CD1D4F8B802416B0DF10600884768
:107EB00056E0207C002862D1D4F8B802016B0DF1A5
:107EC000060088470146072023E021B36068884206
:107ED0005AD0C1B2FDF79CF8297820466160FFF7BF
:107EE000FCFE002850D00546FCF701FF2179FDF784
:107EF0008FF8022084F89C0244E0FCF7F8FE297811
:107F0000FDF786F896E7816A0DF10600884701467D
:107F10000220487025E00220616084F89C02002164
:107F20000025FDF775F829E7FCF764FF03202FE033
:107F3000D4F8B40282680EE0D4F8B402C2680AE051
:107F4000D4F8B402026906E0D4F8B402426902E04F
:107F5000D4F8B402826992B1207C0DF106019047F9
:107F60000146EA8882B1BDF8060040B1904238BFB0
:107F70000246ADF806202046FFF7BDFA01E0FCF707
:107F8000B6FE00252846BCBDFCF734FFF9E701200A
:107F900084F89C02F5E700BFE806002470B50446AB
:107FA00008780D790E4610F0600016D0402818BFF2
:107FB000202877D120462946FFF773FA002873D18D
:107FC0000020C4F8D402D4F8B8028268002A6BD02A
:107FD00020463146BDE8704010477078B0B10128A6
:107FE0002ED003285ED194F89C0203282CD17088EF
:107FF00048B945F08000802805D0F08818B920469F
:108000002946FFF7FDFCFCF7F5FE4DE094F89C02D5
:10801000032828D0022845D145F08000802841D18E
:1080200005F07F002A0600EB800004EB800000F1E1
:10803000140158BF00F5AA710020086020464BE0EB
:1080400094F89C02032831D002282BD145F08000FF
:10805000802827D020462946FFF7D2FC20468021E1
:10806000FFF7CEFC20E005F00F0115F0800001EBDA
:10807000810104EB810114BF898CB1F8641189B1CD
:1080800005F07F01002845F0800001EB810104EB41
:10809000810101F1140608BF01F5AA76802811D1EB
:1080A000002016E0FCF723FE002070BD7088002839
:1080B000FAD1680603D020462946FFF7F0FAFCF70C
:1080C00099FE77E720462946FFF7D4FB0028E7D042
:1080D00001203060204631460222FFF70CFAE3E728
:1080E000B0B5044608780D4610F0600018BF40286F
:1080F0000DD1FDF71FF80CD8A88810F0FE0F08D19D
:10810000C1B22046FFF7CFF938B1032010E0202894
:10811000EFD0FCF7ECFD0020B0BDD4F8B8028268C7
:10812000002AF2D00020C4F8D40229462046904705
:108130000028F1D1E9880029EED1FCF75BFEEAE7DF
:108140007047000000487047EC080024B0B50A787A
:108150004C7802F00F03012C16D10124FDF70BF827
:1081600000F510605301C458240422D41C58CD6873
:1081700009796FF3DF2545EA8252224342EA8141C1
:108180000D4A1143195014E04FF480345201FCF7AA
:10819000F2FF00F5306083581B040AD41358CC68F2
:1081A00009796FF3DF24234343EA8141024B1943EA
:1081B00011500020B0BD00BF00800010D0F80019A1
:1081C00040F2FF729143C0F80019D0F8041841F44E
:1081D0008071FCF7B2BD000070B504460698049D9E
:1081E000012816D1A16B1C4A0D9821F48031A1639E
:1081F000E1681140E160E168012821F44011E1608B
:1082000003D1E06840F48010E060204600F028F8D8
:108210000FE0E0680A9E40F04000E060204600F079
:108220001FF8A16B16B121F4803101E041F48031D7
:10823000A163012D0ED1E16D084A89B2E165E16DBE
:108240001143E165A16841F00601A160A16841F018
:108250002001A16070BD00BFBFFFBDFF0000EE03A5
:1082600081B0002100910F49009A01320092009ADA
:108270008A4214D80269B2F1FF3FF5DC0022009275
:10828000026942F001020261009A01320092009AF2
:108290008A4204D80269D207F6D1002000E0032008
:1082A00001B07047400D030010B50A784B781849AB
:1082B000012B00EB42140AD104F51063D4F80049F5
:1082C000B4F1FF3F01DCFCF708FF01240CE004F5EA
:1082D0003063D4F8004B01F17071B4F1FF3F01DC61
:1082E000FCF7FBFE4FF4803402F00F0204FA02F2B6
:1082F000D0F83C489443C0F83C48D0F81C4824EAE5
:108300000202C0F81C28186808401860002010BD40
:10831000007833ECD0F8001E21F00301C0F8001EF5
:10832000D0F8041821F00201FCF707BDD0F8001EB8
:1083300021F00301C0F8001ED0F8041841F002013A
:10834000FCF7FBBC2DE9F84F0D468146119C0C98BB
:10835000DDF828B041210022502903D049F821201E
:108360000131F9E734B1D9F8381041F40011C9F8F6
:10837000381017E0D9F8041841F00201C9F80418C0
:10838000D9F8381021F40011C9F83810D9F80010C4
:1083900041F04001C9F80010D9F8001041F0800107
:1083A000C9F80010002109F50068C9F8001E01286D
:1083B000D8F80010C8F8001006D1D8F80000002B3B
:1083C00018BF40F0010003E0D8F8000040F00300BF
:1083D000C8F800004846102100F072FA824648466C
:1083E00000F04EFA002109F510624FF67F330026A7
:1083F000C8F81010C8F81410C8F81C10B5420ED0F8
:108400004FF09047002E08BF4FF000671468013608
:1084100007EAE4741460116193602032EEE709F515
:10842000306100224FF67F330026B5420ED04FF068
:108430009044002E08BF4FF000640F68013604EA34
:10844000E7740C600A618B602031EEE7D8F81010F9
:1084500021F48071C8F810100021C9F81810BBF180
:10846000000F6FF08041C9F8141005D1D9F8181029
:1084700041F01001C9F81810D9F818100D4A11432D
:10848000C9F81810119A0D9929B1D9F8181041F0AE
:108490000801C9F81810012A05D1D9F81810064AA0
:1084A0001143C9F8181050EA0A0018BF0120BDE8AE
:1084B000F88F00BF00383C8004000040816821F044
:1084C0000101816000207047F0B54B7891F800C041
:1084D000012B20D100EB4C15354CA64605F5106359
:1084E000344CD5F810798E69CEB327401F6174469D
:1084F0001F6907EA0E071F61CF68BE4201D93E46D9
:108500008F611F6947F400271F6104F100571C6940
:10851000374027432EE000EB4C10254CD0F8103BA1
:108520006FF31203C0F8103BD0F8103B6FF3DC433D
:10853000C0F8103B8D6900F53063C86805B18861EB
:108540001D6904F1005445F400251D61C8612040F7
:108550001C6920431861012A12D108690EE007EA5C
:108560000E061E611E6946F400261E611E6906EA9B
:1085700004070026012A1F6109D1486900B158612A
:108580004FF004411868084318600020F0BDD5F88A
:108590000019002E41F00441C5F80019F5D00CF087
:1085A0000F01012200F6340302FA01F1EAE700BFED
:1085B000FFFF07E00000F8FF10B5036C134CA34267
:1085C00003D3D0F8003B002B1ED40023C0F8103B8F
:1085D000D0F8103B012943F40023C0F8103BD0F839
:1085E000103B43F01803C0F8103BD0F8103B43F0A9
:1085F000C043C0F8103B07D1C0F8142BD0F8001BC3
:1086000041F08021C0F8001B002010BD0B30544FFA
:108610000A784B785201012B14BF00F5306000F549
:108620001060835823F400138350097901F0FE0190
:10863000022903D1115841F0805111500020704798
:108640000A784978012900EB421019BFD0F8001BC5
:1086500000F53060D0F8001900F510602AB100294B
:1086600003D4016821F080410160016841F40011E8
:108670000160002070470000F8B54B780C78012BA2
:108680002ED100EB441606F51063D6F81079D1F818
:1086900018C0BCF1000F47D06FF312071F611F69AC
:1086A0006FF3DC471F61CF680CEB0705013DB5FB9D
:1086B000F7F5544F07EAC5451F693D431D616546FF
:1086C0001F696FF3DF453D431D610D79012D36D1E3
:1086D0001D6925F0C0451D611D6945F000572DE05D
:1086E00000EB4413D3F8104B6FF31204C3F8104B94
:1086F000D3F8104B6FF3DC44C3F8104B03F5306331
:108700008D69CC68002D4BD02544013DB5FBF4F5B7
:10871000AEB274433B4ECC6106EAC5451E696FF3A9
:10872000DF4435431D6142E06FF3DC471F611F6981
:1087300047F400271F611F696FF312071F61012AA9
:1087400011D14A690AB1C6F814290979012944D11D
:10875000D0F80818D6F80009C9054CBF40F0805081
:1087600040F0005038E0630100F51066F55845F020
:108770000445F5500D79012D35D1D0F808589F5991
:10878000ED054FF0805558BF4FF000553D439D51CA
:108790001FFA8CF309690092224600F0C9F920E023
:1087A0006FF3DF441D692C431C614FF400241D69E5
:1087B0002C431C61012A02D10A6902B15A6109796C
:1087C00001290AD1D0F80808C0054FF0805058BFE1
:1087D0004FF00050196808431860186840F00440D2
:1087E00018600020F8BDBCF1000FFAD004F00F01B2
:1087F000012202FA01F1D0F834281143C0F83418EC
:10880000EFE700BF0000F81F81B0002200924A7815
:10881000012A15D1097800F5106049014258B2F1DA
:10882000FF3F22DC7346FCF730FD9E46009B013380
:108830000093009B93421AD80B58002BF6D414E0F7
:10884000097800F5306049014258B2F1FF3F0CDC75
:108850007346FCF71AFD9E46009B01330093009B74
:10886000934204D80B58002BF6D4002000E00120DE
:1088700001B07047816841F00101816000207047BC
:1088800081B0002100911F49009A01320092009AA4
:108890008A4212D80269B2F1FF3FF5DC0022009251
:1088A00010220261009A01320092009A8A4204D892
:1088B0000269D206F6D4002000E0032001B0704720
:1088C00081B0002200920F4A009B01330093009B6D
:1088D000934213D80369B3F1FF3FF5DC890100230C
:1088E000009320310161009901310091009991427A
:1088F00004D801698906F6D4002000E0032001B005
:10890000704700BF400D0300D0F8080810F00600C3
:1089100005D0062818BF022803D102207047002086
:1089200070470F207047406900F001007047D0F891
:108930001818D0F81C08084080B27047D0F81818F2
:10894000D0F81C080840000C704710B5D0F810286B
:10895000D0F8344801F00F0300EB411024FA03F380
:10896000DB01D0F80809DBB21A43104010BD00EB60
:108970004111D1F8081BD0F814080840704741692C
:10898000806908407047B0B593084FF4805423B114
:10899000055941F8045B013BF9E712F003020BD0E3
:1089A0004FF48053C058002320FA03F40833013AEF
:1089B00001F8014B1404F7D10846B0BDB0B5044628
:1089C000C06820F0C040E060A1B101291CBF0120B7
:1089D000B0BDE068002540F00050E0600120F7F7EE
:1089E00029FD681C6169302D14D811F0010105467C
:1089F000F4D00FE0E068002540F08040E060012006
:108A0000F7F718FD681C6169302D03D811F00101DA
:108A10000546F4D13238B0FA80F04009B0BDD0F844
:108A2000002801F07F0122F4FE62C0F80028D0F88F
:108A3000002842EA0111C0F8001800207047000029
:108A4000022A34D1284A294B0A449A4202D24FF4CE
:108A500070512EE0264A274B0A449A4202D24FF424
:108A6000605126E0244A254B0A449A4202D24FF430
:108A700050511EE0224A234B0A449A4202D24FF43C
:108A8000405116E0204A214B0A449A4202D24FF448
:108A900030510EE01E4A1F4B0A449A4202D24FF454
:108AA000205106E01C4A1D4B0A449A420AD24FF458
:108AB0001051C26822F47052C260C2681143C16092
:108AC00000207047164A174B0A449A4202D24FF4CC
:108AD0000051EEE7144A154B0A444FF4C0519A4234
:108AE00038BF4FF4E051E4E7405327FF00350C0056
:108AF000401E1BFF40420F0000DC0BFF804F1200A6
:108B0000808CF9FE20D6130060B6E5FE60E3160007
:108B100000D3CEFE40771B00C05BB3FEC0912100A6
:108B200000CA91FE20753800E05459FEE09C4100D7
:108B300010B5029C0CB1002010BD0333120300F5E8
:108B400080509B08002BF6D051F8044B1450013B89
:108B5000F8E7FEE710B500F00F03A94CB0F1FF3FB6
:108B6000034A2344C8BF83180801187010BD00BF12
:108B700000E400E0F7F744BD80B503480421FBF7AB
:108B8000DDF9002080BD00BF782200242DE9FC41E2
:108B9000484C88468DF80700474E4FF4006100228C
:108BA0002046B04720464FF400510022B047434DC5
:108BB0000DF10701012264232846FAF760FF0746FA
:108BC00020464FF400510122B04728464146012279
:108BD0004FF4FA73FAF7A2FE054620464FF40061FF
:108BE0000122B0476842381A18BF4FF0FF30BDE885
:108BF000FC8100BF70B52F4CFCF726F8AAB22F48B5
:108C000031464FF4FA73FAF789FE05462046FCF721
:108C100086F8002D18BF4FF0FF35284670BD00BF05
:108C200070B5244CFCF710F8AAB2244831466423EE
:108C3000FAF725FF05462046FCF771F8002D18BF0E
:108C40004FF0FF35284670BD2DE9FC47194D1746FA
:108C500088468DF80700DFF860A04FF4006100221D
:108C600000242846D04728464FF400510022D04720
:108C700012480DF1070101226423FAF700FF0646AE
:108C800028464FF400510122A946D0473FB1BAB25D
:108C90000A4841464FF4FA73FAF7F1FE0644484693
:108CA000FCF73DF8002EC8BF4FF0FF342046BDE86A
:108CB000FC8700BF00100258E7050008F0210024DF
:108CC0008EB04F480168890312D4BFF34F8F002143
:108CD000BFF36F8FC0F83C12BFF34F8FBFF36F8F9E
:108CE000016841F400310160BFF34F8FBFF36F8F14
:108CF0000168C90326D40021016743F6E07CBFF375
:108D00004F8FC26EC2F3C903C2F34E319A070133CB
:108D10000CEA411516461F4646EA050406F1404690
:108D2000013FC0F84C42F7D14C1E00292146EFD13B
:108D3000BFF34F8F016841F480310160BFF34F8F63
:108D4000BFF36F8F01200890F7F7DCFC40F20110B1
:108D50000B9048F21F700A900020099008AC204642
:108D6000F7F7AAFC0420F7F7D7FCF7F757FCFEF754
:108D700039F9FBF7FDFDFBF757FEFBF7ADFEFBF7FF
:108D8000D9FEFBF78DFEFBF72DFFFBF78FFB264887
:108D90001C4D0DF11C090FF2700A0FF27C0B10260E
:108DA000224F8046284602A90022F9F740FD2846B6
:108DB00049460022F9F710FD9DF80A009DF80820A9
:108DC0009DF809305946C00708BF5146204600F0BB
:108DD0003DF804203A21A0221023CDE90064FBF7DE
:108DE0003BFB64203A21A0221023CDE90878CDE98D
:108DF0000064FBF731FB0320FBF75AFCD2E700BF0E
:108E000014ED00E04C21002454696D653A202530B2
:108E1000326420253032640054696D653A20253073
:108E200032643A2530326400657374005344205430
:108E3000436800691847D0E9033018478368006920
:108E40001847D0F800C00069604700000FB4084B15
:108E500010B504A902AA039800F01CF8044602A960
:108E6000002000F048FA204610BC5DF814FB00001A
:108E7000F792000802E008C8121F08C1002AFAD1C0
:108E800070477047002001E001C1121F002AFBD18A
:108E9000704700002DE9FF4F8DB00F4605460026B4
:108EA00006E025280BD0DDE90F1290476D1C761CDB
:108EB00028780028F5D111B03046BDE8F08F0024A5
:108EC000A246A1460122EC4900E0044315F8013F07
:108ED000203B02FA03F00842F7D128782A2810D064
:108EE0006FF02F022878A0F13001092914D80AEB7D
:108EF0008A0102EB410144F0020400EB010A6D1CFF
:108F0000F0E701CF5FEA000A03D544F40054CAF148
:108F1000000A44F002046D1C28782E2817D115F899
:108F2000010F44F004042A280ED06FF02F02287895
:108F3000A0F1300109290AD809EB890102EB4101AE
:108F400000EB01096D1CF2E757F8049B6D1C2878B3
:108F50006C280FD006DC4C2817D068280DD06A2862
:108F600014D104E0742810D07A280FD10DE044F415
:108F700000140AE044F4801401E044F440146978D9
:108F8000814202D104F580146D1C6D1C2A786E2A72
:108F90001FD00CDC632A31D004DC002A8BD0582A85
:108FA00011D1A3E0642A68D0692A0CD165E0732A44
:108FB0002ED004DC6F2A73D0702A04D19BE0752A6E
:108FC0006FD0782A6ED01046DDE90F129047761CDC
:108FD00050E1C4F30250022806D0032809D0042827
:108FE00001CF09D0066045E101CFF117C0E900616A
:108FF00040E101CF06803DE106703BE117F8040B2C
:109000008DF8000000208DF80100EB46012003E000
:1090100057F804BB4FF0FF3061074FF0000102D456
:109020000DE008F10101884649450FDA8045F8DB7B
:109030001BF808100029F4D108E008F10101884666
:109040008142FADB1BF808100029F6D1DDE90F2375
:10905000AAEB08008146214600F036F9304400EBC7
:10906000080604E0DDE90F121BF8010B9047B8F188
:109070000108F7D221464846F7E00A21C4F302531B
:109080004FF0000B0891022B04D001CFC117032B26
:1090900009D00AE0FF1D27F00707F7E8020108E002
:1090A00032E01FE020E000B2C117042B01D140B232
:1090B000C117031E71F1000307DA4FF0000CD0EB6B
:1090C0000C006CEB01012D2302E0230504D52B23BA
:1090D0008DF82430012303E0E30701D02023F7E7D4
:1090E000984658E00A2110E010210EE010204FF0C1
:1090F000000B08900CE010214FF0000B44F004042A
:109100004FF00809089103E008214FF0000B089187
:10911000C4F30253022B04D001CF0021032B06D04D
:1091200006E0FF1D27F00707F7E8020103E080B221
:10913000042B00D1C0B24FF0000823072BD5702AB2
:1091400007D0DDF820C08CF0100C5CEA0B0C05D0C9
:109150000EE040238DF82430012308E050EA01039B
:1091600006D030238DF824308DF825200223984630
:10917000DDF820C08CF0080C5CEA0B0C0BD150EA37
:10918000010301D1630706D530238DF824304FF059
:109190000108A9F10109582A04D038A20B9208AAA3
:1091A0000A920BE03AA2F9E75B46089AF7F7ACF8A7
:1091B0000B9B9B5C0A9A521E0A92137050EA0102A2
:1091C000F2D10A98ADEB000000F1200B600702D548
:1091D00024F4803401E04FF00109D94502DDA9EB08
:1091E0000B0000E0002000EB0B0141440890AAEBCB
:1091F000010AE00306D4DDE90F232146504600F0C2
:1092000063F806444FF0000908E009A911F80900C5
:10921000DDE90F12904709F10109761CC145F4DB25
:10922000E0030CD5DDE90F232146504600F04CF851
:10923000064404E0DDE90F1230209047761C0899BF
:10924000481E08900029F5DC08E00A980A99007881
:10925000491C0A91DDE90F129047761CBBF1000111
:10926000ABF1010BF1DC21465046DDE90F2300F0A4
:1092700019F806446D1C1BE6092801003031323311
:109280003435363738396162636465660000000042
:10929000303132333435363738394142434445462C
:1092A000000000002DE9F041044600251E46174647
:1092B000880404D405E039462020B0476D1C641EA4
:1092C000F9D52846BDE8F0812DE9F0410446002596
:1092D0001E469046C80301D5302700E020278804A9
:1092E00004D505E041463846B0476D1C641EF9D5EB
:1092F0002846BDE8F0810A68531C0B601070704767
:10930000000000000102030401020304060708092B
:10931000008002021F00000053544D202020202016
:1093200050726F647563742020202020202020203C
:10933000302E3031424D48640000000000004600ED
:10934000000038000000A0000000500000000100F4
:1093500010000300000002640000120B0000120B5A
:109360000000000000000000000000F80000E0071E
:1093700000001F00000000000000000000000000CE
:1093800000000000000000000000000000000000DD
:1093900000000000000000000000000000000000CD
:1093A00000000000000000000000000000000000BD
:1093B00000000000000000000000000000000000AD
:10A2E00000000000000008422D6B2D6B2D6B242117
:10A2F000000000000000000000000000000000005E
:10A30000000000000000000000000000000000004D
:10A31000000000000000000000000000000000003D
:10A32000000000000000000000000000000000002D
:10A33000000000000000000000000000000000001D
:10A34000000000000000000000000000000000000D
:10A3500000000000000000000000000000000000FD
:10A3600000000000000000000000000000000000ED
:10A3700000000000000000000000000000000000DD
:10A3800000000000000000000000000000000000CD
:10A3900000000000000000000000000000000000BD
:10A3A00000000000000000000000000000000000AD
:10A3B000000000000000000000000000000000009D
:10A3C000000000000000000000000000000000008D
:10A3D000000000000000000000000000000000007D
:10A3E000000000000000000000000000000000006D
:10A3F000000000000000000000000000000000005D
:10A40000000000000000000000000000000000004C
:10A41000000000000000000000000000000000003C
:10A420000842D7BDBEF7BEF79AD69AD6BEF7FFFF51
:10A430005CE7D7BDAA520000000000000000000049
:10A440000000000000003084FBDEFFFFFFFFBEF7CE
:10A45000D7BD2D6B00000000000000000000084286
:10A46000D7BD5CE7FFFFFFFFBEF738C6308424216D
:10A470000000AA529AD69AD69AD69AD69AD69AD640
:10A480009AD6000000000000000000000000242117
:10A4900014A5FBDEFFFFFFFF5CE714A524210000ED
:10A4A00075AD9AD69AD69AD69AD69AD69AD6308436
:10A4B0000000000030849AD69AD69AD69AD69AD6B8
:10A4C0009AD675AD000000000000000000000000FA
:10A4D0000000CF7B38C65CE7FFFFFFFFFBDED7BD88
:10A4E000AA52000000000000000000000000000070
:10A4F000000000000000000000000000000000005C
:10A50000000000000000000000000000000000004B
:10A51000000000000000000000000000000000003B
:10A52000000000000000000000000000000000002B
:10A53000000000000000000000000000000000001B
:10A54000000000000000000000000000000000000B
:10A55000000000000000000000000000242175AD94
:10A56000FFFFD7BDAA520000000000002421FFFF1A
:10A57000FFFFFFFFFFFF38C624210000000000009E
:10A5800000000000D7BDFFFFFFFFFFFFFFFFFFFF41
:10A59000FFFFFFFF75AD000000000000CF7BFFFF55
:10A5A000FFFFFFFFFFFFFFFFFFFFFFFFFFFFBEF704
:10A5B00014A52D6BFFFFFFFFFFFFFFFFFFFFFFFF56
:10A5C000FFFF000000000000000000003084BEF724
:10A5D000FFFFFFFFFFFFFBDE14A5FBDE5CE7AA52D7
:10A5E0009AD6FFFFFFFFFFFFFFFFFFFFFFFF14A54E
:10A5F0000000000014A5FFFFFFFFFFFFFFFFFFFFAC
:10A60000FFFF9AD600000000000000000000084292
:10A610009AD6FFFFFFFFFFFF14A500000842B29487
:10A620005CE738C6242100000000000000000000A4
:10A63000000000000000000000000000000000001A
:10A64000000000000000000000000000000000000A
:10A6500000000000000000000000000000000000FA
:10A6600000000000000000000000000000000000EA
:10A6700000000000000000000000000000000000DA
:10A6800000000000000000000000000000000000CA
:10A69000000000000000000000002421FBDEFBDEC3
:10A6A000AA52000000000000000000002D6BFFFF18
:10A6B000FFFFFFFFFFFFFFFFFBDE000000000000C9
:10A6C00000003084FFFFFFFFFFFFFFFFFFFFFFFFE2
:10A6D000B2940842FBDEB29400002421BEF7FFFFD3
:10A6E000FFFFFFFFFFFFFFFFBEF7242100003084C4
:10A6F0005CE7BEF7FFFFFFFFFFFFFFFFFFFFFFFF6E
:10A70000FFFF00000000000000003084FFFFFFFF9B
:10A71000FFFFFFFFFFFF2D6B00000000B294BEF7AC
:10A720005CE7FFFFFFFFFFFFFFFFFFFFFFFF14A539
:10A730000000000014A5FFFFFFFFFFFFFFFFFFFF6A
:10A74000FFFF9AD60000000000000000AA52BEF7EA
:10A75000FFFFFFFFFFFFFFFF14A500000000000048
:10A76000000014A5FBDE2421000000000000000012
:10A7700000000000000000000000000000000000D9
:10A7800000000000000000000000000000000000C9
:10A7900000000000000000000000000000000000B9
:10A7A00000000000000000000000000000000000A9
:10A7B0000000000000000000000000000000000099
:10A7C0000000000000000000000000000000000089
:10A7D00000000000000000000000084238C62421EC
:10A7E000000000000000000000000842BEF7FFFF6C
:10A7F000FFFFFFFFFFFFFFFFFFFF14A500000000AA
:10A8000000009AD6FFFFFFFFFFFFFFFFFFFFFFFFE4
:10A810002D6B000008425CE72421CF7BFFFFFFFF88
:10A82000FFFFFFFFFFFFFFFF9AD6000000000000C0
:10A83000000075ADFFFFFFFFFFFFFFFFFFFFFFFF02
:10A84000FFFF0000000000002D6BFFFFFFFFFFFF78
:10A85000FFFFFFFFFFFF2D6B0000000000003084B2
:10A86000FFFFFFFFFFFFFFFFFFFFFFFFFFFF14A53D
:10A870000000000014A5FFFFFFFFFFFFFFFFFFFF29
:10A88000FFFF9AD60000000000002421BEF7FFFF62
:10A89000FFFFFFFFFFFFFFFF14A500000000000007
:10A8A00000000000B2949AD60000000000000000F2
:10A8B0000000000000000000000000000000000098
:10A8C0000000000000000000000000000000000088
:10A8D0000000000000000000000000000000000078
:10A8E0000000000000000000000000000000000068
:10A8F0000000000000000000000000000000000058
:10A900000000000000000000000000000000000047
:10A910000000000000000000000000000000000037
:10A9200000000000000000002421FBDEFFFFFFFF0D
:10A93000FFFFFFFFFFFFFFFFFFFF5CE700000000DE
:10A940000000FFFFFFFFFFFFFFFFFFFFFFFFFFFF15
:10A950002D6B00000000D7BD2D6B14A5FFFFFFFF7E
:10A96000FFFFFFFFFFFFFFFF9AD60000000000007F
:10A9700000002D6BFFFFFFFFFFFFFFFFFFFFFFFF4B
:10A98000FFFF0000000000005CE7FFFFFFFFFFFF8C
:10A99000FFFFFFFFFFFF2D6B000000000000000025
:10A9A0009AD6FFFFFFFFFFFFFFFFFFFFFFFF14A58A
:10A9B0000000000014A5FFFFFFFFFFFFFFFFFFFFE8
:10A9C000FFFF9AD6000000000000D7BDFFFFFFFF89
:10A9D000FFFFFFFFFFFFFFFF14A5000000000000C6
:10A9E0000000000000009AD6308400000000000043
:10A9F0000000000000000000000000000000000057
:10AA00000000000000000000000000000000000046
:10AA10000000000000000000000000000000000036
:10AA20000000000000000000000000000000000026
:10AA30000000000000000000000000000000000016
:10AA40000000000000000000000000000000000006
:10AA500000000000000000000000000000000000F6
:10AA60000000000000002421FBDEFFFFFFFFFFFFCE
:10AA7000FFFFFFFFFFFFFFFFFFFFFFFF00000000E2
:10AA80000000FFFFFFFFFFFFFFFFFFFFFFFFFFFFD4
:10AA90002D6B000000000000000014A5FFFFFFFF69
:10AAA000FFFFFFFFFFFFFFFF9AD60000000000003E
:10AAB00000002D6BFFFFFFFFFFFFFFFFFFFFFFFF0A
:10AAC000FFFF00000000CF7BFFFFFFFFFFFFFFFF46
:10AAD000FFFFFFFFFFFF2D6B0000000000000000E4
:10AAE0009AD6FFFFFFFFFFFFFFFFFFFFFFFF14A549
:10AAF0000000000014A5FFFFFFFFFFFFFFFFFFFFA7
:10AB0000FFFF9AD6000000002421FFFFFFFFFFFF98
:10AB1000FFFFFFFFFFFFFFFF14A500000000000084
:10AB20000000000000002D6B9AD60000000000001D
:10AB30000000000000000000000000000000000015
:10AB40000000000000000000000000000000000005
:10AB500000000000000000000000000000000000F5
:10AB600000000000000000000000000000000000E5
:10AB700000000000000000000000000000000000D5
:10AB800000000000000000000000000000000000C5
:10AB900000000000000000000000000000000000B5
:10ABA000000000002421FBDEFFFFFFFFFFFFFFFF8F
:10ABB000FFFFFFFFFFFFFFFFFFFFBEF700000000EA
:10ABC0000000FFFFFFFFFFFFFFFFFFFFFFFFFFFF93
:10ABD0002D6B000000000000000014A5FFFFFFFF28
:10ABE000FFFFFFFFFFFFFFFF9AD6000000000000FD
:10ABF00000002D6BFFFFFFFFFFFFFFFFFFFFFFFFC9
:10AC0000FFFF0000000075ADFFFFFFFFFFFFFFFF2C
:10AC1000FFFFFFFFFFFF2D6B0000000000000000A2
:10AC20009AD6FFFFFFFFFFFFFFFFFFFFFFFF14A507
:10AC30000000000014A5FFFFFFFFFFFFFFFFFFFF65
:10AC4000FFFF9AD600000000CF7BFFFFFFFFFFFF52
:10AC5000FFFFFFFFFFFFFFFF14A500000000000043
:10AC60000000000000000000BEF7242100000000EA
:10AC700000000000000000000000000000000000D4
:10AC800000000000000000000000000000000000C4
:10AC900000000000000000000000000000000000B4
:10ACA00000000000000000000000000000000000A4
:10ACB0000000000000000000000000000000000094
:10ACC0000000000000000000000000000000000084
:10ACD0000000000000000000000000000000000074
:10ACE00000002421FBDEFFFFFFFFFFFFFFFFFFFF50
:10ACF000FFFFFFFFFFFFFFFFFFFFD7BD00000000CA
:10AD00000000FFFFFFFFFFFFFFFFFFFFFFFFFFFF51
:10AD10002D6B000000000000000014A5FFFFFFFFE6
:10AD2000FFFFFFFFFFFFFFFF9AD6000000000000BB
:10AD300000002D6BFFFFFFFFFFFFFFFFFFFFFFFF87
:10AD4000FFFF000000009AD6FFFFFFFFFFFFFFFF9D
:10AD5000FFFFFFFFFFFF2D6B000000000000000061
:10AD60009AD6FFFFFFFFFFFFFFFFFFFFFFFF14A5C6
:10AD70000000000014A5FFFFFFFFFFFFFFFFFFFF24
:10AD8000FFFF9AD60000000014A5FFFFFFFFFFFFA2
:10AD9000FFFFFFFFFFFFFFFF14A500000000000002
:10ADA00000000000000000009AD62D6B000000009B
:10ADB0000000000000000000000000000000000093
:10ADC0000000000000000000000000000000000083
:10ADD0000000000000000000000000000000000073
:10ADE0000000000000000000000000000000000063
:10ADF0000000000000000000000000000000000053
:10AE00000000000000000000000000000000000042
:10AE10000000000000000000000000000000000032
:10AE20000000D7BDFFFFFFFFFFFFFFFFFFFFFFFF9A
:10AE3000FFFFFFFFFFFFFFFFFFFF084200000000D2
:10AE40000000FFFFFFFFFFFFFFFFFFFFFFFFFFFF10
:10AE50002D6B000000000000000014A5FFFFFFFFA5
:10AE6000FFFFFFFFFFFFFFFF9AD60000000000007A
:10AE700000002D6BFFFFFFFFFFFFFFFFFFFFFFFF46
:10AE8000FFFF000000009AD6FFFFFFFFFFFFFFFF5C
:10AE9000FFFFFFFFFFFF2D6B000000000000000020
:10AEA0009AD6FFFFFFFFFFFFFFFFFFFFFFFF14A585
:10AEB0000000000014A5FFFFFFFFFFFFFFFFFFFFE3
:10AEC000FFFF9AD60000000014A5FFFFFFFFFFFF61
:10AED000FFFFFFFFFFFFFFFF14A5000000000000C1
:10AEE00000000000000000009AD62D6B000000005A
:10AEF0000000000000000000000000000000000052
:10AF00000000000000000000000000000000000041
:10AF10000000000000000000000000000000000031
:10AF20000000000000000000000000000000000021
:10AF30000000000000000000000000000000000011
:10AF40000000000000000000000000000000000001
:10AF500000000000000000000000000000000000F1
:10AF600075ADFFFFFFFFFFFFFFFFFFFFFFFFFFFFCD
:10AF7000FFFFFFFFFFFFFFFF14A500000000000020
:10AF80000000FFFFFFFFFFFFFFFFFFFFFFFFFFFFCF
:10AF90002D6B000000000000000014A5FFFFFFFF64
:10AFA000FFFFFFFFFFFFFFFF9AD600000000000039
:10AFB00000002D6BFFFFFFFFFFFFFFFFFFFFFFFF05
:10AFC000FFFF000000009AD6FFFFFFFFFFFFFFFF1B
:10AFD000FFFFFFFFFFFF2D6B0000000000000000DF
:10AFE0009AD6FFFFFFFFFFFFFFFFFFFFFFFF14A544
:10AFF0000000000014A5FFFFFFFFFFFFFFFFFFFFA2
:10B00000FFFF9AD600000000B294FFFFFFFFFFFF92
:10B01000FFFFFFFFFFFFFFFF14A50000000000007F
:10B0200000000000000000005CE708420000000093
:10B030000000000000000000000000000000000010
:10B040000000000000000000000000000000000000
:10B0500000000000000000000000000000000000F0
:10B0600000000000000000000000000000000000E0
:10B0700000000000000000000000000000000000D0
:10B0800000000000000000000000000000000000C0
:10B090000000000000000000000000000000CF7B66
:10B0A000FFFFFFFFFFFFFFFFFFFFFFFFFFFFFFFFB0
:10B0B000FFFFFFFFFFFF38C6000000000000000098
:10B0C0000000FFFFFFFFFFFFFFFFFFFFFFFFFFFF8E
:10B0D0002D6B000000000000000014A5FFFFFFFF23
:10B0E000FFFFFFFFFFFFFFFF9AD6000000000000F8
:10B0F00000002D6BFFFFFFFFFFFFFFFFFFFFFFFFC4
:10B10000FFFF0000000014A5FFFFFFFFFFFFFFFF90
:10B11000FFFFFFFFFFFF2D6B00000000000000009D
:10B120009AD6FFFFFFFFFFFFFFFFFFFFFFFF14A502
:10B130000000000014A5FFFFFFFFFFFFFFFFFFFF60
:10B14000FFFF9AD600000000AA52FFFFFFFFFFFF9B
:10B15000FFFFFFFFFFFFFFFF14A50000000000003E
:10B160000000000000000842BEF7000000000000E0
:10B1700000000000000000000000000000000000CF
:10B1800000000000000000000000000000000000BF
:10B1900000000000000000000000000000000000AF
:10B1A000000000000000000000000000000000009F
:10B1B000000000000000000000000000000000008F
:10B1C000000000000000000000000000000000007F
:10B1D0000000000000000000000000002421BEF775
:10B1E000FFFFFFFFFFFFFFFFFFFFFFFFFFFFFFFF6F
:10B1F000FFFFFFFFFBDE2421000000000000000035
:10B200000000FFFFFFFFFFFFFFFFFFFFFFFFFFFF4C
:10B210002D6B000000000000000014A5FFFFFFFFE1
:10B22000FFFFFFFFFFFFFFFF9AD6000000000000B6
:10B2300000002D6BFFFFFFFFFFFFFFFFFFFFFFFF82
:10B24000FFFF00000000AA52FFFFFFFFFFFFFFFF0C
:10B25000FFFFFFFFFFFF2D6B00000000000000005C
:10B260009AD6FFFFFFFFFFFFFFFFFFFFFFFF14A5C1
:10B270000000000014A5FFFFFFFFFFFFFFFFFFFF1F
:10B28000FFFF9AD60000000000005CE7FFFFFFFF11
:10B29000FFFFFFFFFFFFFFFF14A5000000000000FD
:10B2A00000000000000014A575AD000000000000C3
:10B2B000000000000000000000000000000000008E
:10B2C000000000000000000000000000000000007E
:10B2D000000000000000000000000000000000006E
:10B2E000000000000000000000000000000000005E
:10B2F000000000000000000000000000000000004E
:10B30000000000000000000000000000000000003D
:10B3100000000000000000000000000014A5FFFF76
:10B32000FFFFFFFFFFFFFFFFFFFFFFFFFFFFFFFF2D
:10B33000FFFF5CE724210000000000000000000087
:10B340000000FFFFFFFFFFFFFFFFFFFFFFFFFFFF0B
:10B350002D6B000000000000000014A5FFFFFFFFA0
:10B36000FFFFFFFFFFFFFFFF9AD600000000000075
:10B3700000002D6BFFFFFFFFFFFFFFFFFFFFFFFF41
:10B38000FFFF00000000000038C6FFFFFFFFFFFFC7
:10B39000FFFFFFFFFFFF2D6B00000000000000001B
:10B3A0009AD6FFFFFFFFFFFFFFFFFFFFFFFF14A580
:10B3B0000000000014A5FFFFFFFFFFFFFFFFFFFFDE
:10B3C000FFFF9AD6000000000000CF7BFFFFFFFFC9
:10B3D000FFFFFFFFFFFFFFFF14A5000000000000BC
:10B3E00000000000AA525CE72421000000000000D9
:10B3F000000000000000000000000000000000004D
:10B40000000000000000000000000000000000003C
:10B41000000000000000000000000000000000002C
:10B42000000000000000000000000000000000001C
:10B43000000000000000000000000000000000000C
:10B4400000000000000000000000000000000000FC
:10B450000000000000000000000000005CE7FFFFAB
:10B46000FFFFFFFFFFFFFFFFFFFFFFFFFFFFFFFFEC
:10B47000BEF7AA520000000000000000000000001B
:10B480000000FFFFFFFFFFFFFFFFFFFFFFFFFFFFCA
:10B490002D6B000000000000000014A5FFFFFFFF5F
:10B4A000FFFFFFFFFFFFFFFF9AD600000000000034
:10B4B00000002D6BFFFFFFFFFFFFFFFFFFFFFFFF00
:10B4C000FFFF00000000000024215CE7FFFFFFFFFA
:10B4D000FFFFFFFFFFFF2D6B000000000000242195
:10B4E0005CE7FFFFFFFFFFFFFFFFFFFFFFFF14A56C
:10B4F0000000000014A5FFFFFFFFFFFFFFFFFFFF9D
:10B50000FFFF9AD60000000000000000D7BDFFFF3B
:10B51000FFFFFFFFFFFFFFFF14A50000000000007A
:10B520000000AA52BEF730840000000000000000B6
:10B53000000000000000000000000000000000000B
:10B5400000000000000000000000000000000000FB
:10B5500000000000000000000000000000000000EB
:10B5600000000000000000000000000000000000DB
:10B5700000000000000000000000000000000000CB
:10B5800000000000000000000000000000000000BB
:10B59000000000000000000000000000FFFFFFFFAF
:10B5A000FFFFFFFFFFFFFFFFFFFFFFFFFFFFBEF7F4
:10B5B000AA5200000000000000000000000000008F
:10B5C0000000FFFFFFFFFFFFFFFFFFFFFFFFFFFF89
:10B5D0002D6B000000000000000014A5FFFFFFFF1E
:10B5E000FFFFFFFFFFFFFFFF9AD6000000000000F3
:10B5F00000002D6BFFFFFFFFFFFFFFFFFFFFFFFFBF
:10B60000FFFF0000000000000000AA52FBDEFFFF69
:10B61000FFFFFFFFFFFF2D6B000000002D6BFBDE27
:10B620005CE7FFFFFFFFFFFFFFFFFFFFFFFF14A52A
:10B630000000000014A5FFFFFFFFFFFFFFFFFFFF5B
:10B64000FFFF9AD60000000000000000000075AD6A
:10B65000FFFFFFFFFFFFFFFF14A500000000000039
:10B66000B2945CE73084000000000000000000009D
:10B6700000000000000000000000000000000000CA
:10B6800000000000000000000000000000000000BA
:10B6900000000000000000000000000000000000AA
:10B6A000000000000000000000000000000000009A
:10B6B000000000000000000000000000000000008A
:10B6C000000000000000000000000000000000007A
:10B6D000000000000000000000000000FFFFFFFF6E
:10B6E000FFFFFFFFFFFFFFFFFFFFFFFFFFFFAA526C
:10B6F00000000000000000000000000008429AD690
:10B700009AD6FFFFFFFFFFFFFFFFFFFFFFFFFFFFD7
:10B71000FBDE9AD69AD63084000014A5FFFFFFFF07
:10B72000FFFFFFFFFFFFFFFF9AD6000000000000B1
:10B7300000002D6BFFFFFFFFFFFFFFFFFFFFFFFF7D
:10B74000FFFF00000000000000000000242114A5FD
:10B75000BEF7FFFFFFFFFBDE14A5FBDE9AD6084213
:10B760009AD6FFFFFFFFFFFFFFFFFFFFFFFF14A5BC
:10B770000000000014A5FFFFFFFFFFFFFFFFFFFF1A
:10B78000FFFF9AD60000000000000000000000004B
:10B790002D6B9AD6FFFFFFFF9AD614A5D7BDBEF733
:10B7A000D7BD0842000000000000000000000000BB
:10B7B0000000000000000000000000000000000089
:10B7C0000000000000000000000000000000000079
:10B7D0000000000000000000000000000000000069
:10B7E0000000000000000000000000000000000059
:10B7F0000000000000000000000000000000000049
:10B800000000000000000000000000000000000038
:10B8100000000000000000000000000038C6FFFF2C
:10B82000FFFFFFFFFFFFFFFFFFFFFFFF3084000070
:10B8300000000000000000000000000024212D6B2B
:10B840002D6BFFFFFFFFFFFFFFFFFFFFFFFFFFFF6E
:10B850002D6B2D6B2D6B0842000008422D6B2D6B5C
:10B860002D6B2D6B2D6B2D6BAA520000000000007C
:10B87000000024212D6B2D6B2D6B2D6B2D6B2D6BF3
:10B880002D6B000000000000000000000000000020
:10B8900000002D6B14A514A53084084200000000A0
:10B8A0009AD6FFFFFFFFFFFFFFFFFFFFFFFF14A57B
:10B8B0000000000008422D6B2D6B2D6B2D6B2D6B46
:10B8C0002D6BAA52000000000000000000000000E4
:10B8D000000000000842308414A514A5CF7B242169
:10B8E0000000000000000000000000000000000058
:10B8F0000000000000000000000000000000000048
:10B900000000000000000000000000000000000037
:10B910000000000000000000000000000000000027
:10B920000000000000000000000000000000000017
:10B930000000000000000000000000000000000007
:10B9400000000000000000000000000000000000F7
:10B95000000000000000000000000000AA52FFFFED
:10B96000FFFFFFFFFFFFFFFFFFFF14A50000000028
:10B97000000000000000AA52AA52000000000000CF
:10B980000000FFFFFFFFFFFFFFFFFFFFFFFFFFFFC5
:10B990002421000000000000000000000000000062
:10B9A0000000000000000000000000000000000097
:10B9B0000000000000000000000000000000000087
:10B9C0000000000000000000000000000000000077
:10B9D0000000000000000000000000000000000067
:10B9E0009AD6FFFFFFFFFFFFFFFFFFFFFFFF14A53A
:10B9F0000000000000002421308414A514A5308428
:10BA000008420000000000000000000000000000EC
:10BA10000000000000000000000000000000000026
:10BA20000000000000000000000000000000000016
:10BA30000000000000000000000000000000000006
:10BA400000000000000000000000000000000000F6
:10BA500000000000000000000000000000000000E6
:10BA600000000000000000000000000000000000D6
:10BA700000000000000000000000000000000000C6
:10BA800000000000000000000000000000000000B6
:10BA900000000000000000000000000000003084F2
:10BAA000FFFFFFFFFFFFFFFFFFFF2421000000005B
:10BAB00000000000B294FFFF2D6B000000000000AA
:10BAC0000000084214A55CE7FFFFFFFFFFFFFFFF38
:10BAD0002D6B0000000000000000000000000000CE
:10BAE0000000000000000000000000000000000056
:10BAF0000000000000000000000000000000000046
:10BB00000000000000000000000000000000000035
:10BB10000000000000000000000000000000000025
:10BB20009AD6FFFFFFFFFFFFFFFFFFFFFFFF14A5F8
:10BB3000000000000842BEF7FFFFFFFFFFFFFFFF0E
:10BB4000BEF7CF7B000000000000000000000000F6
:10BB500000000000000000000000000000000000E5
:10BB600000000000000000000000000000000000D5
:10BB700000000000000000000000000000000000C5
:10BB800000000000000000000000000000000000B5
:10BB900000000000000000000000000000000000A5
:10BBA0000000000000000000000000000000000095
:10BBB0000000000000000000000000000000000085
:10BBC0000000000000000000000000000000000075
:10BBD0000000000000000000000000000000000065
:10BBE000AA529AD6FFFFFFFFFFFF14A52D6B2D6B06
:10BBF00075AD5CE79AD6AA52000000000000000074
:10BC0000000000000000000030845CE7FFFFFFFF41
:10BC10002D6B00000000000000000000000000008C
:10BC20000000000000000000000000000000000014
:10BC30000000000000000000000000000000000004
:10BC400000000000000000000000000000000000F4
:10BC500000000000000000000000000000000000E4
:10BC60009AD6FFFFFFFFFFFFFFFFFFFFFFFF14A5B7
:10BC70000000000014A5FFFFFFFFFFFFFFFFFFFF15
:10BC8000FFFF9AD600000000000000000000000046
:10BC900000000000000000000000000000000000A4
:10BCA0000000000000000000000000000000000094
:10BCB0000000000000000000000000000000000084
:10BCC0000000000000000000000000000000000074
:10BCD0000000000000000000000000000000000064
:10BCE0000000000000000000000000000000000054
:10BCF0000000000000000000000000000000000044
:10BD00000000000000000000000000000000000033
:10BD10000000000000000000000000000000000023
:10BD2000000000000842B294D7BD9AD69AD638C611
:10BD300014A5AA520000000000000000000000004E
:10BD400000000000000000000000000030845CE7FC
:10BD50002D6B00000000000000000000000000004B
:10BD600000000000000000000000000000000000D3
:10BD700000000000000000000000000000000000C3
:10BD800000000000000000000000000000000000B3
:10BD900000000000000000000000000000000000A3
:10BDA000AA522D6B2D6B2D6B2D6B2D6B2D6B0842BD
:10BDB000000000002D6BFFFFFFFFFFFFFFFFFFFFF5
:10BDC000FFFF14A5000000000000000000000000BC
:10BDD0000000000000000000000000000000000063
:10BDE0000000000000000000000000000000000053
:10BDF0000000000000000000000000000000000043
:10BE00000000000000000000000000000000000032
:10BE10000000000000000000000000000000000022
:10BE20000000000000000000000000000000000012
:10BE30000000000000000000000000000000000002
:10BE400000000000000000000000000000000000F2
:10BE500000000000000000000000000000000000E2
:10BE600000000000000000000000000000000000D2
:10BE700000000000000000000000000000000000C2
:10BE8000000000000000000000000000000024216D
:10BE9000242100000000000000000000000000005D
:10BEA0000000000000000000000000000000000092
:10BEB0000000000000000000000000000000000082
:10BEC0000000000000000000000000000000000072
:10BED0000000000000000000000000000000000062
:10BEE0000000000000000000000000000000000052
:10BEF0000000000000002D6BD7BD9AD69AD638C638
:10BF0000308400000000000000000000000000007D
:10BF10000000000000000000000000000000000021
:10BF20000000000000000000000000000000000011
:10BF30000000000000000000000000000000000001
:10BF400000000000000000000000000000000000F1
:10C450000000000024210000000000000000000097
:10C460000000000000000000000000000000242187
:10C4700000000000000000000000000000000000BC
:10C4800000000000000000000000000000000000AC
:10C49000000000000000000000000000000000009C
:10C4A000000000000000000000000000000000008C
:10C4B000000000000000000000000000000000007C
:10C4C000000000000000000000000000000000006C
:10C4D000000000000000000000000000000000005C
:10C4E000000000000000000000000000000000004C
:10C4F000000000000000000000000000000000003C
:10C50000000000000000000000000000000000002B
:10C51000000000000000000000000000000000001B
:10C52000000000000000000000000000000000000B
:10C5300000000000000000000000000000000000FB
:10C5400000000000000000000000000000000000EB
:10C5500000000000000000000000000000000000DB
:10C5600000000000000000000000000000000000CB
:10C5700000000000000000000000000000000000BB
:10C5800000000000000000000000000000000000AB
:10C5900000000000D7BD0000000000000000000007
:10C5A000000000000000000000000000242138C648
:10C5B000000000000000000000000000000000007B
:10C5C000000000000000000000000000000000006B
:10C5D000000000000000000000000000000000005B
:10C5E00000000000AA52000000000000000000004F
:10C5F000000000000000000000000000000000003B
:10C60000000000000000000000000000000000002A
:10C61000000000000000000000000000000000001A
:10C62000000000000000000000000000000000000A
:10C6300000000000000000000000000000000000FA
:10C6400000000000000000000000000000000000EA
:10C6500000000000000000000000000000000000DA
:10C6600000000000000000000000000000000000CA
:10C6700000000000000000000000000000000000BA
:10C6800000000000000000000000000000000000AA
:10C69000000000000000000000000000000000009A
:10C6A000000000000000000000000000000000008A
:10C6B000000000000000000000000000000000007A
:10C6C000000000000000000000000000000000006A
:10C6D0000000CF7BFFFF2D6B00000000000000007A
:10C6E00000000000000000000000000014A5FFFF93
:10C6F00008420000000000000000000000000000F0
:10C7000000000000000000000000084275ADFBDEE4
:10C71000FFFFFFFFBEF738C6308424210000000071
:10C72000000000005CE7CF7B00000000000000007C
:10C7300000000000000000000000000000000842AF
:10C740009AD69AD69AD69AD69AD69AD69AD69AD669
:10C750009AD69AD624210000000000000000308400
:10C7600038C65CE7FFFFFFFF5CE7D7BD2D6B00001D
:10C77000000000000000000000000000242114A5BB
:10C780005CE7FFFFFFFF5CE775AD084200000000BB
:10C790000000000000000000000000000000000099
:10C7A0000000000000000000000000000000000089
:10C7B0000000000000000000000000000000000079
:10C7C0000000000000000000000000000000000069
:10C7D0000000000000000000000000000000000059
:10C7E0000000000000000000000000000000000049
:10C7F0000000000000000000000000000000000039
:10C800000000000000000000000000000000000028
:10C81000000038C6FFFF5CE70000000000000000D9
:10C82000000000000000000000000842FFFFFFFFC2
:10C83000D7BD000000000000000000000000000064
:10C84000000000000000000014A5FFFFFFFFBEF77E
:10C85000AA5200002421CF7B9AD6BEF7B2940000E2
:10C860000000000030845CE724210000000000008C
:10C870000000000000000000000000000000D7BD24
:10C88000FFFFFFFFFFFFFFFFFFFFFFFFFFFFFFFFB8
:10C89000FFFF14A5000000000000AA52FBDEFFFF0E
:10C8A000FFFFFFFF38C600002421CF7B9AD69AD61F
:10C8B000084200000000000000002421FBDEFFFF12
:10C8C000FFFFFFFFFFFFFFFFFFFFBEF73084000009
:10C8D0000000000000000000000000000000000058
:10C8E0000000000000000000000000000000000048
:10C8F0000000000000000000000000000000000038
:10C900000000000000000000000000000000000027
:10C910000000000000000000000000000000000017
:10C920000000000000000000000000000000000007
:10C9300000000000000000000000000000000000F7
:10C9400000000000000000000000000000000000E7
:10C950000842FFFFFFFFFFFF3084000000000000DF
:10C9600000000000000000000000D7BDFFFFFFFF37
:10C97000FFFF242100000000000000000000000074
:10C98000000000000000D7BDFFFFFFFFFFFF9AD6A9
:10C99000000000000000000000002D6BBEF738C64C
:10C9A0002421000000009AD6D7BD2D6B2D6B2D6B76
:10C9B0002D6B2D6B2D6B2D6B2D6B2D6B3084FFFF35
:10C9C000FFFFFFFFFFFFFFFFFFFFFFFFFFFFFFFF77
:10C9D000BEF7242100000000AA52BEF7FFFFFFFFB0
:10C9E000FFFFFFFF14A50000000000000000CF7B48
:10C9F0005CE7AA52000000000000D7BDFFFFFFFF68
:10CA0000FFFFFFFFFFFFFFFFAA522D6BBEF7AA52E9
:10CA10000000000000000000000000000000000016
:10CA20000000000000000000000000000000000006
:10CA300000000000000000000000000000000000F6
:10CA400000000000000000000000000000000000E6
:10CA500000000000000000000000000000000000D6
:10CA600000000000000000000000000000000000C6
:10CA700000000000000000000000000000000000B6
:10CA800000000000000000000000000000000000A6
:10CA900014A5FFFFFFFFFFFFBEF7242100000000E9
:10CAA00000000000000000000842FFFFFFFFFFFF42
:10CAB000FFFF14A5000000000000000000000000BF
:10CAC0000000000014A5FFFFFFFFFFFFFFFF9AD645
:10CAD0000000000000000000000000002421FBDE38
:10CAE0009AD6000000002D6BFFFFFBDE9AD69AD687
:10CAF0009AD69AD69AD69AD69AD69AD6BEF7FFFFE3
:10CB0000FFFFFFFFFFFFFFFFFFFFFFFFFFFFFFFF35
:10CB1000B294000000002421BEF7FFFFFFFFFFFFDB
:10CB2000FFFFFFFF14A50000000000000000000050
:10CB3000AA525CE7AA5200000000FFFFFFFFFFFFC0
:10CB4000FFFFFFFFFFFFFFFF00000000CF7B9AD633
:10CB500000000000000000000000000000000000D5
:10CB600000000000000000000000000000000000C5
:10CB700000000000000000000000000000000000B5
:10CB800000000000000000000000000000000000A5
:10CB90000000000000000000000000000000000095
:10CBA0000000000000000000000000000000000085
:10CBB0000000000000000000000000000000000075
:10CBC0000000000000000000000000000000000065
:10CBD0005CE7FFFFFFFFFFFFFFFF14A50000000061
:10CBE0000000000000000000D7BDFFFFFFFFFFFFB7
:10CBF000FFFFBEF700000000000000000000000082
:10CC000000000842FFFFFFFFFFFFFFFFFFFF9AD674
:10CC10000000000000000000000000000000AA5218
:10CC2000BEF7AA5200000000D7BDD7BD000000002B
:10CC300000000000000000000000AA52FFFFFFFFFC
:10CC4000FFFFFFFFFFFFFFFFFFFFFFFFFFFF5CE7AF
:10CC5000000000000000D7BDFFFFFFFFFFFFFFFF48
:10CC6000FFFFFFFF14A5000000000000000000000F
:10CC70000000B29438C600002D6BFFFFFFFFFFFFDE
:10CC8000FFFFFFFFFFFFFFFF0000000000005CE769
:10CC90000000000000000000000000000000000094
:10CCA0000000000000000000000000000000000084
:10CCB0000000000000000000000000000000000074
:10CCC0000000000000000000000000000000000064
:10CCD0000000000000000000000000000000000054
:10CCE0000000000000000000000000000000000044
:10CCF0000000000000000000000000000000000034
:10CD00000000000000000000000000000000CF7BD9
:10CD1000FFFFFFFFFFFFFFFFFFFFBEF72421000023
:10CD20000000000000002D6BFFFFFFFFFFFFFFFF73
:10CD3000FFFFFFFF30840000000000000000000043
:10CD4000000014A5FFFFFFFFFFFFFFFFFFFF9AD6C4
:10CD500000000000000000000000000000000000D3
:10CD600008420000000000002421BEF7AA52000083
:10CD7000000000000000000000009AD6FFFFFFFF47
:10CD8000FFFFFFFFFFFFFFFFFFFFFFFFFFFFCF7B67
:10CD9000000000002421FFFFFFFFFFFFFFFFFFFF58
:10CDA000FFFFFFFF14A500000000000000000000CE
:10CDB00000000000084200002D6BFFFFFFFFFFFF97
:10CDC000FFFFFFFFFFFFFFFF00000000000000006B
:10CDD0000000000000000000000000000000000053
:10CDE0000000000000000000000000000000000043
:10CDF0000000000000000000000000000000000033
:10CE00000000000000000000000000000000000022
:10CE10000000000000000000000000000000000012
:10CE20000000000000000000000000000000000002
:10CE300000000000000000000000000000000000F2
:10CE400000000000000000000000000000009AD672
:10CE5000FFFFFFFFFFFFFFFFFFFFFFFFD7BD00004A
:10CE60000000000000009AD6FFFFFFFFFFFFFFFF5A
:10CE7000FFFFFFFF5CE70000000000000000000073
:10CE80000000FBDEFFFFFFFFFFFFFFFFFFFF9AD663
:10CE90000000000000000000000000000000000092
:10CEA00000000000000000000000B2949AD60000CC
:10CEB00000000000000000002D6BFFFFFFFFFFFFE0
:10CEC000FFFFFFFFFFFFFFFFFFFFFFFF9AD60000FE
:10CED00000000000CF7BFFFFFFFFFFFFFFFFFFFF12
:10CEE000FFFFFFFF14A5000000000000000000008D
:10CEF00000000000000000002D6BFFFFFFFFFFFFA0
:10CF0000FFFFFFFFFFFFFFFF000000000000000029
:10CF10000000000000000000000000000000000011
:10CF20000000000000000000000000000000000001
:10CF300000000000000000000000000000000000F1
:10CF400000000000000000000000000000000000E1
:10CF500000000000000000000000000000000000D1
:10CF600000000000000000000000000000000000C1
:10CF700000000000000000000000000000000000B1
:10CF80000000000000000000000000000842FFFF59
:10CF9000FFFFFFFFFFFFFFFFFFFFFFFFFFFF084255
:10CFA000000000002D6BFFFFFFFFFFFFFFFFFFFFF3
:10CFB000FFFFFFFFFFFF2D6B0000000000000000DF
:10CFC0000000FFFFFFFFFFFFFFFFFFFFFFFFFBDE94
:10CFD0002D6B2D6B2D6B2D6B2D6B2D6B2D6B2D6B91
:10CFE0002D6BAA5200000000000000005CE7CF7B20
:10CFF00000000000000000009AD6FFFFFFFFFFFFC7
:10D00000FFFFFFFFFFFFFFFFFFFFFFFF2D6B000094
:10D010000000000014A5FFFFFFFFFFFFFFFFFFFF61
:10D02000FFFFFFFF14A5000000000000000000004B
:10D0300000000000000000002D6BFFFFFFFFFFFF5E
:10D04000FFFFFFFFFFFFFFFF0000000000000000E8
:10D0500000000000000000000000000000000000D0
:10D0600000000000000000000000000000000000C0
:10D0700000000000000000000000000000000000B0
:10D0800000000000000000000000000000000000A0
:10D090000000000000000000000000000000000090
:10D0A0000000000000000000000000000000000080
:10D0B0000000000000000000000000000000000070
:10D0C00000000000000000000000000075ADFFFF40
:10D0D000FFFFFFFFFFFFFFFFFFFFFFFFFFFF9AD6EE
:10D0E000000000005CE7FFFFFFFFFFFFFFFFFFFF07
:10D0F000FFFFFFFFFFFF9AD60000000000000000C6
:10D100000000FFFFFFFFFFFFFFFFFFFFFFFFBEF776
:10D110009AD69AD69AD6FBDEFFFFFFFFFFFFFFFFEE
:10D12000FFFF9AD600000000000000002D6B5CE7B6
:10D130002421000000003084FFFFFFFFFFFFFFFFFE
:10D14000FFFFFFFFFFFFFFFFFFFFD7BD0000000055
:10D150000000000014A5FFFFFFFFFFFFFFFFFFFF20
:10D16000FFFFFFFF14A5000000000000000000000A
:10D1700000000000000000002D6BFFFFFFFFFFFF1D
:10D18000FFFFFFFFFFFFFFFF0000000000000000A7
:10D19000000000000000000000000000000000008F
:10D1A000000000000000000000000000000000007F
:10D1B000000000000000000000000000000000006F
:10D1C000000000000000000000000000000000005F
:10D1D000000000000000000000000000000000004F
:10D1E000000000000000000000000000000000003F
:10D1F000000000000000000000000000000000002F
:10D20000000000000000000000000000BEF7FFFF6B
:10D21000FFFFFFFFFFFFFFFFFFFFFFFFFFFFFFFF1E
:10D220002D6BB294FFFFFFFFFFFFFFFFFFFFFFFF2C
:10D23000FFFFFFFFFFFFBEF7AA5200000000000043
:10D2400000005CE7FFFFFFFFFFFFFFFFFFFF9AD635
:10D250000000000000002D6BFFFFFFFFFFFFFFFF3E
:10D26000FFFFD7BD0000000000000000000038C62E
:10D2700014A5000000005CE7FFFFFFFFFFFFFFFFBA
:10D28000FFFFFFFFFFFFFFFFBEF7084200000000A7
:10D2900000000000B294FFFFFFFFFFFFFFFFFFFF52
:10D2A000FFFFFFFF14A500000000000000000000C9
:10D2B00000000000000000002D6BFFFFFFFFFFFFDC
:10D2C000FFFFFFFFFFFFFFFF000000000000000066
:10D2D000000000000000000000000000000000004E
:10D2E000000000000000000000000000000000003E
:10D2F000000000000000000000000000000000002E
:10D30000000000000000000000000000000000001D
:10D31000000000000000000000000000000000000D
:10D3200000000000000000000000000000000000FD
:10D3300000000000000000000000000000000000ED
:10D34000000000000000000000003084FFFFFFFF2D
:10D35000FFFFFFFFFFFFFFFFFFFFFFFFD7BD14A58C
:10D360005CE7BEF7FFFFFFFFFFFFFFFFFFFFFFFFD1
:10D37000FFFFFFFFD7BDD7BDD7BD000000000000F5
:10D380000000D7BDFFFFFFFFFFFFFFFFFFFF9AD6A3
:10D390000000000000002D6BFFFFFFFFFFFFFFFFFD
:10D3A000FFFFB294000000000000000000000842EF
:10D3B0005CE708423084FFFFFFFFFFFFFFFFFFFF36
:10D3C000FFFFFFFFFFFFFFFF14A5000000000000AC
:10D3D00000000000AA52FFFFFFFFFFFFFFFFFFFF5B
:10D3E000FFFFFFFF14A50000000000000000000088
:10D3F00000000000000000002D6BFFFFFFFFFFFF9B
:10D40000FFFFFFFFFFFFFFFF000000000000000024
:10D41000000000000000000000000000000000000C
:10D4200000000000000000000000000000000000FC
:10D4300000000000000000000000000000000000EC
:10D4400000000000000000000000000000000000DC
:10D4500000000000000000000000000000000000CC
:10D4600000000000000000000000000000000000BC
:10D4700000000000000000000000000000000000AC
:10D48000000000000000000000009AD6FFFFFFFF30
:10D49000FFFFFFFFFFFFFFFFFFFFFFFFAA52242157
:10D4A000BEF7FFFFFFFFFFFFFFFFFFFFFFFFFFFFD5
:10D4B000FFFFBEF724210842FFFF084200000000E2
:10D4C00000002D6BFFFFFFFFFFFFFFFFFFFF9AD65E
:10D4D0000000000000002D6BFFFFFFFFFFFFFFFFBC
:10D4E000FFFF0842000000000000000000000000F4
:10D4F00014A538C65CE7FFFFFFFFFFFFFFFFFFFF3C
:10D50000FFFFFFFFFFFFBEF7242100000000000027
:10D510000000000000005CE7FFFFFFFFFFFFFFFFD0
:10D52000FFFFFFFF14A50000000000000000000046
:10D5300000000000000000002D6BFFFFFFFFFFFF59
:10D54000FFFFFFFFFFFFFFFF0000000000000000E3
:10D5500000000000000000000000000000000000CB
:10D5600000000000000000000000000000000000BB
:10D5700000000000000000000000000000000000AB
:10D58000000000000000000000000000000000009B
:10D59000000000000000000000000000000000008B
:10D5A000000000000000000000000000000000007B
:10D5B000000000000000000000000000000000006B
:10D5C00000000000000000000842FFFFFFFFFFFF17
:10D5D000FFFFFFFFFFFFFFFFFFFF9AD600000000E5
:10D5E0003084FFFFFFFFFFFFFFFFFFFFFFFFFFFF95
:10D5F000FFFF14A50000000038C614A500000000BD
:10D60000000000009AD6FFFFFFFFFFFFFFFF9AD642
:10D610000000000000002D6BFFFFFFFFFFFFFFFF7A
:10D6200075AD0000000000000000000000000000D8
:10D6300024215CE7FFFFFFFFFFFFFFFFFFFFFFFF6E
:10D64000FFFFFFFFFFFF308400000000000000002C
:10D65000000000000000CF7BFFFFFFFFFFFFFFFF88
:10D66000FFFFFFFF14A50000000000000000000005
:10D670002421D7BD000000002D6BFFFFFFFFFFFF3F
:10D68000FFFFFFFFFFFFFFFF0000000000000000A2
:10D69000000000000000000000000000000000008A
:10D6A000000000000000000000000000000000007A
:10D6B000000000000000000000000000000000006A
:10D6C000000000000000000000000000000000005A
:10D6D000000000000000000000000000000000004A
:10D6E000000000000000000000000000000000003A
:10D6F000000000000000000000000000000000002A
:10D70000000000000000000075ADFFFFFFFFFFFFFD
:10D71000FFFFFFFFFFFFFFFFFFFF3084000000005F
:10D7200000005CE7FFFFFFFFFFFFFFFFFFFFFFFFC2
:10D730005CE72421000000002D6BBEF724210000CF
:10D74000000000000842BEF7FFFFFFFFFFFF9AD670
:10D750000000000000002D6BFFFFFFFFFFFFFBDE5E
:10D760002421000000000000000000000000000074
:10D770000000CF7BFFFFFFFFFFFFFFFFFFFFFFFF6B
:10D78000FFFFFFFF5CE7000000000000000000005A
:10D790000000000000000000D7BDFFFFFFFFFFFFFB
:10D7A000FFFFFFFF14A500000000000000000000C4
:10D7B000D7BD9AD6000000002D6BFFFFFFFFFFFFD3
:10D7C000FFFFFFFFFFFFFFFF000000000000000061
:10D7D0000000000000000000000000000000000049
:10D7E0000000000000000000000000000000000039
:10D7F0000000000000000000000000000000000029
:10D800000000000000000000000000000000000018
:10D810000000000000000000000000000000000008
:10D8200000000000000000000000000000000000F8
:10D8300000000000000000000000000000000000E8
:10D840000000000000002421BEF7FFFFFFFFFFFFE4
:10D85000FFFFFFFFFFFFFFFFBEF70000000000001B
:10D8600000002D6BFFFFFFFFFFFFFFFFFFFFFFFF2C
:10D87000308400000000000000005CE730840000FD
:10D88000000000000000AA525CE7FFFFFFFF5CE71A
:10D89000000000000000CF7BFFFFFFFFFBDE242124
:10D8A0000000000000000000000000000000000078
:10D8B000000000009AD6FFFFFFFFFFFFFFFFFFFF02
:10D8C000FFFFFFFF2D6B00000000000000000000C4
:10D8D0000000000000000000000075ADFFFFFFFF2A
:10D8E000FFFFFFFF75AD0000000000002D6B9AD612
:10D8F000FBDE2421000000002D6BFFFFFFFFFFFF78
:10D90000FFFFFFFFFFFFFFFF00000000000000001F
:10D910000000000000000000000000000000000007
:10D9200000000000000000000000000000000000F7
:10D9300000000000000000000000000000000000E7
:10D9400000000000000000000000000000000000D7
:10D9500000000000000000000000000000000000C7
:10D9600000000000000000000000000000000000B7
:10D9700000000000000000000000000000000000A7
:10D980000000000000003084FFFFFFFFFFFFFFFFEB
:10D99000FFFFFFFFFFFFFFFF14A5000000000000D6
:10D9A000000000009AD6FFFFFFFFFFFFFFFF5CE7CC
:10D9B00000000000000000000000B2945CE70000DE
:10D9C0000000000000000000242114A5BEF7FFFFA6
:10D9D0009AD614A575ADBEF75CE714A5000000004B
:10D9E0000000000000000000000000000000000037
:10D9F000000000000842FFFFFFFFFFFFFFFFFFFFE7
:10DA0000FFFF9AD6000000000000000000000000A8
:10DA10000000000000000000000000002D6B9AD6FE
:10DA2000FFFFFFFFBEF775AD14A5FBDE5CE714A595
:10DA300000000000CF7B9AD6FBDEFFFFFFFFFFFF59
:10DA4000FFFFFFFFFFFFFFFF9AD69AD69AD6AA5292
:10DA500000000000000000000000000000000000C6
:10DA600000000000000000000000000000000000B6
:10DA700000000000000000000000000000000000A6
:10DA80000000000000000000000000000000000096
:10DA90000000000000000000000000000000000086
:10DAA0000000000000000000000000000000000076
:10DAB0000000000000000000000000000000000066
:10DAC0000000000000005CE7FFFFFFFFFFFFFFFF1B
:10DAD000FFFFFFFFFFFFFFFF084200000000000004
:10DAE000000000002D6BFFFFFFFFFFFFFFFF2D6B0E
:10DAF000000000000000000000002421BEF7308478
:10DB000000000000000000000000000000002D6B7D
:10DB100014A514A514A52D6B000000000000000042
:10DB200000000000000000000000000000000000F5
:10DB300000000000000014A5FFFFFFFFFFFFFFFF34
:10DB4000FFFFAA52000000000000000000000000DB
:10DB500000000000000000000000000000000000C5
:10DB60000842308414A514A5B2942D6B0000000067
:10DB70000000000008422D6BB294FFFFFFFFFFFF83
:10DB8000FFFFFFFFFFFFFBDE2D6B2D6B2D6B2421B5
:10DB90000000000000000000000000000000000085
:10DBA0000000000000000000000000000000000075
:10DBB0000000000000000000000000000000000065
:10DBC0000000000000000000000000000000000055
:10DBD0000000000000000000000000000000000045
:10DBE0000000000000000000000000000000000035
:10DBF0000000000000000000000000000000000025
:10DC0000000000002D6BFFFFFFFFFFFFFFFFFFFF86
:10DC1000FFFFFFFFFFFF38C600000000000000000C
:10DC2000000000000000D7BDFFFFFFFF9AD60000F4
:10DC3000000000000000000000000000D7BD9AD6E0
:10DC400000000000000000000000000000000000D4
:10DC500000000000000000000000000000000000C4
:10DC600000000000000000000000000000000000B4
:10DC70000000000000002421BEF7FFFFFFFFFFFFB0
:10DC8000D7BD000000000000000000000000000000
:10DC90000000000000000000000000000000000084
:10DCA0000000000000000000000000000000000074
:10DCB00000000000000000002D6BFFFFFFFFFFFFD2
:10DCC000FFFFFFFFFFFFFBDE000000000000000081
:10DCD0000000000000000000000000000000000044
:10DCE0000000000000000000000000000000000034
:10DCF0000000000000000000000000000000000024
:10DD00000000000000000000000000000000000013
:10DD10000000000000000000000000000000000003
:10DD200000000000000000000000000000000000F3
:10DD300000000000000000000000000000000000E3
:10DD40000000000038C6FFFFFFFFFFFFFFFFFFFFDF
:10DD5000FFFFFFFFFFFF3084000000000000000015
:10DD60000000000000000842FFFFFFFF2D6B0000D5
:10DD7000000000000000000000000000AA52FFFFA9
:10DD80002D6B0000000000000000000000000000FB
:10DD90000000000000000000000000000000000083
:10DDA0000000000000000000000000000000000073
:10DDB00000000000000000003084FFFFFFFFBEF7FE
:10DDC000242100000000000000000000000000000E
:10DDD0000000000000000000000000000000000043
:10DDE0000000000000000000000000000000000033
:10DDF00000000000000000000000AA52D7BDBEF7DE
:10DE0000FFFFFFFFFFFFFFFF00000000000000001A
:10DE10000000000000000000000000000000000002
:10DE200000000000000000000000000000000000F2
:10DE300000000000000000000000000000000000E2
:10DE400000000000000000000000000000000000D2
:10DE500000000000000000000000000000000000C2
:10DE600000000000000000000000000000000000B2
:10DE700000000000000000000000000000000000A2
:10DE800000000842FFFFFFFFFFFFFFFFFFFFFFFF54
:10DE9000FFFFFFFFBEF700000000000000000000D1
:10DEA000000000000000000075AD9AD600000000E0
:10DEB0000000000000000000000000000000FBDE89
:10DEC000D7BD0000000000000000000000000000BE
:10DED0000000000000000000000000000000000042
:10DEE0000000000000000000000000000000000032
:10DEF000000000000000000000009AD6FFFF14A5FB
:10DF00000000000000000000000000000000000011
:10DF10000000000000000000000000000000000001
:10DF200000000000000000000000000000000000F1
:10DF3000000000000000000000000000000024219C
:10DF400014A5BEF7FFFFFFFF000000000000000067
:10DF500000000000000000000000000000000000C1
:10DF600000000000000000000000000000000000B1
:10DF700000000000000000000000000000000000A1
:10DF80000000000000000000000000000000000091
:10DF90000000000000000000000000000000000081
:10DFA0000000000000000000000000000000000071
:10DFB0000000000000000000000000000000000061
:10DFC000000008422D6B2D6B2D6B2D6B2D6B2D6B77
:10DFD0002D6B2D6BAA520000000000000000000015
:10DFE000000000000000000024212D6B0000000054
:10DFF00000000000000000000000000000000842D7
:10E0000008420000000000000000000000000000C6
:10E010000000000000000000000000000000000000
:10E0200000000000000000000000000000000000F0
:10E03000000000000000000000002D6B5CE72421C0
:10E0400000000000000000000000000000000000D0
:10E0500000000000000000000000000000000000C0
:10E0600000000000000000000000000000000000B0
:10E0700000000000000000000000000000000000A0
:10E080000000242114A5BEF70000000000000000DD
:10E090000000000000000000000000000000000080
:10E0A0000000000000000000000000000000000070
:10E0B0000000000000000000000000000000000060
:10E0C0000000000000000000000000000000000050
:10E0D0000000000000000000000000000000000040
:10E0E0000000000000000000000000000000000030
:10E0F0000000000000000000000000000000000020
:10E10000000000000000000000000000000000000F
:10E1100000000000000000000000000000000000FF
:10E1200000000000000000000000000000000000EF
:10E1300000000000000000000000000000000000DF
:10E1400000000000000000000000000000000000CF
:10E1500000000000000000000000000000000000BF
:10E1600000000000000000000000000000000000AF
:10E170000000000000000000000000000842000055
:10E18000000000000000000000000000000000008F
:10E19000000000000000000000000000000000007F
:10E1A000000000000000000000000000000000006F
:10E1B000000000000000000000000000000000005F
:10E1C0000000000000000842000000000000000005
:10E1D000000000000000000000000000000000003F
:10E1E000000000000000000000000000000000002F
:10E1F000000000000000000000000000000000001F
:10E20000000000000000000000000000000000000E
:10EEB0000000000000000000000000F800F800F86A
:10EEC00000F800F800F800F800F800F800F800F882
:10EED00000F800F800F800F800F800F800F800006A
:10EEE000000000000000E007E007E007E007E0079F
:10EEF000E007E007E007E007E007E007E007E007DA
:10EF0000E007E007E007E007E0070000000000007E
:10EF100000001F001F001F001F001F001F001F0018
:10EF20001F001F001F001F001F001F001F001F00E9
:10EF30001F001F001F000000000000000000000074
:10EF400000000000000000000000000000000000C1
:10EF500000000000000000000000000000000000B1
:10EF600000000000000000000000000000000000A1
:10EF70000000000000000000000000000000000091
:10EF80000000000000000000000000000000000081
:10EF90000000000000000000000000000000000071
:10EFA0000000000000000000000000000000000061
:10EFB0000000000000000000000000000000000051
:10EFC0000000000000000000000000000000000041
:10EFD0000000000000000000000000000000000031
:10EFE0000000000000000000000000000000000021
:10EFF0000000000000000000000000F800F800F829
:10F0000000F800F800F800F800F800F800F800F840
:10F0100000F800F800F800F800F800F800F8000028
:10F02000000000000000E007E007E007E007E0075D
:10F03000E007E007E007E007E007E007E007E00798
:10F04000E007E007E007E007E0070000000000003D
:10F0500000001F001F001F001F001F001F001F00D7
:10F060001F001F001F001F001F001F001F001F00A8
:10F070001F001F001F000000000000000000000033
:10F080000000000000000000000000000000000080
:10F090000000000000000000000000000000000070
:10F0A0000000000000000000000000000000000060
:10F0B0000000000000000000000000000000000050
:10F0C0000000000000000000000000000000000040
:10F0D0000000000000000000000000000000000030
:10F0E0000000000000000000000000000000000020
:10F0F0000000000000000000000000000000000010
:10F1000000000000000000000000000000000000FF
:10F1100000000000000000000000000000000000EF
:10F1200000000000000000000000000000000000DF
:10F130000000000000000000000000F800F800F8E7
:10F1400000F800F800F800F800F800F800F800F8FF
:10F1500000F800F800F800F800F800F800F80000E7
:10F16000000000000000E007E007E007E007E0071C
:10F17000E007E007E007E007E007E007E007E00757
:10F18000E007E007E007E007E007000000000000FC
:10F1900000001F001F001F001F001F001F001F0096
:10F1A0001F001F001F001F001F001F001F001F0067
:10F1B0001F001F001F0000000000000000000000F2
:10F1C000000000000000000000000000000000003F
:10F1D000000000000000000000000000000000002F
:10F1E000000000000000000000000000000000001F
:10F1F000000000000000000000000000000000000F
:10F2000000000000000000000000000000000000FE
:10F2100000000000000000000000000000000000EE
:10F2200000000000000000000000000000000000DE
:10F2300000000000000000000000000000000000CE
:10F2400000000000000000000000000000000000BE
:10F2500000000000000000000000000000000000AE
:10F26000000000000000000000000000000000009E
:10F270000000000000000000000000F800F800F8A6
:10F2800000F800F800F800F800F800F800F800F8BE
:10F2900000F800F800F800F800F800F800F80000A6
:10F2A000000000000000E007E007E007E007E007DB
:10F2B000E007E007E007E007E007E007E007E00716
:10F2C000E007E007E007E007E007000000000000BB
:10F2D00000001F001F001F001F001F001F001F0055
:10F2E0001F001F001F001F001F001F001F001F0026
:10F2F0001F001F001F0000000000000000000000B1
:10F3000000000000000000000000000000000000FD
:10F3100000000000000000000000000000000000ED
:10F3200000000000000000000000000000000000DD
:10F3300000000000000000000000000000000000CD
:10F3400000000000000000000000000000000000BD
:10F3500000000000000000000000000000000000AD
:10F36000000000000000000000000000000000009D
:10F37000000000000000000000000000000000008D
:10F38000000000000000000000000000000000007D
:10F39000000000000000000000000000000000006D
:10F3A000000000000000000000000000000000005D
:10F3B0000000000000000000000000F800F800F865
:10F3C00000F800F800F800F800F800F800F800F87D
:10F3D00000F800F800F800F800F800F800F8000065
:10F3E000000000000000E007E007E007E007E0079A
:10F3F000E007E007E007E007E007E007E007E007D5
:10F40000E007E007E007E007E00700000000000079
:10F4100000001F001F001F001F001F001F001F0013
:10F420001F001F001F001F001F001F001F001F00E4
:10F430001F001F001F00000000000000000000006F
:10F4400000000000000000000000000000000000BC
:10F4500000000000000000000000000000000000AC
:10F46000000000000000000000000000000000009C
:10F47000000000000000000000000000000000008C
:10F48000000000000000000000000000000000007C
:10F49000000000000000000000000000000000006C
:10F4A000000000000000000000000000000000005C
:10F4B000000000000000000000000000000000004C
:10F4C000000000000000000000000000000000003C
:10F4D000000000000000000000000000000000002C
:10F4E000000000000000000000000000000000001C
:10F4F0000000000000000000000000F800F800F824
:10F5000000F800F800F800F800F800F800F800F83B
:10F5100000F800F800F800F800F800F800F8000023
:10F52000000000000000E007E007E007E007E00758
:10F53000E007E007E007E007E007E007E007E00793
:10F54000E007E007E007E007E00700000000000038
:10F5500000001F001F001F001F001F001F001F00D2
:10F560001F001F001F001F001F001F001F001F00A3
:10F570001F001F001F00000000000000000000002E
:10F58000000000000000000000000000000000007B
:10F59000000000000000000000000000000000006B
:10F5A000000000000000000000000000000000005B
:10F5B000000000000000000000000000000000004B
:10F5C000000000000000000000000000000000003B
:10F5D000000000000000000000000000000000002B
:10F5E000000000000000000000000000000000001B
:10F5F000000000000000000000000000000000000B
:10F6000000000000000000000000000000000000FA
:10F6100000000000000000000000000000000000EA
:10F6200000000000000000000000000000000000DA
:10F630000000000000000000000000F800F800F8E2
:10F6400000F800F800F800F800F800F800F800F8FA
:10F6500000F800F800F800F800F800F800F80000E2
:10F66000000000000000E007E007E007E007E00717
:10F67000E007E007E007E007E007E007E007E00752
:10F68000E007E007E007E007E007000000000000F7
:10F6900000001F001F001F001F001F001F001F0091
:10F6A0001F001F001F001F001F001F001F001F0062
:10F6B0001F001F001F0000000000000000000000ED
:10F6C000000000000000000000000000000000003A
:10F6D000000000000000000000000000000000002A
:10F6E000000000000000000000000000000000001A
:10F6F000000000000000000000000000000000000A
:10F7000000000000000000000000000000000000F9
:10F7100000000000000000000000000000000000E9
:10F7200000000000000000000000000000000000D9
:10F7300000000000000000000000000000000000C9
:10F7400000000000000000000000000000000000B9
:10F7500000000000000000000000000000000000A9
:10F760000000000000000000000000000000000099
:10F770000000000000000000000000000000000089
:10F78000000000000000000000000000003F4000FA
:10F790000000000000000030004000300040000089
:10F7A0000009000BC03D000BC03D00090018C0243B
:10F7B000407FE0224031800000180024C01B000D73
:10F7C000803240018003801C4027401C800740009D
:10F7D0004010006000000000000000000000000079
:10F7E0000000001F80204040200000402020401FDB
:10F7F0008000000000090006001F800600090000CC
:10F8000000040004003F8004000400000000100019
:10F810006000000000000000000400040004000478
:10F820000004000000000000400000000000000094
:10F8300000002001C006003800400000001F8020AA
:10F8400040204020401F800000000010403FC000CA
:10F85000400000000018C021402240244018400011
:10F860000010802040244024401B80000002000D36
:10F870000011003FC0014000003C8024402440248F
:10F8800040238000001F8024402440344003800037
:10F89000003000200027C03800200000001B80241A
:10F8A00040244024401B8000001C0022C022402233
:10F8B000401F800000000000000840000000000021
:10F8C00000000000000460000000000000000004D0
:10F8D000000A0011002080404009000900090009C9
:10F8E000000900000000004040208011000A0004D0
:10F8F000001800200023402400180000001F802072
:10F9000040274029401F400000004007C039000F39
:10F910000001C0004020403FC0244024401B800024
:10F92000001F802040204020403080000020403FC9
:10F93000C0204020401F80000020403FC024402EB7
:10F940004030C0000020403FC024402E0030000066
:10F95000000F001080204022403380020020403FF2
:10F96000C0040004003FC02040204020403FC02091
:10F9700040204000000060202020203FC0200020C8
:10F980000020403FC024400B0030C0204020403FBA
:10F99000C020400040004000C03FC03C0003C03CCD
:10F9A000003FC0000020403FC00C4023003FC0206B
:10F9B000001F802040204020401F80000020403F4A
:10F9C000C024402400180000001F80214021402056
:10F9D000E01FA0000020403FC02440260019C000C6
:10F9E0004018C024402440224031800000300020D4
:10F9F000403FC020403000000020003F8000400019
:10FA0000403F80200020003E0001C0070038002059
:10FA100000380007C03C0007C03800000020403913
:10FA2000C0060039C0204000002000384007C03820
:10FA30004020000000304021C02640384020C00057
:10FA400000000000007FE040204020000000007027
:10FA5000000C000380004000000000402040207F98
:10FA6000E000000000000020004000200000000036
:10FA70000000100010001000100010001000000026
:10FA8000004000000000000000000002800540056A
:10FA90004003C0004020003FC004400440038000F9
:10FAA0000000000380044004400640000000000302
:10FAB00080044024403FC000400000038005400512
:10FAC0004003400000000004401FC02440244020A8
:10FAD00000000002E0055005500650042020403F81
:10FAE000C00440040003C000400000044027C000E0
:10FAF000400000000000100010041027E00000008B
:10FB00000020403FC00140070004C00440204020C6
:10FB1000403FC000400040000007C0040007C00490
:10FB20000003C00000044007C00440040003C000FC
:10FB300040000003800440044003800000041007DC
:10FB4000F0045004400380000000000380044004DF
:10FB50005007F00010044007C002400400040000F9
:10FB600000000006400540054004C00000000004FD
:10FB7000001F800440004000000400078000400493
:10FB80004007C000400400070004C00180060004D4
:10FB900000060001C0070001C00600000004400686
:10FBA000C0010006C0044000000410071004E0017A
:10FBB00080060004000000044005C0064004400028
:10FBC000000000000004007BE04020000000000076
:10FBD000000000FFF000000000000040207BE00477
:10FBE0000000000000400080004000200020004095
:10FBF0000000000000000000000000000000000005
:10FC0000000000000000001FCC000C0000000000FD
:10FC100000000008003000600008003000600000B4
:10FC200000022003FC1E20022003FC1E20022000F4
:10FC30000000000E1811043FFF10840C7800000033
:10FC4000000F0010840F3800C00778188400780077
:10FC50000000780F8410C411240E9800E400840082
:10FC600008080068007000000000000000000000AC
:10FC70000000000000000007E01818200440020007
:10FC800000000040022004181807E00000000000F7
:10FC9000000240024001800FF0018002400240005B
:10FCA000000080008000800FF8008000800080004D
:10FCB000000001000D000E00000000000000000028
:10FCC0000000000080008000800080008000800034
:10FCD000800000000C000C0000000000000000008C
:10FCE00000000000060018006001800600180020D7
:10FCF00000000007F0080810041004080807F000CE
:10FD0000000000080408041FFC00040004000000B8
:10FD10000000000E0C10141024104411840E0C006E
:10FD20000000000C1810041104110412880C70005B
:10FD300000000000E00320042408241FFC0024002D
:10FD40000000001F98108411041104108810700026
:10FD500000000007F00888110411041888007000E2
:10FD60000000001C00100010FC13001C001000001C
:10FD70000000000E3811441084108411440E380025
:10FD80000000000700088C10441044088807F000A9
:10FD900000000000000000030C030C000000000045
:10FDA000000000000000010106000000000000004B
:10FDB0000000000080014002200410080810040028
:10FDC0000002200220022002200220022002200045
:10FDD0000000001004080804100220014000800008
:10FDE0000000000E001200100C106C10800F0000BC
:10FDF0000003E00C1813E4142417C4082807D000EB
:10FE0000000004003C03C41C40074000E4001C0048
:10FE10000410041FFC1104110411040E880070006A
:10FE20000003E00C1810041004100410081C10004B
:10FE30000010041FFC100410041004080807F00050
:10FE40000010041FFC1104110417C410040818004A
:10FE50000010041FFC1104110017C010000800005E
:10FE60000003E00C181004100410441C780040003B
:10FE70000010041FFC10840080008010841FFC1000
:10FE8000040000100410041FFC1004100400000003
:10FE90000000030001100110011FFE1000100000FF
:10FEA0000010041FFC110403801464181C100400CB
:10FEB0000010041FFC1004000400040004000C00E7
:10FEC0000010041FFC1F0000FC1F001FFC1004009A
:10FED0000010041FFC0C04030000E010181FFC10AD
:10FEE0000007F00808100410041004080807F000C8
:10FEF0000010041FFC10841080108010800F000080
:10FF00000007F0081810241024101C080A07F2003B
:10FF10000010041FFC1104110011C011300E0C0060
:10FF20000400000E1C11041084108410441C3800BE
:10FF3000001800100010041FFC100410001800002E
:10FF40000010001FF810040004000410041FF81033
:10FF50000010001E0011E0001C007013801C001037
:10FF6000001FC0103C00E01F0000E0103C1FC0005C
:10FF7000001004180C163401C001C01634180C10FF
:10FF80000410001C00130400FC13041C00100000EB
:10FF9000000804101C1064108413041C04101800C2
:10FFA000000000000000007FFE400240024002000E
:10FFB00000000030000C0003800060001C00030003
:10FFC0000000004002400240027FFE0000000000EE
:10FFD0000000000000200040004000400020000021
:10FFE000000001000100010001000100010001000A
:10FFF0000100004000400020000000000000000060
:020000040801F1
:100000000000000098012401440144014400FC0068
:100010000410001FFC008801040104008800700027
:100020000000000070008801040104010400880041
:10003000000000007000880104010411081FFC008A
:1000400004000000F8014401440144014400C800D8
:10005000000000010401040FFC1104110411001838
:1000600000000000D601290129012901C90106006B
:100070000010041FFC008401000100010400FC00CA
:100080000400000104190419FC000400040000002D
:10009000000000000300010101190119FE00000029
:1000A0000010041FFC0024004001B4010C010400F6
:1000B000000000100410041FFC00040004000000F5
:1000C00000010401FC0104010001FC010401000025
:1000D000FC010401FC008401000100010400FC009B
:1000E00004000000F8010401040104010400F80008
:1000F00000010101FF008501040104008800700077
:100100000000000070008801040104010501FF00E7
:10011000010104010401FC008401040100018000CC
:1001200000000000CC0124012401240124019800D6
:100130000000000100010007F801040104000000B4
:1001400000010001F8000400040004010801FC00A3
:1001500004010001800170000C00100160018001A9
:100160000001F0010C003001C00030010C01F00171
:100170000000000104018C00740170018C01040076
:1001800000010101810171000E0018016001800170
:100190000000000184010C013401440184010C00C1
:1001A00000000000000000000001003EFC40024092
:1001B000020000000000000000FFFF00000000003F
:1001C000000000400240023EFC0100000000000070
:1001D00000000060008000800040004000200020FF
:1001E0000000000040000000C0000000800000008F
:1001F000000000002000000060000000E00000009F
:10020000A00000002802010800000024980100005E
:10021000CE0300083003010898010024304100009B
:10022000848E000800000000320142102C90D003A0
:10023000041A811113C1751B08ED041AF904131D6A
:10024000761B0845041AA50C1ACD04116226031169
:1002500008120A1422173112021A80021B08200108
:1002600023FFFF1379671408BD631408896B140812
:1002700011641B08C10C133B6C1C08C5666C1A6E1C
:100280006819081A41101A651C13F1651B086104EE
:100290001AB1041A8D181AD9041AE1241A45441AFD
:1002A00051041B12015E21164083042A571D0201CE
:1002B0000203C017040309042D7B14085D7A1B0890
:1002C000B308811A49101A5304C11AE5101AC5045B
:1002D0001A09282AB9081302201808010104C0329B
:1002E0000904B8200A0806500507058102402C07BA
:1002F0000501074B0A06701967111B6D6FA81904D9
:100300001A71041A85041A89041AB1041A690413AB
:100310001093041A081A039B798B981A8CDC191015
:100320001A21081AF5081A750400000000000000E0
:04000005080002AD40
:00000001FF
