:020000040000FA
:1000000040BA704740BA704740BA704740BA70472C
:1000100040BA704740BA704740BA704740BA70471C
:1000200040BA704740BA704740BA704740BA70470C
:1000300040BA704740BA704740BA704740BA7047FC
:10004000C0BA7047C0BA7047C0BA7047C0BA7047EC
:10005000C0BA7047C0BA7047C0BA7047C0BA7047DC
:10006000C0BA7047C0BA7047C0BA7047C0BA7047CC
:10007000C0BA7047C0BA7047C0BA7047C0BA7047BC
:100080004FEA3000704700004FEA30007047000030
:100090004FEA3000704700004FEA30007047000020
:1000A0004FEA3000704700004FEA30007047000010
:1000B0004FEA3000704700004FEA30007047000000
:1000C0004FEA3000704700004FEA300070470000F0
:1000D0004FEA3000704700004FEA300070470000E0
:1000E0004FEA3000704700004FEA300070470000D0
:1000F0004FEA3000704700004FEA300070470000C0
:1001000008B500BF1348006840F0100011490860AE
:100110000846006800F01000009000BF00BF00BF5C
:100120000846006840F0020008600846006800F0D9
:100130000200009000BF00BF00BF0846006840F00A
:10014000080008600846006800F00800009000BF42
:1001500000BF08BD4045025800B587B0182101A86E
:1001600008F0D2F878487949494408600820486086
:100170000021764848448160C16017210161012156
:10018000416100218161C16101620221416249072F
:1001900081620021C1620163082141630021816302
:1001A000C16300F008FB08B107F0EFFF01200190E8
:1001B00003904FF00110049041F2883201A9634886
:1001C000484401F0CEFB08B107F0DFFF07B000BDE7
:1001D00010B5B4B0044614212FA808F095F8B82142
:1001E00001A808F091F85849206888427ED14FF064
:1001F000007001900020139001A803F0D9F908B114
:1002000007F0C3FF00BF5248006840F40010504997
:1002100008600846006800F40010009000BF00BFAE
:1002200000BF0846006840F4804008600846006847
:1002300000F48040009000BF00BF00BF44480C3075
:10024000006840F0100042490C3108600846006820
:1002500000F01000009000BF00BF00BF084600681B
:1002600040F0020008600846006800F002000090BC
:1002700000BF00BF00BF0846006840F008000860EB
:100280000846006800F00800009000BF00BF04208E
:100290002F900220309000203190032032900920CE
:1002A00033902FA92B4805F05DF804202F900220F1
:1002B00030900020319003203290092033902FA9F4
:1002C000254805F04FF84FF460502F9002203090F1
:1002D0000020319003203290092033902FA91F482D
:1002E00005F040F840202F90022000E00AE0309016
:1002F00000203190032032900A2033902FA9164815
:1003000005F030F834B010BD10B504460E49206831
:10031000884217D10E48006820F400100C4908608C
:100320000846006820F4804008600421094805F070
:10033000FDF84421084805F0F9F84FF460510748EA
:1003400005F0F4F810BD0000005000523400000029
:10035000344502580010025800040258000C02589C
:1003600008B500BF0648006840F002000449086074
:100370000846006800F00200009000BF00BF08BD02
:100380005445025810B5002804DB0A07130EEF4A43
:10039000135406E00A07140EED4A00F00F031B1F6A
:1003A000D45410BD00BF00F00702E94B0C3B1968A4
:1003B0004FF6FF031940E74B0B4343EA0221E44B9E
:1003C0000C3B196000BF70472DE9F04D80460D468B
:1003D000164600F0B4F9074639462A46334601F07E
:1003E0000700C0F1070BBBF1040F02D94FF0040B5B
:1003F00001E0C0F1070BDA4600F1040BBBF1070F77
:1004000002D24FF0000B01E0A0F1030BDC464FF0ED
:10041000010B0BFA0AFBABF1010B0BEA020B0BFA17
:100420000CFB4FF0010E0EFA0CFEAEF1010E0EEABF
:10043000030E4BEA0E0421464046FFF7A3FFBDE83A
:10044000F08D0146084600280DDB00BF00BF00F01C
:100450001F0301229A4043099B0003F1E023C3F8E4
:10046000002100BF00BF00BF704710B5014608461D
:10047000002817DB00F01F0301229A40B64B440905
:1004800043F8242000BF00BF00BFBFF34F8F00BF61
:1004900000BF00BF00BF00BF00BFBFF36F8F00BF32
:1004A00000BF00BF00BF10BD00BF00BF00BF00BF46
:1004B00000BFBFF34F8F00BF00BF00BFA4480C3880
:1004C000006800F4E060A3490843001DA0490C390E
:1004D000086000BF00BF00BFBFF34F8F00BF00BF69
:1004E00000BF00BF00BFFDE770B504462546681E8B
:1004F000B0F1807F01D301200FE0681E4FF0E021B2
:1005000048610F214FF0FF30FFF73CFF00204FF014
:10051000E021886107200861002070BD00BF00BF96
:1005200000BFBFF35F8F00BF00BF00BF88480C3023
:10053000006820F4803086490C310860002084492E
:100540007C310860704740F00101814A7C321160C3
:100550007F490C31096841F480317D4A0C321160C9
:1005600000BF00BF00BFBFF34F8F00BF00BF00BF81
:1005700000BF00BF00BFBFF36F8F00BF00BF00BF51
:1005800070474178724A803211600178F9B1121DCA
:1005900041681160017B0907C27A41EA0261827AEF
:1005A00041EAC241427B41EA8241827B41EA4241C7
:1005B000C27B41EA0241427A41EA0221027A41EADF
:1005C000420102781143624A8832116005E000213D
:1005D0005F4A84321160121D1160704710B500F03F
:1005E000AEF810BD2DE9F04504462046002803DB97
:1005F000564F3F5C3F0907E0554F00F00F0CACF140
:10060000040C17F80C703F093D460E4606F0070033
:10061000C0F10708B8F1040F02D94FF0040801E057
:10062000C0F10708C44600F10408B8F1070F02D270
:100630004FF0000801E0A0F10308474625FA07F84B
:100640004FF0010A0AFA0CFAAAF1010A08EA0A08AC
:10065000C2F800804FF0010808FA07F8A8F1010875
:1006600008EA0508C3F8008000BFBDE8F08510B5B2
:1006700001460846002808DB00F01F0301229A40CB
:10068000354B8033440943F8242000BF10BD10B51A
:100690000146084600280EDB2F4A8032430952F8F3
:1006A000232000F01F040123A3401A400AB10122B5
:1006B00002E0002200E00022104610BD10B5014605
:1006C0000846002807DB00F01F0301229A40234B55
:1006D000440943F8242000BF10BD10B50146084668
:1006E00000280EDB1D4A8032430952F8232000F017
:1006F0001F040123A3401A400AB1012202E0002294
:1007000000E00022104610BD042808D14FF0E0217F
:10071000096941F004014FF0E022116107E04FF058
:10072000E021096921F004014FF0E02211617047D6
:10073000704710B5FFF7FCFF10BD03207047044859
:100740000C380068C0F302207047000000E400E0AD
:1007500018ED00E00000FA0580E100E080E200E032
:100760002DE9F04104460E4617469846069D12E0D4
:10077000681C80B107F007FDA0EB0800A84200D874
:100780004DB94FF400702065606D40F00100606568
:100790000120BDE8F0812068006A304008B10120E6
:1007A00000E00020B842E3D10020F2E70246916564
:1007B000002070477047F8B50446002507F0E3FCB9
:1007C00006460CB901257AE000206065206D0028FE
:1007D00075D12046FFF7FCFC41F288312046FFF737
:1007E000E5FF208A401EE16841EA00416069401E41
:1007F00041EA0020616B0843E16908432168896888
:10080000FE4A11400843216888602068C06820F4CF
:10081000E020216A08432168C860208EA16B41EA6C
:100820000040216808612168E06B48612068006829
:1008300020F4F8516068401E41EA002021680860F9
:10084000A06D33460022202100902046FFF788FF4C
:1008500005468DBB2068C06820F0FF00616A491E14
:1008600008432168C8602068006820F04000A16843
:10087000084321680860D4E90A0108432168D1F8D7
:10088000081121F0A04108432168C1F8080120683F
:10089000006840F0010021680860A069022805D1C5
:1008A0002068806840F0020021688860E068B0F14C
:1008B000806F02D10120206501E0022020652846DA
:1008C000F8BD704770B5044600250CB9012510E04D
:1008D0002068006820F001002168086020688068B6
:1008E00020F00200216888602046FFF70DFD0020FF
:1008F0002065284670BD70477047704770B5054643
:100900002C6C0020A064206DB0F5807F1AD1206887
:10091000006AC0F3401078B1022021684862206864
:10092000006840F40030216808602068006840F0EA
:100930000200216808600AE0022020652046FFF7D7
:10094000DCFF04E0022020652046FFF7D5FF70BDE4
:10095000704770477047704770472DE9F041044673
:10096000206800F150082068056A20680768266D35
:1009700005F0040038B307F4802020B3182E0AD104
:10098000206C007888F80000206C401C2064A06C6B
:10099000401EA0640BE0282E09D198F80000216CBD
:1009A0000870206C401C2064A06C401EA064A06CE9
:1009B00028B92068006820F480202168086020465B
:1009C000FFF7CAFFA5E005F0020000284BD007F4AE
:1009D0000030002847D0282E21D1A06C68B105F442
:1009E0007C5050B198F80000216C0870206C401CBD
:1009F0002064A06C401EA0648BE0A06C0028E1D1B4
:100A00000220216848622068006820F4E020216804
:100A10000860022020652046FFF79DFF79E0022054
:100A2000216848622068006820F4E020216808609E
:100A300002202065182E03D12046FFF78BFF68E0C7
:100A4000082E03D12046FFF784FF62E0B6F5807FD1
:100A50005FD1606D18B92046FFF74FFF59E020467F
:100A6000FFF74AFF55E005F00800B0B107F4002099
:100A700098B10820216848622068006800F480006E
:100A800038B12068006820F4102021680860022036
:100A900020652046FFF75CFF3BE005F0010060B3F6
:100AA00007F4803048B3012021684862206800685C
:100AB00020F4F81021680860022060652068006852
:100AC00000F0040098B12068006820F0040021685C
:100AD00008604B487844E16C8865E06C05F0FDFAED
:100AE000B8B1022020652046FFF706FF11E0022082
:100AF00020652046FFF700FF0BE005F0100040B135
:100B000007F4801028B11020216848622046FFF7C2
:100B1000F2FEBDE8F0812DE9F041024600201768A1
:100B20003F6827F04057D2F800C0CCF800709768B3
:100B30005FB917683F6827F08007D1F804C047EA1B
:100B40000C07D2F800C0CCF800700F68022F0CD14F
:100B5000176807F5C073176807F5C474176807F5B9
:100B6000C875176807F5D0761BE00F68032F0CD106
:100B7000176807F5A073176807F5A474176807F5D9
:100B8000A875176807F5B0760BE0176807F580734E
:100B9000176807F58474176807F58875176807F5EF
:100BA0009076D1E9127C47EA0C071F60CF6A8FB1BB
:100BB0008F6A3760D1F834C0CF6A47EA0C07D1F8A2
:100BC00030C047EA0C07D3F800C02CF47C1C47EA7D
:100BD0000C071F60276827F01F07D1F844C047EAB9
:100BE0000C0727608F6B3FB10F682FB9CF6B7F1E4B
:100BF000D2F800C0CCF84070CF6803E0F4F8E0F819
:100C000025FEFFFF002F7AD0CF69E7B38F6B37B394
:100C1000D1F814C0CF6847EA0C07D1F810C047EAF2
:100C20000C07D1F81CC047EA0C07D1F824C047EAEA
:100C30000C07D1F820C047EA0C07D1F838C047EAC2
:100C40000C07D1F840C047EA0C07D3F800C0DFF822
:100C50003C8A0CEA080C47EA0C071F602AE0D1F82E
:100C600014C0CF6847EA0C07D1F810C047EA0C0758
:100C7000D1F81CC047EA0C07D1F824C047EA0C079A
:100C8000D1F820C000E01DE047EA0C07D3F800C00F
:100C900043F63F782CEA080C47EA0C071F60D76A36
:100CA000B7F1805F06D14F69082F03D11F6847F065
:100CB00000671F608F682F608F69D2F800C0CCF882
:100CC000487076E08F6BDFB1D1F814C0CF6847EA87
:100CD0000C07D1F810C047EA0C07D1F838C047EA32
:100CE0000C07D1F840C047EA0C07D3F800C0DFF882
:100CF000A0890CEA080C47EA0C071F601BE01DE006
:100D0000D1F814C0CF6847EA0C07D1F810C047EA01
:100D10000C07D3F800C02CF03F0C47EA0C071F600B
:100D2000D76AB7F1805F06D14F69082F03D11F68DA
:100D300047F000671F608F682F603AE0CF69A7B364
:100D40008F6BE7B1D1F824C0CF6947EA0C07D1F81F
:100D500020C047EA0C07D1F838C047EA0C07D1F8A1
:100D600040C047EA0C07D3F800C0DFF8208908F13B
:100D70003F080CEA080C47EA0C071F600FE0D1F8A7
:100D800024C0CF6947EA0C07D1F820C047EA0C0716
:100D9000D3F800C02CF47C5C47EA0C071F608F6915
:100DA000D2F800C0CCF8487003E0FFE70120082724
:100DB0005765BDE8F0812DE9F84504460D4690469B
:100DC00007F0E1F98246A06800B900BFE86800B109
:100DD00000BFE86900B100BFE86A00B100BFA86BBE
:100DE00018B1286800B900BF00BF276D022F03D1DA
:100DF000E068B0F1806F0FD1142F05D12868022868
:100E00000AD02868032807D0242F43D12868012856
:100E100002D0286803283DD15346002220212046D5
:100E2000CDF80080FFF79CFC06461EBB00206065E5
:100E300029462046FFF76FFE0646DEB9A86B60B96B
:100E40005346012202212046CDF80080FFF788FC9E
:100E500006460220216848621FE0286810B9042075
:100E600020651AE02868012808D1206D242802D1C5
:100E70000420206511E0142020650EE02868022877
:100E80000BD1206D142802D10420206505E0242018
:100E9000206502E00126102060653046BDE8F88537
:100EA000F8B504460D4607F06EF90746A06800B98C
:100EB00000BFE86800B100BFE86900B100BFE86AA0
:100EC00000B100BFA86B00B100BF206D022825D182
:100ED000286818BBA86B08BBE068B0F1806F1DD014
:100EE000A06D3B460022202100902046FFF738FCF1
:100EF0000646B6B90020606503202168486229468D
:100F00002046FFF708FE06465EB9082020652068E7
:100F1000006840F440302168086002E0012610209B
:100F200060653046F8BD2DE9F84504460D46174684
:100F300007F029F98246D4F85080B8F1010F02D0A9
:100F4000B8F1020F17D15346002220212046009706
:100F5000FFF706FC06468EB928880004696840EA57
:100F60000120A9680843E96808432168C1F8000224
:100F70000220206502E00126102060653046BDE8B1
:100F8000F8852DE9F84304460D46174607F0FBF8AF
:100F90008046206D022838D1E068B0F1806F34D1EE
:100FA00043460022202120460097FFF7D9FB064642
:100FB00056BB2068006820F0405021680860206817
:100FC000806820F08070296808432168886028695B
:100FD00040F04060A968084340F440602168C1F8CF
:100FE0000001286940F04060A968084340F440606F
:100FF0002168C1F88001E868401E216808646868BB
:10100000216888640420206502E0012610206065C4
:101010003046BDE8F8832DE9F84504460E461746EC
:1010200007F0B1F88046206800F1500A1EB901258A
:10103000082060653AE0206D042834D12068006CF7
:10104000401CA064A06C606426642068006820F0E6
:1010500040502168086000BF434601220421204619
:101060000097FFF77DFB054605B10CE0206C00788A
:101070008AF80000206C401C2064A06C401EA06414
:10108000A06C0028E8D100BF85B9434601220221A7
:1010900020460097FFF764FB05463DB90220216812
:1010A0004862206502E00125102060652846BDE801
:1010B000F8852DE9FC4D04460E46174607F063F807
:1010C0000190206800F1500A2068D0F8488020681C
:1010D000D0F810B11EB901250820606551E0206DDF
:1010E00004284BD12068006C401CA064A06C606494
:1010F00026642068006820F0405040F0805021684D
:101100000860E068B0F1806F03D12068C0F84880C3
:101110000CE02068D0F8000100F4E06018B120680D
:10112000C0F8488002E02068C0F810B100BF009706
:10113000012206212046019BFFF712FB054605B15F
:101140000CE09AF80000216C0870206C401C2064B0
:10115000A06C401EA064A06C0028E8D100BF85B937
:101160000097012202212046019BFFF7F9FA05466C
:101170003DB9022021684862206502E00125102067
:1011800060652846BDE8FC8D10B50246002019B9FF
:101190000120082353651EE0136D042B18D113683A
:1011A0001B6C5B1C9364936C5364116413681B6821
:1011B00023F04053146823600323146863621823E8
:1011C000136513681B6843F4E0231468236002E08E
:1011D00001201023536510BD70B50246002015682C
:1011E000AB6C1568D5F8104119B901200825556573
:1011F00033E0156D042D2DD115682D6C6D1C956493
:10120000956C5564116415682D6825F0405545F0BE
:1012100080551668356003251668756228251565A2
:1012200015682D6845F4E02516683560D568B5F178
:10123000806F02D11568AB640FE01568D5F80051D6
:1012400005F4E06515B11568AB6406E01568C5F8EE
:10125000104102E001201025556570BD70B50446AF
:101260000026256D05F0080018B905F004000028D7
:101270003CD02068006820F4F810216808604FF422
:10128000807020652068006800F0040098B1206834
:10129000006820F0040021680860FE487844E16C92
:1012A0008865E06C04F019FFF8B102202065204643
:1012B000FFF723FB1DE02068006AC0F3401078B1FF
:1012C0000220216848622068006840F400302168EC
:1012D00008602068006840F002002168086008E0AB
:1012E000022020652046FFF708FB02E001261020BF
:1012F0006065304670BD70B505462C6C0020A0645A
:10130000042060652068006820F0040021680860FF
:101310002046FFF7A3FF50B12068006820F4E020CA
:1013200021680860022020652046FFF7E5FA70BDBD
:101330000146086C002282640268126822F00402EE
:1013400003681A600A68D26822F001020B68DA604A
:101350000268126842F4003203681A607047F8B5F8
:1013600004460D4600262068006C471C1DB9012666
:101370000820606573E0206D04286DD1A764A06C1F
:10138000606425642068006820F04050216808608F
:1013900003202168486218202065BF487844E16C2A
:1013A0004864BE487844E16C48650020E16C88657B
:1013B000E06C0068006940F60C418843E16C096804
:1013C0000861E06CC06950B9E06C0068006940F2E7
:1013D00003318843801CE16C0968086124E0E06CFB
:1013E000C06910280BD1E06C0068006940F203313D
:1013F000884340F48170E16C0968086114E0E06C96
:10140000C06920280BD1E06C0068006940F203310C
:10141000884300F20220E16C0968086104E0606D15
:1014200040F004006065012601200090636C216893
:1014300001F150022946E06C04F0A1FD30B92068AA
:10144000006840F480302168086008E0012604202C
:1014500060650220206502E00126102060653046AC
:10146000F8BD2DE9F84504460D4600272068006CBC
:1014700000F101082068866C2068D0F810A11DB921
:101480000127082060658BE0206D042871D1C4F825
:101490004880A06C606425642068006820F040509B
:1014A00040F08050216808600320216848622820AD
:1014B00020657B487844E16C48647A487844E16C64
:1014C00048650020E16C8865E06C0068006940F2C6
:1014D00003318843E16C09680861E06C006A58B91F
:1014E000E06C0068006940F60C41884340F0080059
:1014F000E16C0968086124E0E06C006A40280BD1C7
:10150000E06C0068006940F60C41884340F481605B
:10151000E16C0968086114E0E06C006A80280BD176
:10152000E06C0068006940F60C41884300F6080052
:10153000E16C0968086104E0606D40F004006065DA
:10154000012701200090636C226802F150012A46B5
:10155000E06C04F014FDD0B92068006840F48030DD
:1015600021680860E068B0F1806F03D1206886646C
:1015700016E012E02068D0F8000100F4E06010B13D
:10158000206886640CE02068C0F810A108E00127FC
:10159000042060650220206502E0012710206065BC
:1015A0003846BDE8F8852DE9F84F04460D46174644
:1015B00006F0E9FD82462068D0F848802068D0F81F
:1015C00010B1206D042849D1E868B0F5800F45D1ED
:1015D00053460022202120460097FFF7C1F8064617
:1015E000002E3ED128682168C1F88800686821680B
:1015F000C1F8800028692168C1F89000D5E902018E
:10160000084340F000502168096821F04351084325
:1016100021680860E068B0F1806F03D12068C0F8ED
:1016200048800CE02068D0F8000100F4E06018B1B8
:101630002068C0F8488002E02068C0F810B1534626
:101640000122082120460097FFF78AF8064646B98E
:101650000820216848620220206502E0012610204F
:1016600060653046BDE8F88F2DE9F84504460D4623
:1016700006F089FD80462068876C2068D0F810A1AC
:10168000206D04284FD1A06D43460DE0C0C0FFF08F
:10169000C0FFFFF05DF6FFFF91FFFFFF4FFFFFFF71
:1016A00079FEFFFF37FEFFFF002220210090204639
:1016B000FFF756F8064646BB28682168C1F888003F
:1016C00068682168C1F8800028692168C1F8900025
:1016D000D5E90201084340F000502168096821F073
:1016E0004351084321680860092021684862482066
:1016F00020652068006840F4102021680860E068D8
:10170000B0F1806F02D1206887640FE02068D0F8C4
:10171000000100F4E06010B12068876406E02068F2
:10172000C0F810A102E00126102060653046BDE837
:10173000F885F8B504460D4606F025FD0746206DF0
:10174000042826D1A06D3B4600222021009020468F
:10175000FFF706F80646FEB98820206528680828A5
:101760000CD168682168C1F83001102021684862F6
:101770002068006840F480102168086020680068D4
:10178000FE490840296841F040510843216808603B
:1017900002E00126102060653046F8BD70477047B2
:1017A000F8B50446002506F0EEFC0746266D06F067
:1017B000080018B906F00400002839D02068006835
:1017C00000F0040060B12068006820F00400216887
:1017D0000860E06C04F039FC05460DB1042060653A
:1017E0002068006AC0F34010F8B12068006840F03B
:1017F000020021680860A06D3B4601220221009092
:101800002046FEF7ADFF0546ADB9022021684862CB
:10181000A06D3B460022202100902046FEF7A0FF4D
:10182000054645B90220206505E00220206502E05A
:101830000125102060652846F8BD10B5024600203D
:10184000136D03F008035BB9516013681B6823F440
:10185000F85453685B1E44EA03231468236002E0D3
:1018600001201023536510BD014608680068C0F3CD
:101870000420401C70470146486D70470146086DC2
:101880007047F0B505460020002415B1022D00D8A0
:1018900009B9012064E000260E604E608E60CE60C3
:1018A0000E61022D08D1B64E366806F001060EB95B
:1018B000B44C01E04FF4007400234FE0B04E361DED
:1018C00056F8232002F001063EB102F0020604F0B1
:1018D0000207BE4201D15E1C0E6002F010063EB14E
:1018E00002F0200604F02007BE4201D15E1C4E60CB
:1018F00002F480763EB102F4007604F40077BE4232
:1019000001D15E1C8E6002F480368EB102F4802616
:1019100004F48027BE420BD102F4003626B95E1CC7
:1019200046F48036CE6003E05E1C46F08076CE60E2
:1019300002F080768EB102F0806604F08067BE42CD
:101940000BD102F0007626B95E1C46F480360E619B
:1019500003E05E1C46F080760E615B1C022BADD36B
:10196000F0BD2DE9F04D8CB082460C464FF0000BD7
:10197000D8468549DAF80000884202D100260125C0
:1019800001E001260025002710E007EB47026B4627
:1019900003EBC2017A1CD0B2FFF773FF20B14FF006
:1019A000010B0820CAF85400781CC7B2022FECD3F0
:1019B000BBF1000F7DD17448006800F0010038B120
:1019C0007148006820F001006F49086048F0010884
:1019D0006E48006800F0010038B16C48006820F0E3
:1019E00001006A49086048F002086548001D06EBDE
:1019F00046016A4602EBC1018968491E50F8210080
:101A000020F480725E48001D06EB46016B4603EB36
:101A1000C1018968491E40F82120001F006800F0BC
:101A2000010000287ED05648006820F0010054498B
:101A30000860012D77D1081D05EB45015DF83110D7
:101A4000491E50F8210040F002024D48001D05EBF0
:101A500045015DF83110491E40F8212005EB450095
:101A6000694601EBC0004068B0B14548001D05EB78
:101A700045016A4602EBC1014968491E50F8210040
:101A800040F020023E48001D05EB450103EBC1017B
:101A90004968491E40F8212005EB4500694601EBE5
:101AA000C000C068E8B13648001D05EB45016A4634
:101AB00000E0D9E202EBC101097B491E01F00101FE
:101AC00050F8210040F480222D48001D05EB45010F
:101AD0006B4603EBC101097B491E01F0010140F88F
:101AE000212005EB4500694601EBC0000069002894
:101AF00019D02348001D05EB45016A4602EBC101E0
:101B0000097C491E01F0010150F8210040F080627B
:101B10001B48001D05EB45016B4603EBC101097C29
:101B2000491E01E005E089E001F0010140F82120B3
:101B300087E006EB46005DF8300000287ED01048B4
:101B4000001D06EB46015DF83110491E50F82100DA
:101B500020F001020A48001D06EB46015DF8311035
:101B6000491E40F8212006EB4600694601EBC00003
:101B7000406810B30248001D0AE00000F7FFFFCFE5
:101B800000B40052220204040050005200A000528F
:101B900006EB46016A4602EBC1014968491E50F84E
:101BA000210020F01002FE4806EB46016B4603EBD5
:101BB000C1014968491E40F8212006EB46006946EC
:101BC00001EBC000C068C8B1F54806EB46016A46A3
:101BD00002EBC101097B491E01F0010150F821000F
:101BE00020F48032EE4806EB46016B4603EBC10160
:101BF000097B491E01F0010140F8212006EB460057
:101C0000694601EBC0000069C0B1E54806EB46013A
:101C10006A4602EBC101097C491E01F0010150F83E
:101C2000210020F08072DE4806EB46016B4603EB94
:101C3000C101097C491E01F0010100E001E040F80A
:101C4000212005EB45015DF831102068884220D045
:101C500005EB45016A4602EBC101606849688842AC
:101C600017D005EB450102EBC101A06889688842E5
:101C70000FD005EB450102EBC101E068C96888425D
:101C800007D005EB450102EBC101206909698842D3
:101C900027D105EB45015DF831102068884221D13C
:101CA00005EB45016A4602EBC1016068496888425C
:101CB00018D105EB450102EBC101E068C968884213
:101CC00010D105EB450102EBC10120690969884289
:101CD00008D1B348001F006840F00100B049091F57
:101CE000086085E0AE4805EB45015DF83110491EFE
:101CF00050F8210020F00102A94805EB45015DF8EC
:101D00003110491E40F8212005EB4500694601EBE2
:101D1000C0004068A8B1A24805EB45016A4602EB45
:101D2000C1014968491E50F8210020F010029C486A
:101D300005EB45016B4603EBC1014968491E40F8BC
:101D40002120974805EB45016A4602EBC1018968ED
:101D5000491E50F8210020F48072914805EB45019E
:101D60006B4603EBC1018968491E40F8212005EB51
:101D70004500694601EBC000C068C0B1884805EB6A
:101D800045016A4602EBC101097B491E01F00101D0
:101D900050F8210020F48032814805EB450103EB27
:101DA000C101097B491E01F0010140F8212005EB2A
:101DB0004500694601EBC0000069C8B1784805EBF1
:101DC00045016A4602EBC101097C491E01F001018F
:101DD00050F8210020F08072714905EB45006B46F8
:101DE00003EBC000007C401E00F0010041F8202001
:101DF0006B48A168491E50F8210020F440714FF44F
:101E0000807040EA462001436548A268521E40F8AF
:101E100022106069401E6249091F0968C1F3074129
:101E200088420BD95E48001F006820F47F01A08A19
:101E3000401E41EA00405A49091F08605848001FE7
:101E4000006800F00100002875D055482168491E3F
:101E500050F8210020F00301491C51482268521E0D
:101E600040F82210606868B14D486168491E50F81A
:101E7000210020F0300040F0100249486168491EFE
:101E800040F82120E06800F4803090B14448217B84
:101E9000491E01F0010150F8210020F4E02040F437
:101EA00080323F48217B491E01F0010140F821208A
:101EB00013E0E06888B13A48217B491E01F0010136
:101EC00050F8210020F0E06040F080723448217B1F
:101ED000491E01F0010140F82120206900F4803002
:101EE00090B12F48217C491E01F0010150F82100DA
:101EF00020F4E02040F440322948217C491E01F0C2
:101F0000010140F821209DE02069002811D02448DB
:101F1000217C491E01F0010150F8210020F0E06011
:101F200040F040721E48217C491E01F0010140F83A
:101F3000212087E0FFE71A482168491E50F8210058
:101F400020F00301012040EA4600014314482268C2
:101F5000521E40F82210606878B111486168491E2D
:101F600050F8210020F03000102141EA46110843CA
:101F70000B496268521E41F82200E06800F480308C
:101F8000C0B10748217B491E01F0010150F8210032
:101F900020F4E0204FF4803141EA8641084301E01B
:101FA00004B400523249227B521E02F0010241F871
:101FB000220016E0E068A0B12D48217B491E01F007
:101FC000010150F8210020F0E0604FF0807141EAFB
:101FD000866108432649227B521E02F0010241F825
:101FE0002200206900F48030A8B12148217C491EDC
:101FF00001F0010150F8210020F4E0214FF44030BD
:1020000040EA864001431A48227C521E02F0010237
:1020100040F8221016E02069A0B11548217C491E25
:1020200001F0010150F8210020F0E0604FF0407114
:1020300041EA866108430E49227C521E02F00102E9
:1020400041F8220008F0010028B10A48006840F079
:1020500001000849086008F0020028B1064800683D
:1020600040F001000449086058460CB0BDE8F08D0E
:1020700004B400520050005200A0005210B5FC48B9
:10208000006800F00F0003280ED2F948006820F025
:102090000F00C01CF64908600846006800F00F00F9
:1020A000032801D0012010BD06F06DF80446F14868
:1020B000006840F00100EF49086006E006F063F8B0
:1020C000001B022801D90320EDE7EA48006800F070
:1020D00004000028F2D0E748001D006840F080406E
:1020E000E449091D08600020E24910310860E24817
:1020F000E24949440860E24949440860E1484844EB
:10210000006806F03DF808B10120CCE706F03BF886
:10211000044608E006F037F8001B41F28831884297
:1021200001D90320BFE7D3481030006800F0380021
:102130000028EFD106F027F80446CE480068D249BF
:102140000840CC49086006E006F01DF8001B642832
:1021500001D90320A7E7C748006800F40030002831
:10216000F2D106F010F80446C248006820F08070F2
:10217000C049086006E006F006F8001B022801D9F5
:10218000032090E7BB48006800F000700028F2D1FF
:1021900005F0F9FF0446B748006820F08060B549B3
:1021A000086006E005F0EFFF001B022801D90320BC
:1021B00079E7B048006800F000600028F2D105F02F
:1021C000E2FF0446AB48006820F08050A94908604F
:1021D00006E005F0D8FF001B022801D9032062E7C2
:1021E000A448006800F000500028F2D1A14918313D
:1021F0000860091D0860091D0860A4489D49283130
:102200000860A348091D0860A248091D0860002055
:10221000091D08609F48091D08600020091D08600D
:102220009C48091D08600020091D0860914800684D
:1022300020F480108F4908600846006820F4802050
:10224000086000208B4960310860401E8949683170
:1022500008609148006840F480308F4908608448E5
:10226000006800F00F0003280ED98148006820F0B4
:102270000F00C01C7E4908600846006800F00F008F
:10228000032801D001200EE700200CE72DE9F047DC
:10229000044614B90120BDE8F087207800F0010061
:1022A00000287DD073481030006800F0380871486D
:1022B0002830D0F800A0B8F1100F06D0B8F1180FF0
:1022C0000ED10AF0030002280AD16A480068C0F360
:1022D0004040002872D0606800286FD10120DAE702
:1022E00000BF6068B0F5803F06D16248006840F4E6
:1022F0008030604908604CE0606880B95D480068E3
:1023000020F480305B4908600846006820F48010A3
:1023100008600846006820F48020086039E06068A2
:10232000B0F5A02F10D15348006840F480205149E7
:1023300008600846006820F48010086008460068BD
:1023400040F48030086024E06068B0F5A81F10D128
:102350004848006840F48020464908600846006804
:1023600040F4801008600846006840F4803008603F
:102370000FE04048006820F480303E49086008467D
:10238000006820F4802008600846006820F480106F
:10239000086000BF606890B105F0F5FE054607E0F3
:1023A0001FE005F0F0FE401B642801D9032072E70E
:1023B00030480068C0F340400028F2D010E005F03B
:1023C000E2FE054606E005F0DEFE401B642801D96A
:1023D000032060E727480068C0F340400028F2D19E
:1023E00000BF207800F0020002287DD12148103083
:1023F000006800F038081F482830D0F800A0B8F175
:10240000000F05D0B8F1180F48D10AF0030068BBDF
:1024100018480068C0F3800018B1E06808B90120CE
:1024200039E71448006820F01900E16808431149B1
:10243000086005F0A8FE054606E005F0A4FE401B76
:10244000022801D9032026E70A480068C0F380006B
:102450000028F2D00748001D006820F0FE40217CD3
:1024600040EA01600349091D086057E016E00000DA
:1024700000200052004402580090D00310000000D9
:10248000140000000800000045EDF6FF0002020203
:102490000000FF018002010130450258E06830B3BE
:1024A000FE48006820F01900E1680843FB49086015
:1024B00005F069FE054606E005F065FE401B0228B2
:1024C00001D90320E7E6F5480068C0F38000002842
:1024D000F2D0F248001D006820F0FE40217C40EA66
:1024E0000160EE49091D00E019E0086016E0EB48C4
:1024F000006820F00100E949086005F044FE054647
:1025000006E005F040FE401B022801D90320C2E688
:10251000E2480068C0F380000028F2D100BF2078B4
:1025200000F01000102869D1DC481030006800F07D
:102530003808DA482830D0F800A0B8F1080F06D0E3
:10254000B8F1180F1BD10AF00300012817D1D348A6
:102550000068C0F3002020B1E069802801D001208C
:1025600099E600BFCD480C30006820F07C5094F80C
:10257000201040EA0160C9490C3108603DE0E06983
:1025800020B3C648006840F08000C449086005F0E8
:10259000FAFD054606E005F0F6FD401B022801D9CC
:1025A000032078E6BD480068C0F300200028F2D080
:1025B00000BFBA480C30006820F07C5094F820101E
:1025C00040EA0160B5490C31086016E0B348006884
:1025D00020F08000B149086005F0D5FD054606E011
:1025E00005F0D1FD401B022801D9032053E6AB487A
:1025F0000068C0F300200028F2D100BF207800F06E
:102600000800082836D16069D0B1A4487430006849
:1026100040F00100A1497431086005F0B4FD0546A1
:1026200006E005F0B0FD401B022801D9032032E688
:102630009A4874300068C0F340000028F1D019E0D7
:1026400096487430006820F00100944974310860A5
:1026500005F099FD054606E005F095FD401B0228B2
:1026600001D9032017E68D4874300068C0F340009C
:102670000028F1D1207800F02000202830D1A06976
:10268000B8B18648006840F480508449086005F07D
:102690007AFD054606E005F076FD401B022801D9CB
:1026A0000320F8E57D480068C0F340300028F2D0F0
:1026B00016E07A48006820F480507849086005F0F8
:1026C00062FD054606E005F05EFD401B022801D9CB
:1026D0000320E0E571480068C0F340300028F2D1E3
:1026E000207800F0040004287DD16D48006840F493
:1026F00080706B49086005F046FD054606E005F070
:1027000042FD401B642801D90320C4E564480068E9
:1027100000F480700028F2D000BFA068012808D122
:102720005E487030006840F001005C49703108601C
:1027300052E0A06890B959487030006820F001005C
:102740005649703108600846006820F08000086033
:102750000846006820F0040008603DE0A0680528F5
:1027600012D14E487030006840F004004B4970317F
:1027700008600846006820F080000860084600688D
:1027800040F00100086027E0A068852812D1434886
:102790007030006840F0040040497031086008461D
:1027A000006840F0800008600846006840F00100C2
:1027B000086011E039487030006820F001003749A6
:1027C000703108600846006820F004000860084680
:1027D000006820F08000086000BFA068A8B105F084
:1027E000D2FC054609E024E005F0CDFC401B41F297
:1027F0008831884201D903204DE5284870300068AF
:10280000C0F340000028EFD013E005F0BCFC054603
:1028100008E005F0B8FC401B41F28831884201D93C
:10282000032038E51D4870300068C0F340000028E0
:10283000EFD1606A00287CD018481030006800F0A2
:102840003800182876D0606A022874D113480068CE
:1028500020F080701149086005F095FC054606E0FF
:1028600005F091FC401B022801D9032013E50B4819
:102870000068C0F340600028F2D100BFD4E90A101C
:1028800041EA001005492831096840F2F3329143CA
:102890000843024928310860208E03E000440258B2
:1028A00000480258401EC0F30800616B491E4FF4F7
:1028B0007E4202EA41210843218F491ED20102EAE9
:1028C000014108433C21095D491E120202EA0161EF
:1028D0000843FE49086000BF081F006820F001009F
:1028E000091F0860F948001D00684FF6F871884319
:1028F000A16C40EAC100F549091D0860F348001FBA
:10290000006820F00C00216C0843F049091F0860A2
:102910000846006820F00200616C0843EB49091F7B
:1029200008600846006840F4803008600846006887
:1029300002E070E043E027E040F400300860084621
:10294000006840F4802008600846006840F00100FC
:102950000860DE483038006840F08070DB4930396C
:10296000086005F010FC054606E005F00CFC401B75
:10297000022801D903208EE4D44830380068C0F31F
:1029800040600028F1D046E0D0483038006820F0A0
:102990008070CE493039086005F0F5FB054606E049
:1029A00005F0F1FB401B022801D9032073E4C7485E
:1029B00030380068C0F340600028F1D12BE0C348F4
:1029C00008380768C1480668606A012821D007F006
:1029D0000301A06A81421CD1C7F30511E06A884255
:1029E00017D1C6F30801206B401E814211D1606BE4
:1029F000401EC6F3462188420BD1A06B401EC6F391
:102A00000641884205D1E06B401EC6F3066188424C
:102A100001D001203FE400203DE4F0B5AB4E203E64
:102A2000366806F0380636B1082E15D0102E15D0AF
:102A3000182E7DD114E0A54E303E3668C6F3401600
:102A400046B1A24E303E3668C6F3C107A04E26FA04
:102A500007F000E09E48DFE09E48DDE09E48DBE0B6
:102A60009A4E083E366806F00304984E083E3668D3
:102A7000C6F30511954E361F366806F00105934ED4
:102A8000361D3668C6F3CC0616FB05F601EE106A55
:102A9000B8EE410A00296ED024B1012C4ED0022C90
:102AA0006AD16AE0894E303E3668C6F3401636B3C6
:102AB000864E303E3668C6F3C107854E26FA07F3C8
:102AC00001EE103AF8EE411A01EE101AB8EE411A72
:102AD00081EE812A9FED811AC0EE011A7B4E366885
:102AE000C6F3080601EE106AB8EE411A31EE811AFB
:102AF000F7EE001A31EE211A62EE010A1DE001EE36
:102B0000101AB8EE411ADFED761A81EE812A9FED98
:102B1000731AC0EE011A6D4E3668C6F3080601EE50
:102B2000106AB8EE411A31EE811AF7EE001A00E091
:102B300070E031EE211A62EE010A58E001EE101A3F
:102B4000B8EE411A9FED672AC2EE011A9FED631A93
:102B500080EE012A5D4E3668C6F3080601EE106A63
:102B6000B8EE411A32EE011AB7EE002A31EE021A1F
:102B700061EE810A3BE04BE01CE001EE101AB8EE7A
:102B8000411ADFED591A81EE812A9FED541AC0EEE9
:102B9000011A4E4E3668C6F3080601EE106AB8EE0A
:102BA000411A31EE811AF7EE001A31EE211A62EE67
:102BB000010A1CE001EE101AB8EE411A9FED492AF5
:102BC000C2EE011A9FED451A80EE012A3F4E36688B
:102BD000C6F3080601EE106AB8EE411A32EE011A89
:102BE000B7EE002A31EE021A61EE810A00BF00BF83
:102BF000364E3668C6F34626721C01EE102AB8EE31
:102C0000411AC0EE811ABCEEE11A11EE100A00E082
:102C1000002001E02F4800BF00BFF0BD2DE9F041CA
:102C200004460D4614B90120BDE8F0812F48006824
:102C300000F00F00A8420ED22C48006820F00F00D0
:102C400028432A4908600846006800F00F00A8429F
:102C500001D00120E8E7207800F00400042811D119
:102C60001A4918392069096801F07001884209D9A8
:102C700016481838006820F070002169084313498D
:102C800018390860207800F00800082811D10F4991
:102C900014396069096801F07001884209D90B484C
:102CA0001438006820F0700061690843074914393E
:102CB0000860207800F01000102822D10349143950
:102CC000A069096801F4E061884211E030440258CB
:102CD0000090D00300093D0000366E010000004660
:102CE0000024744C0024744A001BB74B002000528F
:102CF00007D9F748006820F4E060A1690843F44967
:102D00000860207800F02000202811D1F049091D2A
:102D1000E069096801F07001884209D9EC48001D9A
:102D2000006820F07000E1690843E949091D086066
:102D3000207800F00200022811D1E549091FE0685F
:102D4000096801F00F01884209D9E148001F0068B5
:102D500020F00F00E1680843DD49091F0860207872
:102D600000F00100002852D0D948001F006820F46C
:102D70007060A1680843D649091F0860606802288E
:102D800007D1D3481C380068C0F34040F8B901208F
:102D90004AE76068032807D1CD481C380068C0F3B3
:102DA0004060A0B901203FE76068012807D1C8480A
:102DB0001C380068C0F3002048B9012034E7C4483B
:102DC0001C380068C0F3800008B901202CE7C04817
:102DD0000C38006820F0070061680843BC490C39D2
:102DE000086005F0D0F9064608E005F0CCF9801B34
:102DF00041F28831884201D9032015E7B4480C38E4
:102E0000006800F038006168B0EBC10FEDD12078A8
:102E100000F00200022811D1AD49091FE0680968DD
:102E200001F00F01884209D2A948001F006820F074
:102E30000F00E1680843A649091F0860A54800681B
:102E400000F00F00A8420ED9A248006820F00F0041
:102E50002843A04908600846006800F00F00A84217
:102E600001D00120E0E6207800F00400042811D110
:102E70009749091F2069096801F07001884209D249
:102E80009348001F006820F07000216908439049B2
:102E9000091F0860207800F0080008280ED18C492E
:102EA0006069096801F07001884207D288480068AB
:102EB00020F070006169084385490860207800F0BF
:102EC000100010280ED18249A069096801F4E06160
:102ED000884207D27E48006820F4E060A169084378
:102EE0007B490860207800F02000202811D1784923
:102EF000091DE069096801F07001884209D274482F
:102F0000001D006820F07000E16908437049091D48
:102F10000860FFF782FD6E49091F0968C1F30321AC
:102F20006D4A7A44515C01F01F0120FA01F76848AC
:102F3000001F006800F00F001146085C00F01F0041
:102F400027FA00F06549494408606548484407602D
:102F500064484844006805F013F98046404663E63B
:102F600070B586B006460C4615463EBB00BF5E48AF
:102F7000006840F001005C4908600846006800F005
:102F80000100009000BF00BF4FF48070019002204C
:102F900002900320049000200390059001A953485B
:102FA00002F0E0F94A480C38006820F0FE7044EA6C
:102FB0000501084346490C39086026E000BF4A482D
:102FC000006840F00400484908600846006800F0C6
:102FD0000400009000BF00BF4FF400700190022079
:102FE00002900320049000200390059001A940481E
:102FF00002F0B8F936480C38006820F07E4044EA08
:10300000C511084332490C39086006B070BD30481C
:103010001C38006840F400202D491C3908607047B6
:103020002B481C38006820F4002029491C3908600E
:10303000704710B5FFF7F1FC2549091F0968C1F376
:1030400003212C4A7A44515C01F01F0120FA01F45B
:103050001F48001F006800F00F001146085C00F0D8
:103060001F0024FA00F01D49494408601C484844E8
:1030700004600846006810BD00B5FFF7DAFF144988
:103080000968C1F302111B4A7A44443A515C01F0C9
:103090001F01C84000BD00B5FFF7CBFF0C49096810
:1030A000C1F30221134A7A44623A515C01F01F01D4
:1030B000C84000BD3F21016005491C39096801F481
:1030C000A011B1F5802F17D14FF4A02141602BE062
:1030D0001C4402580020005230540000140000002C
:1030E000100000000800000040450258000002588F
:1030F000000802580E5300007C49096801F4A01131
:10310000B1F5A01F03D14FF4A81141600CE077493D
:10311000096801F48031B1F5803F03D14FF480316B
:10312000416001E0002141607049096801F08001BF
:10313000802901D1C16101E00021C1616B490C31DD
:103140000968C1F3056101626849096801F001017C
:1031500011B10121C16001E00021C1606349091D75
:103160000968C1F30661016160497031096801F0C5
:103170008401042902D10521816014E05B4970318A
:10318000096801F08401842902D1852181600AE067
:1031900056497031096801F0010111B101218160C6
:1031A00001E00021816051497431096801F0010199
:1031B00011B10121416101E0002141614B490968E0
:1031C00001F48051B1F5805F02D10121816101E0FC
:1031D000002181614549096801F08071B1F1807F6A
:1031E00002D10221416201E0012141623F492831BF
:1031F000096801F0030282623C4928310968C1F381
:103200000512C262394930310968C1F30801491C0D
:103210000163364930310968C1F30661491CC16355
:10322000324930310968C1F34621491C41632F49B5
:1032300030310968C1F30641491C81632B492C31A7
:10324000096801F00C02026428492C310968C1F3B5
:1032500040024264254934310968C1F3CC028264DA
:1032600070473F220260214A1032126802F00702C2
:1032700042601E4A1832126802F4706282601B4A71
:103280001832126802F00F02C260184A183212682F
:1032900002F070020261154A1C32126802F07002DC
:1032A0004261124A1C32126802F4E06282610F4AE3
:1032B0002032126802F07002C2610D4A126802F0F8
:1032C0000F020A607047704710B508486430006804
:1032D00000F48060B0F5806F06D1FFF7F4FF4FF483
:1032E000806002496831086010BD00000044025847
:1032F000002000522DE9F04104460E460027F9480F
:10330000006800F00300032802D10120BDE8F0812D
:10331000F4482838006820F08050F24928390860C5
:1033200004F031FF054606E004F02DFF401B0228A3
:1033300001D90320EAE7EB4828380068C0F3407061
:103340000028F1D100BFE748006820F07C70218898
:1033500040EA0150E3490860A088401EC0F308001D
:10336000A168491E4FF47E4202EA41210843A18927
:10337000491ED20102EA01410843217C491E120282
:1033800002EA01610843D7491831086000BFD548F7
:10339000001D006820F4406061690843D149091D9F
:1033A00008600846006820F40070A1690843CD4910
:1033B000091D08600846006820F480700860C9484C
:1033C0001C3000684FF6F8718843E16940EAC1009B
:1033D000C4491C310860C348001D006840F4807077
:1033E000C049091D08602EB90846006840F48000F5
:1033F000086012E0012E08D1BA48001D006840F4B0
:103400000000B849091D086007E0B648001D0068C3
:1034100040F08070B349091D0860B2482838006840
:1034200040F08050AF492839086004F0ACFE0546F2
:1034300006E004F0A8FE401B022801D9032065E73E
:10344000A84828380068C0F340700028F1D03846FA
:103450005CE72DE9F04104460E460027A1480068CC
:1034600000F00300032802D10120BDE8F0819D484F
:103470002838006820F080609A492839086004F0F4
:1034800082FE054606E004F07EFE401B022801D9BC
:103490000320EAE7934828380068C0F3C06000289A
:1034A000F1D100BF8F48006820F47C30216840EAE9
:1034B00001308C490860A088401EC0F30800A16854
:1034C000491E4FF47E4202EA41210843A189491E68
:1034D000D20102EA01410843217C491E120202EA9C
:1034E000016108437F491031086000BF7D48001D1D
:1034F000006820F0C000616908437A49091D08602E
:103500000846006820F02000A16908437549091D9C
:1035100008600846006820F0100008607148143008
:1035200000684FF6F8718843E16940EAC1006D49CF
:10353000143108606B48001D006840F010006949B4
:10354000091D08602EB90846006840F40020086094
:1035500012E0012E08D16348001D006840F480107D
:103560006049091D086007E05E48001D006840F4DE
:1035700000105C49091D08605A482838006840F06E
:10358000806058492839086004F0FDFD054606E0D2
:1035900004F0F9FD401B022801D9032065E75148DA
:1035A00028380068C0F3C0600028F1D038465CE7D6
:1035B0002DE9F04104460025A846206800F000608F
:1035C000B0F1006F32D1A06E48B1B0F5801F0FD0BE
:1035D000B0F5001F12D0B0F5401F17D115E04148DB
:1035E000001D006840F400303E49091D08600FE0EE
:1035F0000221201DFFF72DFF054609E0022104F1FD
:103600002400FFF777FE054602E001E0012500BF38
:1036100000BF55B933482830006820F44010A16E2F
:10362000084330492831086000E0A846208800F4AB
:103630008070B0F5807F2FD1606D05281CD2DFE847
:1036400000F0030C12191A002648001D006840F40F
:1036500000302449091D086010E00021201DFFF7FB
:10366000F8FE05460AE0002104F12400FFF742FEBF
:10367000054603E002E001E0012500BF00BF55B9A7
:1036800018482830006820F00700616D084315498C
:103690002831086000E0A846208800F40070B0F5EA
:1036A000007F39D1A06DC02825D005DC58B1402855
:1036B00012D0802822D117E0B0F5807F1CD0B0F561
:1036C000A07F1BD119E00748001D006840F40030BE
:1036D0000449091D086013E00021201DFFF7B9FE11
:1036E00005460DE028440258002104F12400FFF7AC
:1036F00001FE054604E003E002E001E0012500BF11
:1037000000BF45B9FA48006820F4E070A16D084395
:10371000F749086000E0A846208800F48060B0F512
:10372000806F3AD1E06DB0F5C06F25D007DC68B18D
:10373000B0F5007F13D0B0F5806F20D115E0B0F563
:10374000006F1AD0B0F5206F19D117E0E84824387F
:10375000006840F40030E6492439086011E0002197
:10376000201DFFF776FE05460BE0002104F1240042
:10377000FFF7C0FD054604E003E002E001E001259B
:1037800000BF00BF45B9DA48006820F46060E16D11
:103790000843D749086000E0A846206800F00070A0
:1037A000B0F1007F29D1A06CB0B1102804D020283E
:1037B0000BD0302811D10EE0CD482438006840F4F9
:1037C0000030CB492439086009E00221201DFFF7B1
:1037D00040FE054603E002E001E0012500BF00BF16
:1037E00055B9C348001F006820F03000A16C0843A1
:1037F000BF49091F086000E0A846208800F48050F7
:10380000B0F5805F36D1206EB0F5005F1BD004DCD0
:1038100050B1B0F5805F1FD10FE0B0F5405F19D017
:10382000B0F5804F18D116E0B1482438006840F454
:103830000030AF492439086010E00021201DFFF757
:1038400008FE05460AE0002104F12400FFF752FDBE
:10385000054603E002E001E0012500BF00BF45B9D5
:10386000A348006820F4E040216E0843A0490860A6
:1038700000E0A846208800F40050B0F5005F32D187
:10388000606EB0F5403F1DD007DC68B1B0F5803FF9
:103890000BD0B0F5003F18D10DE0B0F5802F12D05D
:1038A000B0F5A02F11D10FE011E00121201DFFF78D
:1038B000D0FD05460BE0012104F12400FFF71AFDBD
:1038C000054604E003E002E001E0012500BF00BF7F
:1038D00045B98748006820F4E020616E08438449B8
:1038E000086000E0A846208800F48040B0F5804FD2
:1038F00030D1D4F8AC0020F07041D1B900170728BE
:1039000017D2DFE800F004050B121314150012E0C3
:103910000121201DFFF79DFD05460CE0012104F16A
:103920002400FFF7E7FC054605E004E003E002E0C1
:1039300001E0012500BF00BF5DB96D480830006897
:1039400020F0E040D4F8AC10084369490831086021
:1039500000E0A846208800F40040B0F5004F26D1D2
:10396000606FA8B1B0F1805F03D0B0F1005F10D1FB
:1039700008E05F482438006840F400305C4924398E
:10398000086008E00121201DFFF763FD054602E005
:1039900001E0012500BF00BF45B95548006820F08F
:1039A0004050616F08435249086000E0A846206813
:1039B00000F08070B0F1807F29D1606CB0B1012837
:1039C00004D002280BD0032811D10EE04848243837
:1039D000006840F4003046492439086009E00221BB
:1039E000201DFFF736FD054603E002E001E001255A
:1039F00000BF00BF55B93E48001F006820F003001B
:103A0000616C08433A49091F086000E0A846206835
:103A100000F48000B0F5800F70D13648006840F4A3
:103A200080703449086004F0AEFB064606E004F0FE
:103A3000AAFB801B642801D9032505E02D480068F6
:103A400000F480700028F2D000BF85BB28482030E9
:103A5000006800F44070B4F8B01001F4407188427E
:103A600013D023482030006820F4407720482030CD
:103A7000006840F480301E49203108600846006824
:103A800020F48030086008460760D4F8B000B0F534
:103A9000807F15D104F077FB064609E004F073FB44
:103AA000801B41F28831884202D9032507E03BE0C0
:103AB0000F4820300068C0F340000028EED000BF5F
:103AC0007DBB00BFB4F8B00000F44070B0F5407F9B
:103AD00015D107484038006820F47C51064AD4F8D4
:103AE000B000104041EA10100149403908600CE074
:103AF0005044025800480258FFFCFF0F15E0FD48F3
:103B0000006820F47C50FB490860FA486030006887
:103B1000B4F8B010C1F30B010843F64960310860F6
:103B200003E0FFE7A84600E0A846207800F0010087
:103B300078B3D4F88000182819D005DC48B10828DB
:103B400008D0102816D10BE0202811D0282811D138
:103B50000FE011E00121201DFFF77BFC05460BE083
:103B6000012104F12400FFF7C5FB054604E003E052
:103B700002E001E0012500BF00BF5DB9DD4844302F
:103B8000006820F03800D4F880100843D949443147
:103B9000086000E0A846207800F00200022828D142
:103BA000E06F062815D2DFE800F003040A111213B3
:103BB00011E00121201DFFF74CFC05460BE001211F
:103BC00004F12400FFF796FB054604E003E002E061
:103BD00001E0012500BF00BF55B9C6484430006868
:103BE00020F00700E16F0843C2494431086000E05B
:103BF000A846207800F0040004282AD1D4F89800C0
:103C0000062815D2DFE800F003040A11121311E0B0
:103C10000121201DFFF71DFC05460BE0012104F1E9
:103C20002400FFF767FB054604E003E002E001E043
:103C3000012500BF00BF5DB9AE484830006820F0E4
:103C40000700D4F898100843AA494831086000E0FA
:103C5000A846207800F02000202836D1D4F894001F
:103C6000B0F1405F1DD007DC68B1B0F1805F0BD0D0
:103C7000B0F1005F18D10DE0B0F1804F12D0B0F17B
:103C8000A04F11D10FE011E00021201DFFF7E1FB53
:103C900005460BE0022104F12400FFF72BFB05464B
:103CA00004E003E002E001E0012500BF00BF5DB9D0
:103CB00090484430006820F0E040D4F89410084365
:103CC0008C494431086000E0A846207800F04000AC
:103CD000402836D1D4F8A000B0F5406F1DD007DCE5
:103CE00068B1B0F5806F0BD0B0F5006F18D10DE062
:103CF000B0F5805F12D0B0F5A05F11D10FE011E0F8
:103D00000021201DFFF7A5FB05460BE0022104F171
:103D10002400FFF7EFFA054604E003E002E001E0CB
:103D2000012500BF00BF5DB972484830006820F42B
:103D3000E050D4F8A01008436E494831086000E014
:103D4000A846207800F08000802836D1D4F8A4005E
:103D5000B0F5C04F1DD007DC68B1B0F5005F0BD0E7
:103D6000B0F5804F18D10DE0B0F5004F12D0B0F58E
:103D7000204F11D10FE011E00021201DFFF769FB5A
:103D800005460BE0022104F12400FFF7B3FA0546D3
:103D900004E003E002E001E0012500BF00BF5DB9DF
:103DA00054484830006820F46040D4F8A410084318
:103DB00050494831086000E0A846207800F008002B
:103DC000082817D1D4F88800B0F5805F07D1022108
:103DD00004F12400FFF78EFA08B14FF001084548BE
:103DE0004430006820F44050D4F88810084341491A
:103DF00044310860207800F01000102817D1D4F862
:103E00009C00B0F5807F07D1022104F12400FFF768
:103E100071FA08B14FF0010836484830006820F4C4
:103E20004070D4F89C10084332494831086020683B
:103E300000F40020B0F5002F28D1D4F8A80030B14C
:103E4000B0F5803F09D0B0F5003F0ED10CE0002165
:103E5000201DFFF7FEFA054609E0022104F12400C7
:103E6000FFF748FA054602E001E0012500BF00BF68
:103E70005DB920484830006820F44030D4F8A810DC
:103E800008431C494831086000E0A846206800F457
:103E90008020B0F5802F30D1D4F88C00B0F5801F91
:103EA00006D0B0F5001F0CD0B0F5401F11D10FE0C7
:103EB00010481C30006840F400300E491C31086086
:103EC00009E0012104F12400FFF714FA054602E09D
:103ED00001E0012500BF00BF75B906484430006805
:103EE00020F44010D4F88C10084302494431086093
:103EF00003E0000010440258A846206800F4803017
:103F0000B0F5803F22D1E06C18B1B0F5803F0DD103
:103F100006E0F748006840F40030F549086007E023
:103F20000221201DFFF795FA054601E0012500BF9B
:103F300000BF55B9EE482030006820F48030E16CB5
:103F40000843EB492031086000E0A846206800F0F3
:103F50000050B0F1005F07D1022104F12400FFF707
:103F6000C9F908B14FF00108206800F40030B0F53D
:103F7000003F27D1D4F8840090B1B0F5807F06D0FF
:103F8000B0F5007F0AD0B0F5407F0AD107E0D848ED
:103F9000006840F40030D649086004E003E002E025
:103FA00001E0012500BF00BF5DB9D148283000689D
:103FB00020F44070D4F884100843CD4928310860BB
:103FC00000E0A846206800F48010B0F5801F09D1F9
:103FD000C7482430006820F00040A16F0843C4495E
:103FE00024310860206800F40010B0F5001F09D1EA
:103FF000BF482430006820F08070E16E0843BC495F
:1040000024310860208800F40060B0F5006F09D109
:10401000B7482C30006820F00060216F0843B44995
:104020002C310860206800F08040B0F1804F11D141
:1040300000BFAF481C38006820F40040AC491C3970
:10404000086008460068D4F8B4100843A8491C3931
:10405000086000BF206800F00040B0F1004F09D1B7
:10406000A3482030006820F04050216D0843A0494B
:1040700020310860206800F40000B0F5000F0AD17C
:104080009B482830006820F44000D4F89010084382
:10409000974928310860B8F1000F02D10020BDE82F
:1040A000F0810120FBE793490160016841F00801BC
:1040B0000160016841F400710160016841F48061B0
:1040C0000160016841F400610160016841F0007124
:1040D0000160016841F0005101608549091F0968CC
:1040E000C1F305514162824914310968C1F30801E5
:1040F000491C81627E4914310968C1F30661491C7B
:1041000041637B4914310968C1F34621491CC162EE
:10411000774914310968C1F30641491C01637449A8
:104120000968C1F38122826371490968C1F34022A1
:10413000C2636F49091F0968C1F3053141606C49C9
:104140000C310968C1F30801491C816068490C31D0
:104150000968C1F30661491C416165490C31096870
:10416000C1F34621491CC16061490C310968C1F3A2
:104170000641491C01615E490968C1F381128261EF
:104180005B490968C1F34012C26159492831096885
:1041900001F038014430C16355492831096801F004
:1041A0000701816352492C31096801F0070141651B
:1041B0004F492831096801F4405141644C49283184
:1041C000096801F0E041016549492C31096801F4B1
:1041D000E051C16546492C31096801F4604101662E
:1041E00043492431096801F0070101614049243144
:1041F000096801F4E07141613D492431096801F425
:10420000606181613A494431096801F44071C166D5
:1042100037492831096801F440118164344920315B
:10422000096801F48031816031492831096801F45D
:10423000407101642E492C31096801F44031416616
:104240002B492431096801F0004141632849243198
:10425000096801F08071816225492C31096801F0FB
:104260000061C16222492431096801F440114162B0
:104270001F492431096801F4E041C1611C4924311E
:10428000096801F4E021016219492C31096801F043
:10429000E041816616492431096801F0405101630B
:1042A00013492831096801F44001C16410492031E3
:1042B000096801F0030101600D492031096801F02E
:1042C000300141600A492031096801F04051C16064
:1042D000443807491C39096801F4004119B9002123
:1042E000C0F8B41003E04FF40041C0F8B4107047B8
:1042F0002C440258F7F1FFC970B50146FE4D2D68F8
:1043000005F00303FC4D2D68C5F30530FA4D2D1D56
:104310002D68C5F30014F84D14352D68C5F3CC0590
:1043200015FB04F501EE105AB8EE411AF0EE410A01
:1043300000286FD023B1012B4ED0022B6BD16BE044
:10434000ED4D283D2D68C5F340153DB3EA4D283DA0
:104350002D68C5F3C106E94D25FA06F201EE102AD3
:10436000F8EE411A01EE100AB8EE411A81EE812AE8
:104370009FEDE31AC0EE811ADF4D10352D68C5F3AD
:10438000080501EE105AB8EE411A31EE811AF7EE27
:10439000001A31EE211A22EE010A1CE001EE100A89
:1043A000B8EE411ADFEDD71A81EE812A9FEDD41ABB
:1043B000C0EE811AD04D10352D68C5F3080501EE09
:1043C000105AB8EE411A31EE811AF7EE001A31EEAA
:1043D000211A22EE010A5BE001EE100AB8EE411A42
:1043E000DFEDC91A81EE812A9FEDC51AC0EE811A50
:1043F000C14D10352D68C5F3080501EE105AB8EE11
:10440000411A31EE811AF7EE001A31EE211A22EE2E
:10441000010A3DE077E01DE001EE100AB8EE411A16
:104420009FEDBA2AC2EE011A9FEDB51A80EE812ADD
:10443000B14D10352D68C5F3080501EE105AB8EEE0
:10444000411A32EE011AB7EE002A31EE021A21EEBD
:10445000810A1DE001EE100AB8EE411ADFEDAA1A3A
:1044600081EE812A9FEDA61AC0EE811AA24D103569
:104470002D68C5F3080501EE105AB8EE411A31EE69
:10448000811AF7EE001A31EE211A22EE010A00BF5E
:1044900000BF994D10352D68C5F3462501EE105A21
:1044A000B8EE411AF7EE001A31EE211AC0EE011AE9
:1044B000BCEEE11A81ED001A8F4D10352D68C5F361
:1044C000064501EE105AB8EE411AF7EE001A31EE29
:1044D000211AC0EE011ABCEEE11A81ED011A864DD7
:1044E00010352D68C5F3066501EE105AB8EE411A75
:1044F000F7EE001A31EE211AC0EE011ABCEEE11AF5
:1045000081ED021A03E000250D604D608D6070BDE5
:1045100070B50146784D2D6805F00303764D2D6882
:10452000C5F30510744D2D1D2D6805F00104724D65
:104530000C352D68C5F3CC0515FB04F501EE105ABA
:10454000B8EE411AF0EE410A00286FD023B1012BDA
:104550004ED0022B6BD16BE0674D283D2D68C5F323
:1045600040153DB3644D283D2D68C5F3C106634D2C
:1045700025FA06F201EE102AF8EE411A01EE100AB1
:10458000B8EE411A81EE812A9FED5D1AC0EE811AC4
:10459000594D08352D68C5F3080501EE105AB8EEDF
:1045A000411A31EE811AF7EE001A31EE211A22EE8D
:1045B000010A1CE001EE100AB8EE411ADFED511AB3
:1045C00081EE812A9FED4E1AC0EE811A4A4D0835C0
:1045D0002D68C5F3080501EE105AB8EE411A31EE08
:1045E000811AF7EE001A31EE211A22EE010A5BE081
:1045F00001EE100AB8EE411ADFED431A81EE812A6E
:104600009FED3F1AC0EE811A3B4D08352D68C5F36A
:10461000080501EE105AB8EE411A31EE811AF7EE94
:10462000001A31EE211A22EE010A3DE084E01DE07D
:1046300001EE100AB8EE411A9FED342AC2EE011ABB
:104640009FED2F1A80EE812A2B4D08352D68C5F37A
:10465000080501EE105AB8EE411A32EE011AB7EE13
:10466000002A31EE021A21EE810A1DE001EE100A45
:10467000B8EE411ADFED231A81EE812A9FED201A50
:10468000C0EE811A1C4D08352D68C5F3080501EEF2
:10469000105AB8EE411A31EE811AF7EE001A31EED7
:1046A000211A22EE010A00BF00BF134D08352D6804
:1046B000C5F3462501EE105AB8EE411AF7EE001A7E
:1046C00031EE211AC0EE011ABCEEE11A81ED001A9A
:1046D000094D08352D68C5F3064501EE105AB8EEB0
:1046E000411AF7EE001A31EE211AC0EE011ABCEEA3
:1046F000E11A81ED011A0BE0284402580090D00322
:10470000000000460024744C0024744A001BB74B80
:10471000F84D08352D68C5F3066501EE105AB8EE60
:10472000411AF7EE001A31EE211AC0EE011ABCEE62
:10473000E11A81ED021A03E000250D604D608D60E5
:1047400070BD70B50146EB4D2D6805F00303E94DD2
:104750002D68C5F30550E74D2D1D2D68C5F30024C8
:10476000E44D1C352D68C5F3CC0515FB04F501EEB1
:10477000105AB8EE411AF0EE410A00286FD023B16A
:10478000012B4ED0022B6BD16BE0DA4D283D2D680A
:10479000C5F340153DB3D74D283D2D68C5F3C1067F
:1047A000D54D25FA06F201EE102AF8EE411A01EE77
:1047B000100AB8EE411A81EE812A1FED2F1AC0EEC1
:1047C000811ACC4D18352D68C5F3080501EE105A35
:1047D000B8EE411A31EE811AF7EE001A31EE211AC5
:1047E00022EE010A1CE001EE100AB8EE411A5FED5C
:1047F0003B1A81EE812A1FED3E1AC0EE811ABD4D93
:1048000018352D68C5F3080501EE105AB8EE411AA7
:1048100031EE811AF7EE001A31EE211A22EE010A6A
:104820005BE001EE100AB8EE411A5FED491A81EE25
:10483000812A1FED4D1AC0EE811AAE4D18352D6834
:10484000C5F3080501EE105AB8EE411A31EE811A8F
:10485000F7EE001A31EE211A22EE010A3DE077E070
:104860001DE001EE100AB8EE411A1FED582AC2EE03
:10487000011A1FED5D1A80EE812A9E4D18352D68B4
:10488000C5F3080501EE105AB8EE411A32EE011ACE
:10489000B7EE002A31EE021A21EE810A1DE001EE88
:1048A000100AB8EE411A5FED681A81EE812A1FEDF9
:1048B0006C1AC0EE811A8F4D18352D68C5F30805A6
:1048C00001EE105AB8EE411A31EE811AF7EE001AD5
:1048D00031EE211A22EE010A00BF00BF854D1835C6
:1048E0002D68C5F3462501EE105AB8EE411AF7EED1
:1048F000001A31EE211AC0EE011ABCEEE11A81ED68
:10490000001A7C4D18352D68C5F3064501EE105A86
:10491000B8EE411AF7EE001A31EE211AC0EE011A74
:10492000BCEEE11A81ED011A724D18352D68C5F300
:10493000066501EE105AB8EE411AF7EE001A31EE94
:10494000211AC0EE011ABCEEE11A81ED021A03E051
:1049500000250D604D608D6070BD10B5FEF769FBE0
:10496000644908390968C1F30211644A7A44515C08
:1049700001F01F01C84010BD2DE9F0418AB0074683
:10498000B7F5807F71D15B482830006800F00708D8
:10499000B8F1050F65D2DFE808F00312216230009C
:1049A00054482838006800F00070B0F1007F04D14E
:1049B00007A8FFF7ADFD089C00E0002453E04D4838
:1049C0002838006800F00060B0F1006F04D104A83E
:1049D000FFF792FC049C00E0002444E0454828389E
:1049E000006800F00050B0F1005F04D101A8FFF7AB
:1049F000A8FE019C00E0002435E03E482430006819
:104A000000F040553B482838006800F004000428B6
:104A100009D145B9374828380068C0F3C101364884
:104A200020FA01F41AE033482838006800F4807056
:104A3000B0F5807F04D1B5F1805F01D1304C0DE03D
:104A40002C482838006800F40030B0F5003F04D14D
:104A5000B5F1005F01D12B4C00E0002403E02A4CAB
:104A600001E0002400BFBCE2FFE7B7F5007F71D191
:104A700020482830006800F4E078B8F1800F2CD08E
:104A800006DCB8F1000F0AD0B8F1400F76D115E07E
:104A9000B8F1C00F70D0B8F5807F6FD138E01548FD
:104AA0002838006800F00070B0F1007F04D107A83A
:104AB000FFF72EFD089C00E0002461E00D48283837
:104AC000006800F00060B0F1006F04D104A8FFF7A7
:104AD00013FC049C00E0002452E0064828380068DB
:104AE00000F00050B0F1005F10D101A8FFF729FEDF
:104AF000019C0CE0284402580090D003E6390000E5
:104B000000093D0000366E010080BB00002437E044
:104B1000FA48006800F04055F8484C38006800F04A
:104B20000400042809D145B9F4484C380068C0F3A2
:104B3000C101F34820FA01F41DE0F0484C38006848
:104B400000F48070B0F5807F05D1B5F1805F02D1AF
:104B5000EC4C10E015E0E9484C38006800F40030F7
:104B6000B0F5003F06D1B5F1005F03D1E64C02E09D
:104B700004E001E0002403E0E44C01E0002400BF75
:104B80002FE2B7F5806F7AD1DC48001D006800F491
:104B90006068B8F5806F2CD006DCB8F1000F0AD041
:104BA000B8F5007F68D115E0B8F5C06F62D0B8F5F0
:104BB000006F61D12CE0D1484C38006800F00070E3
:104BC000B0F1007F04D107A8FFF7A2FC089C00E029
:104BD000002453E0C9484C38006800F00060B0F190
:104BE000006F04D104A8FFF787FB049C00E00024B9
:104BF00044E0C2484C38006800F00050B0F1005F5B
:104C000004D101A8FFF79DFD019C00E0002435E0E0
:104C1000BA48006800F04055B8484C38006800F0C9
:104C20000400042809D145B9B4484C380068C0F3E1
:104C3000C101B34820FA01F41BE0B0484C380068C9
:104C400000F48070B0F5807F04D1B5F1805F01D1B0
:104C5000AC4C0EE0A9484C38006800F40030B0F5C8
:104C6000003F05D1B5F1005F02D1A74C01E006E09D
:104C7000002403E0A54C01E0002400BFB1E1B7F53A
:104C8000805F78D19D48001D006800F4E046B6F5CD
:104C9000005F2AD004DC56B1B6F5805F68D115E01C
:104CA000B6F5405F62D0B6F5804F61D12CE09348F5
:104CB0004C38006800F00070B0F1007F04D107A804
:104CC000FFF726FC089C00E0002453E08B484C389A
:104CD000006800F00060B0F1006F04D104A8FFF795
:104CE0000BFB049C00E0002444E084484C3800683E
:104CF00000F00050B0F1005F04D101A8FFF721FDE2
:104D0000019C00E0002435E07C48006800F040553C
:104D10007A484C38006800F00400042809D145B9ED
:104D200076484C380068C0F3C101754820FA01F498
:104D30001BE072484C38006800F48070B0F5807F4A
:104D400004D1B5F1805F01D16E4C0EE06B484C3858
:104D5000006800F40030B0F5003F05D1B5F1005F08
:104D600002D1694C01E006E0002403E0674C01E059
:104D7000002400BF35E1B7F5002F5ED15F480C304D
:104D8000006800F4403636B1B6F5803F12D0B6F573
:104D9000003F4FD11DE059484C38006800F00060DA
:104DA000B0F1006F04D104A8FFF7A6FA049C00E05C
:104DB000002441E051484C38006800F00050B0F148
:104DC000005F04D101A8FFF7BCFC039C00E00024B5
:104DD00032E04A48006800F0405548484C380068C6
:104DE00000F00400042809D145B944484C38006853
:104DF000C0F3C101424820FA01F41AE03F484C38A0
:104E0000006800F48070B0F5807F04D1B5F1805F58
:104E100001D13C4C0DE039484C38006800F40030BA
:104E2000B0F5003F04D1B5F1005F01D1364C00E090
:104E3000002401E0002400BFD3E0B7F5803F29D172
:104E40002E48006800F480361EB1B6F5803F1ED1B2
:104E50000EE02A484C38006800F00070B0F1007F86
:104E600004D107A8FFF754FB089C00E0002410E0E1
:104E700022484C38006800F00060B0F1006F04D1A7
:104E800004A8FFF739FA069C00E0002401E00024A2
:104E900000BFA6E0B7F5804F68D118480C30006815
:104EA00000F0E04626F0704090BB301707285AD239
:104EB000DFE800F004081731414C5700FFF74DFDC3
:104EC000044652E00D484C38006800F00060B0F134
:104ED000006F04D104A8FFF70FFA059C00E000243E
:104EE00043E006484C38006800F00050B0F1005F25
:104EF0000FD101A8FFF725FC029C0BE04C4402589F
:104F00000090D00300093D0000366E010080BB0018
:104F100029E0002429E0FE48006800F0040004288D
:104F200007D1FB480068C0F3C101FA4820FA01F438
:104F300000E0002419E0F648006800F48070B0F545
:104F4000807F01D1F44C00E000240EE0F0480068BE
:104F500000F40030B0F5003F01D1F04C00E0002437
:104F600003E0EF4C01E0002400BF3AE0B7F5004F4A
:104F700036D1E7485030006800F0405636B1B6F1FF
:104F8000805F0ED0B6F1005F27D118E0E0480068DE
:104F900000F40030B0F5003F01D1E04C00E0002407
:104FA0001DE0DB48006800F00070B0F1007F04D124
:104FB00007A8FFF7ADFA089C00E000240FE0D448F2
:104FC000006800F00060B0F1006F04D104A8FFF7A2
:104FD00093F9059C00E0002401E0002400BF00E0FC
:104FE000002420460AB0BDE8F08110B5FEF721F894
:104FF000C74918310968C1F30211CA4A7A44515CA1
:1050000001F01F01C84010BD10B5FDF706FDC049F5
:1050100018310968C1F30321C24A7A441E3A515C2F
:1050200001F01F0120FA01F4B9481830006800F0BF
:105030000F001146085C00F01F0024FA00F0BA4986
:1050400049440860B94848440460204610BDB0484F
:105050007030006840F02000AD4970310860704742
:10506000AB487030006820F02000A949703108601A
:10507000A7486030006820F40070A54960310860DE
:105080007047A3487030006840F02000A04970319C
:1050900008609F486030006840F400709C496031AF
:1050A0000860A348006840F480204FF0B041C1F888
:1050B00080000846006840F48020086070479449EA
:1050C0001031096821F040010143914A103211600A
:1050D00070478F491031096821F0800101438C4AE3
:1050E00010321160704770B50446894894300068EA
:1050F00040F002008649943108600846006820F0BC
:105100000200086001F053FF41F20301884208D811
:105110006068B0F1405F04D1A168206840EA0105F1
:1051200005E0D4E900010843A16840EA0105E06810
:105130000543208A45EA00457E480560001F006857
:1051400020F47C50616940EA01207A49091F086017
:105150000846006840F06000086070BD7548001F98
:10516000006840F080007349091F0860704771496A
:10517000096889B201606F49091F0968C1F30521F7
:1051800041606C49091D0968090C81606949091D64
:10519000096801F40041C160704770B505460024FC
:1051A00002F0F1FF064600BF681C30B102F0EBFFD1
:1051B000801BA84200D805B901245E48001D006884
:1051C00000F0010038B144F0020400BF0120594949
:1051D0000831086000BF5748001D006800F0020059
:1051E000022806D144F0040400BF52490831086087
:1051F00000BF5048001D006800F48060B0F5806F6B
:1052000007D144F0200400BF04204A490831086057
:1052100000BF4848001D006800F48070B0F5807F32
:1052200007D144F0080400BF042042490831086057
:1052300000BF4048001D006800F40070B0F5007F1A
:1052400007D144F0100400BF04203A490831086037
:1052500000BF3848001D006800F00800082804D18D
:1052600000BF34490831086000BF002C9CD02046A4
:1052700070BD704770477047704770B500252D4866
:10528000001D04682B48001F066804F0010048B1A7
:1052900006F0010030B10120264908310860FFF70F
:1052A000EBFF4BE004F0020048B106F0020030B121
:1052B0000220204908310860FFF7DDFF3EE004F0DE
:1052C000080048B106F0080030B10820194908313B
:1052D0000860FFF7CFFF31E004F00400B8B106F03A
:1052E0000400A0B104F4807008B145F0080504F48E
:1052F000007008B145F0100504F4806008B145F075
:10530000200504200B4908310860284614E015E008
:10531000004402580090D00300093D0000366E01A1
:105320000080BB0056330000140000001000000095
:105330008000005804840040FFF79BFF70BD704759
:1053400010B50748006800F40070B0F5007F06D182
:105350004FF400700249091D0860FFF7F0FF10BD0F
:1053600064440258F8B502460B460021E04DD7E0F0
:1053700001278F401E6806EA0704002C72D01E79B0
:1053800006F00306012E04D01E7906F00306022E55
:1053900013D190684F000326BE40B0434F00DE6833
:1053A000BE4030439060506801268E40B0431E7965
:1053B000C6F300168E40304350601E7906F0030697
:1053C000032E09D0D0684F000326BE40B0434F00E3
:1053D0009E68BE403043D0601E7906F00306022E60
:1053E00013D1CF0802F1200656F827004E07F70E1A
:1053F0000F26BE40B0434F07FF0E1E69BE4030432C
:10540000CF0802F1200646F8270010684F00032657
:10541000BE40B0431E7906F003064F00BE40304345
:1054200010605E6806F44036002E78D000BFB14EA2
:10543000366846F00206AF4F3E603E46366806F0DC
:105440000206009600BF00BFAB4E8F0856F827003B
:105450008E07370F0F26BE40B043A84EB24202D18E
:1054600000262EE05BE0A64EB24201D1012628E0E4
:10547000A44EB24201D1022623E0A34EB24201D192
:1054800003261EE0A14EB24201D1042619E0A04E2F
:10549000B24201D1052614E09E4EB24201D1062649
:1054A0000FE09D4EB24201D107260AE09B4EB24268
:1054B00001D1082605E09A4EB24201D1092600E04A
:1054C0000A268F073F0FBE4030438B4E8F0846F8A9
:1054D00027004FF0B0463068A0435E6806F480169F
:1054E00006B120434FF0B04630607068A0435E685C
:1054F00006F4001606B120434FF0B04670606868AD
:10550000A0435E6806F4003606B120436860286850
:10551000A0435E6806F4803606B120432860491C2B
:105520001E68CE40002E7FF423AFF8BDF0B50C46C8
:1055300000216F4B98E001268E4006EA0402002A03
:105540007ED06D4E8F0856F827508E07370F0F26E6
:10555000BE403540694EB04201D100262DE0684E74
:10556000B04201D1012628E0664EB04201D10226A8
:1055700023E0654EB04201D103261EE0634EB042E7
:1055800001D1042619E0624EB04201D1052614E093
:10559000604EB04201D106260FE05F4EB04201D10D
:1055A00007260AE05D4EB04201D1082605E05C4EB8
:1055B000B04201D1092600E00A268F073F0FBE4006
:1055C000AE421FD11E6896431E605E6896435E60C1
:1055D0004FF0B046766896434FF0B0477E603E4647
:1055E000366896433E608E07370F0F2606FA07F59A
:1055F000414E8F0856F82760AE433F4F4FEA910C5B
:1056000047F82C6006684FEA410C032707FA0CF7AD
:105610003E430660CF0800F1200656F827604F078A
:105620004FEAD76C0F2707FA0CF7BE434FEAD10CAD
:1056300000F1200747F82C60C6684FEA410C00E0F3
:1056400011E0032707FA0CF7BE43C660476801263E
:105650008E40B743476086684FEA410C032707FA3C
:105660000CF7BE438660491C24FA01F6002E7FF435
:1056700062AFF0BD024613690B400BB1012000E0A0
:10568000002070470AB1816101E00B04836170471B
:1056900010B5426921EA020302EA010443EA044325
:1056A000836110BD08B502464FF480300090009829
:1056B000084300900098D061D1610098D061D06912
:1056C0000090D06900F4803008B1002008BD0120AE
:1056D000FCE7704710B504460548083000682040D4
:1056E00028B10348083004602046FFF7F2FF10BDE0
:1056F0008000005854450258080400580000025821
:105700000004025800080258000C02580010025809
:105710000014025800180258001C025800200258B9
:105720000024025810B5024641F4807040F0004059
:10573000334C04EB8203C3F80008234603EB8200DA
:10574000D0F8000841F4807343F00043984201D13F
:10575000002010BD0120FCE701462A4850F8210036
:10576000294A904201D1002070470120FCE7014600
:10577000234A02EB8100D0F80008C00F704710B533
:1057800041F480721E4C04EB8003C3F8002810BD66
:10579000020442EA01221B4BC0331A6070471949C8
:1057A000C431096860F31F41164AC4321160704762
:1057B0001448C4300068000C7047124980310968F1
:1057C0000143104A8032116070470E4980310968E8
:1057D00081430C4A803211607047704710B5094808
:1057E0008C300468074880300068A0430549803148
:1057F0000860081D04602046FFF7EFFF10BD0000A1
:10580000000002488008024800010080D0E903231C
:105810001A430368DA60D0E905231A43C3691A43BF
:10582000036A1A43436A1A43C36A1A43036B1A434F
:10583000038D5B1E42EA834283681A4303681A6140
:105840004268B2F1804F05D10268126942F04042CD
:1058500003681A61002203685A61426B002A0BDA5E
:105860000268526942F4802203685A61426B5142D5
:105870008AB203681A6203E0828E92B203681A62E7
:10588000826B002A0EDA0268526942F40022036831
:105890005A61826B51420268126A42EA014203680D
:1058A0001A6206E00268136A028F43EA0242036842
:1058B0001A624268B2F1804F03D0027903689A629B
:1058C00002E0002203689A62002203685A6270476D
:1058D00070B5044602F057FC05460CB9012070BDB6
:1058E00000BF002084F83C0000BF022084F83D0087
:1058F0002068C06820F001002168C8600BE002F059
:1059000042FC401B052806D94020A066032084F8ED
:105910003D000120E3E72068C06800F00100002896
:10592000EDD12046FFF772FF0020E065206660663B
:10593000A066012084F83D000020D0E7014609B9A7
:10594000012070470868C06820F001000A68D06034
:1059500000200A68D0600A6810610A6850610A680D
:1059600090610A68D0610A6810620A6850620A6829
:1059700090620A6810630A6850631F200A685060CA
:105980000020C86508664866886681F83D0000BF4B
:1059900081F83C0000BF00BFD3E730B503460024C8
:1059A0000BB9012030BD00BF93F83C00012801D1A4
:1059B0000220F7E7012083F83C0000BF93F83D0088
:1059C000012819D11868006900F0804090B9186862
:1059D00001631868426331B91868006920F000401B
:1059E0001D68286109E01868006940F000401D68E2
:1059F000286102E0012400E0012400BF002083F8B8
:105A00003C0000BF2046CDE710B5034600240BB98B
:105A1000012010BD00BF93F83C00012801D10220F5
:105A2000F7E7012083F83C0000BF93F83D00012810
:105A300014D1062910D2DFE801F0030507090B0D88
:105A40005A640AE09A6408E0DA6406E01A6504E041
:105A50005A6502E09A6500E000BF00E0012400BF43
:105A6000002083F83C0000BF2046D2E70246002316
:105A70000AB90120704700BF92F83C00012801D10B
:105A80000220F7E7012082F83C0000BF92F83D00B9
:105A9000012824D107291FD2DFE801F004070A0DED
:105AA000101316000020506418E00020906415E0E8
:105AB0000020D06412E0002010650FE00020506547
:105AC0000CE00020906509E0002050649064D064F0
:105AD00010655065906501E0012300BF00E00123DF
:105AE00000BF002082F83C0000BF1846C2E730B576
:105AF000024602B109B9012030BD00205061906119
:105B000010625062D061D1E9040528438D692843B1
:105B1000CD6928430D6A28438D6A2843CD6A2843FE
:105B20008D8C6D1E40EA85404D68284310600868E2
:105B3000B0F1804F03D1106840F0804010600868D9
:105B4000B0F1804F01D0886C18B1106840F000406F
:105B50001060B1F84400401EFE4D05EA0050506050
:105B6000086B002808DA506840F480205060086B09
:105B70004442A0B2106102E0088E80B21061486B0E
:105B800000280ADA506840F400205060486B444214
:105B9000106940EA0440106104E010698D8E40EA0B
:105BA0000540106150680D6C28435060C86BD06090
:105BB000886B90600868B0F1804F05D008789061DC
:105BC000886C1062C86C5062886B00F07F43B3F140
:105BD000005F00D01BB9906940F480309061C86BC1
:105BE00000F07F43B3F1005F00D01BB9906940F42F
:105BF0000030906100207FE7F0B503461446002591
:105C00000027002603B109B90120F0BD00BF93F8B9
:105C10003C00012801D10220F7E7012083F83C0075
:105C200000BF93F83D00012851D1022083F83D00C8
:105C3000D86D58B944B918684162D96500204861E7
:105C400019660120586638E0012636E0D86D884292
:105C500032D0DA6D05E05069884200D101265269E0
:105C60006D1C586EA84201D9002EF4D01EBB186ED0
:105C7000A04200D04CB9186E40694861186E41616D
:105C80001966586E401C586617E0DA6D00250BE067
:105C90006D1CA24207D1506948615161586E401C89
:105CA0005866012700E05269586EA84201D9002FBA
:105CB000EED007B9012600E0012600BF002083F8DE
:105CC0003C0000BF012083F83D0030469DE700BF47
:105CD000002083F83C0000BF022096E7F0B50246A2
:105CE00000250024002602B109B90120F0BD00BF43
:105CF00092F83C00012801D10220F7E7012082F848
:105D00003C0000BF92F83D0001284CD1022082F8EF
:105D10003D00D06D18B1106E08B1506E08B9012663
:105D200037E0D06D88421BD1106E884206D100202A
:105D3000D06510665066176878622AE0D2E91707C6
:105D40007F69B84202D14869176E7861486917685F
:105D500078621068406AD065506E401E506618E048
:105D6000D36D0FE06D1C586988420AD1106E8842CD
:105D700000D11366486958610124506E401E506678
:105D800000E05B69506EA84201D9002CEAD004B94A
:105D9000012600BF002082F83C0000BF012082F8ED
:105DA0003D003046A2E700BF002082F83C0000BF63
:105DB00002209BE70146002209B90120704700BF7D
:105DC00091F83C00012801D10220F7E7012081F879
:105DD0003C0000BF91F83D0001280DD1022081F860
:105DE0003D00C86D18B1086E08B1486E08B90122AF
:105DF00002E0D1E91703586100BF002081F83C00A0
:105E000000BF012081F83D001046D7E7014600227F
:105E100009B90120704700BF91F83C00012801D169
:105E20000220F7E7012081F83C0000BF91F83D0017
:105E300001280DD1022081F83D00C86D18B1086E0F
:105E400008B1486E08B9012202E000200B6E5861CB
:105E500000BF002081F83C0000BF012081F83D0018
:105E60001046D7E7F0B50C46059D0668766963F3E2
:105E7000100607687E616F1E0668766967F31F5615
:105E800007687E611F2607687E600668F261066803
:105E9000B46104F07F41B1F1005F00D031B9066810
:105EA000B66A46F480360768BE6205E00668B66AE0
:105EB00026F480360768BE6202F07F41B1F1005FD0
:105EC00000D031B90668B66A46F400360768BE628B
:105ED00005E00668B66A26F400360768BE62076801
:105EE000C66D7E62F0BD2DE9F84304460D461646A8
:105EF0001F46DDF8208014B90120BDE8F88300BFFB
:105F000094F83C00012801D10220F6E7012084F832
:105F10003C0000BF94F83D00012827D1022084F8FE
:105F20003D000020A0662068C06820F001002168C4
:105F3000C8603B46324629462046CDF80080FFF730
:105F400091FF2068C06840F001002168C860606867
:105F500002E000000000F0FFB0F1804F0DD120689A
:105F6000C06840F480302168C86006E000BF0020AF
:105F700084F83C0000BF0220BFE70020BDE72DE908
:105F8000F84304460D4616461F46DDF8208014B936
:105F90000120BDE8F88300BF94F83C00012801D13E
:105FA0000220F6E7012084F83C0000BF94F83D0091
:105FB000012841D1022084F83D000020A06620681D
:105FC000C06820F001002168C8603B46324629467F
:105FD0002046CDF80080FFF745FF2068C06840F0FC
:105FE00006002168C860E06C28B12068C06840F0F5
:105FF00010002168C860206D28B12068C06840F09A
:1060000008002168C860A06C28B12068C06840F012
:1060100020002168C8602068C06840F00100216845
:10602000C8606068B0F1804F0DD12068C06840F44E
:1060300080302168C86006E000BF002084F83C0082
:1060400000BF0220A5E70020A3E770B5044602F0D8
:106050009AF805460CB9012070BD94F83D0002285D
:1060600008D08020A06600BF002084F83C0000BF5C
:106070000120F1E72068C06820F03E002168C86078
:106080002068C06820F001002168C86012E002F0BA
:106090007AF8401B05280DD9A06E40F04000A0669C
:1060A00000BF002084F83C0000BF032084F83D00BE
:1060B0000120D1E72068C06800F001000028E6D187
:1060C0001F202168486000BF002084F83C0000BF0A
:1060D000012084F83D000020BEE7014609B90120F7
:1060E000704791F83D00022803D080208866012087
:1060F000F6E7042081F83D000868C06820F0010040
:106100000A68D0600020EBE72DE9F04704460D4611
:10611000174614B90120BDE8F08794F83D00022825
:1061200003D08020A0660120F5E70DB9022008E029
:10613000012D01D1102004E0022D01D1082000E042
:106140000420824602F01FF8804645E0206800687F
:1061500000F0010070B32068866806F0800020B966
:10616000A06E40F00100A06603E0A06E40F00200C7
:10617000A06606F4007018B1A06E40F00400A0669E
:1061800006F4807018B1A06E40F00800A06606F416
:10619000806018B1A06E40F01000A06606F40060A8
:1061A00018B1A06E40F02000A0662046FFF74DFF1A
:1061B0000120B0E7781C78B101F0E5FFA0EB080002
:1061C000B84200D847B9A06E40F04000A066204613
:1061D000FFF73BFF01209EE72068006800EA0A0005
:1061E0000028B3D0012D03D11020216848601AE0A7
:1061F000022D03D118202168486014E0032D03D13B
:106200001C20216848600EE05DB91E2021684860AE
:1062100000BF002084F83C0000BF012084F83D004E
:1062200001E0012077E7002075E7014609B9012068
:1062300070470868006900F080420868C06800F094
:10624000010018B9802088660120F1E7086800681D
:1062500000F4803000B922B94FF4807088660120C4
:10626000E6E70868C06840F480300B68D86000201A
:10627000DEE7F8B5044600200090794848440068FD
:106280004FF41651B0FBF1F6208800F5F860C0F32A
:106290008411012000FA01F74FF0A4400068384053
:1062A00000B9F8BD2068006800F00100B8B32068AC
:1062B000C06800F0020090B32068C06820F00200BF
:1062C0002168C8602068856805F0800020B9A06E4C
:1062D00040F00100A06603E0A06E40F00200A0665E
:1062E00005F4007018B1A06E40F00400A06605F43B
:1062F000807018B1A06E40F00800A06605F48060C0
:1063000018B1A06E40F01000A06605F4006018B14E
:10631000A06E40F02000A06601202168486020683F
:10632000006800F0100060B12068C06800F0200034
:1063300038B1102021684860A06C10B12046A16CD3
:1063400088472068006800F0080060B12068C068D5
:1063500000F0100038B1082021684860E06C10B1EE
:106360002046E16C88472068006800F0040060B1B6
:106370002068C06800F0080038B104202168486037
:10638000206D10B12046216D88472068006800F01C
:10639000020060B32068C06800F0040038B32068D1
:1063A000C06820F03E002168C86094F83D000428D1
:1063B0000DD100BF002084F83C0000BF012084F80C
:1063C0003D00A06D10B12046A16D884769E702200D
:1063D0002168486000BF002084F83C0000BF012015
:1063E00084F83D00606C10B12046616C8847A06E57
:1063F00060B3042084F83D002068C06820F00100EC
:106400002168C86000BF0098401C0090B04200D9CD
:1064100005E02068C06800F001000028F3D100BF4B
:1064200000BF002084F83C0000BF2068C06800F076
:10643000010018B1032084F83D0002E0012084F837
:106440003D00606D10B12046616D884700BF28E7B0
:10645000014691F83D0070470146886E7047000084
:106460001000000070478C48006840F480708A4932
:10647000086070478848006820F48070864908608A
:10648000704700B970478449096821F0E00102684B
:106490001143814A11608149096821F480314FF02C
:1064A000B042C2F884101146D1F8801021F4803136
:1064B000C2F880101146096821F48031116011463C
:1064C000496821F480315160416801F48031B1F5AF
:1064D000803F06D17149091F096841F48031C2F833
:1064E0008010416801F40031B1F5003F07D16B49DC
:1064F000096841F480314FF0B042C2F8841001794C
:1065000001F0010139B14FF0B041096841F4803127
:106510004FF0B0421160017901F00201022907D168
:106520004FF0B041496841F480314FF0B0425160C2
:1065300000BFA7E75848006840F0100056490860BF
:1065400070475548006820F01000534908607047B4
:10655000514928310968524A114001434E4A2832B4
:10656000116070474C492831096800F03F0291439F
:10657000494A2832116070474A4A126822F00402E0
:10658000484B1A60012901D130BF00E020BF70479D
:10659000414A126822F0010202433F4B1A603E4A10
:1065A0001032126822F005023B4B10331A603D4A4C
:1065B000126842F004023B4B1A6000BF00BF00BFEC
:1065C000BFF34F8F00BF00BF00BF00BF00BF00BFC1
:1065D000BFF36F8F00BF00BF00BF012901D130BFE3
:1065E00000E020BF2F4A126822F004022D4B1A60EF
:1065F000704729481030006840F0050026491031E6
:1066000008602848006840F004002649086000BF80
:1066100000BF00BFBFF34F8F00BF00BF00BF00BF70
:1066200000BF00BFBFF36F8F00BF00BF00BF00BF40
:1066300000BF30BF70471B48006840F00200194996
:10664000086070471748006820F00200154908608C
:1066500070471448006840F0100012490860704705
:106660001048006820F010000E490860704770471D
:1066700010B50A48001D0068C0F3004050B107483B
:10668000001D006840F480304FF0B041C1F8880030
:10669000FFF7EDFF10BD00000048025884000058CD
:1066A000C0C000F010ED00E070B50446F848006886
:1066B000C0F3800048B9F648006800F00700A04227
:1066C00001D0012070BD0020FCE7F148006820F0F7
:1066D00007002043EE49086001F055FD054607E03C
:1066E00001F051FD401BB0F57A7F01D90120E9E7A7
:1066F000E74808380068C0F340300028F0D0002098
:10670000E0E7E348006800F00700704770B5044612
:10671000DF480838006800F44040A04201D1002062
:1067200070BDDB480C30006820F440402043D8495D
:106730000C31086001F027FD054607E001F023FD5C
:10674000401BB0F57A7F01D90120E9E7D04808382D
:106750000068C0F340300028F0D00020E0E7CC48CB
:106760000838006800F4404070470146C8480C38BB
:10677000006820F440400843C54A0C3A10600020ED
:106780007047C3480C38006800F440407047C04A66
:106790000C3A126822F001020243BD4B0C3B1A6016
:1067A000BB4A121D126842F00102B94B1B1D1A6050
:1067B0001A46126822F004021A60B64A126842F0C1
:1067C0000402B44B1A6000BF00BF00BFBFF36F8F5D
:1067D00000BF00BF00BF00BF00BF00BFBFF34F8FAF
:1067E00000BF00BF00BF012901D130BF00E020BFC2
:1067F000A84A126822F00402A64B1A60704710B52E
:10680000A34B0C3B1B6823F001030343A04C0C3C3F
:1068100023604ABB9E4B1B1D1B6823F001039C4C4D
:10682000241D23609B4B1B6843F00403994C236099
:1068300000BF00BF00BFBFF34F8F00BF00BF00BF4E
:1068400000BF00BF00BFBFF36F8F00BF00BF00BF1E
:10685000012901D130BF00E020BF8E4B1B6823F01F
:1068600004038C4C236007E0894B1B1D1B6823F03D
:106870000403874C241D236010BD20BF704788B9D6
:106880008349091D096841F00101814A121D116007
:106890008049096841F004017E4A116000BF00BFD1
:1068A00030BF07E07A49091D096841F00401784AC0
:1068B000121D116070477649091D096821F40061B5
:1068C0000143734A121D1160704771480C3800680B
:1068D00040F400706E490C39086070476C480C3801
:1068E000006820F400706A490C39086070476849F4
:1068F0000C3909680143664A0C3A116070476449D3
:106900000C3909688143624A0C3A11607047F0B54E
:106910004FF44033D0E9005495FAA5F5B5FA85F562
:10692000083505F01F05AC4005682C43066896FA4B
:10693000A6F6B6FA86F6102707EB460606F01F06FF
:106940008568B54044EA0501046894FAA4F5B5FAEF
:1069500085F505F01F063D01B5402C43056895FA05
:10696000A5F5B5FA85F51F2606EA45061D46B5408C
:1069700044EA0502464C1C34246894430C43444DBD
:106980001C352C60444C246824F0FC54058844EAEF
:10699000C5544FF0B045C5F89040F0BD3C491C319E
:1069A000096881433A4A1C321160704701463848F1
:1069B00018300068084070470146354814300068B8
:1069C0000843334A14321060101D0068084008B1B3
:1069D000012070470020FCE7704770477047704700
:1069E0007047704710B52A481830006800F0010061
:1069F00050B127481430006840F001002449143198
:106A00000860FFF7EEFF51E021481830006800F001
:106A1000020050B11E481430006840F002001C49CA
:106A200014310860FFF7DCFF40E0194818300068B7
:106A300000F0040050B116481430006840F0040023
:106A4000134914310860FFF7CAFF2FE010481830CF
:106A5000006800F0080050B10D481430006840F0A4
:106A600008000B4914310860FFF7B8FF1EE0084822
:106A70001830006800F0100080B10548143000683C
:106A800040F01000024914310860FFF7A6FF0DE046
:106A90000C48025810ED00E090000058D148006802
:106AA00040F02000CF490860FFF796FF10BD10B5F9
:106AB000CC481838006840F00100CA49183908600D
:106AC00001F061FB044607E001F05DFB001BB0F53F
:106AD0007A7F01D9012010BDC24818380068C0F380
:106AE00000400028F0D00020F5E710B5BD48183868
:106AF000006820F00100BB491839086001F043FB31
:106B0000044607E001F03FFB001BB0F57A7F01D996
:106B1000012010BDB34818380068C0F300400028B9
:106B2000F0D100BFF5E710B5AE481438006840F06A
:106B30000070AC491439086001F025FB044607E0F9
:106B400001F021FB001BB0F57A7F01D9012010BDB7
:106B5000A44814380068C0F380600028F0D00020FA
:106B6000F5E710B59F481438006820F000709D4983
:106B70001439086001F007FB044607E001F003FB4D
:106B8000001BB0F57A7F01D9012010BD954814385B
:106B90000068C0F380600028F0D100BFF5E791489D
:106BA0001438006840F080708E49143908607047CE
:106BB0008C481438006820F080708A4914390860C5
:106BC000704788491439096821F400710143854AE6
:106BD000143A11601146096841F4807111607047E0
:106BE00080481438006820F480707E4914390860A9
:106BF00070477C482038006840F4005079492039BB
:106C000008600846006840F4805008607047754886
:106C10002038006820F48050724920390860084606
:106C2000006820F40050086070476E48183800680B
:106C300040F010006B4918390860704769481838EF
:106C4000006820F010006749183908607047654AED
:106C5000183A126802F44001B1F5800F02D14FF4E6
:106C6000800006E0B1F5000F02D14FF4000000E013
:106C7000002070475B4A183A126802F44011B1F5DF
:106C8000801F02D14FF4801006E0B1F5001F02D141
:106C90004FF4001000E00020704752491C39096889
:106CA00001F4003109B9002000E0012070474D498E
:106CB0002039096821F4C02102681143494A203A69
:106CC00011604949096821F480314FF0B042C2F89F
:106CD00084101146D1F8801021F48031C2F8801060
:106CE0001146096821F4803111601146496821F488
:106CF00080315160416801F48031B1F5803F06D1A7
:106D00003949091F096841F48031C2F8801041688F
:106D100001F40031B1F5003F07D13349096841F46E
:106D200080314FF0B042C2F88410017901F00101C6
:106D300039B14FF0B041096841F480314FF0B042B1
:106D40001160017901F00201022907D14FF0B04131
:106D5000496841F480314FF0B0425160704721489A
:106D60002038006840F480301E49203908607047A0
:106D70001C482038006820F480301A492039086007
:106D80007047704710B517482038006800F01000B1
:106D900080B11548001D0068C0F3004050B1FFF7F6
:106DA00066FC1148001D006840F480304FF0B0418F
:106DB000C1F888000B482038006800F4803080B1AA
:106DC0000948001D0068C0F3004050B1FFF7D9FF2B
:106DD0000548001D006840F480304FF0B041C1F814
:106DE000880010BD2048025884000058704770B5D4
:106DF0000446FE484844007808B9012070BDFB48AD
:106E0000484400784FF47A71B1FBF0F0F8494944F6
:106E10000968B1FBF0F52846F9F766FB08B10120D7
:106E2000ECE7102C08D200222146501EF9F7CCFACC
:106E3000F0484844046001E00120DFE70020DDE77E
:106E400010B50320F9F7AEFAFBF7E7FDEA49096848
:106E5000C1F30321E94A7A44515C01F01F0120FA91
:106E600001F4E548006800F00F001146085C00F0EE
:106E70001F0024FA00F0E24949440860DC48484415
:106E800004600F2001F07CF908B1012010BDF9F772
:106E900067FA0020FAE7704710B5DA48D64964313E
:106EA000086000200860D848091D086000200860BC
:106EB00040F67520091D086000200860D348091DB0
:106EC0000860002008600820091D08600020086094
:106ED000CF48091D0860002008604FF49B70091D11
:106EE000086000200860CB48091D08600020086089
:106EF000C948091D086000200860FFF7CCFF00208A
:106F000010BDC64848440068B84949440978084457
:106F1000C249494408607047C04848440068704707
:106F2000B44848440068704770B504460025AF482F
:106F300048440078A0420DD0AC484844067804701C
:106F4000AC484844006801F01BF9054615B1A74854
:106F500048440670284670BDA448484400787047ED
:106F600070B5044601F00FF906462546681C18B1B5
:106F70009E4848440078054400BF01F004F9801B96
:106F8000A842FAD370BD4FF0E020006920F0020063
:106F90004FF0E021086170474FF0E020006940F0B9
:106FA00002004FF0E021086170479D4870479D48FE
:106FB0000068000C70479B480068C0F30B007047E6
:106FC0009948006870479848001D006870479648C7
:106FD0000830006870479549096821F07001014345
:106FE000924A116070479149096821F002010143FA
:106FF0008E4A116070478D49091D096821F03F01D3
:1070000001438A4A121D1160704710B58748006815
:1070100040F001008549086001F0B5F8044606E03B
:1070200001F0B1F8001B0A2801D9032010BD7F48E8
:10703000006800F008000028F2D00020F6E77B4846
:10704000006820F00100794908607047784A1268AA
:1070500082430A43764B1A60704775481C300068BB
:1070600040F0010072491C310860704770481C30C4
:10707000006820F001006E491C31086070476C48C0
:107080001C30006840F4702069491C31086070476A
:1070900067481C30006820F4702065491C31086086
:1070A000704763491C31096821F002010143604ABD
:1070B0001C32116070475E4A2432126822F0FF02CF
:1070C00041EA00131A435A4B24331A607047584A56
:1070D0002432126822F47F4241EA00131A43544BCF
:1070E00024331A6070474F48406840F001004D4912
:1070F000486070474B48406820F0010049494860AB
:1071000070474848406840F0020046494860704770
:107110004448406820F002004249486070474148B6
:10712000406840F004003F49486070473D4840686F
:1071300020F004003B49486070473A48406840F0FE
:1071400080003849486070473648406820F0800029
:107150003449486070473348406840F48070314992
:10716000486070472F48406820F480702D4948607F
:1071700070473049096821F0407101432D4A116080
:1071800070472C48006800F04070704710B5420905
:10719000520102F1B042526800F01F040123A340E3
:1071A0009A4343095B0103F1B0435A60420952011B
:1071B00002F1B042126800F01F040123A3409A4379
:1071C00043095B0103F1B0431A6001F48012B2F588
:1071D000801F35D14209520102F1B042126800F01D
:1071E0001F040123A3401A43430925E00C000000BB
:1071F000100000000800000018440258FC140000B1
:10720000140000003150E90123020002FF072000B2
:10721000FFC3FFE8F330D740AAE6000C04000000EB
:1072200000000B010010005C00F8FF08003C005853
:1072300004040058004000525B0103F1B0431A609F
:1072400001F40012B2F5001F0ED14209520102F101
:10725000B042526800F01F040123A3401A434309BF
:107260005B0103F1B0435A6010BD4109490101F1CE
:10727000B041896800F01F0301229A40114342097E
:10728000520102F1B0429160704700F01F020121EB
:1072900091404209120102F1B042C2F888107047D1
:1072A00030B501F48033B3F5803F23D18AB9430967
:1072B0001B0103F1B043D3F8803000F01F05012417
:1072C000AC40A3434409240104F1B044C4F8803025
:1072D00010E043091B0103F1B043D3F8803000F004
:1072E0001F050124AC4023434409240104F1B044A8
:1072F000C4F8803001F40033B3F5003F23D18AB9DC
:1073000043091B0103F1B043D3F8843000F01F059B
:107310000124AC40A3434409240104F1B044C4F85F
:10732000843010E043091B0103F1B043D3F88430EB
:1073300000F01F050124AC4023434409240104F15B
:10734000B044C4F8843030BD70B50B467BB94409F5
:10735000640104F1B044E46800F01F060125B54063
:10736000AC4345096D0105F1B045EC600EE0440900
:10737000640104F1B044E46800F01F060125B54043
:107380002C4345096D0105F1B045EC60C0F30014D4
:1073900024B944090B4D05EB441104E04409094D9F
:1073A0002D1D05EB44110C681F2505EA4006032539
:1073B000B540AC431F2505EA400502FA05F52C430C
:1073C0000C6070BD10000058B248006840F47000B6
:1073D000B0490860B048006800F00F00032806D2EA
:1073E000AD48006820F00F00C01CAB490860AB48F6
:1073F000006840F00100A94908600020A749103149
:107400000860A6480068A6490840A4490860A24848
:10741000006800F00F00032806D99F48006820F09C
:107420000F00C01C9C49086000209C49183108606E
:10743000091D0860091D08609A48984928310860AC
:107440009948091D08609948091D08600020091D18
:1074500008609648091D08600020091D08609348CF
:10746000091D08600020091D08608C48006820F490
:1074700080208A490860002088496031086043F212
:10748000D2008B4908607047F0B5844F10373F68D1
:1074900007F0380737B1082F0CD0102F0CD0182F59
:1074A00073D10BE07D4F3F68C7F3C10C814F27FAC2
:1074B0000CF1CEE08049CCE08049CAE0774F283714
:1074C0003F6807F00304754F28373F68C7F305107E
:1074D000724F2C373F6807F00105704F34373F6813
:1074E000C7F3CC0717FB05F701EE107AB8EE410A97
:1074F00000287DD024B1012C29D0022C64D145E094
:10750000664F3F68C7F3C10C6A4F27FA0CF201EED1
:10751000102AB8EE412A01EE100AB8EE411AC2EE66
:10752000011A9FED671A80EE012A5C4F30373F68E1
:10753000C7F3080701EE107AB8EE411A32EE011ACD
:10754000B7EE002A31EE021A61EE810A65E001EE23
:10755000100AB8EE411A9FED5B2AC2EE011A9FEDA8
:10756000581A80EE012A4D4F30373F68C7F308079D
:1075700001EE107AB8EE411A32EE011AB7EE002A87
:1075800031EE021A61EE810A47E05AE001EE100A7C
:10759000B8EE411A9FED4C2AC2EE011A9FED481A2F
:1075A00080EE012A3D4F30373F68C7F3080701EEF0
:1075B000107AB8EE411A32EE011AB7EE002A31EE17
:1075C000021A61EE810A28E0344F3F68C7F3C10C0C
:1075D000384F27FA0CF201EE102AB8EE412A01EEDC
:1075E000100AB8EE411AC2EE011A9FED351A00E0FA
:1075F00025E080EE012A294F30373F68C7F308079E
:1076000001EE107AB8EE411A32EE011AB7EE002AF6
:1076100031EE021A61EE810A00BF00BF1F4F303702
:107620003F68C7F346277B1C01EE103AB8EE411ABB
:10763000C0EE811ABCEEE11A11EE101A00E0002132
:1076400007E0164F3F68C7F3C10C1A4F27FA0CF139
:1076500000BF00BF114F18373F68C7F30327DFF89B
:107660006CC0FC441CF80760F1400C4F18373F68B1
:1076700007F00F071CF8077007F01F0721FA07F73C
:10768000DFF84CC0CC44CCF80070124F4F44396046
:10769000F0BD000088ED00E00020005200440258D8
:1076A0007FEDF6EA000202020000FF018002010104
:1076B000004000520090D00300093D0000366E01EA
:1076C000000000460024744A001BB74BF00C000079
:1076D000140000001000000030B595B005460C46BF
:1076E000502101A800F010FE0020019002900CB97A
:1076F000012000E003200490002006900590662001
:107700000390002008900C900F901290139014900A
:1077100041F2883201A92846F9F74DFB18B14FF024
:10772000FF3015B030BD0020FBE730B595B0054601
:107730000C46502101A800F0E7FD002001900290C6
:107740000CB9012000E00320049000200690059071
:1077500099200390002008900C900F9012901390A5
:10776000149041F2883201A92846F9F724FB18B198
:107770004FF0FF3015B030BD0020FBE770B594B07E
:1077800006460C4615465021684600F0BDFD002017
:10779000009001900CB9012000E00320039000202C
:1077A000059004909F200290002007900B9014B940
:1077B0004FF0807001E04FF040700E90002010906C
:1077C00003200F90002011901290139041F2883204
:1077D00069463046F9F7EFFA18B14FF0FF3014B0B0
:1077E00070BD41F2883229463046F9F762FC10B18B
:1077F0004FF0FF30F3E70020F1E7F0B595B0074612
:107800000C4615461E46502101A800F07DFD0020C3
:10781000019002900CB9012000E0032004900020A8
:1078200006900590039508900A904FF40050099037
:10783000002007900C9014B94FF0807001E04FF0D9
:1078400040700F90002011900120109000201290A5
:107850001390149041F2883201A93846F9F7ABFA37
:1078600018B14FF0FF3015B0F0BD41F2883231460B
:107870003846F9F71EFC10B14FF0FF30F3E7002057
:10788000F1E77FB594B006460C4615465021684690
:1078900000F03AFD0020009001900CB9012000E0BA
:1078A0000320039000200590049002950790099012
:1078B0004FF400500890002006900B9014B94FF040
:1078C000807001E04FF040700E9000201090012079
:1078D0000F90002011901290139041F28832694667
:1078E0003046F9F768FA18B14FF0FF3018B070BDA4
:1078F00041F2883217A93046F9F78DFB10B14FF0ED
:10790000FF30F3E70020F1E770B594B006460C466F
:1079100015465021684600F0F7FC002000900190C9
:107920000CB9012000E00320039000200590049092
:10793000029507900B900E9011901290139041F2C7
:10794000883269463046F9F736FA18B14FF0FF3001
:1079500014B070BD0020FBE738B504460D460BE0BF
:107960006B46052229462046FFF747FF9DF8000099
:1079700000F0010000B900E0F2E700BF38BD2DE9DA
:10798000F04599B007460C4615461E46DDE9208AAB
:10799000502105A800F0B8FC1421684600F0B4FCA2
:1079A0000020059006900CB9012000E0032008900B
:1079B00000200A90099007950B900C904FF400500E
:1079C0000D9000200E90109014B94FF0807001E0DF
:1079D0004FF040701390002015900120149000206B
:1079E00016901790189041F2883205A93846F9F799
:1079F000E2F920B14FF0FF3019B0BDE8F0850096F4
:107A0000CDF8048000200290CDF810A04FF4800043
:107A1000039041F2883269463846F9F7C4FD10B147
:107A20004FF0FF30E8E70020E6E7F8B504460D46E2
:107A30000026062229462046FFF766FF08B1761E7B
:107A400010E00CE06B46052229462046FFF7D5FEE4
:107A50009DF8000000F00200022800D100E0F1E7EC
:107A600000BF00BF3046F8BDF8B505460C460026FD
:107A7000012C01D1881EF8BD6B46352221462846CF
:107A8000FFF7BBFE10B14FF0FF361BE09DF8000082
:107A900000F00200B0B921462846FFF7C6FF10B13A
:107AA0004FF0FF360EE09DF8000040F0020000901D
:107AB0009DF80030312221462846FFF7E2FE08B14A
:107AC0004FF0FF363046D6E72DE9F04194B0074637
:107AD0000C4615461E46DDF868805021684600F0C9
:107AE00013FC0020009001900CB9012000E003205D
:107AF00003900020059004900CB9EB2000E00B20CF
:107B000002904FF440700790002009904FF400500D
:107B1000089006964FF440300B9000200D900C908A
:107B2000FF200A900CB9042000E0082011904FF0CB
:107B300040700E9000201090CDF83C801290139071
:107B400041F2883269463846F9F735F920B14FF0ED
:107B5000FF3014B0BDE8F08141F288322946384642
:107B6000F9F7A7FA10B14FF0FF30F2E70020F0E785
:107B7000F0B595B006460C4615460027502101A8E1
:107B800000F0C2FB21463046FFF74FFF0020019076
:107B900002900CB9012000E0032004900020069020
:107BA0000590202003900CB9C00001E04FF4407014
:107BB000089000200A904FF400500990079500208B
:107BC0000C9012900F901390149041F2883201A9FA
:107BD0003046F9F7F0F810B14FF0FF3703E02146D7
:107BE0003046FFF7B9FE384615B0F0BDF0B595B098
:107BF00006460C4615460027502101A800F084FBDC
:107C000021463046FFF711FF0020019002900CB989
:107C1000012000E003200490002006900590D82069
:107C2000039014B94FF4807001E04FF44070089055
:107C300000200A904FF400500990079500200C9006
:107C400012900F901390149041F2883201A930469F
:107C5000F9F7B1F810B14FF0FF3703E02146304695
:107C6000FFF77AFE384615B0F0BD70B594B0054602
:107C70000C4600265021684600F046FB2146284667
:107C8000FFF7D3FE0020009001900CB9012000E026
:107C900003200390002005900490C720029000204C
:107CA00007900B9011900E901290139041F2883231
:107CB00069462846F9F77FF810B14FF0FF3603E028
:107CC00021462846FFF748FE304614B070BD2DE926
:107CD000F04194B007460C4615461E46DDF8688014
:107CE0005021684600F010FB21463846FFF79DFE04
:107CF0000020009001900CB9012000E003200390C7
:107D00000020059004900CB9322000E0022002907F
:107D100014B94FF4807001E04FF4407007900020D8
:107D200009904FF400500890069600200B90119097
:107D30004FF040700E9000201090CDF83C801290D3
:107D4000139041F2883269463846F9F734F820B189
:107D50004FF0FF3014B0BDE8F08141F2883229467F
:107D60003846F9F758F910B14FF0FF30F2E72146E5
:107D70003846FFF7F1FD0020ECE730B597B0054637
:107D80000C46502103A800F0BFFA00200190029099
:107D900001200390002004900CB9012000E0032092
:107DA00006900020089007900CB9EB2000E00B2013
:107DB00005904FF440700A9000200C904FF4005052
:107DC0000B904FF440300E90002010900F90FF2049
:107DD0000D900CB9042000E0082014904FF0407082
:107DE0001190002013901590169041F2883203A94B
:107DF0002846F8F7E0FF18B14FF0FF3017B030BD5C
:107E0000022003900CB9322000E00220059014B942
:107E10004FF4807001E04FF440700A9000200E9003
:107E2000149041F2883203A92846F8F7C4FF10B134
:107E30004FF0FF30E2E70020019001A92846F9F752
:107E400078FC10B14FF0FF30D8E70020D6E710B52E
:107E50000121C3484844FFF73FFC0121C048484482
:107E6000FFF763FC0021BE484844FFF735FC0021C2
:107E7000BB484844FFF759FC002010BD38B5044604
:107E80006A46B84848440178B5484844FFF776FC4C
:107E900010B14FF0FF3038BD9DF8000000049DF890
:107EA000011000EB01209DF8021008442060002022
:107EB000F1E770B50446002523460522A948484449
:107EC0000178A7484844FFF798FC08B16D1E18E0F8
:107ED000631C3522A34848440178A1484844FFF771
:107EE0008CFC10B14FF0FF350BE0A31C15229D4810
:107EF000484401789A484844FFF77FFC08B14FF0A6
:107F0000FF35284670BD10B596484844017894481E
:107F10004844FFF78AFD10BD10B5924848440178E7
:107F20008F484844FFF7A0FD10BD00207047F8B50A
:107F300004460D4616462B4622468A48484400967B
:107F4000017887484844FFF7BFFDF8BD10B50446E7
:107F5000224684484844017881484844FFF708FE97
:107F600010BD10B5044622467E48484401787C483E
:107F70004844FFF73BFE10BD10B57A4848440178ED
:107F800077484844FFF771FE10BDF8B504460D462A
:107F900016462B462246734848440096017870489E
:107FA0004844FFF794FEF8BD2DE9F04107460E4620
:107FB0001446F0B2C0F58075AC4200D8A5B216E008
:107FC0002A4631463846FFF7E0FF18B14FF0FF3040
:107FD000BDE8F081AC4200D10AE02F442E44641B7E
:107FE000B4F5807F02D94FF4807500E0A5B2E7E7D1
:107FF00000BF0020ECE710B55A48484401785848C3
:108000004844FFF7BAFE10BD10B555484844F9F78B
:10801000C7FB10B14FF0FF3010BD0020FCE710B5DA
:108020000024002001E000BF401CB0F5FA6FFAD335
:10803000FFF70DFF10B14FF0FF341BE0002001E00F
:1080400000BF401CB0F5FA6FFAD347484844FFF729
:1080500015FF10B14FF0FF340CE044484844FFF7DF
:1080600028FF10B14FF0FF3404E0FFF755FF08B1CF
:108070004FF0FF34204610BD10B5FFF7D0FF3C494C
:108080004944096808443A49494408600020FFF718
:108090005DFF374949440968084435494944086047
:1080A00032484844FFF705FF31494944096808440C
:1080B0002F49494408604FF4805200212D4848441C
:1080C000FFF735FF2A4949440968084428494944CB
:1080D0000860002003E0284A4A441054401CB0F5D0
:1080E000805FF8D34FF48052002123484844FFF7C3
:1080F0005BFF1F494944096808441D494944086019
:108100001A484844FFF7D5FE19494944096808440C
:108110001749494408604FF48052002115484844EB
:10812000FFF705FF124949440968084410494944CA
:10813000086000200FE010494944095C0D4A4A4498
:10814000125C914206D00D4949440968491C0B4A0A
:108150004A441160401CB0F5805FECD310BD0000B4
:1081600034000000180000001C0000002000000087
:108170002800000090000000901000002400000083
:108180000146002070470120704772B600BFFEE72D
:1081900000B59DB04C210AA800F0B6F8202102A835
:1081A00000F0B2F80220FEF77FFA00BF0020019035
:1081B0004F48006820F440404D4908600846006878
:1081C00000F44040019000BF00BF00BF4848006875
:1081D00000F40050B0F5005FF8D102200A900120B1
:1081E0000D9040200E90002013900AA8FAF74EF848
:1081F00008B1FFF7CAFF3F200290002003900490CF
:1082000005904020069007900001089040200990BA
:10821000022102A8FAF702FD08B1FFF7B6FF1DB070
:1082200000BD70B504460E46154672B600203149B1
:1082300049440870012D10D1FFF7C6F8FEF700FE83
:10824000FFF7A6FFF7F75CFF2B482C49494408606D
:108250000846F8F737FBF7F77FFFFFF7E0FE08B1B6
:10826000012070BD2648484404600020F9E701461B
:108270000020704710B5FFF77FFE002010BD10B53D
:1082800004461F4949440968601AFFF75FFE002051
:1082900010BD03460120704770B504460D461646D2
:1082A000174848440068211A2A463046FFF77CFEEA
:1082B000002070BD2DE9F04105460E4617461048D6
:1082C00048440068291A32460E484844FFF72FFEFA
:1082D000002409E00B484844005D395D884202D023
:1082E0002819BDE8F081641CB442F3D3A819F8E75B
:1082F00018480258180000000050005234000000D6
:108300002C000000902000004FF0000200B5134642
:1083100094469646203922BFA0E80C50A0E80C50A5
:10832000B1F12001BFF4F7AF090728BFA0E80C5056
:1083300048BF0CC05DF804EB890028BF40F8042B4F
:1083400008BF704748BF20F8022B11F0804F18BFBC
:1083500000F8012B70470000000001020304010235
:1083600003040607080900000000000000000000E8
:1083700010000000010000000090D0030090D00326
:1083800000000000000000000000000000000000ED
:0C839000000000000000000000000000E1
:020000040000FA
:10839C00010153544D333248374230564254365F04
:1083AC005732355136345F57654163745374756475
:1083BC00696F0000000000000000000000000000D9
:1083CC0000000000000000000000000000000000A1
:1083DC000000000000000000000000000000000091
:1083EC000000000000000000000000000000000081
:1083FC000000000000000000000000000000000071
:10840C000000000000000000000000000000000060
:10841C00000005000000009000008000001000002B
:10842C0000000000FF000000E8030000B80B000093
:10843C000008000000000000FFFFFFFFFFFFFFFF30
:10844C000000000000000000000000000000000020
:10845C000000000000000000000000000000000010
:10846C000000000000000000000000000000000000
:10847C0000000000000000000000000000000000F0
:0400000500000000F7
:00000001FF
