:020000040800F2
:1000000070430024C1020008BB450008213A0008E3
:10001000B94500083D040008D78200080000000030
:10002000000000000000000000000000556700080C
:100030003F04000800000000C35100085767000893
:10004000DB020008DB020008DB020008DB0200081C
:10005000DB020008DB020008DB020008DB0200080C
:10006000DB020008DB020008DB020008DB020008FC
:10007000DB020008DB020008DB020008DB020008EC
:10008000DB020008DB020008DB020008DB020008DC
:10009000DB020008DB020008DB020008DB020008CC
:1000A000DB020008DB020008DB020008DB020008BC
:1000B000DB020008DB020008DB020008DB020008AC
:1000C000DB020008DB020008DB020008DB0200089C
:1000D000DB020008DB020008DB020008DB0200088C
:1000E000DB020008DB020008DB020008DB0200087C
:1000F000DB020008DB020008DB020008DB0200086C
:10010000DB020008DB020008DB020008DB0200085B
:10011000DB020008DB020008DB020008DB0200084B
:10012000DB020008DB020008DB020008DB0200083B
:10013000DB0200080000000000000000DB020008F5
:10014000DB020008DB020008DB020008DB0200081B
:10015000DB020008DB020008DB020008DB0200080B
:10016000DB020008DB020008DB020008DB020008FB
:10017000DB020008454B0008DB020008DB02000838
:10018000DB020008DB020008DB020008DB020008DB
:10019000DB020008DB020008DB020008DB020008CB
:1001A000DB020008DB020008DB020008DB020008BB
:1001B000DB020008DB020008DB020008DB020008AB
:1001C000DB020008DB020008000000000000000065
:1001D0000000000000000000DB020008000000003A
:1001E000000000000000000000000000000000000F
:1001F0000000000000000000DB020008DB02000835
:10020000DB020008DB02000800000000DB0200083F
:10021000DB020008DB020008DB020008DB0200084A
:10022000DB020008DB020008DB020008000000001F
:10023000DB020008DB02000800000000DB0200080F
:10024000DB020008DB020008DB020008DB0200081A
:10025000DB020008DB020008DB020008DB0200080A
:10026000DB020008DB020008DB020008DB020008FA
:10027000DB020008DB020008DB02000800000000CF
:10028000DB020008DB02000800000000DB020008BF
:1002900000000000DB020008DB020008DB020008AF
:1002A000DB020008DB020008DB020008DFF80CD0EC
:1002B00000F068F800480047FD88000870430024FB
:1002C0000648804706480047FEE7FEE7FEE7FEE7F0
:1002D000FEE7FEE7FEE7FEE7FEE7FEE71D68000833
:1002E000AD020008D2B201E000F8012B491EFBD29A
:1002F00070470022F6E710B513460A460446194631
:10030000FFF7F0FF204610BD2DE9F05F0546002005
:1003100092469B4688460646814640241BE0284676
:1003200041464746224600F04EF853465A46C01A08
:10033000914110D311461846224600F035F82D1A87
:1003400067EB01084F4622460120002100F02CF8FF
:1003500017EB00094E41201EA4F10104DFDC4846E2
:1003600031462A464346BDE8F09F420005D0C0F31F
:10037000C7525242914201DC0020704700EBC1504D
:1003800070470000064C074D06E0E06840F00103AE
:1003900094E8070098471034AC42F6D3FFF78AFF81
:1003A00050FF000870FF0008202A04DB203A00FA02
:1003B00002F1002070479140C2F1200320FA03F3BC
:1003C000194390407047202A04DB203A21FA02F0BA
:1003D0000021704721FA02F3D040C2F1200291407F
:1003E00008431946704770B58C1810F8015B15F07A
:1003F000070301D110F8013B2A1106D110F8012B97
:1004000003E010F8016B01F8016B5B1EF9D12B07BB
:1004100005D40023521E0DD401F8013BFAE710F871
:10042000013BCB1A921C03E013F8015B01F8015B5E
:10043000521EF9D5A142D8D3002070BDFEE7704707
:10044000EFF3108072B6FEE7B0B5044600F0E2F8B4
:1004500005469C48611C007818BF044400F0DAF897
:10046000401BA042FAD3B0BD2DE9FC4F5C4A0A24E0
:100470004FF0000A4FF0000990425A4A08BF092481
:1004800002444FEAB223092B38BF4FEAB22400944A
:1004900000220E6836FA02F700F0A080012303FA6A
:1004A00002F716EA070B00F09380D1F804E003236B
:1004B0000EF0030CACF10105012D13D803FA09F578
:1004C0008468CB68AC4303FA09F36FEA0508234359
:1004D0008360CEF300134468BC439340570023432A
:1004E00043600BE003FA09F3BCF1030F4F466FEAD8
:1004F000030803D14F464FF0030C20E0C3688C681B
:1005000003EA0803BC402343C360BCF1020F16D1C9
:100510000AF01C030F2404FA03FC6FF0030404EA3E
:10052000520505442C6A24EA0C0C0C6904FA03F306
:1005300043EA0C032B62D1F804E00EF0030C0468CC
:100540000CFA07F304EA0804234303601EF4403F57
:100550003ED0854C254E236843F002032360236878
:100560000F2403F002030193019D0AF00C0322F013
:1005700003059C40AF5927EA0404009F07FA03F3E0
:100580002343AB514FF0B04633684D6843EA0B0448
:10059000EF0258BF23EA0B043460134EAF023368F6
:1005A00043EA0B0458BF23EA0B043460AF03D6F8C8
:1005B000803043EA0B0458BF23EA0B04C6F880409E
:1005C000ED03F36F43EA0B0458BF23EA0B04F4670F
:1005D0000AF1040A09F1020901325AE7BDE8FC8F69
:1005E000002402580000FEA7040000580804005828
:1005F0000069084018BF01207047002A08BF09049D
:1006000081617047024800686FF31F30704700BF78
:100610000010005C05480068704700BF2948034986
:1006200000780A6810440860704700BF68230024FF
:1006300080B5032000F0C4F802F07EF80E490F4B9D
:100640000A68096801F00F01C2F30322595C9A5C41
:1006500001F01F0102F01F02D0401B4A1060C84089
:1006600007490860002000F00DF808B1012080BDA6
:1006700000F06CF8002080BD184402582890000853
:100680001000002470B50F4E04463078B0B14FF41E
:100690007A71B1FBF0F00C490968B1FBF0F003F09E
:1006A00023F801250F2C0AD848B94FF0FF30214616
:1006B0000022002500F068F8746000E0012528465B
:1006C00070BD00BF040000240C0000240278114912
:1006D00043780B60D2B143684B60037B42EA0372FC
:1006E000C37A42EA0362837A42EAC342437B42EA24
:1006F0008342837B42EA4342C37B42EA0342437A1A
:10070000007A42EA032242EA400001E00020486009
:100710008860704798ED00E00B48BFF35F8F016879
:1007200021F480310160002101677047064940F0E3
:1007300001000867086840F480300860BFF34F8FFD
:10074000BFF36F8F704700BF24ED00E081B0064813
:10075000016841F002010160006800F002000090B1
:10076000009801B0704700BF54450258002808D4D3
:1007700000F01F010122400902FA01F1014A42F88A
:100780002010704700E100E070B5134B4FF0FF35CB
:100790001B68C3F30223DC1E83F0070338BF002469
:1007A00005FA04F6B243042B28BF042305FA03F329
:1007B0009943A1401143BDE8704007F0EBBF00BF73
:1007C00005494FF6FF030A681A4060F30A220348FE
:1007D00010430860704700BF0CED00E00000FA0510
:1007E0002DE9F04F8FB000689B4F019002914FF0C0
:1007F00000080DF10C0BC01BB94618BF012000907A
:1008000096488246B8F1020F62D008EB48001421E6
:100810000BEBC0052846FFF76CFD08F10108B8F1A5
:10082000020F0BD15AF8040C5246C0074FF4007067
:1008300004BF40F22220C0F2044001E000205246F2
:1008400005F1100C05F10C0E05F108032E1D002713
:10085000022F3BD052F82740E10705D084EA00017F
:10086000890701D4791C2960E10605D584EA0001D5
:10087000890601D4791C3160E10505D584EA0001BF
:10088000890501D4791C1960E1030DD584EA0001C2
:10089000490309D4791CA2034CBF41F0807141F493
:1008A0008031CEF800105246E1010DD584EA0001F6
:1008B000490109D4791CA2014CBF41F0807141F477
:1008C0008031CCF8001052460137C1E74F4699E716
:1008D000DDF804E03868AEEB0701C00702D14FF045
:1008E000000C05E038684FF0010C20F00100386082
:1008F000B1FA81F25A4902980B68DB0701D18846A8
:1009000006E00B6888460CF1020C23F001030B6033
:100910000099520901EB41040BEBC4039D680AEBFB
:10092000850555F8046C26F4807645F8046C5AF871
:10093000045CED072DD15BF83440002C5ED00AEB4F
:10094000840454F8045C25F0010544F8045C5C68F8
:1009500044B10AEB8404514654F8045C25F01005B8
:1009600044F8045CDC684CB10125514625EA0404D6
:100970005AF8245025F480354AF824501B69EBB30B
:100980000124514624EA03035AF8234024F08074DA
:1009900032E05AF8043C514623F001034AF8043C83
:1009A000BE452BD1099B0AEB830353F8044C44F05A
:1009B000020443F8044C0A9B43B10AEB83035146FB
:1009C00053F8044C44F0200443F8044C0C9B4BB106
:1009D0000124514624EA03035AF8234044F48024B6
:1009E0004AF823400D9B4BB10124514624EA0303EE
:1009F0005AF8234044F080644AF8234002EB420254
:100A0000D0E900565BF832300BEBC2029D425468CD
:100A100013D1A64225462AD1D468C568A54219D16A
:100A200014690569A542354621D15AF8042C51466E
:100A300042F001024AF8042C4BE0A642354616D09B
:100A400095688668AE4203D0D568C668AE4209D1C3
:100A500025460CE035460AE00050005204B400522E
:100A600000A0005215690669AE42254631D10AEB55
:100A70008303564653F8044C24F0010443F8044C15
:100A80003DB106EB850353F8044C24F0100443F801
:100A9000044C936806EB830353F8044C24F48074ED
:100AA00043F8044CD36843B1012424EA030356F805
:100AB000234024F4803446F8234012694AB10123CC
:100AC000514623EA02025AF8223023F080734AF892
:100AD00022304FF44072BE45554608BF4FF4807235
:100AE00083680AEB830353F8044C24F440742244D3
:100AF00043F8042C5AF8042CC2F307434269541EED
:100B00009C4209D9EC4B03EB024255F8043C23F418
:100B10007F031A4345F8042C55F8044C0268013A47
:100B2000E40755F8223023F0030329D10324BE45FE
:100B300008BF0124234345F82230426862B105EB27
:100B400082023023BE4508BF102352F8044C24F023
:100B50002004234342F8043CC368DA0328D4C3B317
:100B60004FF0A062BE45514608BF4FF0807201248D
:100B70009C430AEB84035AF8244024F0E06426E006
:100B800043F0010345F82230426842B105EB82028E
:100B9000012452F8043C64F3051342F8043CC26893
:100BA000D30329D4B2B34FF080736FF0E06427E031
:100BB0004FF4A022BE45514608BF4FF480320124B5
:100BC0009C430AEB84035AF8244024F4E024224393
:100BD0001A600269D3032AD4002A41D04FF0E0639F
:100BE000BE4508BF4FF04073012424EA02025AF8C0
:100BF000224024F0E06427E04FF480336FF4E024D7
:100C00000125514625EA02025AF822502C4023437E
:100C10004AF822300269D30318D40AB3012303240B
:100C200023EA02025AF8223064F31A6316E04FF402
:100C3000E023BE4508BF4FF44033012424EA0202FA
:100C40005AF8224024F4E024234407E0012303243B
:100C500023EA02025AF8223064F312434AF822309F
:100C60005FEACC7203D03A6842F001023A605FEA70
:100C70008C7005D5D8F8000040F00100C8F80000DD
:100C800000200FB0BDE8F08F2DE9F84316460F465F
:100C900003F0F5FF05462068D0F84880D0F81091A1
:100CA000206D04280BD1F868B0F5800F07D12046DD
:100CB0002021002204F06DFA28B1BDE8F88304F089
:100CC000E1F8BDE8F8832068D4F80CC0D7E9002328
:100CD000D7E9021EC0F88820C0F880303A69C0F811
:100CE0009020026822F04352114341EA0E01BCF108
:100CF000806F41F00051016002D004F044F802D04E
:100D0000C0F8488001E0C0F8109120460821012277
:100D10002B460096082603F0EBFE0028CDD1206874
:100D20004662022020650020BDE8F8832DE9FC41E1
:100D300016460F4603F0A3FF0546206D242808D071
:100D4000142817D002281AD1E068B0F1806F05D1BD
:100D500015E0386840F00200032810D12046202119
:100D600000222B4600964FF0000803F0C1FE50B160
:100D7000BDE8FC81386820F001000228EED004F0C4
:100D800081F8BDE8FC8120463946C4F8548003F060
:100D900015FC0028ECD1B86B30B1386802280ED0B1
:100DA000012807D070B111E003F005FF21684E6201
:100DB000BDE8FC81206D242804D0142005E0206DBE
:100DC000142801D1042000E0242020650020BDE883
:100DD000FC810000F8B503F052FF2CB1054600205D
:100DE0006065216D11B1F8BD0120F8BD204600F00D
:100DF00067F804F10C06D4E9000C2F4F2F494CCEB4
:100E000007EB0343876839401143626B1943114371
:100E10006FF0FF0202EB062302EB0C221943E36999
:100E200019438160216AC36823F4E0231943C16038
:100E3000216BA36B43EA01410161E16B416141F226
:100E40008831A165036823F4F8531A4302600091C6
:100E5000204620212B46002203F04AFE0028C2D162
:100E60002068636AA168A269013BC56825F0FF0597
:100E70002B43C360036823F0400319430160A16A58
:100E8000D0F8083123F0A0431943E36A1943C0F8AE
:100E900008110168022A41F00101016003D1816853
:100EA00041F002018160E068B0F1806F14BF022060
:100EB000012020650020F8BD0000FFFFF4F8E0F8F5
:100EC0002DE9F04FB5B0044630A81421FFF711FA10
:100ED00002A8B4210430FFF70CFA20683849884290
:100EE0006BD14FF000704FF00008CDF850800290A9
:100EF00002A800F073FF08B1FFF7A2FA31484FF0E3
:100F0000090A4FF0030902264FF0040B2E4C2F4F15
:100F1000016841F400110160016801F400110191C0
:100F20000199016841F480410160016801F4804148
:100F300001910199C16841F01001C160C16801F0DF
:100F4000100101910199C16841F00201C160C168BD
:100F500001F0020101910199C16841F00801C160ED
:100F6000C06800F0080001900198CDF8D0A0CDE94C
:100F700032893196CDF8C0B030AD04F540602946D5
:100F8000B84732A82946CDE930B680E800072046A8
:100F9000B84731A8294680E840074FF460503090A8
:100FA00004F50060B8470A203490294631A880E84B
:100FB0004003402030902046B84735B0BDE8F08F60
:100FC00000500052344502580004025869040008D9
:100FD0002DE9FC411646884603F051FE2768054678
:100FE000B8F1000FB86CD7F810112AD0226D042A7E
:100FF00029D13A6C01230132A264A26C6264C4F864
:1010000040803A6863F31D723A60E268B2F1806F23
:1010100004D0D7F8002112F4E06F19D0B86420464C
:101020000621012204F0B5F848B997F85000216C68
:10103000087004F022F8F2D103F0BDFD58B1BDE80C
:10104000FC81082000E0102060650120BDE8FC81E3
:10105000C7F81011E3E704F06FB82DE9FC4116461C
:10106000884603F00CFEB8F1000F21D00546276832
:10107000206D04281ED1386C0130A064A06C60641F
:10108000C4F84080386820F0405038602046042181
:10109000012204F07EF848B9206C007887F85000EF
:1010A00003F0EBFFF2D103F086FD40B1BDE8FC8117
:1010B000082000E0102060650120BDE8FC8104F0FC
:1010C0003BB8000001688A6942F000628A6101222F
:1010D000C0F80025002280F8F424486D024A10432D
:1010E00048650020704700BF03000010704700688B
:1010F000416200207047B0B50068436AB1B1846AAC
:10110000013903EB14430024E5B2A94207D900EBEF
:1011100085050134D5F8045103EB1543F4E700EBE2
:10112000810043EA0241C0F8041102E043EA0241AF
:1011300081620020B0BDD0F8080505F007BF01EBC3
:10114000C10200EB8202D0F80805D26C05F07BBE2C
:1011500001EBC10200EB8202D0F80805D2F88C2224
:1011600005F0C2BED0F8080505F0F2BE01F00F028E
:10117000090602EBC20200EB820303F13C0258BFF6
:1011800003F51F720068114606F000BF10B5044653
:1011900001F00F0003F091FF5DBF002281F87D2276
:1011A00001F51F71012244BF81F83D203C310870D8
:1011B00094F8BC04012804BF022010BD03F0F9FE1E
:1011C00006F034FC03F055BEB0B5044601F00F0044
:1011D0006268904201D901251BE003F06EFF5DBFFC
:1011E000002281F87D2201F51F71012244BF81F8A0
:1011F0003D203C31087000258D7094F8BC04012816
:1012000001D1022505E003F0D4FE06F0C3FD84F809
:10121000BC542846B0BD10B503F019FD04BF022030
:1012200010BD03F0C6FE0A0602D406F0EBFE03E092
:1012300001F00F0106F006FF03F01BBE01F00F01E5
:1012400001EBC10100EB8100D0F89C027047B0B502
:10125000044601F00F0003F030FF5DBF002581F868
:101260007D5201F51F71012544BF81F83D503C318D
:10127000CA600B7108704A7802B10881022B01D153
:101280000020487194F8BC04012804BF0220B0BDBE
:1012900003F08FFE06F01CFB03F0CDBEB0B501F0ED
:1012A0000F0404EBC40100EB81050021C5F8943262
:1012B0000369C5F89C1285F87D12C5F88C2285F863
:1012C0007C4205F51F71012B08BFC5F89022DAB2E8
:1012D000006814B106F092FD01E006F0B7FC0020B2
:1012E000B0BDB0B5044601F00F054068854284BF2B
:1012F0000120B0BD080609D401EBC100002104EBB8
:10130000800080F87D1200F51F7108E005EBC50034
:10131000012104EB800080F83D1000F13C0194F8BD
:10132000BC2401200D708870012A04BF0220B0BDCA
:1013300084F8BC04206806F045FD2DB9217C2068A6
:1013400004F2C44206F0FAFC03F075BE70B501F079
:101350000F04002604EBC40100EB8105294601F8C7
:101360003C4F8B6101234B700E620A610369012BB4
:1013700008BF2A65DAB2006814B106F03FFD01E04B
:1013800006F064FC002070BD2DE9F04F89B00568BF
:101390008246284606F089FE10B109B0BDE8F08FFC
:1013A00003F0FEFB0028F8D0D5F80808C0F30D20A4
:1013B000CAF8FC0403F0F4FB0146DAF800008907E0
:1013C00003D5416901F00201416105F50061049115
:1013D00006F097FE0146DAF800000595C9063FD5EC
:1013E000816921F0100181612C6A04F00F05C4F3BA
:1013F000434006281CD002282BD147F6F070044049
:1014000027D005EBC50022090AEB80050598D5F821
:101410008C1206F07AFED5F88C02D5F89C1200EBFF
:101420001410C5F88C0201EB1410C5F89C0210E0F2
:101430000AF2C4410598082206F067FE05EBC500D4
:10144000C4F30A120AEB8000D0F89C121144C0F8D1
:101450009C12DAF80000816941F010018161059D5C
:1014600006F04FFE00030DD403F09AFB4003049EE8
:1014700000F1E18003F094FB002800F1A681DAF886
:101480000000BAE1DAF8000006F01AFE06460AF596
:1014900027744FF430684FF0000B0AF2C4400890F4
:1014A000002EE1D0F00700F0B8805FFA8BF9DAF88F
:1014B0000000494606F01DFE0746C0075CD005EB5C
:1014C000080001218160DAF8000008EB0001036CDC
:1014D0008A68DAF81050012D24D115072FD495060B
:1014E00047D412F0280F059D46D1AC46DD4DAB42E6
:1014F00002D9120400F1988054F8042C0969654659
:101500006FF3DF41511A2160B8F5306F2CD1DAF852
:101510009422002A00F08D80DAF88C020844CAF880
:101520008C0221E0CF4D05F58075AB4211D110043E
:10153000059D0AD4900617D52020886014E0C9487C
:10154000059D834218D9100416D54FF400408860D9
:1015500012E0B8F5306F059D06D1DAF8941219B98A
:101560000021089A06F0EAFB50464946FFF7F0FDD5
:1015700002E020208860059D380722D505EB080091
:101580000821B84B8160DAF8001008EB01000A6C02
:1015900081689A4212D9090402D54FF40041816052
:1015A000504600F0B4FBDAF81000012809D1DAF84F
:1015B00000000121089A06F0C1FB02E0504600F04D
:1015C000A6FBF80603D505EB080010218160B807DB
:1015D00016D56869000604D50499486840F480600F
:1015E000486014F81D0C012806D1002004F81D0CD9
:1015F0004946504600F05FFA05EB08000221816081
:10160000B80603D505EB080020218160B80404D595
:1016100005EB08004FF400518160243408F12008E4
:1016200076080BF1010B3BE74FF4004088606546FC
:10163000A2E7012195E7DAF8000006F03AFD074637
:101640000AF2C4400022029005F510600690002FB7
:101650003FF410AFF80700F0B580D1B2DAF800001F
:101660000792089106F033FD0446C00727D0079B78
:101670000122716B03F00F0002FA00F021EA000072
:101680007063069800EB43108260DAF810000128BE
:1016900011D103EBC3000AEB8000D0E91212114410
:1016A000C16443B9DAF8540028B9DAF8000001211E
:1016B000029A06F043FB50460899FFF740FD2007C9
:1016C000079A04D50698082100EB42108160E006D5
:1016D00004D50698102100EB42108160600604D505
:1016E0000698402100EB42108160A00718D52846DB
:1016F000114606F0A7FC079A02EBC2000AEB800035
:1017000010F83F1F012906D10021017050460899A9
:1017100000F0CDF9079A0698022100EB4210816093
:1017200020064FD502EBC2000AEB800BD94659F8D0
:10173000541FC84658F8080F814243D3DAF80040D6
:101740000D1A5BF8481F039757460BF104068D42AC
:1017500088BF0D4604EB421101F5106A15E03D7C8F
:101760003168DBF800300095151A20469D4288BF8D
:101770001D46ABB2089A06F09DFD306828443060E3
:10178000D8F800002844C8F80000D9F80020DAF89A
:101790001830E91C9BB2B3EB910F28BF8242DED810
:1017A0008242BA46059DDDE90376079A0AD802F01F
:1017B0000F00012101FA00F0D4F8341821EA0000EA
:1017C000C4F834087F08013241E7706820F0010056
:1017D00070609AF8F404012807D100208AF8F40414
:1017E00000215046FFF782FC02E0504600F079FAF3
:1017F00003F0A8FB01F00041416106F082FC000506
:1018000002D4DAF800000AE0B068C00702D05046FF
:1018100000F09CFA03F096FB01F40061416106F0D0
:1018200070FC000117D503F08DFB01F000614161F0
:101830009AF8F41419B1504600F088FA0BE001212F
:101840008AF8F414406D0121C0F38300CAF8F8044B
:101850005046FFF74BFC03F0A3F9C00404D4DAF8B8
:10186000000055E00A30544FD5F80408102120F04C
:101870000100C5F80408DAF8000006F0E3FB05F5FE
:101880001060DAF804104FF67F32A9B18260013996
:10189000036823F400130360C0F80822D0F8003274
:1018A00023F40013C0F80032D0F8003243F0006394
:1018B000C0F800322030E8E7F06940F00110F06134
:1018C000DAF8300040B1D6F8840040F00B00C6F8DA
:1018D000840006F1440006E0706942F22B010843DF
:1018E000706106F1100001680AF2C44241F00B0178
:1018F0000160306820F4FE6030609AF81010DAF869
:10190000000006F01BFA03F01DFB01F48051416159
:1019100006F0F7FB0146DAF80000890419D506F055
:101920000FF8DAF8000006F0B1FBCAF80C00DAF89C
:10193000004000F0E1FE9AF80C200146204606F037
:1019400041FC504600F0B8F903F0FCFA01F40051F4
:10195000416106F0D6FB000702D4DAF8000007E088
:10196000504600F0C2F903F0EDFA01F008014161C0
:1019700006F0C7FB000606D403F012F9C00219D422
:10198000DAF8000038E00599012440F2A3258869BF
:1019900020F080008861DAF804008442ECD21AF862
:1019A0000500012803D1E1B25046FFF7DFFB2435E3
:1019B0000134F0E705980AF163040126012700F5D8
:1019C0001265DAF80400874211D260782968B1F113
:1019D000FF3F08DC012806D147F080002670C1B225
:1019E0005046FFF7C3FB243420350137E9E703F005
:1019F000A9FA01F480114161059C06F082FB800286
:101A000002D4DAF8000030E004F532610AF52970FA
:101A1000DAF8042001230124944221D206780D68CB
:101A2000B5F1FF3F13DC012E11D1DAF8FC6405F4A7
:101A3000803506F00106B54209D1059EB56945F02D
:101A40008005B56100F8013C75692D0603D5243089
:101A500020310134E0E70499486840F400704860A0
:101A600003F070FA01F40011416106F04AFB4000F6
:101A700002D4DAF8000007E05046FFF75CFB03F001
:101A800061FA01F08041416106F03BFB40077FF5C0
:101A900084ACDAF800004468610704D55046FFF7CB
:101AA00061FBDAF8000041682143416075E4D0F839
:101AB000080505F0B1BAD0F8080505F0BCBA2DE963
:101AC000F04F8BB0002800F087800446056890F83E
:101AD000BD0428B9002084F8BC04204600F092F828
:101AE000032084F8BD04E86BC00501D40020206108
:101AF000206806F0A5F804F1040B04F1140E04F1BB
:101B0000240A20680A90D4E90C509BE80E089EE84D
:101B1000C0509AE80007CDE90850CDE900B602A808
:101B200080E8805005A880E800070A9805F016FFB5
:101B300000284ED120680021002506F001FB6168D5
:101B400001200022D3B2994210D903EBC30604EB63
:101B5000860686F83C20A6F8443086F83D00756578
:101B6000C6E9125586F840500132EBE7002000220A
:101B7000D3B299420FD903EBC30304EB830383F879
:101B80007C22C3F89402C3E9A20083F8800283F8A0
:101B90007D020132ECE704F1140E04F1240AA0687E
:101BA0000A902268D4E9033BD4E90C509EE8C05067
:101BB0009AE80007CDE90850CDE900B602A880E810
:101BC000805005A880E8000710460A9A05F07CFFBF
:101BD00030B1022084F8BD0401200BB0BDE8F08FC5
:101BE000002084F83800012084F8BD04606A0128D0
:101BF00002D12046FFF766FA206805F059FF002061
:101C0000EBE7000070B5B4B004462FA81421FEF72E
:101C100070FB01A8B4210430FEF76BFB2068234958
:101C2000884241D14FF40010249002250024CDE9D0
:101C300010440E954FF400600F900A20CDE90C502F
:101C400060200B9005200A904FF48020019001A89D
:101C500000F0C4F808B1FEF7F3FB00F0AFF8144E43
:101C6000B06840F00100B060B06800F00100009082
:101C70003294CDE930544FF4C0502F9000982FA9E2
:101C80000C48FEF7F1FB30680121002240F00070A3
:101C90003060306800F00070009000984D20FEF732
:101CA00073FD4D20FEF762FD34B070BD00000440AE
:101CB000384502580000025810B50446C06828B1E3
:101CC000022801D0FEF7BCFB012100E00021D4F87E
:101CD000080505F01BFAD4F80805BDE8104005F02A
:101CE000CEB9D0F8080505F0FAB9D0F8080505F026
:101CF00000BA10B502F0ABFF04BF022010BD84F89B
:101D0000381003F056F906F04CFA03F0B2B8D0F8E8
:101D1000082500F2C441104605F004BA10B502F0DF
:101D200096FF04BF022010BD03F0FFF906D1A169A0
:101D3000012903D0816B41F48031816306F05CF9A5
:101D4000206805F0A9FE03F094B8000010B5044621
:101D5000D0F8080505F028FA2068D0F8001E41F0F8
:101D60000101C0F8001E206A20B10348016841F05B
:101D70000601016010BD00BF10ED00E0B0B5124DCE
:101D80002A682968520705D401F00701081A18BF0C
:101D90000120B0BD21F00701084302F06DFF0446A9
:101DA00055F8080C800406D4FEF734FC02F0FFFE60
:101DB000F6D90120B0BD0020B0BD00BF02480168C7
:101DC00041F08071016070470C4802580248016878
:101DD00041F4807101607047004802582DE9F047D6
:101DE0000446C078A54F00071CD5A06E4FEA3051BD
:101DF000032908D8DFE801F002090C11F96941F460
:101E00000031F96109E001260DE002F0ECFF01E08C
:101E100003F0DCF8064630B9A06E396C21F44011AD
:101E20000843386400266078BA46C00701D13546B9
:101E300020E0606D04280BD83546DFE800F0030C85
:101E40000F121200F869354640F40030F86108E0DE
:101E5000012501270FE003F0A9F901E002F08EFF50
:101E600005462F463DB9606D02F073FF21F0070172
:101E700002F0CDFF3746607880071ED5A06D4FEA8F
:101E8000B010052807D8DFE800F003090C0F0F0F8A
:101E900002F0EAFE08E0012501260FE003F086F9D2
:101EA00001E002F06BFF05462E463DB9A06D02F041
:101EB00050FF21F4E07102F0AAFF3E46607840072F
:101EC0001ED5E06D4FEA7020052807D8DFE800F046
:101ED00003090C0F0F0F02F0C7FE08E001250127D0
:101EE0000FE003F063F901E002F048FF05462F46DA
:101EF0003DB9E06D02F02DFF21F4606102F087FF33
:101F00003746E07880071DD5A06C4FEA30100328D3
:101F100006D8DFE800F00B02080B02F0A5FE05E092
:101F2000012501260FE002F05EFF05462E4655B959
:101F3000A06CDAF83C100025524621F0300108432D
:101F4000CAF83C003E466078C0061ED5206E4FEAB7
:101F50003030042807D8DFE800F003090C0F0F0029
:101F600002F082FE08E0012501270FE003F01EF9D0
:101F700001E002F003FF05462F463DB9206E02F056
:101F8000E8FE21F4E04102F042FF37466078800627
:101F90001BD5606E4FEA3040052807D8DFE800F017
:101FA0000C03090C0C0C02F0C4FE04E00125012610
:101FB0000CE003F0E9F805462E463DB9606E02F0EC
:101FC000C8FE21F4E02102F022FF3E466078400680
:101FD0001ED5D4F8AC004FEA3070062808D8DFE8E8
:101FE00000F00D040A0D0D0D0D0002F0A2FE04E03C
:101FF000012501270DE003F0C7F805462F4645B936
:10200000D4F8AC0002F0D2FE21F0E04102F011FF62
:1020100037466078000616D5606F58B1B0F1005FA2
:1020200005D0B0F1805F22D102F01EFE02E002F086
:1020300080FE05462E463DB9606F02F08AFE21F013
:10204000405102F0E4FE3E46E078C00702D1B046BF
:10205000574622E0606C574603280BD8DFE800F0B3
:1020600013021013F86940F40030F8610BE0012509
:102070000126E9E701254FF001080EE0104402585F
:1020800002F0B1FE0546A8463DB9606CF96B00252B
:10209000B04621F003010843F863A078400601D45C
:1020A000474616E0D7F8F00340F48070C7F8F00315
:1020B000FEF7B0FA0646D7F8F003C00507D4FEF7DE
:1020C000A9FA801B6428F6D90325032701E02F46CF
:1020D00085B12078C00748D0D4F880004FEAF000DE
:1020E000052832D8DFE800F037033437373702F0FD
:1020F00020FE2FE0DAF86010D4F8B00055464140D9
:1021000011F4407F0BD0296E2A6E42F480322A6689
:1021100021F440712A6E22F480322A662966B0F5D5
:10212000807F40F0CA81FEF775FA064641F2883991
:102130000327DAF86000800700F1BC81FEF76AFA35
:10214000801B03254845F4D9C3E7012501260DE08E
:1021500003F01AF805462E4645B9D4F8800002F07F
:102160004BFE21F0380102F0B8FE3E462078800791
:1021700019D5E06F052807D8DFE800F00C03090C3B
:102180000C0C02F0D6FD04E0012501270CE002F062
:10219000FBFF05462F463DB9E06F02F02DFE21F012
:1021A000070102F09AFE3746207840071BD5D4F885
:1021B0009800052807D8DFE800F00C03090C0C0C88
:1021C00002F0B7FD04E0012501260DE002F0DCFF7E
:1021D00005462E4645B9D4F8980002F0E7FD21F0F7
:1021E000070102F026FE3E46207880061DD5D4F871
:1021F00094004FEA3070052807D8DFE800F00C03A0
:10220000090C0C0C02F0D2FF04E0012501270DE0BF
:1022100002F0DCFE05462F4645B9D4F8940002F0E2
:10222000EBFD21F0E04102F058FE374620784006F1
:102230001DD5D4F8A0004FEAB020052807D8DFE864
:1022400000F00C03090C0C0C02F0B0FF04E00125B7
:1022500001260DE002F0BAFE05462E4645B9D4F837
:10226000A00002F0A3FD21F4E05102F0E2FD3E46A1
:10227000207800061DD5D4F8A4004FEA7030052858
:1022800007D8DFE800F00C03090C0C0C02F08EFFFD
:1022900004E0012501270DE002F098FE05462F46D7
:1022A00045B9D4F8A40002F081FD21F4604102F0A8
:1022B000C0FD37462068010714D5D4F88810B1F561
:1022C000805F07D102F082FE002818BF0127206836
:1022D000D4F88810DAF84420534622F440521143CF
:1022E000CAF84410C10614D5D4F89C10B1F5807F0B
:1022F00007D102F06BFE002818BF01272068D4F830
:102300009C10DAF84820534622F440721143CAF870
:102310004810000318D5D4F8A800B0F5003F09D044
:10232000B0F5803F03D010BB02F040FF01E002F0A7
:102330004DFE05462E4645B9D4F8A80002F036FDFC
:1023400021F4403102F075FD3E46A07840071ED5CD
:10235000D4F88C00B0F5401F0FD0B0F5001F09D0A5
:10236000B0F5801F40F0A38002F07EFC05E001255F
:102370000126EAE702F008FF05462F4645B9D4F8E2
:102380008C0002F039FD21F4401102F0A6FD374621
:10239000A078C00701D13E4619E0E06CB0F5803F5F
:1023A00003D090B902F060FC02E002F01CFD05468B
:1023B0002E4665B9E06CDAF83C100025524621F44F
:1023C00080310843CAF83C00E5E701250126206872
:1023D000810005D502F0FAFD002818BF012620680B
:1023E00081031CD5D4F884106FF0010202EB312276
:1023F000022A0AD34FEA31223AB1012A06D1DAF889
:102400001C2042F40032CAF81C200DB1012606E05F
:10241000DAF8442022F440721143CAF84410C10291
:1024200007D5A16FDAF8402022F000421143CAF824
:102430004010810207D5E16EDAF8402022F0807268
:102440001143CAF84010010507D5216FDAF848207A
:1024500022F000621143CAF8481041000CD5DAF8A6
:10246000001021F40041CAF80010D4F8B410DAF8D2
:1024700000201143CAF80010B0F1FF3F07DC216DC6
:10248000DAF83C2022F040521143CAF83C10000216
:1024900007D5D4F89000DAF8441021F4400102F096
:1024A0001CFD002E18BF01263046BDE8F08701252F
:1024B00001276DE75546D4F8B0002A68094900F4B1
:1024C000407322F47C5201EA1011B3F5407F6FF3A0
:1024D0001F3008BF0A432A60296E0843286600257A
:1024E000DEE500BFCFFFFF002DE9F843002800F034
:1024F000FB807F4D04468846286800F00F00884224
:102500000BD2286820F00F0040EA080028602868F5
:1025100000F00F00404540F0E7802068BB4F4107C6
:1025200009D52169BA6902F01AFD04D9BA6922F005
:1025300070021143B961010709D56169FA6902F0B6
:102540000EFD04D9FA6922F070021143F961C10647
:102550000AD5A169FA6902F4E062914204D9FA69E4
:1025600022F4E0621143F961810609D5E1693A6A12
:1025700002F0F5FC04D93A6A22F070021143396284
:1025800010F002010AD0E268BB6903F00F039A421F
:1025900004D9BB6923F00F031A43BA61C2073AD0CA
:1025A000D4E90101BA6922F470621143B9610128CA
:1025B00007D0032809D002280BD1396889030CD42D
:1025C00092E03968C90508D48EE03968890104D4DD
:1025D0008AE03968490740F187803969A94621F0C6
:1025E000070108433861FEF715F8064641F28835C1
:1025F0006068396901F03801B1EBC00F07D0FEF710
:1026000009F8801BA842F3D90320BDE8F8832068AD
:102610004D4600F0020151B1E168BA6902F00F02C3
:10262000914204D2BA6922F00F021143B9612968BC
:1026300001F00F0141450AD9296821F00F0141EA53
:1026400008012960296801F00F0141454CD141077B
:1026500009D52169BA6902F082FC04D2BA6922F074
:1026600070021143B961010709D56169FA6902F085
:1026700076FC04D2FA6922F070021143F961C106B6
:102680000AD5A169FA6902F4E062914204D2FA69BA
:1026900022F4E0621143F96180060AD5E069396AE3
:1026A00001F07001884204D2396A21F070010843B8
:1026B000386200F041F8B9691C4A1D4BC1F303218F
:1026C000515C01F01F01C840B969186001F00F01A9
:1026D000515C01F01F01C8401649086005480068B8
:1026E000BDE8F843FDF7CEBF0120BDE8F88300BF89
:1026F000002000520800002480B500F01DF80A49AF
:102700000A4B0A68096801F00F01C2F30322595C01
:102710009A5C01F01F0102F01F02D040044A1060D1
:10272000C8400449086080BD184402582890000839
:102730000C0000241000002410B534490869C0F3CF
:10274000C20003280FD0022804BF324810BD40B990
:1027500008688006334858D50968C1F3C101C840EC
:1027600010BD2B4810BD8A6A886ACB6A4C6BC0F3D7
:102770000510F0B103F00103C4F3CC0402F003022E
:102780006343022A00EE103AB8EE400A13D0AAB909
:102790000A68920651BF9FED221A0A68C2F3C1026D
:1027A000204B42BF23FA02F201EE102AB8EE411A82
:1027B00006E0002010BD9FED191A01E09FED161AEA
:1027C0000A6B9FED193A6FF35F2202EE102AB8EE02
:1027D000422A00EE032AB7EE000A32EE000A02EEA9
:1027E000100A086BC0F34620B8EE422A013081EE91
:1027F000021A21EE000A01EE100AB8EE411A80EE2C
:10280000010ABCEEC00A10EE100A10BD00440258C6
:1028100000093D0040787D010024744A20BCBE4B75
:102820000024744C0090D00300000039F8B5002853
:1028300000F0C58004460078DA4EC0071FD120782A
:10284000800766D5306910F03801B06A44D0182985
:1028500001D1800740D03068E168002900F00C8188
:1028600020F01900084302F09FF905463068400740
:1028700048D4FDF7CFFE401B0228F7D990E130691C
:1028800000F03801B06A102905D018290AD100F0EB
:102890000300022806D130688003D0D56068002884
:1028A000CDD18CE06068002800F04681B0F5A81F0B
:1028B00000F05981B0F5A02F00F05D81B0F5803FA8
:1028C00000F05F81306820F480303060306820F4A0
:1028D000802002F0B4FB57E1E0683168490701D578
:1028E00000286CD0316821F01901084302F05CF92E
:1028F00005463068400705D4FDF78CFE02F0B0F9BC
:10290000F7D9F8BD2069716821F0FE4141EA006005
:1029100070602078C00618D5306900F03801B06AC0
:10292000082905D0182971D100F0030001286DD1C4
:102930003068C00502D5E069802840D1206AF1687E
:1029400021F07C5141EA0060F0602078000738D423
:102950002078800648D4207840076AD4676A67B335
:10296000306900F03800182840F0CA80B16A306B36
:10297000012F24D0A26A01F0030393421FD1E26A1F
:10298000C1F3051191421AD10146226B6FF35F2109
:10299000013A914213D1626BC0F34621013A914250
:1029A0000DD1A26BC0F30641013A914207D1E16B10
:1029B000C0F306600139884201D10020F8BD012032
:1029C000F8BD706F6169002946D040F00100706762
:1029D000FDF720FE0546706F8007B9D4FDF71AFE9B
:1029E000401B0228F7D9DBE03068A169002969D0D3
:1029F00040F4805002F0D8F8054630688004AAD42C
:102A0000FDF708FE401B0228F7D9C9E03068E169EC
:102A1000002966D040F0800002F0C6F80546306814
:102A2000C0053FF58BAFFDF7F5FD02F019F9F6D9BA
:102A300067E7D6F8000440F48070C6F80004FDF79C
:102A4000E9FD0546D6F80004C00524D4FDF7E2FDF3
:102A5000401B6428F6D9A3E020F001007067FDF761
:102A6000D9FD0546706F80077FF572AFFDF7D2FD87
:102A700002F0F6F8F6D944E720F0010002F094F8ED
:102A80000546306840077FF544AFFDF7C3FD02F00F
:102A9000E7F8F6D935E7A068002800F0858085289A
:102AA00000F09C80052800F0A180012800F0A4809F
:102AB000306F20F001003067306F20F0040002F02A
:102AC000DCF99CE020F4805002F06EF80546306896
:102AD00080047FF540AFFDF79DFD02F0C1F8F6D907
:102AE0000FE720F0800002F05FF805463068C0056F
:102AF0007FF52BAFFDF78EFD02F0B2F8F6D900E7B7
:102B0000306820F0807002F04FF80546022F09D19E
:102B10003068800140F18480FDF77CFD02F0A0F870
:102B2000F6D9EEE6306880017FF547AFFDF772FD1C
:102B300002F096F8F6D9E4E6306820F4803002F02E
:102B40007EFA3060306820F4802002F02DF80546CF
:102B5000306880037FF573AEFDF75CFD411B0320F9
:102B60006429F5D9CDE6306840F4802030603068C3
:102B700040F4801004E0306840F4802002F05FFAF6
:102B80003060306840F4803002F00EF8054630685E
:102B900080033FF554AEFDF73DFD401B6428F6D998
:102BA0000320F8BD00440258306F20F0010002F00D
:102BB00064F93067306F20F004003067FDF72AFDBC
:102BC000054641F28837306F80077FF5C7AEFDF7C5
:102BD00021FD411B0320B942F5D992E6306F40F048
:102BE00004003067306F40F0800004E0306F40F048
:102BF000040002F042F93067306F40F001003067A6
:102C0000FDF708FD054641F28837306F80073FF534
:102C1000A5AEFDF7FFFC411B0320B942F5D970E6D4
:102C200004F12805B06A40F2F33188432ECD084301
:102C3000591E40EA0210B0626FF35F214FF4FE02AA
:102C40004FF47E4000EB452080B20844A16B02EBBC
:102C500001414FF0FE4201F4FE010844E16B02EB3A
:102C6000016101F0FE41084430634FF6F871F06AEB
:102C700020F00100F062706B8843A16C40EAC10053
:102C80007063206CF16A21F00C010843F062F06A75
:102C9000616C20F002000843F062F06A40F480307A
:102CA000F062F06A40F40030F062F06A40F4802094
:102CB000F062F06A40F00100F062306840F080702D
:102CC00001F072FF0446306880013FF576AEFDF7F3
:102CD000A1FC011B03200229F5D912E670B500689A
:102CE0004068030C00F03F05CB708D70C0F30424E6
:102CF000C0F342364C700E70CAB92409020A2D097D
:102D000000F00F06C0F3035002F00F0244EA8404FF
:102D100045EA850500EB800002EB44024A7006EBB1
:102D200045058D7003F00F0202EB4000C8700020D3
:102D300070BD70B5006883684B6003696FF3DF3363
:102D40008B60046804F07F058D70C4F38050C870F8
:102D5000C4F306234B70C4F305400870CAB91B09BD
:102D6000220A2D090009260C04F00F0402F00F02BC
:102D700003EB830305EB850540EA800002EB430289
:102D80004A7004EB45048C7006F00F0202EB400021
:102D90000870002070BD000070B5B8B3044690F80C
:102DA000250028B9002084F82400204600F038F8D7
:102DB000022084F82500CA212068416202F08EF9C1
:102DC00000BB94E80F00154E856935408561256983
:102DD0002943A569294385692943816143EA024161
:102DE000016101F0BBFF68B92068D4E9072361697C
:102DF0001A438569114325F0604585618269114355
:102E00008161002001F0C4FF02D070BD012070BDBF
:102E1000012084F82500002070BD00BFBFFF8FFB9C
:102E200010B5AEB004466846B4210430FDF761FA2F
:102E300020680B49884210D14FF480702C904FF4D9
:102E4000800000906846FEF7C9FF08B1FDF7F8FA68
:102E50000448016841F4004101602EB010BD00BF7C
:102E600000400058704402582DE9F04101F00AFF7B
:102E70003ED084F82500012084F8240032B168781F
:102E8000E978AE78000240EA014714E06E78F00677
:102E900004D506F0EF0000F10A066E70E878DFF85E
:102EA000F480C04707463046C047000240EA074763
:102EB000A878C04706462068CA2141625321416272
:102EC00020462D7802F052FA48B947EA06002168F8
:102ED00020F0C00040EA4530486001F03FFF01F0BB
:102EE00057FF02D1012184F82510002184F8241015
:102EF000BDE8F0812DE9F04101F0C4FE47D084F82F
:102F00002500CA21164620684162012184F8241058
:102F100002F0E4F890BB2768B86900F040001EB1E9
:102F200098B90020E87012E008B90020E87028780D
:102F3000DFF86080C04706466878C04702F002F9B3
:102F4000E978304440EA815009E0E87880056A7801
:102F50002978AB78120242EA0141194408430E492C
:102F600008403860B86920F48020B861D5E90301D1
:102F70000843B9690843B86101F0F0FE01F008FFA9
:102F800002D1012184F82510002184F82410BDE825
:102F9000F08100BF495300087F7F7F00B0B5044631
:102FA0000068C16821F0A001C160FDF733FB054650
:102FB0002068C068800606D4FDF72CFB02F00BF8F1
:102FC000F6D90320B0BD0020B0BD0000F8B538B37D
:102FD000044600204749A0622068884208D0464A3B
:102FE000904205D0854A904202D0E2680F2A17D855
:102FF000E268E36B0125083205EB5313D2085A430C
:1030000088420BD07D49884208D03B4B984218BF7C
:10301000082A05D8884218BF984203D1102A01D93E
:103020000120F8BD94F8811029B901F0B6FE2046C0
:1030300000F064F82068022184F8811001F060FF3C
:10304000D4F818C06168836803F4F813BCF1806F8A
:1030500012D139B1B1F5800F0ED1A56B35B14FF456
:10306000800109E0A56BB5F1805F04D1056845F4E6
:103070008055056000E00021E56904F108076269F8
:103080002B43A56A2B43E56B2B43E0CF334383608F
:10309000636B666A43EA0C033343A66B33433B43DB
:1030A0001A43236A1A43D4E912360A4332432A43A5
:1030B0001A43A36D1A43C26049B98268012363F3BE
:1030C000CC2282600223826863F34A228260026D0E
:1030D000490222F00102026505D5616DC26822F045
:1030E00000421143C1600020C4F88400012184F82B
:1030F0008110F8BD00380040003C004070B5B4B00D
:1031000004462FA81421FDF7F4F801A8B821FDF713
:10311000F0F82068384988423DD03849884268D163
:103120004FF4805000251995019001A8FEF756FE36
:1031300008B1FDF785F93248324C0226016941F4A5
:1031400080510161016901F4805100910099016889
:1031500041F008010160016801F008010091009947
:10316000016841F002010160006800F00200009077
:103170000098CDE9315530960520339080202F906E
:103180002FA904F50060FDF76FF918203295CDE9FD
:1031900030652F9027E04FF4005000241A940190DE
:1031A00001A8FEF71BFE08B1FDF74AF914480169B2
:1031B00041F400510161016901F40051009100994D
:1031C000016841F010010160006800F010000090FB
:1031D000CDE93144022030904FF4A0402F90009868
:1031E000084800F54064052033902FA92046FDF7DC
:1031F0003BF934B070BD00BF0034014000300140E5
:1032000040450258000402582DE9F8430446D0E92D
:103210000050994617460E46B0F5800F02D1A068BF
:10322000002856D094F8800001284FD0012084F85F
:103230008000FDF7EFF9804601F05EFE44D1002EDC
:1032400054D0002F52D0042001F0DBFDA4F86A70A6
:10325000A4F868706666A4F86000E065C4E91C0024
:10326000A4F86200A1682068B1F5C02F03D10168FD
:1032700021F40061016001F0B2FE01D101F033FFE1
:10328000E068102836D348F2080509F10106B4F8C1
:103290006A00002861D020684169294206D0006B8D
:1032A000616E01C1616601F0F4FCF0E7FDF7B2F96F
:1032B000002EECD0A0EB08004845E8D301F051FD0A
:1032C00001F081FCBDE8F88301F067FD0220BDE854
:1032D000F883042084F88100314632463B46CDF81D
:1032E0000090204600F00BF9BDE8F88301F093FD53
:1032F000BDE8F883072819D909F10106B4F86A0076
:1033000058B320684069C00708D1FDF783F9002E43
:10331000F4D0A0EB08004845F0D3CFE7288E616ECB
:1033200021F8020B616601F0B4FCE7E709F1010541
:10333000B4F86A0088B120684169C90708D1FDF76F
:1033400069F9002DF4D0A0EB08004845F0D3B5E7AB
:1033500001F073FD01F09DFCEAE701F002FD01F0D0
:1033600095FD18BF0120BDE8F8832DE9F04701F075
:1033700022FD49D001201D4617460E4601F053FD9F
:10338000804601F0B9FD3DD1002E40D0002F3ED047
:10339000032001F036FDA4F86270A4F86070E665C1
:1033A000A4F868006066C4E91C00A4F86A00A1687B
:1033B0002068B1F5C02F03D1016841F400610160BC
:1033C00001F00DFE01D101F08EFEE068102822D33D
:1033D0006E1CB4F8620000287BD020684169890720
:1033E00008D4FDF717F9002EF3D0A0EB0800A8428F
:1033F000EFD37EE001F0C3FDB4F862000138A4F819
:103400006200E6E701F0C9FC0220BDE8F08701F0A8
:1034100002FDBDE8F087072825D901F082FDB4F848
:103420006200002855D020684169890708D4FDF75B
:10343000F1F8002EF3D0A0EB0800A842EFD358E03B
:10344000B4F86210022905D3E16B19B101F097FDC0
:10345000504602E001F059FD3846B4F862100844C5
:10346000A4F86200DBE701F05CFDB4F8620080B311
:1034700020684169890708D4FDF7CCF8002EF4D004
:10348000A0EB0800A842F0D333E0B4F8621004299E
:1034900007D3E16B412904D301F071FD4FF6FC70B5
:1034A00011E0B4F86210022905D3E16B19B101F003
:1034B0002CFD504607E0E16D097880F82010E06DA2
:1034C0000130E0653846B4F862100844A4F86200A0
:1034D000CBE7204641462A4602F0F2FA08B101F055
:1034E00004FD01F03EFC01F0D1FC18BF0120BDE855
:1034F000F08701F036FC01F066FBBDE8F0872DE9AE
:10350000F84F01F058FC73D001209B4615460F463A
:1035100001F089FC804601F0EFFC5ED1002F6AD0FB
:10352000002D68D0BBF1000F65D094F8810004280D
:1035300002D0052084F881000021C4F88410A4F88A
:103540006AB0A4F862B04FF6FF76D4E9000243688F
:10355000B3435B4443606566A4F868B0E765C4E9BB
:103560001C11A4F860B0B2F5800F016841F00101B0
:10357000016001D101F0B7FDE068DDF828A0102856
:103580003DD348F208050AF101075E4656EA0B00F2
:1035900000F0998001F0F8FC18BF11F0020104D08E
:1035A000E16D04C9026201F010FC416966B1294075
:1035B0000AD0006BB4F86A100139A4F86A10616E81
:1035C00001C16166B4F86A60FDF724F8002FDDD010
:1035D000A0EB08005045D9D36FE06168B1F5800FCA
:1035E00004D1042802D1A068002897D001F0D5FBAF
:1035F0000220BDE8F88F01F00EFCBDE8F88F0AF15B
:103600000105072828D95E4656EA0B005BD001F079
:10361000BBFC18BF11F0020106D0E16D31F8022B9E
:10362000A9F8202001F0D1FB406966B110F001003B
:1036300009D0B9F83000616E21F8020B01F029FBC6
:103640006166B4F86A60FCF7E5FF002DDCD0A0EB02
:1036500008005045D8D330E05F4657EA0B0032D01F
:1036600001F092FC18BF11F002010ED0E16D097853
:1036700080F82010B4F862000138A4F86200E16D0F
:1036800020680131E165B4F862B041696FB111F0B1
:1036900001010AD090F83000616E087001F0F9FA6B
:1036A000606E01306066B4F86A70FCF7B3FF002DFD
:1036B000D3D0A0EB08005045CFD301F052FB01F06E
:1036C00082FABDE8F88F20464146524602F0F8F9EA
:1036D00008B101F00AFC01F044FB01F0D7FB18BF70
:1036E0000120BDE8F88F0000411E0020B0EB116FF3
:1036F00001D001207047044AF023516003490B7048
:10370000906007211160704710E000E023ED00E0B9
:10371000F0B590F83C20012A01D1022140E091E867
:103720003C00204E25F47C5524F47054334022F4A0
:1037300077222C43684D23431A430B6923F47623E5
:103740001A434B691A430B6B22F4742223F470233F
:103750001A438B6942EA0343026842F48064AC4234
:1037600002BF23F08053CE693343AC4214D1AE463E
:103770008D6A0D4FD1E9086C23F07C7307EA05557B
:103780002B4326F000752B4343EA0C03744502BF1C
:1037900023F00053C96A0B43002180F83C105364A6
:1037A0000846F0BDFF87F0FF0000F0FC70B590F810
:1037B0003C300222012B2CD080F83D20464C026880
:1037C00042F4806655689368A64202BF25F47005EE
:1037D0004E6835430E6825F0700535435560B2F1EB
:1037E000804F0BD0374DAA421CBF374DAA4205D09F
:1037F000364DAA421CBF364DAA420CD123F080039D
:10380000896819439160002280F83C20012180F8EA
:103810003D10104670BD804DAA42EFD02D4DAA42FA
:1038200018BFA242EAD0EEE710B5044641B108291C
:103830000ED0042914BF04F1470004F1450009E04B
:1038400094F84400012812D1022084F8440012E0C8
:1038500004F146000078012809D10220082908D087
:10386000042914BF84F8470084F8450003E00120D0
:1038700010BD84F846002068042203F077F801F0B8
:1038800029FA0BD00F4881421CBF0F48814205D056
:103890000E4881421CBF0E48814208D188680F4AF9
:1038A00001F01FFB18BFB2F5803F09D110BD5A4887
:1038B0008142F3D007488142F0D007488142EDD0E1
:1038C00001F045BC0004004000080040000C00402E
:1038D00000180040004001400004014007000100C2
:1038E000FEB500684C49884217D10D48016841F087
:1038F00010010160006800F01000009001200590A8
:103900000020CDE90300022002904FF48060019076
:10391000009801A90348FCF7A7FD06B080BD00BFD1
:103920004045025800100258B0B501F01DFC04BF1C
:103930000220B0BD01F011FC052948D8DFE801F0F4
:10394000030B131B23332068294603F01FF820685C
:1039500050F8181F1EE02068294603F057F8206829
:1039600050F8181F26E02068294603F089F82068DF
:1039700050F81C1F0EE02068294603F0BDF82068AF
:1039800050F81C1F16E02068294603F0E5F820686F
:1039900050F8541F41F008010160016821F0040152
:1039A000016029690FE02068294603F0FFF82068CC
:1039B00050F8541F41F400610160016821F48061F6
:1039C0000160296909020268114301600020002199
:1039D00084F83C10B0BD58B110B501F05EFB03D1C6
:1039E00001F09AFA00F006F801F0E4FB01F057B993
:1039F0000120704781B000680749884209D1074813
:103A0000016841F001010160006800F001000090D0
:103A1000009801B0704700BF0000014050450258B7
:103A2000FEE7F0B55200002337240025AA4208BF64
:103A3000F0BD070F04EB1076B0F1204F38BF07F14F
:103A400030064E5545F00106023500018B55EDE775
:103A500070B52DED048B194E0C463168896B81428F
:103A600028D03CB300EE101A01EE104AB8EE408A9E
:103A700000EE100AB8EE411AB8EE400A30EE480ADD
:103A800080EE019AFCF7C6FD05460120FCF7DCFC40
:103A9000FCF7C0FD401BB0EE481A316800EE100A7A
:103AA000A042B8EE400A09EE001ABCEEC10A81ED50
:103AB0000E0AEAD3BDEC048B70BD00BF1C230024AA
:103AC0002DE9F04F03AF91B0814608208A461D468C
:103AD00016466C460C2B08BF062047F8200C5843AE
:103AE000072101EB4000934920F00700B1F800B036
:103AF000ADEB000047F8280C85468F48A7F1180168
:103B000000F10808404602F0B3F9A7F1140140465D
:103B100047F8448C02F0B2F9A6F1200047F81CBC2B
:103B200047F8409C47F8344CC1B2B86947F82C1CA0
:103B300000286FD07F4857F8146C4FF000085446A7
:103B40004FF0000C47F8389C008800BA020C57F878
:103B5000180C47F83C0C794800EB011047F8240C8E
:103B600010465A46A84500F0CC80864657F82C0CE3
:103B700057F8241C0C2D01EB080300EB40017048A2
:103B800000EB810108BF01EB080357F8280C28F06F
:103B900001011B7800EB010B70464FF0000E04F1A1
:103BA000080147F8301CBEF1070F2ED859B2B1F109
:103BB000FF3F08DC1FFA8CF157F8202C514357F8CF
:103BC0001C2C2BF811000CF1010C1FFA8CF1A942EE
:103BD0004FF0000128BF8C4601341FFA84F94E458E
:103BE00040F29E80A9EB0A015B000EF1010EA94292
:103BF000D9D157F8381C57F83C3C5446013147F8A6
:103C0000381C89B28B4202D88AE057F8304C08F150
:103C10000108A7E79BFA9BF047F8240C57F814BC5F
:103C200000264FF0000E47F8489CC748008890FADD
:103C300080F857F8180C47F84C0C404800EB01107E
:103C400047F8380C5046AE425BD057F82C2C57F84A
:103C5000381C0C2D314402EB4203394A02EB83033A
:103C600008BF99190C7857F8282C47F8306C26F0C3
:103C70000101002302EB010900F1080147F83C1C97
:103C80002C490988072B34D861B21FFA8EF20EF145
:103C9000010EB1F1FF3F57F8241CC8BF4FEA18418D
:103CA00057F8206C724329F812101FFA8EF2AA42BC
:103CB0004FF0000228BF964601301FFA80FCE34512
:103CC00057F81C2C2CD9ACEB0A0201336400AA4231
:103CD000D8D1184857F81C2C018057F8480C57F8D1
:103CE0004C1C013047F8480C80B28142504604D841
:103CF00016E01048018057F83C0C57F8306C01363C
:103D0000A1E782B057F8200CCDE90005524657F8DC
:103D1000283C57E9110102F001F857F81C2C02B0B9
:103D20000448028057F834DCA7F10C04A546BDE82E
:103D3000F08F00BF74000024A00100243DF90008AA
:103D4000C9F400082DE9F84F834658180C46DDF8F1
:103D500028900B9F02EB0B014FEA590886B25D4693
:103D60001FFA81FA3A78A2F12000C0B25E2811D879
:103D7000A8B2504524BF5FFA8BF54C44A1B2B142C2
:103D800008D2002000904B46A8B2FFF799FE4544A8
:103D90000137E7E7BDE8F88F2DE9F04F87B0694CB0
:103DA0004FF48070684D694905F1080BA08103202C
:103DB000A060584602F0AAFA654E584605212246F0
:103DC00033689847B268291D58469047DFF884A1A8
:103DD0000021614B0022DAF800008163584600217F
:103DE000B46AA047FCF716FC05465C485C4E6427A5
:103DF000A0EB050901F029F8012858D00A20FCF7AA
:103E000023FBFCF707FC0446FCF704FCA0EB0508C9
:103E1000601BB0F57A7F09D808FB07F04FF47A7180
:103E2000B0FBF1F0DAF800108863E3E7FCF7F2FB8F
:103E300040F6B831884531D848440A2102ACB0FB7D
:103E4000F1F2204647A104F037FEDFF8F880102099
:103E500001211023B8F80020CDE90004A2F11E00D2
:103E600080B2FFF76FFF3A483746D8F80460846B9A
:103E7000FCF7D0FBD8F800104844032200924843D6
:103E80004FF6FF724FF4FA610192F21E3E4664272C
:103E9000B0FBF1F358460021A047ABE7401B40F6CA
:103EA000B9318842A6D302E00A20FCF7CDFA00F02F
:103EB000CCFF0128F8D000204FF496710024FFF7C2
:103EC000C7FD23481F4E00210022856BD6E9003034
:103ED000CDE900045846A84724480290274C1023F7
:103EE000102522A0D0E90112CDE90312007B32880F
:103EF0008DF8140004200421009502AF0197A0471B
:103F0000FCF780FB02461EA1384604F0D5FD32883E
:103F1000042016211023CDE90057A0470A481CA110
:103F20004268384604F0C8FD328804202821102356
:103F3000CDE90057A0476420C82107B0BDE8F04F85
:103F4000FFF786BDF4010024A00100247C010024B9
:103F5000780000241C2300248090000818FCFFFF38
:103F600000080258253033640000000057654163A3
:103F7000742053747564696F00000000453D0008AB
:103F800053544D3332483778782030782558000024
:103F90004C43442049443A307825580070B500F02D
:103FA00032FE17D041F218002844017999B19E4E93
:103FB0002046317803F0E6F8687A02280AD1317891
:103FC000204603F0DFF8994801782046BDE87040AC
:103FD00003F0D8B870BD00680028E8D0687A0028DF
:103FE000E5D192480178204603F0CCF8DFE700BF26
:103FF00010B50446D0F8D40200F081FE14D0407A07
:1040000002280BD188480178204603F0BBF8874886
:1040100001782046BDE8104003F0B4B849B2B1F1D0
:10402000FF3F01DC012800D110BD20460121BDE881
:10403000104000F0D9B800BF10B50446D0F8D40243
:1040400000F05DFE17D0017ACA1E022A05D2204672
:104050000021BDE8104000F0C7B802290BD141F2A1
:104060001D0141F21F020244415C204601F0E4F9C7
:10407000B0F1FF3F00DD10BD20460121E9E700005F
:1040800070B500F0C0FD33D041F210002E18287A30
:10409000012823D060BBD6E90101C6E909016348C4
:1040A0000178204602F06DFF1F280AD130682C49A4
:1040B000884206D1717B012903D8B07B08B1112851
:1040C00017D3717B20460522202301F07DFC0220BE
:1040D00068722046BDE87040FFF760BF41F21F00E4
:1040E000717B2A18204601F0A7F9B0F1FF3F2EDDC1
:1040F00070BD41F21F002A18204601F09DF9297A6F
:10410000B0F1FF3F21DD481E0328F1D3EB6823B354
:10411000D4F8D40200F0F3FDEAD041F218010022F5
:1041200001440E6A81F824200A68F61A0E620421FE
:1041300001723D489A4238BF134605F110020178DA
:104140002046BDE8704003F038B80529C1D12046AB
:104150000121BDE8704000F047B820460021F8E793
:1041600055534243D0F8D41200EB8100D0F8C0027E
:1041700008B100210172704770B500F044FD1AD0FB
:1041800005F5835100222A810A808A70D0F8C40282
:10419000016800208847254E2046317802F0E8FE6D
:1041A00021480178204602F0E3FE00F086FEBDE8DB
:1041B000704002F05BBF70BD70B500F024FD12D0FE
:1041C0004FF48070288118480178204602F029FEBB
:1041D000164E2046317802F024FE00F06EFEBDE857
:1041E000704002F043BF70BDB0B500F00CFD18D0B8
:1041F00041F230000D232A180A481060002028726E
:10420000117309480178204602F0D7FF41F21000EF
:104210001F232A18054801782046BDE8B04002F067
:1042200025BFB0BD5553425314000024150000248F
:104230002DE9F04F87B036484FF00008CDF81880D0
:10424000354F0022016841F010010160016801F062
:10425000100100F07DFC41F004010160016801F0F3
:10426000040100F075FC41F080010160016801F07B
:10427000800100F06DFC41F002010160016801F075
:10428000020100F065FC41F008010160016801F0E5
:10429000080100F05DFC41F00101016000680821A7
:1042A00000F00100019001981A4800F5006683466D
:1042B0003046B84730464FF4205101224FF00109F3
:1042C000B8470BF58065402100224FF0400A284690
:1042D000B84742F608000290CDF81480CDE9039863
:1042E00002AF0E4C30463946A0470220CDE903808C
:1042F00039464FF4005002905846A04728463946A8
:10430000CDE90488CDE902A9A04707B0BDE8F08F48
:104310004045025800080258FB05000869040008DF
:10432000B0B586B068461821FBF7E3FF16480822AF
:104330004FF08043002102250124C0E90A31C0E981
:104340000C121722114BC0E90815C0E90E11C0E983
:104350000034C0E90211C0E90425C0E90614FCF7E5
:1043600039FD08B1FCF76CF84FF00110CDE90240BF
:10437000694641F2883200940348FCF731FA08B1EB
:10438000FCF75EF806B0B0BD7C1C00240050005263
:10439000B0B586B0194800244FF08041184DFF2277
:1043A0007F23CDE90244CDE90044C0E90054C0E9CF
:1043B0000232C0E90444C0E90641FEF7EDFC08B151
:1043C000FCF73EF81220ADF80400CDE904448DF866
:1043D000064001A901220948FEF78CFD08B1FCF74F
:1043E0002FF808480090694601220448FEF73CFD7A
:1043F00008B1FCF725F806B0B0BD00BFE4210024E9
:10440000004000580306012270B5114C002007231C
:104410004FF080514FF080624FF480050D4EC4E99B
:104420000203C4E90400C4E90800C4E90A0000F07A
:1044300093FBC4E9006504F13800FBF75AFF2046FE
:10444000FEF7C4FD18B1BDE87040FBF7F9BF70BDC1
:104450000C22002400300140F8B5124C00204FF02F
:1044600000514FF0806207234FF4C0254FF48006BF
:104470000D4F2062C4E90400C4E90900E06200F0C5
:104480006BFBC4E90076C4E9025304F13800FBF782
:1044900030FF2046FEF79AFD18B1BDE8F840FBF763
:1044A000CFBFF8BD9422002400340140B0B598B0CD
:1044B0000EA81C21FBF71DFF01A83421FBF719FFF3
:1044C0002448002440F2E7310D22234BC0E900329A
:1044D000C0E90241C0E904448461FFF77CFA08B1F5
:1044E000FBF7AEFF1794CDE915441A4815A9FFF75D
:1044F0005DF908B1FBF7A4FF082011900025149581
:10450000CDE91255CDE90F55042260200E900EA979
:104510001048FFF709FA08B1FBF792FF01AC14212C
:104520002046FBF7E6FE4FF00070CDE9095021462A
:104530000D950B9507954FF4005006900548FFF731
:10454000E7F808B1FBF77CFF0248FFF7C9F918B09C
:10455000B0BD00BF1C2300240000014080B503F063
:104560003DFF00F00BF910481049012202F046FC13
:1045700008B1FBF765FF0C480D4902F052FF08B186
:10458000FBF75EFF08480B4902F0CAFE08B1FBF7D3
:1045900057FF054802F06AFF08B1FBF751FFBDE87D
:1045A0008040FDF70BBC00BFA019002418000024B8
:1045B000DC00002440010024FEE7FEE72DE9F04185
:1045C00002688368146824F0405414602BB94B6867
:1045D000146824F08004234313600B68032B0AD073
:1045E000022B11D102F5D07602F5C87C02F5C47514
:1045F00002F5C07E10E002F5B07602F5A87C02F567
:10460000A47502F5A07E07E002F5907602F5887C9D
:1046100002F5847502F5807ED1E912473C43CEF85D
:104620000040CC6A6CB18C6A3460DEF80040D1E99D
:104630000B674B6B24F47C14344323433B43CEF889
:1046400000302B684C6C23F01F0323432B608D6BD1
:1046500025B10B6813B9CB6B013B1364CF68CE69EE
:10466000B7B1DEF8004036B3D5B3434847EA050397
:1046700020403343D1E90445D1E908672B4318436F
:104680000B6C2043384330431843CEF8000045E01C
:10469000002E47D0DEF80000002D48D0364B3F33C7
:1046A000184046EA0503D1E908452B431843204347
:1046B00001F1400442E0002D49D02F4847EA0502AD
:1046C0000D6C00F57C502040D1E9043422431043A6
:1046D00018432843CEF800008868CCF8000033E087
:1046E00043F63F7324EA030846EA0704D1E9045677
:1046F000D1E90873344344EA08042C4323433B4381
:10470000CEF80030C06AB0F1805F07D14869082850
:1047100004D1DEF8000040F00060B6E78868CCF80D
:1047200000000FE0082141650120BDE8F0814B6ADF
:1047300020F47C5001F120043343184323681843CC
:10474000CEF80000886990640020BDE8F081D1E9CE
:10475000042324F03F043B4323431A43CEF80020B4
:10476000C06AB0F1805FB7D148690828B4D1DEF8DB
:10477000000040F00060ADE7C0C0FFF080B505204C
:10478000FBF762FE00F058F90520FBF75DFE0948D3
:10479000043000F0CDF818B9064800F0ADF810B1BB
:1047A0004FF0FF3080BD00F053F8002818BF4FF0E5
:1047B000FF3080BDE00100242DE9F04194B0804637
:1047C000B848002516460F46CDE90C55CDE90A55E7
:1047D000047800F0D6FC03200595694641F2883242
:1047E000002C08BF0120CDE90305CDE9005509954E
:1047F0004FF44070002C08BF4FF4807007904FF0CA
:10480000020008BF322002900B950697CDE91055A3
:10481000CDE912554FF4005008904FF04070CDE9AB
:104820000E06A148FCF782FA30B99F48414641F292
:104830008832FCF712FC20B14FF0FF3014B0BDE815
:10484000F08100F011FB002818BF4FF0FF30F5E7B2
:10485000B0B596B093480478012C06D00DF1030250
:104860002046352103F014FF18B14FF0FF3016B089
:10487000B0BD9DF8030080073CD400F082FC002806
:10488000F3D19DF80300382140F002008DF80300B9
:104890008DF8570001AD2846FBF72BFD00200321C2
:1048A000069041F28832002C08BF0121CDE90410A6
:1048B0000A9008901190312103914FF40051099111
:1048C000002C4FF0407108BF4FF0807100F0AAFB40
:1048D00075482946FCF72AFA0028C6D172480DF11E
:1048E000570141F28832FCF7B8FB002818BF4FF09F
:1048F000FF30BCE70020BAE7B0B56A4D0446052199
:104900002246287803F0C4FE28B92878621C352195
:1049100003F0BEFE10B14FF0FF30B0BD2878A21CEE
:10492000152103F0B5FE002818BF4FF0FF30B0BDD1
:1049300070B596B004465B483821067802AD28462B
:10494000FBF7D7FC00204FF04071CDE90600129034
:1049500041F28832002E08BF4FF0807110910D9007
:1049600009901590CDE913009F2103200491119027
:10497000002E08BF0120059029464B48FCF7D6F9C8
:1049800028B949480DF1050100F0CFF918B14FF0F1
:10499000FF3016B070BD9DF806109DF805009DF81B
:1049A0000720090241EA0040104420600020F0E79F
:1049B000B0B594B004463B48032503780020CDE908
:1049C00000000590002B08BF0125CDE90350099098
:1049D0004FF4407507950B25002B08BFEB2502957A
:1049E00006910D904FF40055082108954FF440357D
:1049F000CDE90B50002B08BF042111911090CDE997
:104A000012002948FF210A914FF04071CDE90E12A2
:104A100041F288326946FCF789F910B14FF0FF3056
:104A200007E02148214600F080F9002818BF4FF028
:104A3000FF3014B0B0BD00BF80B5012003F072FE9E
:104A4000012003F05BFE002003F06CFE002003F069
:104A500055FE002080BD000070B594B00646114898
:104A60006D4600F070F900F08CFB00F092F808BF82
:104A7000012100F051FB08BF4FF4807100F077F97D
:104A800009480696202100F011FB10B14FF0FF30CD
:104A900005E000F0E9F9002818BF4FF0FF3014B02E
:104AA00070BD00BFF00100247C1C0024F8B5064650
:104AB000C8B214460D46C0F58070904228BF10461B
:104AC00087B2304629463A46FFF776FE58B9BC42CF
:104AD0000CD0E41B3D443E442046B4F5807F28BF03
:104AE0004FF48070ECE74FF0FF30F8BD0020F8BDC8
:104AF0002DE9F843DDF82090984616460F46044607
:104B000009F101052068006A384018BF0120B04251
:104B100014D0002DF6D0FBF77DFDA0EB0800484532
:104B200002D8B9F1000FEDD14FF400702065606D2F
:104B300040F0010060650120BDE8F8830020BDE879
:104B4000F88300000148FCF71FBC00BFD81C0024FC
:104B500001910199016870474FF08040C4E9062136
:104B6000606324217047214602F0B4B80D46064622
:104B70004FF4006100222046FBF73FBD8DF8EF00A7
:104B80003946012230465847402100222846FBF78B
:104B900034BD00200321059041F28832002C70477B
:104BA000DAF8000003F0ADBA3060FBF733BD001B4C
:104BB000B0F57A7F70472046022101222B460096ED
:104BC0000226FFF795BFD4F8840040F48070C4F843
:104BD0008400002084F88000012084F881000320F4
:104BE0007047D0F8D42200EB8202D2F8B822002A13
:104BF0007047204602F02BB800F00F0000EB800059
:104C000004EB800070470446D0F8D40204EB800027
:104C1000D0F8C052002D7047D0F8C40281683846E1
:104C200008474FF400610122FBF7E7BC30463946E4
:104C30000122704740210122FBF7DFBCCDE90310C0
:104C40001390CDE911000E900B9007907047044629
:104C500090F8BC0401287047C0F804180020704781
:104C6000411B032002297047DAF81C00514640F42A
:104C70000030CAF81C0070472860FBF7CBBC044624
:104C8000FBF7C8BC0D4690F8241004460220012909
:104C90007047B4F86A000138A4F86A007047012030
:104CA00084F8480084F83E0084F83F0084F840000F
:104CB00084F8410084F8420084F8430084F84400FA
:104CC00084F8450084F8460084F8470084F83D00E5
:104CD000002010BD2168B1F1804F486C40F40040C5
:104CE000486470470020C4F8D4022046104720468C
:104CF00001F0D0BF05463046012101F0D6BF04EBDC
:104D00008000D0F8C00200287047D5F8D40205EB27
:104D10008000D0F8C402C168384608471321002338
:104D200007F120044A462046284741F28832FCF722
:104D30004FB9201D012100F045BA3846294601220D
:104D40008DF8136040471C21047805F12800FBF71B
:104D5000D0BADAF84010002552467047204600F0DD
:104D600029BB204600F056BE084611461847079159
:104D70000B901390CDE911000E90704704F12400C0
:104D8000002100F07FBAD0F8001111F4E06F7047F5
:104D9000FF22216800284A627047002084F88000C2
:104DA0007047204636214A4600232847DAF8481043
:104DB000002552467047044690F88000012870474D
:104DC0003A4601238DF8EF902047B4F86220013A6B
:104DD000A4F86220E165B4F862B070473A46012356
:104DE0008DF8EF502047201D022100F0EBB98DF81F
:104DF000EF00394601227047DAF844100025524688
:104E0000704784F881000020C4F88400704708438C
:104E1000CAF840007047002084F8800001207047E5
:104E20003860FBF7F7BBD4F8009084F88000FBF7FC
:104E3000F1BB0843CAF84800704790F83000616E33
:104E40000870606E01306066704730464FF4005164
:104E5000FBF7CEBB3046394601228DF8EF9058471C
:104E60004FF47A73FEF781BA20460021012203F045
:104E7000C5BB002084F8BC0410BD3067306F20F043
:104E8000800070471020606501207047012084F881
:104E90008100002084F88000D4F884000028704746
:104EA0000020C4F8D40220460847204601F0B2BED4
:104EB00004468121304601F0F8BE41F210003178FD
:104EC0001F232A1820467047D6F8020002BACAF8F3
:104ED0005420B6F80700000470470843CAF844009D
:104EE000704702400020062A7047D4F8840040F042
:104EF0002000C4F88400704794F8810001287047AE
:104F0000016821F0010101607047E06D30F8021B7B
:104F1000A9F82010E0657047002084F83C00204686
:104F200070474FF6FC706E1C00F1020AC71C7047F8
:104F30003046394601228DF8EF5058474FF47A73C6
:104F4000FEF762B9DAF80000416970471C6844F066
:104F500000641C601C6844F080441C60704702F0D0
:104F600070029142704794F89C0201380228704701
:104F700003BA28463946CAF8583000F045BAE16D00
:104F800004C90262E16570472068BBF1000F416906
:104F900070473046394601228DF8EF8058474FF46C
:104FA0007A733046FEF7E1B9044644212846FBF700
:104FB000A0B9012084F8BC042068704704FA03F308
:104FC000D0F81C482343C0F81C38704704F1240073
:104FD000022100F057B9401BB0F57A7F7047416855
:104FE0004FF6FF72914339444160016841F001017D
:104FF00001606168B1F5800F7047D6F8020002BA0F
:10500000CAF85420D6F8060070470D188DF8032012
:1050100020464946012203F047BD40210022204698
:10502000FBF7EBBA0C9007901490CDE91200012029
:105030000F9110907047002084F8BC04B0BD306020
:10504000306820F480107047B8626FF35F214FF42E
:105050007E4000EB42204FF0FE4280B208444FF405
:10506000FE0101EB034101F4FE010844296902EB52
:10507000016101F0FE4108447047206CA16C0139C8
:10508000A16401302064A06C00287047BAF84C007D
:10509000DAF85820DAF800107047044690F83D001E
:1050A0000028704738460A2100F0F0BE02914FF404
:1050B000005108912946FBF739BE090600EBC001F3
:1050C00004EB810170470A5842F000620A500A5806
:1050D00042F080420A5042F21072704753214162FE
:1050E000204600F043B9016841F400710160704747
:1050F0000262B042D1F800C08B68046A456870470C
:105100000262B842026A46680C688B68456D704757
:105110003A46012330462047CDE90310CDE900008F
:1051200009904FF44071002C7047012184F8BC14A1
:105130002068A16A01297047206846620020266520
:10514000BDE8FC81000240EA0646A87840470868AE
:1051500040F001000860002010BD0D4601204FEA1C
:10516000B20184F83C007047044690F83C000128E6
:1051700070473046394601228DF8EF804FF02D08F8
:105180005847204603F0E2BA04F12400012100F060
:1051900079B82B460096FFF7ABBC8A68097B03EB16
:1051A000C202002906EB080152687047201D002149
:1051B00000F008B8022084F83D00211D206801F0AD
:1051C0007BBB7047F8B55F4F0546B86A00F0030037
:1051D000032804BF0120F8BD38680C4620F0806029
:1051E000FFF71EFE06463868000105D5FBF712FAE8
:1051F000801B0228F7D941E095E80F00BE6A26F42B
:105200007C36013946EA0030FFF71EFFB863686953
:10521000F96A21F0C0010843F862A869F96A21F02F
:1052200020010843F8624FF6F871F86A20F0100088
:10523000F862F86B8843E969012C40EAC100F86321
:10524000F86A40F01000F8624FF4001008BF4FF405
:105250008010002C08BF4FF40020F96A0843F86260
:10526000386840F08060FFF7DBFD044638680001D5
:1052700006D4FBF7CFF9001B0328F7D30320F8BDB2
:105280000020F8BDF8B52F4F0546B86A00F00300BE
:10529000032804BF0120F8BD38680C4620F0805078
:1052A000FFF7BEFD06463868800005D5FBF7B2F96A
:1052B000801B0228F7D941E095E80F00BE6A26F06E
:1052C0007C76013946EA0050FFF7BEFE3864686913
:1052D000F96A21F440610843F862A869F96A21F487
:1052E00000710843F8624FF6F871F86A20F4807094
:1052F000F862786C8843E969012C40EAC10078645F
:10530000F86A40F48070F8624FF0807008BF4FF484
:105310000000002C08BF4FF48000F96A0843F862CF
:10532000386840F08050FFF77BFD04463868800005
:1053300006D4FBF76FF9001B0328F7D30320F8BD51
:105340000020F8BD004402580928014698BF0921F1
:10535000CAB20A23B2FBF3F202EB8203A1EB4303CE
:10536000591A084440EA0210C0B27047F8B5044622
:105370000068C168490619D4C1680026012741F0B8
:105380008001C160FBF746F905462168F843C9680A
:1053900040EA9110C0070AD1FBF73CF9FFF71BFE6A
:1053A000F3D9032684F825600027EEE70026F0B243
:1053B000F8BD0000B0B5134D044655F80C0C20F0B4
:1053C000800045F80C0C2868800607D42046FDF7BD
:1053D000E5FD78B1032084F82500B0BD286820F0F1
:1053E000200028602046FDF7D9FD28B1032084F86D
:1053F000250002E00020B0BD0020296841F0200116
:105400002960B0BD1840005810B5D0F8D41200EB98
:105410008101D1F8C01251B141F268041A4409590E
:105420008A4206D900210522212300F0CDFAFF206F
:1054300000E0002040B210BD2DE9FC470546D0F841
:10544000D40205EB8000D0F8C042002C00F0DA81D5
:105450000F4641F21801164604EB010A1178A1F13A
:105460001A02102A26D9AA2900F0CD80032900F0BB
:10547000D480122900F0DF802F2900F0F3805A2910
:1054800000F0FE809E2900F00581A82900F022810D
:10549000002921D1DAF80010002940F062819AF841
:1054A0004A10022900F05081FFF7B6FB002840F0B7
:1054B0004B816CE1DFE802F0091910102C1010107C
:1054C0001035104F101075108B003279DFF8B413BF
:1054D000172A28BF1722D8E02846002105222023BA
:1054E00000F072FA022060728CE130799AF84A106A
:1054F00000F00300012902D1022800F03F810021C1
:10550000012818BF032840F03E818AF84A103EE186
:1055100031790020E060002918BF01218AF84A1083
:1055200071E1D0F8C40269460DF1060243683846BD
:105530009847002840F060819AF84A00022800F05D
:105540005B8104F11000002100220C2A00F022816E
:1055500081540132F9E7D0F8C4020AF150060AF189
:105560004C0831464246436838469847002840F088
:1055700043819AF84A00022800F03E810821E16048
:105580000020A08231680139E1740A0AA2740A0C71
:10559000090E21746274B8F8001009BA090CE1828E
:1055A00031E1217A002940F098809AF9041000290D
:1055B00040F1D7809AF84A10022900F01D81FFF7C8
:1055C0002BFB002840F01881FFF77EFC2CE1217AAC
:1055D000E9B9DAF80010002900F0C3809AF9041044
:1055E000B1F1FF3F40F3BD80FFF716FB002840F00C
:1055F0000381FFF78AFB002800F023812846002161
:1056000002222723FCE0217A002900F0918028461D
:105610003946BDE8FC4700F085B9DAF800000028FB
:1056200000F09F8004F1100000210022122A5DD0BA
:1056300081540132FAE7DAF80010002900F0918075
:105640007178C90740F09280D0F8C40207EBC70117
:105650003279C06900EB810108790530904238BF8A
:10566000024612E07078800700F18880DAE915239D
:1056700028463946FFF7C8FE002840F18880C1E07F
:10568000327A7F491B2A28BF1B22204600F0B8F936
:105690000020B8E0D0F8C4020AF150090AF14C0821
:1056A00049464246436838469847002840F0A4805F
:1056B0009AF84A00022800F09F80D6F80A000021DC
:1056C000002200BAE060D3B2984278D92344013274
:1056D0001974F8E7217A00293FD04FF48050E06038
:1056E00039462846BDE8FC4700F0D2B80C20E075EA
:1056F0009AF84910702020749AF84800884210D017
:1057000004EBC0014FF4825201308A5C01F58251F2
:10571000A2748988A183C1B2043918BF01468AF8EE
:1057200048101220E06030791228B1D8E060AFE76D
:10573000DAF80010A9B19AF90410B1F1FF3F10DDB9
:10574000FFF76AFA002865D02846002102223A2392
:1057500000F03AF90520207254E09AF9041000296B
:1057600043D4284600210522202349E0B078802830
:105770004CD018B945492046062287E72846002123
:10578000052224233CE0022801D10221BDE60020AD
:10579000E06038E00820E074022020830C20E06004
:1057A00000980138E075010AA175010C000E207502
:1057B0006175BDF8060000BA000C608368E7D9F88F
:1057C0000010002020830139E1750A0AA2750A0C35
:1057D000090E21756275B8F8001009BA090C6183C9
:1057E000D6F80A1009BAE1600DE09AF84A100229C9
:1057F00002D0FFF711FAA8B12846002102223A236D
:1058000000F0E2F8FF2040B2BDE8FC871E492046C8
:1058100008223BE7FFF779FAB0B1284600210222BF
:10582000272395E7FFF7E9FBFFF7A2FB0028E9D460
:10583000FFF72CFC504381427FF493AF022020728B
:105840004BE7FFF741FB01E0FFF7D7FBFFF790FBCA
:105850000028D7D4FFF71AFC02FB00F399427FF42B
:1058600080AF0120207204F110025648B3F5805F2A
:1058700028BF4FF480530178284601F0F7FB07E773
:10588000340000244F0000246C0000246600002433
:105890002DE9F0410446D0F8D40204EB8000D0F8A2
:1058A000C072CFB341F23802D0F8C40207F1100839
:1058B000BE18D0F810C0B08DD6E90D2303FB00F55B
:1058C000B5F5805F28BF4FF48055B5FBF0F083B28B
:1058D00008464146E047B0F1FF3F17DD1048424619
:1058E0002B460178204601F068FC3068D6E90D129D
:1058F000401B3060B08DB5FBF0F00144101AC6E9D2
:105900000D1001D103203872002006E0204600214E
:105910000422112300F058F8FF2040B2BDE8F081C6
:10592000140000242DE9F0410446D0F8D40204EB21
:105930008002D2F8C002D8B341F23803D2F8C422B0
:1059400000F11008C618084641465569B38DD6E9DE
:105950000D275F43B7F5805F28BF4FF48057B7FB33
:10596000F3F39BB2A847B0F1FF3F1BDD3068D6E9E7
:105970000D12C01B3060B08DB7FBF0F3CD18D11AFB
:10598000C6E90D5116D001FB00F30E484246B3F5AF
:10599000805F28BF4FF480530178204601F066FBFA
:1059A00000250CE0204600210422032300F00CF81F
:1059B000FF2504E0204600210025FEF715FC68B213
:1059C000BDE8F0811500002470B5D0F8D41200EBCA
:1059D0008100D0F8C00290B141F261014FF48256CB
:1059E000445C00EBC405AA55621CD4B2043C18BF49
:1059F0001446445405F5825000214171037170BD75
:105A000038B1C2600F3001391AB18B5C8354013A4E
:105A1000FAE7704710B5016840F26F344A698B6944
:105A200043F008038B618B6943F010038B610B68B3
:105A300023F001030B600B69A3430B618B6823F414
:105A400040438B6090F88130042B0BD0930609D52E
:105A5000D0F8843043F08003C0F884308B6943F081
:105A600020038B6190F88130032B0BD0530609D5AE
:105A7000D0F8843043F00403C0F884308B6943F0DD
:105A800040038B61930509D5D0F8843043F00103BE
:105A9000C0F884308B6943F400738B61D20509D55B
:105AA000D0F8842042F00802C0F884208A6942F4C9
:105AB00080728A610021A0F86210A0F86A1010BDFF
:105AC000F8B514460D460646571C30684069000775
:105AD00008D4FAF79FFD002FF7D0401BA042F4D363
:105AE0000320F8BD0020F8BD002070472DE9F843E1
:105AF000074600200DF103098DF80300234DFFF741
:105B00000DF98046FFF7CEFA204628214A460023A9
:105B1000A8470646FFF7C6FAFFF743F9DA495A4B9A
:105B2000FFF73BFB08BF42F00802FFF76EFA404266
:105B3000281A18BF4FF0FF30BDE8F8832DE9F8436D
:105B4000074600200DF103098DF803000F4DFFF704
:105B5000E5F88046FFF7A6FA204629214A460023A9
:105B6000A8470646FFF79EFAFFF71BF9C649464BC2
:105B7000FFF713FB08BF42F00802FFF746FA404266
:105B8000281A18BF4FF0FF30BDE8F883AF8A00082D
:105B90002DE9FE4FDFF8BC9A1E4604460F46D3F8A7
:105BA00002B0D3F80AA0D3F81230D9F80400D6F81E
:105BB00016100091801A451A204639462A4600F0F0
:105BC00043FCE0B9D9F808002F4904F120080DF191
:105BD000090251F8300099F80C10002908BF40F074
:105BE00008008DF8090040463621012302F05FFFCE
:105BF00028B9204639462A4600F0B8FB20B14FF0BC
:105C0000FF352846BDE8FE8F5644ABEB0A0700255A
:105C10000DF10A0A705D514602228DF80B007019D1
:105C200040788DF80A00404602F03EFF20B9023568
:105C3000BD42EFD3002601E04FF0FF361249D9F8FC
:105C400008000DF1090201EBC00099F80C10406842
:105C5000002908BF40F008008DF809003621012313
:105C6000404602F024FF4FF0FF350028C9D1D9E9A2
:105C70000030009000210022204600F0E5FB0028C3
:105C800008BF3546BDE700BF30FF0008B0B5054688
:105C90001C4658187C4B1B68984203D8284600F0D5
:105CA00065FB10B14FF0FF30B0BD0B49049823469F
:105CB0000131020A2BB101F8020B013B01F8032C60
:105CC000F8E705F120006200034902F0EDFE00282C
:105CD00018BF4FF0FF30B0BD040200242DE9F041A1
:105CE0000E46694907469818496888420ED81C46EE
:105CF0001546DDF818806CB1384631462A464346D1
:105D000000F084FC0135013C0028F4D04FF0FF3056
:105D1000BDE8F0810020BDE8F08100BF2DE9FE4F15
:105D200007460C980E4615460144574802689142B2
:105D300002D94FF0FF393AE0DDF834B040684FF057
:105D4000FF390BEB0501814231D80C981C464FF00E
:105D500000084FF0000A4000029007F12000019077
:105D6000144801300090DA4520D00AEB050238468D
:105D7000314600F0FBFA10B14FF0FF3813E0009805
:105D80000C9941B12278013900F8012C6278023473
:105D900000F8022BF5E701980649029A02F084FE0A
:105DA000002818BFC8460AF1010ADCE7C146484688
:105DB000BDE8FE8F840400242DE9F843994615467A
:105DC0000E460746DDE908485CB1384631462A46AA
:105DD0004B46CDF80080FFF759FF28B9013C01354B
:105DE000F2E70020BDE8F8834FF0FF30BDE8F8830C
:105DF0004FF0FF30704700002348806808600020A3
:105E0000704700BF2DE9FC479846064600F0AEFA01
:105E10000DF10507203681462E2130463A4602F024
:105E20003DFE8246114CFEF701FFA04707460DF1EB
:105E3000070130460122A04705460DF10601304614
:105E40000122A0479DF806109DF80720404242EA33
:105E50000121C8F800100AEB090139442944081A45
:105E600018BF4FF0FF30BDE8FC8700BFA38A0008D1
:105E70000548006808600020704700BF024840687D
:105E800008600020704700BFF401002470B505468B
:105E9000C0690C4680470646E8698047801BA042DF
:105EA000FAD370BD2DE9F04FBDB000283A923C9175
:105EB00000F0F98100210DF1EF0700F120068DF8C7
:105EC000EF100546FA4C00234FF00009304601213F
:105ED0003A46A047284678213995FFF7D7FF304644
:105EE00001213A4600238DF8EF90A04738902846CC
:105EF0007821FFF7CBFF30461121FEF761FF379085
:105F00003046B1213A460023A0473690DFF85CB610
:105F1000FEF78CFE01258DF8EF50D84735902C20E8
:105F2000FEF765FF4FF02C093046D84734902D20FE
:105F3000FEF75DFF4FF02D083046D84733903046CE
:105F4000B2213A4601238DF8EF504FF0010AA047E5
:105F500032903046394601228DF8EF902C25D847F3
:105F60003190FFF706F930903046B3213A460123CD
:105F70008DF8EFA04FF00109A0472F903046394629
:105F800001228DF8EF502C25D8472E90FFF7F1F81D
:105F90002D90FEF75FFF2C90FEF7CAFF2B90FEF7C7
:105FA000F8FF2A9007208DF8EF00B4213A4601232C
:105FB0004FF007083046A0472990A2208DF8EF0047
:105FC000C021FFF7A5F828900220FEF710FF4FF040
:105FD00002093046D84727908420FEF7CFFD26904F
:105FE000C5208DF8EF00C121FFF792F825900A2017
:105FF0008DF8EF00C221FFF78BF824900020FEF708
:10600000BDFD23903046C3213A4601238A258DF8F1
:10601000EF50A04722902A20FEF7B0FD2190304695
:10602000C421FEF7DBFE2090EE20FEF7A7FD1F90B7
:106030000E208DF8EF00C521FFF76AF81E903A9800
:1060400020213A46007B002808BF2121304600234A
:10605000A0471D903CAA30463A210123A0471C903E
:106060003046E021FEF7ACFE1B901C20FEF786FDBB
:106070001A90FEF78EFF19901220FEF77FFD189000
:10608000FEF7D4FD4FF037088DF8EF80D847179012
:106090003220FEF773FD1690FEF7C8FD4FF0290978
:1060A0008DF8EF90D8471590FEF7C0FD4FF02D0A00
:1060B0008DF8EFA0D8471490FEF7CCFE1390252062
:1060C000FEF75CFD12902B20FEF758FD1190392051
:1060D000FEF754FD10900020FEF750FD0F900120B8
:1060E000FEF74CFD0E90FEF7A1FD03258DF8EF5055
:1060F000D8470D901020FEF741FD0C903046E1216D
:10610000FEF76CFE0B901D20FEF738FD0A9007206D
:10611000FEF734FD09900620FEF730FD0890FEF7EB
:1061200085FD2E258DF8EF50D84707902C20FEF7DF
:1061300025FD0690FEF78EFE0590FEF777FD8DF8A3
:10614000EFA0D8470490FEF7F3FE0390FEF7F0FEB1
:106150000290FEF71EFF01903F20FEF70FFD8146E3
:10616000FEF764FD00248DF8EF40D8470546FEF7A2
:106170005DFD8DF8EF404FF00008D84782460220C1
:10618000FEF7FCFC04461020FEF7F8FCDDE93721A1
:1061900001238DF8EF801144369A1144359A114449
:1061A000349A1144339A1144329A1144319A114469
:1061B000309A11442F9A11442E9A11442D9A114469
:1061C0002C9A11442B9A11442A9A1144299A114469
:1061D000289A1144279A1144269A1144259A114469
:1061E000249A1144239A1144229A1144219A114469
:1061F000209A11441F9A11441E9A11441D9A114469
:106200001C9A11441B9A11441A9A1144199A114468
:10621000189A1144179A1144169A1144159A114468
:10622000149A1144139A1144129A1144119A114468
:10623000109A11440F9A11440E9A11440D9A114468
:106240000C9A11440B9A11440A9A1144099A114468
:10625000089A1144079A1144069A1144059A114468
:10626000049A1144039A1144029A1144019A114468
:106270003A4649442944734D514421440C18304650
:106280001321A8470444304629213A460123A84750
:106290000444DDE9390100F06BF94042201A18BFCF
:1062A0004FF0FF3001E04FF0FF303DB0BDE8F08F20
:1062B000AF8A00087CB500F120050DF105060C46FB
:1062C000DA212846324602F0E9FB58B9721C28460A
:1062D000DB2102F0E3FB28B9B21C2846DC2102F0E6
:1062E000DDFB10B14FF0FF307CBDBDF806009DF81E
:1062F0000510000400BA40EA0140206000207CBD87
:106300000369FEF731BD8369FEF72EBDE8B1B0B574
:106310000F4A4262D1E90345C0E9034500630D4AD3
:10632000C2620D4A82620D4A0262D1E90023C0E9CD
:1063300000230B8903814B6943618B69C9698361C0
:10634000C161BDE8B04002B110474FF0FF30704767
:1063500001630008076300086163000859660008CC
:106360004369FEF701BD4FF0FF3070472DE9F84F4C
:106370000C46B8498B684D7B012B0AD8022D10D0F2
:10638000012D1BD1097B002912BF183401321A34A8
:1063900014E0022D0BD0012D10D1097B61B1183210
:1063A0000CE0097B012909D10132023406E0097BA6
:1063B000012903D1023200E01A32013400F1200633
:1063C0000DF1030791461F4D2A21002330463A461E
:1063D000A8478246200A8DF80300DFF890813946ED
:1063E00001223046C0478346FEF720FC8DF803406B
:1063F000C047044630462B213A460023A8470546AD
:106400004FEA19208DF80300394601223046C04773
:106410000BEB0A0101228DF80390214429440C184A
:1064200030463946C047044430462C213A460023C2
:10643000044DA8474042201A18BF4FF0FF30BDE876
:10644000F88F00BFAF8A00082DE9F04F85B00E46E7
:1064500080491C4692468B684A7B012B0BD8022A46
:1064600016D0012A21D1097B002912BF18360AF162
:10647000010A1A3619E0022A11D0012A15D1097B26
:106480000136002914BF0AF1180A0AF11A0A0CE0B1
:10649000097B012909D10AF1010A023605E0097BCD
:1064A000012904BF0AF1020A013600F120070DF1AB
:1064B00013052A21002338462A4602F0F8FA0390F1
:1064C000300A8DF81300DFF8A480294601223846EF
:1064D000C0470290FEF731FC0190A0192946012225
:1064E000441E200A8DF813003846C04700903846F5
:1064F000294601228DF81340C047044638462B2117
:106500002A46002302F0D3FA81464FEA1A208DF87A
:106510001300294601223846C04756468246FEF7F8
:106520000CFC83460E98294601223044461E300A50
:106530008DF813003846C047DDE902218DF813605D
:106540001144019A1144009A114401222144494402
:10655000514459440C1838462946C0474042201A35
:1065600018BF4FF0FF3005B0BDE8F08FA98A0008D2
:106570007CB5044688684A7B012808D89AB1022A6B
:1065800011D0012A18D1334AA023502507E072B157
:10659000022A0CD0012A0FD12E4A5023A025C2E98D
:1065A0000053012208E02B4BA025802602E0294B56
:1065B0008025A026C3E90065264EB060087B727373
:1065C000002100223073D6E9003000902046FFF70A
:1065D0003BFF0546B0680C490DF1070201EBC00016
:1065E000317B4068002908BF40F008008DF80700A3
:1065F0003621012304F1200002F059FA4042281A02
:1066000018BF4FF0FF307CBD30FF0008BCB504461A
:10661000180240EA13200F4BADF806004FF0FF3090
:106620001D688D4214D95B68934211D92046FFF74B
:106630009DFE10B14FF0FF30BCBD04F120000DF104
:106640000601022202F030FA002818BF4FF0FF3096
:10665000BCBD00BFF401002410B51C46C368084649
:1066600011462246BDE810401847000038484369EB
:106670000B60806910800020704700BF01207047C8
:106680000020704700207047002070472DE9F0413E
:106690001C4615460E4698B1012823D10027DFF885
:1066A000B080A7421ED2D8F81820304602FB05F170
:1066B000FEF77EF9D8F81800013701350644F0E7F7
:1066C0000027DFF88C80A7420CD2D8F8182030467B
:1066D00002FB05F101F09CFED8F8180001370135E6
:1066E0000644F0E70020BDE8F08100BF2DE9F0414D
:1066F000984615460E46A0B1012825D10027144C16
:10670000474521D2A0696843FEF7A6F9A269304641
:1067100002FB05F1FEF7CAF9A0690137013506440D
:10672000EEE700270A4C47450ED2A069684301F006
:10673000D3FDA269304602FB05F101F0D5FEA06948
:10674000013701350644EEE70020BDE8F08100BFC7
:10675000801900247047F9F761BF0000B0B59CB004
:1067600009A818210C30F9F7C4FD01A82021F9F778
:10677000C0FD0220FBF702FB274C00200090D4F85C
:10678000F00340F44040C4F8F003D4F8F00300F400
:10679000404000900098D4F8F0038004FBD5FBF74C
:1067A00015FBA06C0221082520F01800A0642068C9
:1067B00061F301002060CDE91815CDE91211002424
:1067C000CDE91A440420CDE9161001210B91702067
:1067D00015904FF4803105201490CDE9090109A8E6
:1067E000FCF724F818B1EFF3108072B6FEE73F20F3
:1067F00001900594CDE90345CDE9064408940321B1
:106800000320029001A8FBF76FFE18B1EFF3108090
:1068100072B6FEE71CB0B0BD2844025810B51E4841
:106820001E4A016841F470010160106800F00F0019
:10683000022804D81068032161F30300106018488F
:10684000184C016841F001010160002101610368F9
:1068500023400360136813F00C0F04D01368032463
:1068600064F303031360104A8161C16101628262B3
:106870000E4AC2620E4A026341638263C1630264CC
:106880004164026822F4802202600166094843F2F2
:10689000D201016010BD00BF88ED00E00020005271
:1068A000004402587FEDF6EA000202020000FF01F8
:1068B000800201010040005270B5D04A0368904246
:1068C00005D0B0F1804F1CBF254CA04234D123F03D
:1068D00070034C68234390420ED0B0F1804F0BD030
:1068E0001F4CA0421CBF1F4CA04205D01E4CA04212
:1068F0001CBFC34CA04229D1CC6823F4407323436E
:106900004E6923F080030C688D6833430360C562D1
:10691000846290420BD0BA4A904208D0B94A904261
:1069200005D0B94A904202D0B84A904201D10969D3
:1069300001630121416170BD0A4CA042C7D0B04C37
:10694000A042C4D0084CA042C1D0C6E7AD4CA04282
:10695000D2D0AD4CA042CFD0AC4CA042CCD0CFE7EF
:106960000004004000080040000C004010B501F099
:106970001F010423046A8B4002FA01F124EA030395
:106980000362026A1143016210BD0000F0B5026AA1
:106990009A4E22F0010202620A688B68046A456816
:1069A00024F0020423438469B0420BD0944FB842D0
:1069B00008D0944FB84205D0934FB84202D0934FBD
:1069C000B84207D1CF6823F00C0327F004073B43FC
:1069D000B0420BD08A4EB04208D08A4EB04205D0A9
:1069E000894EB04202D0894EB04205D125F440759F
:1069F000D1E9056735433D4345603E4D2C40224378
:106A00008261496841630362F0BD00BFF0B5026A6C
:106A10007A4E22F01002FEF76BFB24F0200444EAC9
:106A20000313846903D006F58067B84209D1CF68A3
:106A30006FF0400223F0C00302EA07121343B04292
:106A40000BD06F4A904208D06E4A904205D06E4AF1
:106A5000904202D06D4A904207D1D1E9052625F433
:106A6000406545EA820242EA86053A4A456022408C
:106A700042EA0C228261496881630362F0BD00BF73
:106A8000F0B5026A5D4E22F48072FEF731FB24F409
:106A9000007444EA0323C46903D006F58067B84252
:106AA0000AD1CF6840F2FF4223F440633F0227EA55
:106AB00002021343B0420BD0514A904208D0514ACF
:106AC000904205D0504A904202D0504A904207D19D
:106AD000D1E9052625F4405545EA021242EA061599
:106AE000044A4560224042EA0C02C2614968C1631F
:106AF0000362F0BD8CFFFEFFF0B5026A3F4F22F447
:106B000080520262B842026A46680C688B68C569A6
:106B10001CBF3B4FB84212D14F6926F4804646EA6B
:106B2000871646600B4E354045EA0424C461496827
:106B3000016422F4005141EA03310162F0BD314F9A
:106B4000B842E9D0304FB842E6D0304FB842E3D037
:106B5000E7E700BFFF8CFFFEF0B5026A274F22F483
:106B60008032FEF7CDFA1CBF254FB84211D14F69D4
:106B700026F4803646EA072646600B4E35402C4305
:106B800044654968816522F4003141EA03410162AC
:106B9000F0BD1C4FB842EAD01B4FB842E7D01B4FA4
:106BA000B842E4D0E8E700BF8FFFFEFFF0B5026A0D
:106BB000124F22F48012FEF7A3FA1CBF104FB84206
:106BC00012D14F6926F4802646EA87264660104E89
:106BD000354045EA042444654968C16522F4001142
:106BE00041EA03510162F0BD064FB842E9D0064FB9
:106BF000B842E6D0054FB842E3D0E7E700000140D5
:106C000000040140004001400048014000440140B0
:106C1000FF8FFFFE80B5D0F8B82252689047002859
:106C200018BF032080BD002070470020704780B54A
:106C300013460A46002100F019FA002080BD80B5F5
:106C400013460A46002100F0B8FA002080BD10B5B6
:106C50008021044600F096FA20460021BDE810404D
:106C600000F090BA80B50521C0F8941200220023EC
:106C7000002100F0FBF9002080BD80B513460A46D4
:106C80000221C0E90633C0F89412002100F095FA01
:106C9000002080BD80B50421C0F89412002200239A
:106CA000002100F08AFA002080BD10B502784388E8
:106CB00093420DD994B29C420AD2047820442244D3
:106CC0004478052CF6D184788C4208BF10BDF1E7DA
:106CD000002010BDB0B5C8B100230446257815B119
:106CE00001340133FAE7DCB2022303EB44041480DD
:106CF00003224A700C70002204783CB1DDB20233EA
:106D000001304C5545F001040A55F5E7B0BD0000CF
:106D1000032805D8C000034921FA00F0C0B270472B
:106D2000032070470003010310B5264C0A4602A059
:106D3000FDF719FF204610BD4D534320436F6E668B
:106D4000696700001220088000487047C4000024D2
:106D500010B51C4C0A4602A0FDF705FF204610BDE9
:106D60004D534320496E746572666163650000008F
:106D70000420088000487047D800002410B5114C4A
:106D80000A4602A0FDF7EFFE204610BD53544D69A0
:106D900063726F656C656374726F6E696373000014
:106DA00010B5084C0A4602A0FDF7DDFE204610BDD6
:106DB00053544D3332204D6173732053746F72619D
:106DC0006765000008070024B0B51A20088009494B
:106DD00008688A6880180BD0074D4C680822A91CE7
:106DE000FCF71FFE05F1120120460422FCF719FEF4
:106DF0000148B0BD00F8FF086001002478B100230D
:106E0000C0F8D032C0F8C432C0F8B83209B1C0F806
:106E1000B4120270012180F89C1200F0B7B8032070
:106E2000704780B5D0F8C802FAF7CEF9BDE88040C7
:106E3000FFF76EBF80B5D0F8C802FAF7A7F9BDE832
:106E40008040FFF765BFB0B5044669B194F89C0275
:106E5000032847D1D4F8B8024269002A42D0FDF78E
:106E600041FF00283ED0B0BDD4F89402022833D1AF
:106E7000D4E9070188420DD9431A11462046E3613F
:106E80001A46FFF7DCFE204600210022002300F016
:106E9000EDF821E00FD1A16981420CD3D4F898021A
:106EA000814208D22046002100220025FFF7C7FEBC
:106EB000C4F89852E7E794F89C02032805D1D4F867
:106EC000B802C16809B1FDF7EBFF2046802100F050
:106ED00059F92046FFF7C6FE94F8A00210B1002031
:106EE00084F8A0020020B0BD10B5044659B194F852
:106EF0009C02032828D1D4F8B802826922B3FDF796
:106F0000F1FE08B310BDD4F8940203281CD1D4E9D3
:106F1000570398420BD9C01AC4F85C011146984235
:106F200038BF034620461A46FFF781FE0CE094F86E
:106F30009C02032805D1D4F8B802016909B1FDF714
:106F4000AFFF2046FFF7A6FE002010BD00207047CF
:106F500080B5012180F89C12D0F8B82232B10179B5
:106F600052689047002818BF032080BD002080BDD4
:106F700080B5D0F8C802FAF74EF9BDE88040FFF7B7
:106F8000C7BED0F8C802FAF759B9000010B50178A9
:106F900001292AD11649C0F8C8120222C1F80805F1
:106FA0000020C1E90B004863C1E90620C1E90320C4
:106FB000C1E908000F4A0920C1E900200846FAF794
:106FC0007EFD08B1F9F73CFA094C4FF400712046F8
:106FD000FAF78DF8204600218022FAF78CF8204637
:106FE00001214FF4BA72FAF786F8002010BD00BFF5
:106FF000D81C00240000044001F07F02D0F8C80231
:10700000090602EBC20200EB820000F13E0258BF0B
:1070100000F27E221078704780B5FDF7E2FD08D0BF
:1070200090F89C32032B02D1126A02B190470020E3
:1070300080BD032080BD80B5FDF7D3FD08D090F85A
:107040009C32032B02D1526A02B19047002080BDCE
:10705000032080BD10B514461A46D0F8C802234656
:10706000FAF7F5F8BDE81040FFF752BE80B5D0F84A
:10707000C802FAF713F9BDE88040FFF749BEF8B53A
:10708000012680F89C620025C0F8A452456080F873
:10709000A052C0F894520446D0F8B80250B14268E9
:1070A0003AB12046002190470546002818BF032525
:1070B00000E0002520460021002240234027FFF762
:1070C000C9FF2046802100224023A4F86461C4F84F
:1070D0006071FFF7BFFF2846A6842762F8BD90F8CD
:1070E0009C12042903D190F89D1280F89C12002074
:1070F000704780B590F89C12032905D1D0F8B812DA
:1071000011B1C96901B18847002080BD0174002018
:10711000704780B5D0F8C802FAF7EBFDBDE88040B3
:10712000FFF7F6BDB0B500F2AA250446284600F0E8
:107130006DF90120C4F89402B4F8B002C4F89802C2
:1071400094F8AA0200F01F01022908D001290CD0EE
:1071500089B920462946BDE8B04000F089B92046EB
:107160002946BDE8B04000F0DBBA20462946BDE81C
:10717000B04000F077BB00F080012046BDE8B04091
:10718000AFF3008080B5D0F8C802FAF7AAF8BDE8DE
:107190008040FFF7BDBD80B5D0F8C802FAF7BEFD4C
:1071A000BDE88040FFF7B4BD90F89C1280F89D12B6
:1071B000042180F89C120020704780B5D0F8C802E6
:1071C000FAF7C4F8BDE88040FFF7A2BD80B5FCF730
:1071D00033FF002080BD80B5FCF752FF002080BD4A
:1071E00070B54E4E04467178FFF724FE7078002586
:1071F000FDF702FDA0F8645120463178FFF71AFE32
:107200003078FDF7F9FC8584D4F8D40204EB8000D3
:10721000D0F8C00280B12046FCF7A4FF04F5307618
:10722000D4F8D40256F8200000F04CFBD4F8D40275
:1072300046F82050C4F8BC52002070BD0A210180DD
:10724000004870473401002470B5184EFDF730FE39
:10725000FDF750FD0DB14021A98008B1402181808A
:1072600020202080114870BD70B5104EFDF720FE23
:10727000FDF740FD15B14FF40071A98010B14FF436
:107280000071818020202080084870BD70B5074EB5
:10729000FDF70EFEFDF72EFD0DB14021A98008B1CE
:1072A0004021818020202080004870BD14010024EE
:1072B000F8B5044641F2740000F006FBD4F8D4128D
:1072C00004EB810101F5307120B30860C4F8BC0201
:1072D000207C124E4025002808BF4FF400757178BD
:1072E00020462B460222FFF7B5FE707801270222C6
:1072F0002B46FDF781FCA0F8647120463178FFF73A
:10730000A9FE3078FDF778FC87842046FCF734FF2F
:107310000020F8BD002008600220F8BD1400002401
:1073200039B1D0F8D42200EB8200C0F8C41200209A
:107330007047032070477CB50446D0F8D4020D4650
:107340000021ADF8061004EB8000D0F8C062002EDA
:107350005AD0297811F0600216D0202A50D16A78CC
:10736000FF2A22D0FE2A4BD16A88002A48D1EA8817
:10737000012A45D1090643D5D0F8C4028069804767
:1073800030602046314636E068780B2817D0012857
:107390001CD00A2829D098BB94F89C0203282FD12E
:1073A0000DF106012046022226E0688840BB08064F
:1073B00026D4E88820BB2046FCF7FEFE1EE094F8A9
:1073C0009C0203281CD1A878706017E094F89C02F6
:1073D000032813D1688888B929792046FFF7C8FDAA
:1073E00029792046FCF704FE08E094F89C02032863
:1073F00006D1311D20460122FFF73FFC00207CBD55
:1074000020462946FFF723FC03207CBD0A78027042
:107410004A7842704A8842808A888280C988C180BE
:1074200070471CB504460020ADF80600A9B1C4F8A9
:10743000B812D4F8D40204F52E7151F82000C16AB4
:1074400021B10DF106008847C4F8D002D4F8D80263
:107450000130C4F8D80200201CBD03201CBDD0F8A8
:10746000B8220AB11268104700207047FFF793BE98
:10747000BCB5044608780D4610F0600011D04028D5
:1074800018BF202840F03D81D4F8D402294604EBEF
:107490008000D0F8B8028268204602B0BDE8B04053
:1074A00010476878092800F22C81DFE810F00A0004
:1074B0001E002A012C002A01360055002A016B000B
:1074C0007D00FDF750FD00F21C81E888022840F0A5
:1074D0001881D4F8A40203222146002808BF012203
:1074E000204641F80C2F022208E1FDF73CFD00F296
:1074F000088168880025012840F00681C4F8A4525C
:10750000FDF7F5FB00E1688802286BD0012840F008
:10751000F8800120C4F8A402F8E0A888002840F010
:10752000F080E888002840F0EC8068887F2800F22E
:10753000E88094F89C12032900F0E380C5B284F837
:107540009E0220462946FFF7E4FDFDF7D0FB002D03
:1075500000F0DF800220DDE00020ADF806004FF0F3
:10756000FF31688801EB1021062900F2CA80DFE8AC
:1075700001F004444BC8C8586200D4F8B412207C0F
:107580000A68ACE0E888012840F0BB8094F89C02CF
:10759000411E02292AD2214620460122002541F817
:1075A000085FFFF76AFBAFE068885C4D10F0FE0FE4
:1075B000287003D0FDF71DFB0325A5E0C1B294F8A8
:1075C0009C02032843D0022859D1002900F09E8054
:1075D00020466160FFF743FF002867D00546FDF7AE
:1075E00008FB48E0687984F8A0028FE0032840F0A7
:1075F0008880211D2046012280E0217CD4F8B80239
:10760000002942D0C16A41E0C0B2052800F2798069
:10761000DFE800F0035054585C60D4F8B4024268CC
:107620005BE0207C00286CD1D4F8B802416B0DF1EE
:107630000600884756E0207C002862D1D4F8B802C2
:10764000016B0DF1060088470146072023E021B3B6
:10765000606888425AD0C1B2FDF727FC29782046DD
:107660006160FFF7FCFE002850D00546FDF7C1FA27
:107670002179FDF71AFC022084F89C0244E0FDF712
:10768000B8FA2978FDF711FC96E7816A0DF106003A
:10769000884701460220487025E00220616084F896
:1076A0009C0200210025FDF700FC29E7FDF71FFBE8
:1076B00003202FE0D4F8B40282680EE0D4F8B402BC
:1076C000C2680AE0D4F8B402026906E0D4F8B40251
:1076D000426902E0D4F8B402826992B1207C0DF1D3
:1076E000060190470146EA8882B1BDF8060040B124
:1076F000904238BF0246ADF806202046FFF7BDFA9B
:1077000001E0FDF776FA00252846BCBDFDF7EFFA4B
:10771000F9E7012084F89C02F5E700BF0407002484
:1077200070B5044608780D790E4610F0600016D04A
:10773000402818BF202877D120462946FFF773FA42
:10774000002873D10020C4F8D402D4F8B8028268AB
:10775000002A6BD020463146BDE870401047707853
:10776000B0B101282ED003285ED194F89C020328E2
:107770002CD1708848B945F08000802805D0F08869
:1077800018B920462946FFF7FDFCFDF7B0FA4DE099
:1077900094F89C02032828D0022845D145F08000A7
:1077A000802841D105F07F002A0600EB800004EB21
:1077B000800000F1140158BF00F5AA710020086094
:1077C00020464BE094F89C02032831D002282BD1AC
:1077D00045F08000802827D020462946FFF7D2FCBC
:1077E00020468021FFF7CEFC20E005F00F0115F0C8
:1077F000800001EB810104EB810114BF898CB1F899
:10780000641189B105F07F01002845F0800001EB8B
:10781000810104EB810101F1140608BF01F5AA768C
:10782000802811D1002016E0FDF7E3F9002070BD9B
:1078300070880028FAD1680603D020462946FFF751
:10784000F0FAFDF754FA77E720462946FFF7D4FB14
:107850000028E7D001203060204631460222FFF7A1
:107860000CFAE3E7B0B5044608780D4610F0600066
:1078700018BF40280DD1FDF776FB0CD8A88810F072
:10788000FE0F08D1C1B22046FFF7CFF938B103206F
:1078900010E02028EFD0FDF7ACF90020B0BDD4F8FF
:1078A000B8028268002AF2D00020C4F8D402294627
:1078B000204690470028F1D1E9880029EED1FDF754
:1078C00016FAEAE7704700000048704708090024EC
:1078D000B0B50A784C7802F00F03012C16D10124C0
:1078E000FDF76CFB00F510605301C458240422D44A
:1078F0001C58CD6809796FF3DF2545EA825222438F
:1079000042EA81410D4A1143195014E04FF480348A
:107910005201FDF753FB00F5306083581B040AD475
:107920001358CC6809796FF3DF24234343EA81417C
:10793000024B194311500020B0BD00BF0080001061
:10794000D0F8001940F2FF729143C0F80019D0F846
:10795000041841F48071FDF77FB9000070B504464A
:107960000698049D012816D1A16B1C4A0D9821F49C
:107970008031A163E1681140E160E168012821F4F0
:107980004011E16003D1E06840F48010E0602046DF
:1079900000F028F80FE0E0680A9E40F04000E06048
:1079A000204600F01FF8A16B16B121F4803101E0F0
:1079B00041F48031A163012D0ED1E16D084A89B2F5
:1079C000E165E16D1143E165A16841F00601A16047
:1079D000A16841F02001A16070BD00BFBFFFBDFFE5
:1079E0000000EE0381B0002100910F49009A01329E
:1079F0000092009A8A4214D80269B2F1FF3FF5DC86
:107A000000220092026942F001020261009A0132F2
:107A10000092009A8A4204D80269D207F6D1002067
:107A200000E0032001B07047400D030010B50A7854
:107A30004B781849012B00EB42140AD104F510636E
:107A4000D4F80049B4F1FF3F01DCFDF77FFA0124CF
:107A50000CE004F53063D4F8004B01F17071B4F11F
:107A6000FF3F01DCFDF772FA4FF4803402F00F02A1
:107A700004FA02F2D0F83C489443C0F83C48D0F8ED
:107A80001C4824EA0202C0F81C2818680840186044
:107A9000002010BD007833ECD0F8001E21F0030167
:107AA000C0F8001ED0F8041821F00201FDF7D4B888
:107AB000D0F8001E21F00301C0F8001ED0F8041811
:107AC00041F00201FDF7C8B82DE9F84F0D46814697
:107AD000119C0C98DDF828B041210022502903D0D8
:107AE00049F821200131F9E734B1D9F8381041F4CF
:107AF0000011C9F8381017E0D9F8041841F0020154
:107B0000C9F80418D9F8381021F40011C9F8381050
:107B1000D9F8001041F04001C9F80010D9F8001060
:107B200041F08001C9F80010002109F50068C9F88A
:107B3000001E0128D8F80010C8F8001006D1D8F8A7
:107B40000000002B18BF40F0010003E0D8F800004F
:107B500040F00300C8F800004846102100F072FA17
:107B60008246484600F04EFA002109F510624FF6B1
:107B70007F330026C8F81010C8F81410C8F81C107D
:107B8000B5420ED04FF09047002E08BF4FF000676F
:107B90001468013607EAE4741460116193602032BE
:107BA000EEE709F5306100224FF67F330026B5423B
:107BB0000ED04FF09044002E08BF4FF000640F68C5
:107BC000013604EAE7740C600A618B602031EEE74D
:107BD000D8F8101021F48071C8F810100021C9F8ED
:107BE0001810BBF1000F6FF08041C9F8141005D1D7
:107BF000D9F8181041F01001C9F81810D9F8181068
:107C00000D4A1143C9F81810119A0D9929B1D9F8E4
:107C1000181041F00801C9F81810012A05D1D9F847
:107C20001810064A1143C9F8181050EA0A0018BF84
:107C30000120BDE8F88F00BF00383C800400004000
:107C4000816821F00101816000207047F0B54B7818
:107C500091F800C0012B20D100EB4C15354CA64605
:107C600005F51063344CD5F810798E69CEB32740F2
:107C70001F6174461F6907EA0E071F61CF68BE4285
:107C800001D93E468F611F6947F400271F6104F147
:107C900000571C69374027432EE000EB4C10254C61
:107CA000D0F8103B6FF31203C0F8103BD0F8103B34
:107CB0006FF3DC43C0F8103B8D6900F53063C86892
:107CC00005B188611D6904F1005445F400251D616A
:107CD000C86120401C6920431861012A12D108693B
:107CE0000EE007EA0E061E611E6946F400261E61BC
:107CF0001E6906EA04070026012A1F6109D14869A6
:107D000000B158614FF00441186808431860002022
:107D1000F0BDD5F80019002E41F00441C5F8001956
:107D2000F5D00CF00F01012200F6340302FA01F144
:107D3000EAE700BFFFFF07E00000F8FF10B5036CA3
:107D4000134CA34203D3D0F8003B002B1ED40023D6
:107D5000C0F8103BD0F8103B012943F40023C0F8D1
:107D6000103BD0F8103B43F01803C0F8103BD0F89C
:107D7000103B43F0C043C0F8103B07D1C0F8142BB0
:107D8000D0F8001B41F08021C0F8001B002010BD7E
:107D90000B30544F0A784B785201012B14BF00F579
:107DA000306000F51060835823F400138350097984
:107DB00001F0FE01022903D1115841F08051115008
:107DC000002070470A784978012900EB421019BF5A
:107DD000D0F8001B00F53060D0F8001900F51060F5
:107DE0002AB1002903D4016821F0804101600168B3
:107DF00041F400110160002070470000F8B54B7895
:107E00000C78012B2ED100EB441606F51063D6F842
:107E10001079D1F818C0BCF1000F47D06FF31207EA
:107E20001F611F696FF3DC471F61CF680CEB07050B
:107E3000013DB5FBF7F5544F07EAC5451F693D43C2
:107E40001D6165461F696FF3DF453D431D610D7977
:107E5000012D36D11D6925F0C0451D611D6945F014
:107E600000572DE000EB4413D3F8104B6FF31204CE
:107E7000C3F8104BD3F8104B6FF3DC44C3F8104B2E
:107E800003F530638D69CC68002D4BD02544013D4E
:107E9000B5FBF4F5AEB274433B4ECC6106EAC54582
:107EA0001E696FF3DF4435431D6142E06FF3DC4729
:107EB0001F611F6947F400271F611F696FF31207D5
:107EC0001F61012A11D14A690AB1C6F8142909793A
:107ED000012944D1D0F80818D6F80009C9054CBFCB
:107EE00040F0805040F0005038E0630100F510662B
:107EF000F55845F00445F5500D79012D35D1D0F8F0
:107F000008589F59ED054FF0805558BF4FF0005568
:107F10003D439D511FFA8CF309690092224600F0FF
:107F2000C9F920E06FF3DF441D692C431C614FF455
:107F300000241D692C431C61012A02D10A6902B187
:107F40005A61097901290AD1D0F80808C0054FF013
:107F5000805058BF4FF000501968084318601868E7
:107F600040F0044018600020F8BDBCF1000FFAD0CA
:107F700004F00F01012202FA01F1D0F83428114374
:107F8000C0F83418EFE700BF0000F81F81B00022EE
:107F900000924A78012A15D1097800F5106049014C
:107FA0004258B2F1FF3F22DC7346FDF78CF89E4643
:107FB000009B01330093009B93421AD80B58002B6F
:107FC000F6D414E0097800F5306049014258B2F166
:107FD000FF3F0CDC7346FDF776F89E46009B0133AD
:107FE0000093009B934204D80B58002BF6D400203A
:107FF00000E0012001B07047816841F0010181601B
:108000000020704781B0002100911F49009A013281
:108010000092009A8A4212D80269B2F1FF3FF5DC61
:108020000022009210220261009A01320092009A0E
:108030008A4204D80269D206F6D4002000E0032068
:1080400001B0704781B0002200920F4A009B0133BB
:108050000093009B934213D80369B3F1FF3FF5DC13
:1080600089010023009320310161009901310091C1
:108070000099914204D801698906F6D4002000E0F5
:10808000032001B0704700BF400D0300D0F808087E
:1080900010F0060005D0062818BF022803D10220E0
:1080A0007047002070470F207047406900F00100C2
:1080B0007047D0F81818D0F81C08084080B27047F4
:1080C000D0F81818D0F81C080840000C704710B5FC
:1080D000D0F81028D0F8344801F00F0300EB41101D
:1080E00024FA03F3DB01D0F80809DBB21A4310408D
:1080F00010BD00EB4111D1F8081BD0F8140808405E
:1081000070474169806908407047B0B593084FF4E3
:10811000805423B1055941F8045B013BF9E712F0A3
:1081200003020BD04FF48053C058002320FA03F40D
:108130000833013A01F8014B1404F7D10846B0BDE9
:10814000B0B50446C06820F0C040E060A1B101298C
:108150001CBF0120B0BDE068002540F00050E06089
:108160000120F8F771F9681C6169302D14D811F0FD
:1081700001010546F4D00FE0E068002540F08040A2
:10818000E0600120F8F760F9681C6169302D03D8C0
:1081900011F001010546F4D13238B0FA80F04009FF
:1081A000B0BDD0F8002801F07F0122F4FE62C0F8D3
:1081B0000028D0F8002842EA0111C0F80018002079
:1081C00070470000022A34D1284A294B0A449A42B7
:1081D00002D24FF470512EE0264A274B0A449A42AD
:1081E00002D24FF4605126E0244A254B0A449A42B9
:1081F00002D24FF450511EE0224A234B0A449A42C5
:1082000002D24FF4405116E0204A214B0A449A42D0
:1082100002D24FF430510EE01E4A1F4B0A449A42DC
:1082200002D24FF4205106E01C4A1D4B0A449A42E8
:108230000AD24FF41051C26822F47052C260C26870
:108240001143C16000207047164A174B0A449A42F6
:1082500002D24FF40051EEE7144A154B0A444FF492
:10826000C0519A4238BF4FF4E051E4E7405327FF32
:1082700000350C00401E1BFF40420F0000DC0BFFCE
:10828000804F1200808CF9FE20D6130060B6E5FE08
:1082900060E3160000D3CEFE40771B00C05BB3FE48
:1082A000C091210000CA91FE20753800E05459FEAB
:1082B000E09C410010B5029C0CB1002010BD0333BE
:1082C000120300F580509B08002BF6D051F8044BA8
:1082D0001450013BF8E7FEE7BCB50546F8F79AF9FC
:1082E000044620208DF804008DF80750280A8DF8E8
:1082F0000600280C8DF8050000F056F9BD4DFCF77E
:1083000043FCBD4801A90422FCF7AAFD2846FCF75E
:1083100091FC40F6B93500F00BF8022806D1F8F7C9
:1083200079F9001BA842F6D30320BCBD0020BCBDD8
:10833000BCB50520AF4C8DF80700FCF76EFEAE4DC6
:108340000DF1070101224FF47A732846FBF70DF86F
:108350000DF1060128460122FCF7F0FD2046FCF74E
:1083600069FC9DF80610022000EA4100BCBD00BF78
:10837000BCB504464FF480504FF48071C4E9060147
:108380004FF4803020610DF1060000F06BF8BDF86D
:1083900006504EF61370854203D3043080B28542F6
:1083A00001D90120BCBD204600F07AF8B7EE000AE2
:1083B0004EF61370281A00F093FBBCEEC00A216938
:1083C000A26910EE100A0005C4E90150B0FBF2F2F8
:1083D000B0FBF1F100206261E160BCBD1CB549F663
:1083E0006610844CADF80600FCF717FE82480DF1CC
:1083F00006010222FCF734FD2046FCF71BFC04209A
:10840000F8F722F80148FFF7B3FF1CBD80190024DC
:10841000F8B5064603208DF80000764C15468DF819
:1084200003100022080A8DF80200080C8DF80100E4
:1084300040212046F8F7E1F86F4F694604224FF4D7
:108440007A733846FAF791FFAAB238463146FCF7FC
:1084500075FD08B10120F8BD2046FCF7EBFB0020BC
:10846000F8BD00BF7CB504469020624D0090FCF73B
:108470008BFB614E69460422FCF791FD0DF106016C
:1084800030460222FCF75AFDBDF8060040210122C9
:1084900000BA000C20802846F8F7AFF87CBD00BF7A
:1084A0007CB504469F20534D8DF80400FCF76CFB0F
:1084B000514E01A90122FCF772FD0DF10501304674
:1084C0000322FCF73BFD9DF806109DF805009DF882
:1084D0000720090241EA00404021104420600122A7
:1084E0002846F8F78AF87CBD2DE9FE4F17460C4662
:1084F00082466FF0FF05F8F78DF8064605F58075A2
:10850000A542FBD938192D1B0190DFF8EC900DF135
:10851000080BBD4288BF3D46364F02208DF808004B
:10852000200A8DF80A008DF80B40200C8DF8090008
:1085300000F03AF8384640210022B846F8F75DF8D6
:10854000484659460422FCF78BFC48BBAAB2484671
:108550005146FCF785FC18BB4046FCF76BFBFFF768
:10856000E7FE022806D1F8F755F8801BB0F57A7FB0
:10857000F5D912E02C440199AA44474604F58070CD
:1085800088424FF4807088BF081B0546A1424FF017
:108590000200C3D80020BDE8FE8F0320BDE8FE8F97
:1085A0000120BDE8FE8F00BFBCB506208DF8070096
:1085B000F8F730F80F4D0446FCF7E6FA0E480DF1D7
:1085C00007010122FCF74CFC2846FCF733FBFFF7C0
:1085D000AFFE022809D1F8F71DF8001BB0F57A7F2D
:1085E00005D80020F7F730FFF1E70020BCBD0320DD
:1085F000BCBD00BF000C02580C220024F0B599B09D
:108600000C4606466846142100271546CDE9117729
:10861000CDE90F77F7F76DFE03200A9741F2883214
:10862000002E08BF0120CDE90807CDE90577159791
:108630004FF04070002E08BF4FF0807013901097DD
:108640000E97CDE90B771897CDE916774FF40050C8
:108650000D90052007900120149005A94C48F8F7CB
:1086600065FB10B14FF0FF3010E00A20049069461E
:1086700041F288328DE8B0004FF480000390444806
:10868000F8F702FB002818BF4FF0FF3019B0F0BD1B
:10869000F0B595B001AD0E46074638211446284680
:1086A000F7F727FE00200321069041F28832002FC1
:1086B00008BF0121CDE9036105900A90089011904F
:1086C0004FF400510991002F4FF0407108BF4FF057
:1086D0008071FCF7A7FC2E482946F8F727FB10B15C
:1086E0004FF0FF3007E02A482146FCF71EFB002828
:1086F00018BF4FF0FF3015B0F0BD00BFB0B594B05B
:108700006D46FCF751FCFCF744FA08BF0121FCF769
:1087100095FA9920029029461D48F8F707FB14B0F6
:10872000B0BD00BFB0B594B06D46FCF73DFCFCF7A2
:1087300030FA08BF0121FCF781FA66200290294631
:108740001348F8F7F3FA14B0B0BD00BFB0B594B059
:108750006D46FCF729FCFCF71CFA08BF0121FCF769
:108760006DFA0620029029460948F8F7DFFA18B199
:108770004FF0FF3014B0B0BD204602210222FFF7B7
:108780003DFF002818BF4FF0FF3014B0B0BD00BF50
:108790007C1C002410B500F00F03B14CB0F1FF3F7A
:1087A000034A2344C8BF83180801187010BD00BFD6
:1087B00000E400E0F7F72EBF80B503480421FBF783
:1087C00033F8002080BD00BF1C2300242DE9FC41AC
:1087D000A44C88468DF80700464E4FF400610022F5
:1087E0002046B04720464FF400510022B047424D8A
:1087F0000DF10701012264232846FAF7B6FD07466A
:1088000020464FF400510122B0472846414601223C
:108810004FF4FA73FAF7F8FC054620464FF400616E
:108820000122B0476842381A18BF4FF0FF30BDE848
:10883000FC8100BF70B58B4CFCF798F9AAB22E48AA
:1088400031464FF4FA73FAF7DFFC05462046FCF791
:10885000E8F9002D18BF4FF0FF35284670BD00BF66
:1088600070B5804CFCF782F9AAB2234831466423E4
:10887000FAF77BFD05462046FCF7D3F9002D18BF1B
:108880004FF0FF35284670BD2DE9FC47754D174662
:1088900088468DF80700DFF85CA04FF400610022E5
:1088A00000242846D04728464FF400510022D047E4
:1088B00011480DF1070101226423FAF756FD06461F
:1088C00028464FF400510122A946D0473FB1BAB221
:1088D000094841464FF4FA73FAF747FD0644484603
:1088E000FCF79FF9002EC8BF4FF0FF342046BDE8CB
:1088F000FC8700BFFB050008942200248EB0584876
:108900000168890312D4BFF34F8F0021BFF36F8F2B
:10891000C0F83C12BFF34F8FBFF36F8F016841F473
:1089200000310160BFF34F8FBFF36F8F0168C90340
:1089300026D40021016743F6E07CBFF34F8FC26E5F
:10894000C2F3C903C2F34E319A0701330CEA411551
:1089500016461F4646EA050406F14046013FC0F8A8
:108960004C42F7D14C1E00292146EFD1BFF34F8F67
:10897000016841F480310160BFF34F8FBFF36F8F07
:1089800001200990F7F7C8FE40F201100C9048F260
:108990001F700B9000200A9009AC2046F7F796FE56
:1089A0000420F7F7C3FEF7F743FEFDF7D7FEFBF70A
:1089B0003FFCFBF7EDFCFBF74FFDFBF777FDFBF70B
:1089C000AFFCFBF721FDFBF7C9FDFBF7E5F92FA095
:1089D000244D254E0C27DFF8B480B0F80CB0D0E958
:1089E000019A304603A90022FAF7A3F9304608A9F4
:1089F0000022FAF773F99DF80E009DF80C209DF8FF
:108A00000D301EA1C00719A008BF0146204600F086
:108A100053F804203E21A0221023CDE90074FBF777
:108A200091F909A83E21A0221023ADF830B0CDE97C
:108A3000007480E800075020FBF784F928460821DD
:108A40000122F7F7DAFD0220F7F7FEFC284608219D
:108A50000022F7F7D2FD40F2F310F7F7F5FCC0E77C
:108A600014ED00E000100258E421002454696D6503
:108A70003A202530326420253032640054696D6517
:108A80003A20253032643A2530326400535049464A
:108A90006C6173682054657374000000436800695A
:108AA0001847D0E903301847836800691847D0F8A1
:108AB00000C00069604700000FB4084B10B504A95E
:108AC00002AA039800F07AF8044602A9002000F0F8
:108AD000A6FA204610BC5DF814FB00001F900008A9
:108AE00010EE102A6FEAD25212F0FF0F1ABFB5EE45
:108AF000C00AF1EE10FA704710B501462DED028B59
:108B000010EE100AF7F731FC08EE100A18EE100A02
:108B10006FEAD05010F0FF0F19D0B5EEC08AF1EE19
:108B200010FA1EBFB0EE480ABDEC028B10BD022049
:108B300000F03EF800F024F810EE101A18EE100ABB
:108B4000BDEC028B61F31E0000EE100A10BD022086
:108B500000F02EF800F00CF810EE101A18EE100AC3
:108B6000BDEC028B61F31E0000EE100A10BD000088
:108B70009FED020A20EE000A70470000000000701E
:108B80009FED020A20EE000A70470000000000106E
:108B900002E008C8121F08C1002AFAD170477047C6
:108BA000002001E001C1121F002AFBD17047000024
:108BB0000149086070470000000000242DE9FF4FC4
:108BC0008DB00F460546002606E025280BD0DDE9CE
:108BD0000F1290476D1C761C28780028F5D111B033
:108BE0003046BDE8F08F0024A246A1460122EC49A0
:108BF00000E0044315F8013F203B02FA03F008426D
:108C0000F7D128782A2810D06FF02F022878A0F109
:108C10003001092914D80AEB8A0102EB410144F022
:108C2000020400EB010A6D1CF0E701CF5FEA000AC5
:108C300003D544F40054CAF1000A44F002046D1C48
:108C400028782E2817D115F8010F44F004042A289B
:108C50000ED06FF02F022878A0F1300109290AD830
:108C600009EB890102EB410100EB01096D1CF2E700
:108C700057F8049B6D1C28786C280FD006DC4C2814
:108C800017D068280DD06A2814D104E0742810D0B9
:108C90007A280FD10DE044F400140AE044F4801463
:108CA00001E044F440146978814202D104F5801453
:108CB0006D1C6D1C2A786E2A1FD00CDC632A31D003
:108CC00004DC002A8BD0582A11D1A3E0642A68D092
:108CD000692A0CD165E0732A2ED004DC6F2A73D088
:108CE000702A04D19BE0752A6FD0782A6ED0104686
:108CF000DDE90F129047761C50E1C4F302500228C0
:108D000006D0032809D0042801CF09D0066045E128
:108D100001CFF117C0E9006140E101CF06803DE1DC
:108D200006703BE117F8040B8DF8000000208DF869
:108D30000100EB46012003E057F804BB4FF0FF3081
:108D400061074FF0000102D40DE008F101018846EF
:108D500049450FDA8045F8DB1BF808100029F4D1EB
:108D600008E008F1010188468142FADB1BF808108F
:108D70000029F6D1DDE90F23AAEB08008146214640
:108D800000F036F9304400EB080604E0DDE90F128C
:108D90001BF8010B9047B8F10108F7D2214648466D
:108DA000F7E00A21C4F302534FF0000B0891022BA5
:108DB00004D001CFC117032B09D00AE0FF1D27F013
:108DC0000707F7E8020108E032E01FE020E000B208
:108DD000C117042B01D140B2C117031E71F100036A
:108DE00007DA4FF0000CD0EB0C006CEB01012D23E7
:108DF00002E0230504D52B238DF82430012303E062
:108E0000E30701D02023F7E7984658E00A2110E055
:108E100010210EE010204FF0000B08900CE0102104
:108E20004FF0000B44F004044FF00809089103E0F0
:108E300008214FF0000B0891C4F30253022B04D019
:108E400001CF0021032B06D006E0FF1D27F0070706
:108E5000F7E8020103E080B2042B00D1C0B24FF06A
:108E6000000823072BD5702A07D0DDF820C08CF02E
:108E7000100C5CEA0B0C05D00EE040238DF824307A
:108E8000012308E050EA010306D030238DF8243096
:108E90008DF8252002239846DDF820C08CF0080CC0
:108EA0005CEA0B0C0BD150EA010301D1630706D534
:108EB00030238DF824304FF00108A9F10109582A18
:108EC00004D038A20B9208AA0A920BE03AA2F9E762
:108ED0005B46089AF7F718FA0B9B9B5C0A9A521E9E
:108EE0000A92137050EA0102F2D10A98ADEB000029
:108EF00000F1200B600702D524F4803401E04FF02C
:108F00000109D94502DDA9EB0B0000E0002000EBD0
:108F10000B0141440890AAEB010AE00306D4DDE905
:108F20000F232146504600F063F806444FF0000935
:108F300008E009A911F80900DDE90F12904709F1CD
:108F40000109761CC145F4DBE0030CD5DDE90F23F4
:108F50002146504600F04CF8064404E0DDE90F12CB
:108F600030209047761C0899481E08900029F5DCAF
:108F700008E00A980A990078491C0A91DDE90F1265
:108F80009047761CBBF10001ABF1010BF1DC2146EF
:108F90005046DDE90F2300F019F806446D1C1BE66E
:108FA00009280100303132333435363738396162BF
:108FB0006364656600000000303132333435363783
:108FC0003839414243444546000000002DE9F04154
:108FD000044600251E461746880404D405E0394699
:108FE0002020B0476D1C641EF9D52846BDE8F081ED
:108FF0002DE9F041044600251E469046C80301D5E0
:10900000302700E02027880404D505E04146384693
:10901000B0476D1C641EF9D52846BDE8F0810A688A
:10902000531C0B6010707047000000000102030425
:109030000102030406070809008002021F00000065
:1090400053544D202020202050726F64756374208B
:109050002020202020202020302E303100800202CD
:109060001F00000057654163742020205153504970
:10907000204D53432020202020202020302E30312E
:10908000424D486400000000000046000000380027
:109090000000A000000050000000010010000300CC
:1090A000000002640000120B0000120B0000000020
:1090B00000000000000000F80000E00700001F00B2
:1090C00000000000000000000000000000000000A0
:1090D0000000000000000000000000000000000090
:1090E0000000000000000000000000000000000080
:1090F0000000000000000000000000000000000070
:10A03000000008422D6B2D6B2D6B242100000000C9
:10A040000000000000000000000000000000000010
:10A050000000000000000000000000000000000000
:10A0600000000000000000000000000000000000F0
:10A0700000000000000000000000000000000000E0
:10A0800000000000000000000000000000000000D0
:10A0900000000000000000000000000000000000C0
:10A0A00000000000000000000000000000000000B0
:10A0B00000000000000000000000000000000000A0
:10A0C0000000000000000000000000000000000090
:10A0D0000000000000000000000000000000000080
:10A0E0000000000000000000000000000000000070
:10A0F0000000000000000000000000000000000060
:10A10000000000000000000000000000000000004F
:10A11000000000000000000000000000000000003F
:10A12000000000000000000000000000000000002F
:10A13000000000000000000000000000000000001F
:10A14000000000000000000000000000000000000F
:10A1500000000000000000000000000000000000FF
:10A160000000000000000000000000000842D7BD11
:10A17000BEF7BEF79AD69AD6BEF7FFFF5CE7D7BD0B
:10A18000AA520000000000000000000000000000D3
:10A1900000003084FBDEFFFFFFFFBEF7D7BD2D6B55
:10A1A000000000000000000000000842D7BD5CE78E
:10A1B000FFFFFFFFBEF738C6308424210000AA52FB
:10A1C0009AD69AD69AD69AD69AD69AD69AD600007F
:10A1D00000000000000000000000242114A5FBDEA8
:10A1E000FFFFFFFF5CE714A52421000075AD9AD6A0
:10A1F0009AD69AD69AD69AD69AD63084000000007B
:10A2000030849AD69AD69AD69AD69AD69AD675ADD8
:10A210000000000000000000000000000000CF7BF4
:10A2200038C65CE7FFFFFFFFFBDED7BDAA52000088
:10A23000000000000000000000000000000000001E
:10A24000000000000000000000000000000000000E
:10A2500000000000000000000000000000000000FE
:10A2600000000000000000000000000000000000EE
:10A2700000000000000000000000000000000000DE
:10A2800000000000000000000000000000000000CE
:10A2900000000000000000000000000000000000BE
:10A2A0000000000000000000242175ADFFFFD7BDB5
:10A2B000AA520000000000002421FFFFFFFFFFFF63
:10A2C000FFFF38C62421000000000000000000004D
:10A2D000D7BDFFFFFFFFFFFFFFFFFFFFFFFFFFFFF8
:10A2E00075AD000000000000CF7BFFFFFFFFFFFF08
:10A2F000FFFFFFFFFFFFFFFFFFFFBEF714A52D6B62
:10A30000FFFFFFFFFFFFFFFFFFFFFFFFFFFF00005B
:10A3100000000000000000003084BEF7FFFFFFFFD8
:10A32000FFFFFBDE14A5FBDE5CE7AA529AD6FFFF17
:10A33000FFFFFFFFFFFFFFFFFFFF14A5000000006E
:10A3400014A5FFFFFFFFFFFFFFFFFFFFFFFF9AD6F0
:10A350000000000000000000000008429AD6FFFF45
:10A36000FFFFFFFF14A500000842B2945CE738C667
:10A370002421000000000000000000000000000098
:10A3800000000000000000000000000000000000CD
:10A3900000000000000000000000000000000000BD
:10A3A00000000000000000000000000000000000AD
:10A3B000000000000000000000000000000000009D
:10A3C000000000000000000000000000000000008D
:10A3D000000000000000000000000000000000007D
:10A3E0000000000000002421FBDEFBDEAA5200007A
:10A3F00000000000000000002D6BFFFFFFFFFFFFCB
:10A40000FFFFFFFFFBDE00000000000000003084C3
:10A41000FFFFFFFFFFFFFFFFFFFFFFFFB2940842B8
:10A42000FBDEB29400002421BEF7FFFFFFFFFFFF19
:10A43000FFFFFFFFBEF72421000030845CE7BEF77A
:10A44000FFFFFFFFFFFFFFFFFFFFFFFFFFFF00001A
:10A450000000000000003084FFFFFFFFFFFFFFFF50
:10A46000FFFF2D6B00000000B294BEF75CE7FFFF1A
:10A47000FFFFFFFFFFFFFFFFFFFF14A5000000002D
:10A4800014A5FFFFFFFFFFFFFFFFFFFFFFFF9AD6AF
:10A490000000000000000000AA52BEF7FFFFFFFF0F
:10A4A000FFFFFFFF14A5000000000000000014A53E
:10A4B000FBDE24210000000000000000000000007E
:10A4C000000000000000000000000000000000008C
:10A4D000000000000000000000000000000000007C
:10A4E000000000000000000000000000000000006C
:10A4F000000000000000000000000000000000005C
:10A50000000000000000000000000000000000004B
:10A51000000000000000000000000000000000003B
:10A52000000000000000084238C62421000000009E
:10A530000000000000000842BEF7FFFFFFFFFFFF22
:10A54000FFFFFFFFFFFF14A50000000000009AD6E8
:10A55000FFFFFFFFFFFFFFFFFFFFFFFF2D6B00006F
:10A5600008425CE72421CF7BFFFFFFFFFFFFFFFFD7
:10A57000FFFFFFFF9AD6000000000000000075AD4D
:10A58000FFFFFFFFFFFFFFFFFFFFFFFFFFFF0000D9
:10A59000000000002D6BFFFFFFFFFFFFFFFFFFFF2D
:10A5A000FFFF2D6B0000000000003084FFFFFFFF65
:10A5B000FFFFFFFFFFFFFFFFFFFF14A500000000EC
:10A5C00014A5FFFFFFFFFFFFFFFFFFFFFFFF9AD66E
:10A5D0000000000000002421BEF7FFFFFFFFFFFF87
:10A5E000FFFFFFFF14A500000000000000000000B6
:10A5F000B2949AD6000000000000000000000000A5
:10A60000000000000000000000000000000000004A
:10A61000000000000000000000000000000000003A
:10A62000000000000000000000000000000000002A
:10A63000000000000000000000000000000000001A
:10A64000000000000000000000000000000000000A
:10A6500000000000000000000000000000000000FA
:10A6600000000000000000000000000000000000EA
:10A67000000000002421FBDEFFFFFFFFFFFFFFFFC4
:10A68000FFFFFFFFFFFF5CE7000000000000FFFF8F
:10A69000FFFFFFFFFFFFFFFFFFFFFFFF2D6B00002E
:10A6A0000000D7BD2D6B14A5FFFFFFFFFFFFFFFFCD
:10A6B000FFFFFFFF9AD600000000000000002D6B96
:10A6C000FFFFFFFFFFFFFFFFFFFFFFFFFFFF000098
:10A6D000000000005CE7FFFFFFFFFFFFFFFFFFFF41
:10A6E000FFFF2D6B00000000000000009AD6FFFF66
:10A6F000FFFFFFFFFFFFFFFFFFFF14A500000000AB
:10A7000014A5FFFFFFFFFFFFFFFFFFFFFFFF9AD62C
:10A71000000000000000D7BDFFFFFFFFFFFFFFFFAD
:10A72000FFFFFFFF14A50000000000000000000074
:10A7300000009AD6308400000000000000000000F5
:10A740000000000000000000000000000000000009
:10A7500000000000000000000000000000000000F9
:10A7600000000000000000000000000000000000E9
:10A7700000000000000000000000000000000000D9
:10A7800000000000000000000000000000000000C9
:10A7900000000000000000000000000000000000B9
:10A7A00000000000000000000000000000000000A9
:10A7B00000002421FBDEFFFFFFFFFFFFFFFFFFFF85
:10A7C000FFFFFFFFFFFFFFFF000000000000FFFF93
:10A7D000FFFFFFFFFFFFFFFFFFFFFFFF2D6B0000ED
:10A7E00000000000000014A5FFFFFFFFFFFFFFFFB8
:10A7F000FFFFFFFF9AD600000000000000002D6B55
:10A80000FFFFFFFFFFFFFFFFFFFFFFFFFFFF000056
:10A810000000CF7BFFFFFFFFFFFFFFFFFFFFFFFFFA
:10A82000FFFF2D6B00000000000000009AD6FFFF24
:10A83000FFFFFFFFFFFFFFFFFFFF14A50000000069
:10A8400014A5FFFFFFFFFFFFFFFFFFFFFFFF9AD6EB
:10A85000000000002421FFFFFFFFFFFFFFFFFFFFBD
:10A86000FFFFFFFF14A50000000000000000000033
:10A8700000002D6B9AD600000000000000000000D0
:10A8800000000000000000000000000000000000C8
:10A8900000000000000000000000000000000000B8
:10A8A00000000000000000000000000000000000A8
:10A8B0000000000000000000000000000000000098
:10A8C0000000000000000000000000000000000088
:10A8D0000000000000000000000000000000000078
:10A8E0000000000000000000000000000000000068
:10A8F0002421FBDEFFFFFFFFFFFFFFFFFFFFFFFF46
:10A90000FFFFFFFFFFFFBEF7000000000000FFFF9A
:10A91000FFFFFFFFFFFFFFFFFFFFFFFF2D6B0000AB
:10A9200000000000000014A5FFFFFFFFFFFFFFFF76
:10A93000FFFFFFFF9AD600000000000000002D6B13
:10A94000FFFFFFFFFFFFFFFFFFFFFFFFFFFF000015
:10A95000000075ADFFFFFFFFFFFFFFFFFFFFFFFFE1
:10A96000FFFF2D6B00000000000000009AD6FFFFE3
:10A97000FFFFFFFFFFFFFFFFFFFF14A50000000028
:10A9800014A5FFFFFFFFFFFFFFFFFFFFFFFF9AD6AA
:10A9900000000000CF7BFFFFFFFFFFFFFFFFFFFF77
:10A9A000FFFFFFFF14A500000000000000000000F2
:10A9B00000000000BEF7242100000000000000009D
:10A9C0000000000000000000000000000000000087
:10A9D0000000000000000000000000000000000077
:10A9E0000000000000000000000000000000000067
:10A9F0000000000000000000000000000000000057
:10AA00000000000000000000000000000000000046
:10AA10000000000000000000000000000000000036
:10AA200000000000000000000000000000002421E1
:10AA3000FBDEFFFFFFFFFFFFFFFFFFFFFFFFFFFF4B
:10AA4000FFFFFFFFFFFFD7BD000000000000FFFF7A
:10AA5000FFFFFFFFFFFFFFFFFFFFFFFF2D6B00006A
:10AA600000000000000014A5FFFFFFFFFFFFFFFF35
:10AA7000FFFFFFFF9AD600000000000000002D6BD2
:10AA8000FFFFFFFFFFFFFFFFFFFFFFFFFFFF0000D4
:10AA900000009AD6FFFFFFFFFFFFFFFFFFFFFFFF52
:10AAA000FFFF2D6B00000000000000009AD6FFFFA2
:10AAB000FFFFFFFFFFFFFFFFFFFF14A500000000E7
:10AAC00014A5FFFFFFFFFFFFFFFFFFFFFFFF9AD669
:10AAD0000000000014A5FFFFFFFFFFFFFFFFFFFFC7
:10AAE000FFFFFFFF14A500000000000000000000B1
:10AAF000000000009AD62D6B00000000000000004E
:10AB00000000000000000000000000000000000045
:10AB10000000000000000000000000000000000035
:10AB20000000000000000000000000000000000025
:10AB30000000000000000000000000000000000015
:10AB40000000000000000000000000000000000005
:10AB500000000000000000000000000000000000F5
:10AB60000000000000000000000000000000D7BD51
:10AB7000FFFFFFFFFFFFFFFFFFFFFFFFFFFFFFFFE5
:10AB8000FFFFFFFFFFFF0842000000000000FFFF83
:10AB9000FFFFFFFFFFFFFFFFFFFFFFFF2D6B000029
:10ABA00000000000000014A5FFFFFFFFFFFFFFFFF4
:10ABB000FFFFFFFF9AD600000000000000002D6B91
:10ABC000FFFFFFFFFFFFFFFFFFFFFFFFFFFF000093
:10ABD00000009AD6FFFFFFFFFFFFFFFFFFFFFFFF11
:10ABE000FFFF2D6B00000000000000009AD6FFFF61
:10ABF000FFFFFFFFFFFFFFFFFFFF14A500000000A6
:10AC000014A5FFFFFFFFFFFFFFFFFFFFFFFF9AD627
:10AC10000000000014A5FFFFFFFFFFFFFFFFFFFF85
:10AC2000FFFFFFFF14A5000000000000000000006F
:10AC3000000000009AD62D6B00000000000000000C
:10AC40000000000000000000000000000000000004
:10AC500000000000000000000000000000000000F4
:10AC600000000000000000000000000000000000E4
:10AC700000000000000000000000000000000000D4
:10AC800000000000000000000000000000000000C4
:10AC900000000000000000000000000000000000B4
:10ACA00000000000000000000000000075ADFFFF84
:10ACB000FFFFFFFFFFFFFFFFFFFFFFFFFFFFFFFFA4
:10ACC000FFFFFFFF14A50000000000000000FFFFD1
:10ACD000FFFFFFFFFFFFFFFFFFFFFFFF2D6B0000E8
:10ACE00000000000000014A5FFFFFFFFFFFFFFFFB3
:10ACF000FFFFFFFF9AD600000000000000002D6B50
:10AD0000FFFFFFFFFFFFFFFFFFFFFFFFFFFF000051
:10AD100000009AD6FFFFFFFFFFFFFFFFFFFFFFFFCF
:10AD2000FFFF2D6B00000000000000009AD6FFFF1F
:10AD3000FFFFFFFFFFFFFFFFFFFF14A50000000064
:10AD400014A5FFFFFFFFFFFFFFFFFFFFFFFF9AD6E6
:10AD500000000000B294FFFFFFFFFFFFFFFFFFFFB7
:10AD6000FFFFFFFF14A5000000000000000000002E
:10AD7000000000005CE70842000000000000000046
:10AD800000000000000000000000000000000000C3
:10AD900000000000000000000000000000000000B3
:10ADA00000000000000000000000000000000000A3
:10ADB0000000000000000000000000000000000093
:10ADC0000000000000000000000000000000000083
:10ADD0000000000000000000000000000000000073
:10ADE00000000000000000000000CF7BFFFFFFFF1D
:10ADF000FFFFFFFFFFFFFFFFFFFFFFFFFFFFFFFF63
:10AE0000FFFF38C600000000000000000000FFFF48
:10AE1000FFFFFFFFFFFFFFFFFFFFFFFF2D6B0000A6
:10AE200000000000000014A5FFFFFFFFFFFFFFFF71
:10AE3000FFFFFFFF9AD600000000000000002D6B0E
:10AE4000FFFFFFFFFFFFFFFFFFFFFFFFFFFF000010
:10AE5000000014A5FFFFFFFFFFFFFFFFFFFFFFFF45
:10AE6000FFFF2D6B00000000000000009AD6FFFFDE
:10AE7000FFFFFFFFFFFFFFFFFFFF14A50000000023
:10AE800014A5FFFFFFFFFFFFFFFFFFFFFFFF9AD6A5
:10AE900000000000AA52FFFFFFFFFFFFFFFFFFFFC0
:10AEA000FFFFFFFF14A500000000000000000000ED
:10AEB00000000842BEF70000000000000000000093
:10AEC0000000000000000000000000000000000082
:10AED0000000000000000000000000000000000072
:10AEE0000000000000000000000000000000000062
:10AEF0000000000000000000000000000000000052
:10AF00000000000000000000000000000000000041
:10AF10000000000000000000000000000000000031
:10AF200000000000000000002421BEF7FFFFFFFF2B
:10AF3000FFFFFFFFFFFFFFFFFFFFFFFFFFFFFFFF21
:10AF4000FBDE242100000000000000000000FFFFE5
:10AF5000FFFFFFFFFFFFFFFFFFFFFFFF2D6B000065
:10AF600000000000000014A5FFFFFFFFFFFFFFFF30
:10AF7000FFFFFFFF9AD600000000000000002D6BCD
:10AF8000FFFFFFFFFFFFFFFFFFFFFFFFFFFF0000CF
:10AF90000000AA52FFFFFFFFFFFFFFFFFFFFFFFFC1
:10AFA000FFFF2D6B00000000000000009AD6FFFF9D
:10AFB000FFFFFFFFFFFFFFFFFFFF14A500000000E2
:10AFC00014A5FFFFFFFFFFFFFFFFFFFFFFFF9AD664
:10AFD0000000000000005CE7FFFFFFFFFFFFFFFF36
:10AFE000FFFFFFFF14A500000000000000000000AC
:10AFF000000014A575AD0000000000000000000076
:10B000000000000000000000000000000000000040
:10B010000000000000000000000000000000000030
:10B020000000000000000000000000000000000020
:10B030000000000000000000000000000000000010
:10B040000000000000000000000000000000000000
:10B0500000000000000000000000000000000000F0
:10B06000000000000000000014A5FFFFFFFFFFFF2D
:10B07000FFFFFFFFFFFFFFFFFFFFFFFFFFFF5CE79B
:10B080002421000000000000000000000000FFFF7D
:10B09000FFFFFFFFFFFFFFFFFFFFFFFF2D6B000024
:10B0A00000000000000014A5FFFFFFFFFFFFFFFFEF
:10B0B000FFFFFFFF9AD600000000000000002D6B8C
:10B0C000FFFFFFFFFFFFFFFFFFFFFFFFFFFF00008E
:10B0D0000000000038C6FFFFFFFFFFFFFFFFFFFF7C
:10B0E000FFFF2D6B00000000000000009AD6FFFF5C
:10B0F000FFFFFFFFFFFFFFFFFFFF14A500000000A1
:10B1000014A5FFFFFFFFFFFFFFFFFFFFFFFF9AD622
:10B11000000000000000CF7BFFFFFFFFFFFFFFFFED
:10B12000FFFFFFFF14A5000000000000000000006A
:10B13000AA525CE72421000000000000000000008B
:10B1400000000000000000000000000000000000FF
:10B1500000000000000000000000000000000000EF
:10B1600000000000000000000000000000000000DF
:10B1700000000000000000000000000000000000CF
:10B1800000000000000000000000000000000000BF
:10B1900000000000000000000000000000000000AF
:10B1A00000000000000000005CE7FFFFFFFFFFFF62
:10B1B000FFFFFFFFFFFFFFFFFFFFFFFFBEF7AA52EA
:10B1C0000000000000000000000000000000FFFF81
:10B1D000FFFFFFFFFFFFFFFFFFFFFFFF2D6B0000E3
:10B1E00000000000000014A5FFFFFFFFFFFFFFFFAE
:10B1F000FFFFFFFF9AD600000000000000002D6B4B
:10B20000FFFFFFFFFFFFFFFFFFFFFFFFFFFF00004C
:10B210000000000024215CE7FFFFFFFFFFFFFFFFAE
:10B22000FFFF2D6B00000000000024215CE7FFFF02
:10B23000FFFFFFFFFFFFFFFFFFFF14A5000000005F
:10B2400014A5FFFFFFFFFFFFFFFFFFFFFFFF9AD6E1
:10B250000000000000000000D7BDFFFFFFFFFFFF60
:10B26000FFFFFFFF14A50000000000000000AA522D
:10B27000BEF7308400000000000000000000000065
:10B2800000000000000000000000000000000000BE
:10B2900000000000000000000000000000000000AE
:10B2A000000000000000000000000000000000009E
:10B2B000000000000000000000000000000000008E
:10B2C000000000000000000000000000000000007E
:10B2D000000000000000000000000000000000006E
:10B2E0000000000000000000FFFFFFFFFFFFFFFF66
:10B2F000FFFFFFFFFFFFFFFFFFFFBEF7AA520000A7
:10B300000000000000000000000000000000FFFF3F
:10B31000FFFFFFFFFFFFFFFFFFFFFFFF2D6B0000A1
:10B3200000000000000014A5FFFFFFFFFFFFFFFF6C
:10B33000FFFFFFFF9AD600000000000000002D6B09
:10B34000FFFFFFFFFFFFFFFFFFFFFFFFFFFF00000B
:10B35000000000000000AA52FBDEFFFFFFFFFFFF1E
:10B36000FFFF2D6B000000002D6BFBDE5CE7FFFF95
:10B37000FFFFFFFFFFFFFFFFFFFF14A5000000001E
:10B3800014A5FFFFFFFFFFFFFFFFFFFFFFFF9AD6A0
:10B390000000000000000000000075ADFFFFFFFF8F
:10B3A000FFFFFFFF14A5000000000000B2945CE75F
:10B3B00030840000000000000000000000000000D9
:10B3C000000000000000000000000000000000007D
:10B3D000000000000000000000000000000000006D
:10B3E000000000000000000000000000000000005D
:10B3F000000000000000000000000000000000004D
:10B40000000000000000000000000000000000003C
:10B41000000000000000000000000000000000002C
:10B420000000000000000000FFFFFFFFFFFFFFFF24
:10B43000FFFFFFFFFFFFFFFFFFFFAA52000000001A
:10B44000000000000000000008429AD69AD6FFFFD4
:10B45000FFFFFFFFFFFFFFFFFFFFFFFFFBDE9AD6AF
:10B460009AD63084000014A5FFFFFFFFFFFFFFFF07
:10B47000FFFFFFFF9AD600000000000000002D6BC8
:10B48000FFFFFFFFFFFFFFFFFFFFFFFFFFFF0000CA
:10B490000000000000000000242114A5BEF7FFFFFB
:10B4A000FFFFFBDE14A5FBDE9AD608429AD6FFFF0B
:10B4B000FFFFFFFFFFFFFFFFFFFF14A500000000DD
:10B4C00014A5FFFFFFFFFFFFFFFFFFFFFFFF9AD65F
:10B4D0000000000000000000000000002D6B9AD664
:10B4E000FFFFFFFF9AD614A5D7BDBEF7D7BD084210
:10B4F000000000000000000000000000000000004C
:10B50000000000000000000000000000000000003B
:10B51000000000000000000000000000000000002B
:10B52000000000000000000000000000000000001B
:10B53000000000000000000000000000000000000B
:10B5400000000000000000000000000000000000FB
:10B5500000000000000000000000000000000000EB
:10B56000000000000000000038C6FFFFFFFFFFFFE3
:10B57000FFFFFFFFFFFFFFFF30840000000000001F
:10B58000000000000000000024212D6B2D6BFFFF48
:10B59000FFFFFFFFFFFFFFFFFFFFFFFF2D6B2D6B87
:10B5A0002D6B0842000008422D6B2D6B2D6B2D6B0F
:10B5B0002D6B2D6BAA52000000000000000024211A
:10B5C0002D6B2D6B2D6B2D6B2D6B2D6B2D6B000053
:10B5D00000000000000000000000000000002D6BD3
:10B5E00014A514A530840842000000009AD6FFFF7D
:10B5F000FFFFFFFFFFFFFFFFFFFF14A5000000009C
:10B6000008422D6B2D6B2D6B2D6B2D6B2D6BAA5264
:10B61000000000000000000000000000000000002A
:10B620000842308414A514A5CF7B2421000000001B
:10B63000000000000000000000000000000000000A
:10B6400000000000000000000000000000000000FA
:10B6500000000000000000000000000000000000EA
:10B6600000000000000000000000000000000000DA
:10B6700000000000000000000000000000000000CA
:10B6800000000000000000000000000000000000BA
:10B6900000000000000000000000000000000000AA
:10B6A0000000000000000000AA52FFFFFFFFFFFFA4
:10B6B000FFFFFFFFFFFF14A50000000000000000D7
:10B6C0000000AA52AA520000000000000000FFFF84
:10B6D000FFFFFFFFFFFFFFFFFFFFFFFF2421000031
:10B6E000000000000000000000000000000000005A
:10B6F000000000000000000000000000000000004A
:10B700000000000000000000000000000000000039
:10B710000000000000000000000000000000000029
:10B720000000000000000000000000009AD6FFFFAB
:10B73000FFFFFFFFFFFFFFFFFFFF14A5000000005A
:10B7400000002421308414A514A530840842000090
:10B7500000000000000000000000000000000000E9
:10B7600000000000000000000000000000000000D9
:10B7700000000000000000000000000000000000C9
:10B7800000000000000000000000000000000000B9
:10B7900000000000000000000000000000000000A9
:10B7A0000000000000000000000000000000000099
:10B7B0000000000000000000000000000000000089
:10B7C0000000000000000000000000000000000079
:10B7D0000000000000000000000000000000000069
:10B7E000000000000000000000003084FFFFFFFFA9
:10B7F000FFFFFFFFFFFF242100000000000000000A
:10B80000B294FFFF2D6B0000000000000000084212
:10B8100014A55CE7FFFFFFFFFFFFFFFF2D6B00009C
:10B820000000000000000000000000000000000018
:10B830000000000000000000000000000000000008
:10B8400000000000000000000000000000000000F8
:10B8500000000000000000000000000000000000E8
:10B860000000000000000000000000009AD6FFFF6A
:10B87000FFFFFFFFFFFFFFFFFFFF14A50000000019
:10B880000842BEF7FFFFFFFFFFFFFFFFBEF7CF7BC2
:10B8900000000000000000000000000000000000A8
:10B8A0000000000000000000000000000000000098
:10B8B0000000000000000000000000000000000088
:10B8C0000000000000000000000000000000000078
:10B8D0000000000000000000000000000000000068
:10B8E0000000000000000000000000000000000058
:10B8F0000000000000000000000000000000000048
:10B900000000000000000000000000000000000037
:10B910000000000000000000000000000000000027
:10B92000000000000000000000000000AA529AD6AB
:10B93000FFFFFFFFFFFF14A52D6B2D6B75AD5CE7BF
:10B940009AD6AA520000000000000000000000008B
:10B950000000000030845CE7FFFFFFFF2D6B00005C
:10B9600000000000000000000000000000000000D7
:10B9700000000000000000000000000000000000C7
:10B9800000000000000000000000000000000000B7
:10B9900000000000000000000000000000000000A7
:10B9A0000000000000000000000000009AD6FFFF29
:10B9B000FFFFFFFFFFFFFFFFFFFF14A500000000D8
:10B9C00014A5FFFFFFFFFFFFFFFFFFFFFFFF9AD65A
:10B9D0000000000000000000000000000000000067
:10B9E0000000000000000000000000000000000057
:10B9F0000000000000000000000000000000000047
:10BA00000000000000000000000000000000000036
:10BA10000000000000000000000000000000000026
:10BA20000000000000000000000000000000000016
:10BA30000000000000000000000000000000000006
:10BA400000000000000000000000000000000000F6
:10BA500000000000000000000000000000000000E6
:10BA600000000000000000000000000000000000D6
:10BA70000842B294D7BD9AD69AD638C614A5AA520F
:10BA800000000000000000000000000000000000B6
:10BA9000000000000000000030845CE72D6B000017
:10BAA0000000000000000000000000000000000096
:10BAB0000000000000000000000000000000000086
:10BAC0000000000000000000000000000000000076
:10BAD0000000000000000000000000000000000066
:10BAE000000000000000000000000000AA522D6BC2
:10BAF0002D6B2D6B2D6B2D6B2D6B08420000000004
:10BB00002D6BFFFFFFFFFFFFFFFFFFFFFFFF14A5F0
:10BB10000000000000000000000000000000000025
:10BB20000000000000000000000000000000000015
:10BB30000000000000000000000000000000000005
:10BB400000000000000000000000000000000000F5
:10BB500000000000000000000000000000000000E5
:10BB600000000000000000000000000000000000D5
:10BB700000000000000000000000000000000000C5
:10BB800000000000000000000000000000000000B5
:10BB900000000000000000000000000000000000A5
:10BBA0000000000000000000000000000000000095
:10BBB0000000000000000000000000000000000085
:10BBC0000000000000000000000000000000000075
:10BBD00000000000000000000000242124210000DB
:10BBE0000000000000000000000000000000000055
:10BBF0000000000000000000000000000000000045
:10BC00000000000000000000000000000000000034
:10BC10000000000000000000000000000000000024
:10BC20000000000000000000000000000000000014
:10BC30000000000000000000000000000000000004
:10BC400000002D6BD7BD9AD69AD638C63084000036
:10BC500000000000000000000000000000000000E4
:10BC600000000000000000000000000000000000D4
:10BC700000000000000000000000000000000000C4
:10BC800000000000000000000000000000000000B4
:10C1A000242100000000000000000000000000004A
:10C1B000000000000000000000002421000000003A
:10C1C000000000000000000000000000000000006F
:10C1D000000000000000000000000000000000005F
:10C1E000000000000000000000000000000000004F
:10C1F000000000000000000000000000000000003F
:10C20000000000000000000000000000000000002E
:10C21000000000000000000000000000000000001E
:10C22000000000000000000000000000000000000E
:10C2300000000000000000000000000000000000FE
:10C2400000000000000000000000000000000000EE
:10C2500000000000000000000000000000000000DE
:10C2600000000000000000000000000000000000CE
:10C2700000000000000000000000000000000000BE
:10C2800000000000000000000000000000000000AE
:10C29000000000000000000000000000000000009E
:10C2A000000000000000000000000000000000008E
:10C2B000000000000000000000000000000000007E
:10C2C000000000000000000000000000000000006E
:10C2D000000000000000000000000000000000005E
:10C2E000D7BD0000000000000000000000000000BA
:10C2F0000000000000000000242138C600000000FB
:10C30000000000000000000000000000000000002D
:10C31000000000000000000000000000000000001D
:10C32000000000000000000000000000000000000D
:10C33000AA52000000000000000000000000000001
:10C3400000000000000000000000000000000000ED
:10C3500000000000000000000000000000000000DD
:10C3600000000000000000000000000000000000CD
:10C3700000000000000000000000000000000000BD
:10C3800000000000000000000000000000000000AD
:10C39000000000000000000000000000000000009D
:10C3A000000000000000000000000000000000008D
:10C3B000000000000000000000000000000000007D
:10C3C000000000000000000000000000000000006D
:10C3D000000000000000000000000000000000005D
:10C3E000000000000000000000000000000000004D
:10C3F000000000000000000000000000000000003D
:10C40000000000000000000000000000000000002C
:10C410000000000000000000000000000000CF7BD2
:10C42000FFFF2D6B00000000000000000000000076
:10C43000000000000000000014A5FFFF08420000FB
:10C4400000000000000000000000000000000000EC
:10C45000000000000000084275ADFBDEFFFFFFFF9B
:10C46000BEF738C630842421000000000000000020
:10C470005CE7CF7B0000000000000000000000002F
:10C480000000000000000000000008429AD69AD682
:10C490009AD69AD69AD69AD69AD69AD69AD69AD61C
:10C4A00024210000000000000000308438C65CE752
:10C4B000FFFFFFFF5CE7D7BD2D6B00000000000011
:10C4C0000000000000000000242114A55CE7FFFF2D
:10C4D000FFFF5CE775AD08420000000000000000AF
:10C4E000000000000000000000000000000000004C
:10C4F000000000000000000000000000000000003C
:10C50000000000000000000000000000000000002B
:10C51000000000000000000000000000000000001B
:10C52000000000000000000000000000000000000B
:10C5300000000000000000000000000000000000FB
:10C5400000000000000000000000000000000000EB
:10C55000000000000000000000000000000038C6DD
:10C56000FFFF5CE70000000000000000000000008A
:10C570000000000000000842FFFFFFFFD7BD0000E1
:10C5800000000000000000000000000000000000AB
:10C590000000000014A5FFFFFFFFBEF7AA52000035
:10C5A0002421CF7B9AD6BEF7B29400000000000091
:10C5B00030845CE72421000000000000000000003F
:10C5C00000000000000000000000D7BDFFFFFFFFDB
:10C5D000FFFFFFFFFFFFFFFFFFFFFFFFFFFF14A5B0
:10C5E000000000000000AA52FBDEFFFFFFFFFFFF7C
:10C5F00038C600002421CF7B9AD69AD60842000084
:10C600000000000000002421FBDEFFFFFFFFFFFF12
:10C61000FFFFFFFFFFFFBEF73084000000000000B7
:10C62000000000000000000000000000000000000A
:10C6300000000000000000000000000000000000FA
:10C6400000000000000000000000000000000000EA
:10C6500000000000000000000000000000000000DA
:10C6600000000000000000000000000000000000CA
:10C6700000000000000000000000000000000000BA
:10C6800000000000000000000000000000000000AA
:10C690000000000000000000000000000842FFFF52
:10C6A000FFFFFFFF308400000000000000000000DA
:10C6B000000000000000D7BDFFFFFFFFFFFF2421A7
:10C6C000000000000000000000000000000000006A
:10C6D0000000D7BDFFFFFFFFFFFF9AD6000000005C
:10C6E0000000000000002D6BBEF738C624210000BA
:10C6F00000009AD6D7BD2D6B2D6B2D6B2D6B2D6B3E
:10C700002D6B2D6B2D6B2D6B3084FFFFFFFFFFFF1B
:10C71000FFFFFFFFFFFFFFFFFFFFFFFFBEF724212B
:10C7200000000000AA52BEF7FFFFFFFFFFFFFFFF60
:10C7300014A50000000000000000CF7B5CE7AA52B7
:10C74000000000000000D7BDFFFFFFFFFFFFFFFF5D
:10C75000FFFFFFFFAA522D6BBEF7AA520000000098
:10C7600000000000000000000000000000000000C9
:10C7700000000000000000000000000000000000B9
:10C7800000000000000000000000000000000000A9
:10C790000000000000000000000000000000000099
:10C7A0000000000000000000000000000000000089
:10C7B0000000000000000000000000000000000079
:10C7C0000000000000000000000000000000000069
:10C7D00000000000000000000000000014A5FFFFA2
:10C7E000FFFFFFFFBEF72421000000000000000053
:10C7F000000000000842FFFFFFFFFFFFFFFF14A53E
:10C800000000000000000000000000000000000028
:10C8100014A5FFFFFFFFFFFFFFFF9AD600000000F7
:10C8200000000000000000002421FBDE9AD600007A
:10C8300000002D6BFFFFFBDE9AD69AD69AD69AD6C9
:10C840009AD69AD69AD69AD6BEF7FFFFFFFFFFFF79
:10C85000FFFFFFFFFFFFFFFFFFFFFFFFB29400009E
:10C8600000002421BEF7FFFFFFFFFFFFFFFFFFFFD8
:10C8700014A500000000000000000000AA525CE7C0
:10C88000AA5200000000FFFFFFFFFFFFFFFFFFFFB6
:10C89000FFFFFFFF00000000CF7B9AD600000000E2
:10C8A0000000000000000000000000000000000088
:10C8B0000000000000000000000000000000000078
:10C8C0000000000000000000000000000000000068
:10C8D0000000000000000000000000000000000058
:10C8E0000000000000000000000000000000000048
:10C8F0000000000000000000000000000000000038
:10C900000000000000000000000000000000000027
:10C910000000000000000000000000005CE7FFFFD6
:10C92000FFFFFFFFFFFF14A5000000000000000054
:10C9300000000000D7BDFFFFFFFFFFFFFFFFBEF7B6
:10C94000000000000000000000000000000008429D
:10C95000FFFFFFFFFFFFFFFFFFFF9AD60000000071
:10C9600000000000000000000000AA52BEF7AA521A
:10C9700000000000D7BDD7BD00000000000000008F
:10C98000000000000000AA52FFFFFFFFFFFFFFFFB3
:10C99000FFFFFFFFFFFFFFFFFFFF5CE7000000005E
:10C9A0000000D7BDFFFFFFFFFFFFFFFFFFFFFFFFFF
:10C9B00014A5000000000000000000000000B29478
:10C9C00038C600002D6BFFFFFFFFFFFFFFFFFFFFDB
:10C9D000FFFFFFFF0000000000005CE70000000018
:10C9E0000000000000000000000000000000000047
:10C9F0000000000000000000000000000000000037
:10CA00000000000000000000000000000000000026
:10CA10000000000000000000000000000000000016
:10CA20000000000000000000000000000000000006
:10CA300000000000000000000000000000000000F6
:10CA400000000000000000000000000000000000E6
:10CA500000000000000000000000CF7BFFFFFFFF90
:10CA6000FFFFFFFFFFFFBEF72421000000000000D2
:10CA700000002D6BFFFFFFFFFFFFFFFFFFFFFFFF2A
:10CA8000308400000000000000000000000014A539
:10CA9000FFFFFFFFFFFFFFFFFFFF9AD60000000030
:10CAA000000000000000000000000000084200003C
:10CAB000000000002421BEF7AA5200000000000080
:10CAC0000000000000009AD6FFFFFFFFFFFFFFFFFE
:10CAD000FFFFFFFFFFFFFFFFFFFFCF7B0000000016
:10CAE0002421FFFFFFFFFFFFFFFFFFFFFFFFFFFF0F
:10CAF00014A500000000000000000000000000007D
:10CB0000084200002D6BFFFFFFFFFFFFFFFFFFFF4D
:10CB1000FFFFFFFF00000000000000000000000019
:10CB20000000000000000000000000000000000005
:10CB300000000000000000000000000000000000F5
:10CB400000000000000000000000000000000000E5
:10CB500000000000000000000000000000000000D5
:10CB600000000000000000000000000000000000C5
:10CB700000000000000000000000000000000000B5
:10CB800000000000000000000000000000000000A5
:10CB9000000000000000000000009AD6FFFFFFFF29
:10CBA000FFFFFFFFFFFFFFFFD7BD000000000000F9
:10CBB00000009AD6FFFFFFFFFFFFFFFFFFFFFFFF11
:10CBC0005CE7000000000000000000000000FBDE49
:10CBD000FFFFFFFFFFFFFFFFFFFF9AD600000000EF
:10CBE0000000000000000000000000000000000045
:10CBF000000000000000B2949AD60000000000007F
:10CC0000000000002D6BFFFFFFFFFFFFFFFFFFFF96
:10CC1000FFFFFFFFFFFFFFFF9AD6000000000000AC
:10CC2000CF7BFFFFFFFFFFFFFFFFFFFFFFFFFFFFC8
:10CC300014A500000000000000000000000000003B
:10CC4000000000002D6BFFFFFFFFFFFFFFFFFFFF56
:10CC5000FFFFFFFF000000000000000000000000D8
:10CC600000000000000000000000000000000000C4
:10CC700000000000000000000000000000000000B4
:10CC800000000000000000000000000000000000A4
:10CC90000000000000000000000000000000000094
:10CCA0000000000000000000000000000000000084
:10CCB0000000000000000000000000000000000074
:10CCC0000000000000000000000000000000000064
:10CCD00000000000000000000842FFFFFFFFFFFF10
:10CCE000FFFFFFFFFFFFFFFFFFFF08420000000004
:10CCF0002D6BFFFFFFFFFFFFFFFFFFFFFFFFFFFFAA
:10CD0000FFFF2D6B00000000000000000000FFFF8F
:10CD1000FFFFFFFFFFFFFFFFFFFFFBDE2D6B2D6B14
:10CD20002D6B2D6B2D6B2D6B2D6B2D6B2D6BAA52DF
:10CD300000000000000000005CE7CF7B0000000066
:10CD4000000000009AD6FFFFFFFFFFFFFFFFFFFF7D
:10CD5000FFFFFFFFFFFFFFFF2D6B00000000000043
:10CD600014A5FFFFFFFFFFFFFFFFFFFFFFFFFFFF18
:10CD700014A50000000000000000000000000000FA
:10CD8000000000002D6BFFFFFFFFFFFFFFFFFFFF15
:10CD9000FFFFFFFF00000000000000000000000097
:10CDA0000000000000000000000000000000000083
:10CDB0000000000000000000000000000000000073
:10CDC0000000000000000000000000000000000063
:10CDD0000000000000000000000000000000000053
:10CDE0000000000000000000000000000000000043
:10CDF0000000000000000000000000000000000033
:10CE00000000000000000000000000000000000022
:10CE1000000000000000000075ADFFFFFFFFFFFFF6
:10CE2000FFFFFFFFFFFFFFFFFFFF9AD6000000009C
:10CE30005CE7FFFFFFFFFFFFFFFFFFFFFFFFFFFFBD
:10CE4000FFFF9AD600000000000000000000FFFF76
:10CE5000FFFFFFFFFFFFFFFFFFFFBEF79AD69AD647
:10CE60009AD6FBDEFFFFFFFFFFFFFFFFFFFF9AD613
:10CE700000000000000000002D6B5CE72421000092
:10CE800000003084FFFFFFFFFFFFFFFFFFFFFFFFFA
:10CE9000FFFFFFFFFFFFD7BD000000000000000004
:10CEA00014A5FFFFFFFFFFFFFFFFFFFFFFFFFFFFD7
:10CEB00014A50000000000000000000000000000B9
:10CEC000000000002D6BFFFFFFFFFFFFFFFFFFFFD4
:10CED000FFFFFFFF00000000000000000000000056
:10CEE0000000000000000000000000000000000042
:10CEF0000000000000000000000000000000000032
:10CF00000000000000000000000000000000000021
:10CF10000000000000000000000000000000000011
:10CF20000000000000000000000000000000000001
:10CF300000000000000000000000000000000000F1
:10CF400000000000000000000000000000000000E1
:10CF50000000000000000000BEF7FFFFFFFFFFFF22
:10CF6000FFFFFFFFFFFFFFFFFFFFFFFF2D6BB294EF
:10CF7000FFFFFFFFFFFFFFFFFFFFFFFFFFFFFFFFC1
:10CF8000FFFFBEF7AA5200000000000000005CE7AF
:10CF9000FFFFFFFFFFFFFFFFFFFF9AD6000000002B
:10CFA00000002D6BFFFFFFFFFFFFFFFFFFFFD7BD5F
:10CFB0000000000000000000000038C614A50000BA
:10CFC00000005CE7FFFFFFFFFFFFFFFFFFFFFFFF2A
:10CFD000FFFFFFFFBEF70842000000000000000056
:10CFE000B294FFFFFFFFFFFFFFFFFFFFFFFFFFFF09
:10CFF00014A5000000000000000000000000000078
:10D00000000000002D6BFFFFFFFFFFFFFFFFFFFF92
:10D01000FFFFFFFF00000000000000000000000014
:10D020000000000000000000000000000000000000
:10D0300000000000000000000000000000000000F0
:10D0400000000000000000000000000000000000E0
:10D0500000000000000000000000000000000000D0
:10D0600000000000000000000000000000000000C0
:10D0700000000000000000000000000000000000B0
:10D0800000000000000000000000000000000000A0
:10D090000000000000003084FFFFFFFFFFFFFFFFE4
:10D0A000FFFFFFFFFFFFFFFFD7BD14A55CE7BEF743
:10D0B000FFFFFFFFFFFFFFFFFFFFFFFFFFFFFFFF80
:10D0C000D7BDD7BDD7BD0000000000000000D7BD10
:10D0D000FFFFFFFFFFFFFFFFFFFF9AD600000000EA
:10D0E00000002D6BFFFFFFFFFFFFFFFFFFFFB2946C
:10D0F0000000000000000000000008425CE7084259
:10D100003084FFFFFFFFFFFFFFFFFFFFFFFFFFFF79
:10D11000FFFFFFFF14A5000000000000000000005A
:10D12000AA52FFFFFFFFFFFFFFFFFFFFFFFFFFFF11
:10D1300014A5000000000000000000000000000036
:10D14000000000002D6BFFFFFFFFFFFFFFFFFFFF51
:10D15000FFFFFFFF000000000000000000000000D3
:10D1600000000000000000000000000000000000BF
:10D1700000000000000000000000000000000000AF
:10D18000000000000000000000000000000000009F
:10D19000000000000000000000000000000000008F
:10D1A000000000000000000000000000000000007F
:10D1B000000000000000000000000000000000006F
:10D1C000000000000000000000000000000000005F
:10D1D0000000000000009AD6FFFFFFFFFFFFFFFFE7
:10D1E000FFFFFFFFFFFFFFFFAA522421BEF7FFFF53
:10D1F000FFFFFFFFFFFFFFFFFFFFFFFFFFFFBEF788
:10D2000024210842FFFF08420000000000002D6BAF
:10D21000FFFFFFFFFFFFFFFFFFFF9AD600000000A8
:10D2200000002D6BFFFFFFFFFFFFFFFFFFFF084226
:10D2300000000000000000000000000014A538C637
:10D240005CE7FFFFFFFFFFFFFFFFFFFFFFFFFFFFA9
:10D25000FFFFBEF7242100000000000000000000D6
:10D2600000005CE7FFFFFFFFFFFFFFFFFFFFFFFF87
:10D2700014A50000000000000000000000000000F5
:10D28000000000002D6BFFFFFFFFFFFFFFFFFFFF10
:10D29000FFFFFFFF00000000000000000000000092
:10D2A000000000000000000000000000000000007E
:10D2B000000000000000000000000000000000006E
:10D2C000000000000000000000000000000000005E
:10D2D000000000000000000000000000000000004E
:10D2E000000000000000000000000000000000003E
:10D2F000000000000000000000000000000000002E
:10D30000000000000000000000000000000000001D
:10D31000000000000842FFFFFFFFFFFFFFFFFFFFCD
:10D32000FFFFFFFFFFFF9AD6000000003084FFFFE1
:10D33000FFFFFFFFFFFFFFFFFFFFFFFFFFFF14A542
:10D340000000000038C614A5000000000000000026
:10D350009AD6FFFFFFFFFFFFFFFF9AD600000000F5
:10D3600000002D6BFFFFFFFFFFFFFFFF75AD00000B
:10D3700000000000000000000000000024215CE725
:10D38000FFFFFFFFFFFFFFFFFFFFFFFFFFFFFFFFAD
:10D39000FFFF3084000000000000000000000000DB
:10D3A0000000CF7BFFFFFFFFFFFFFFFFFFFFFFFF3F
:10D3B00014A5000000000000000000002421D7BDDB
:10D3C000000000002D6BFFFFFFFFFFFFFFFFFFFFCF
:10D3D000FFFFFFFF00000000000000000000000051
:10D3E000000000000000000000000000000000003D
:10D3F000000000000000000000000000000000002D
:10D40000000000000000000000000000000000001C
:10D41000000000000000000000000000000000000C
:10D4200000000000000000000000000000000000FC
:10D4300000000000000000000000000000000000EC
:10D4400000000000000000000000000000000000DC
:10D450000000000075ADFFFFFFFFFFFFFFFFFFFFB4
:10D46000FFFFFFFFFFFF30840000000000005CE7CB
:10D47000FFFFFFFFFFFFFFFFFFFFFFFF5CE7242130
:10D48000000000002D6BBEF724210000000000000A
:10D490000842BEF7FFFFFFFFFFFF9AD60000000023
:10D4A00000002D6BFFFFFFFFFFFFFBDE24210000CC
:10D4B0000000000000000000000000000000CF7B22
:10D4C000FFFFFFFFFFFFFFFFFFFFFFFFFFFFFFFF6C
:10D4D0005CE7000000000000000000000000000009
:10D4E00000000000D7BDFFFFFFFFFFFFFFFFFFFFB2
:10D4F00014A500000000000000000000D7BD9AD66F
:10D50000000000002D6BFFFFFFFFFFFFFFFFFFFF8D
:10D51000FFFFFFFF0000000000000000000000000F
:10D5200000000000000000000000000000000000FB
:10D5300000000000000000000000000000000000EB
:10D5400000000000000000000000000000000000DB
:10D5500000000000000000000000000000000000CB
:10D5600000000000000000000000000000000000BB
:10D5700000000000000000000000000000000000AB
:10D58000000000000000000000000000000000009B
:10D5900000002421BEF7FFFFFFFFFFFFFFFFFFFF9B
:10D5A000FFFFFFFFBEF700000000000000002D6B32
:10D5B000FFFFFFFFFFFFFFFFFFFFFFFF30840000C3
:10D5C0000000000000005CE7308400000000000064
:10D5D0000000AA525CE7FFFFFFFF5CE700000000CD
:10D5E0000000CF7BFFFFFFFFFBDE242100000000D7
:10D5F000000000000000000000000000000000002B
:10D600009AD6FFFFFFFFFFFFFFFFFFFFFFFFFFFFB8
:10D610002D6B000000000000000000000000000072
:10D6200000000000000075ADFFFFFFFFFFFFFFFFE0
:10D6300075AD0000000000002D6B9AD6FBDE2421A2
:10D64000000000002D6BFFFFFFFFFFFFFFFFFFFF4C
:10D65000FFFFFFFF000000000000000000000000CE
:10D6600000000000000000000000000000000000BA
:10D6700000000000000000000000000000000000AA
:10D68000000000000000000000000000000000009A
:10D69000000000000000000000000000000000008A
:10D6A000000000000000000000000000000000007A
:10D6B000000000000000000000000000000000006A
:10D6C000000000000000000000000000000000005A
:10D6D00000003084FFFFFFFFFFFFFFFFFFFFFFFFA2
:10D6E000FFFFFFFF14A50000000000000000000085
:10D6F0009AD6FFFFFFFFFFFFFFFF5CE7000000007F
:10D70000000000000000B2945CE700000000000090
:10D7100000000000242114A5BEF7FFFF9AD614A52F
:10D7200075ADBEF75CE714A5000000000000000026
:10D7300000000000000000000000000000000000E9
:10D740000842FFFFFFFFFFFFFFFFFFFFFFFF9AD62B
:10D7500000000000000000000000000000000000C9
:10D7600000000000000000002D6B9AD6FFFFFFFFB5
:10D77000BEF775AD14A5FBDE5CE714A50000000044
:10D78000CF7B9AD6FBDEFFFFFFFFFFFFFFFFFFFF10
:10D79000FFFFFFFF9AD69AD69AD6AA520000000041
:10D7A0000000000000000000000000000000000079
:10D7B0000000000000000000000000000000000069
:10D7C0000000000000000000000000000000000059
:10D7D0000000000000000000000000000000000049
:10D7E0000000000000000000000000000000000039
:10D7F0000000000000000000000000000000000029
:10D800000000000000000000000000000000000018
:10D8100000005CE7FFFFFFFFFFFFFFFFFFFFFFFFD1
:10D82000FFFFFFFF084200000000000000000000B2
:10D830002D6BFFFFFFFFFFFFFFFF2D6B00000000C0
:10D840000000000000002421BEF73084000000002A
:10D85000000000000000000000002D6B14A514A5BE
:10D8600014A52D6B00000000000000000000000067
:10D8700000000000000000000000000000000000A8
:10D88000000014A5FFFFFFFFFFFFFFFFFFFFAA52ED
:10D890000000000000000000000000000000000088
:10D8A000000000000000000000000000084230847A
:10D8B00014A514A5B2942D6B000000000000000018
:10D8C00008422D6BB294FFFFFFFFFFFFFFFFFFFF3A
:10D8D000FFFFFBDE2D6B2D6B2D6B24210000000064
:10D8E0000000000000000000000000000000000038
:10D8F0000000000000000000000000000000000028
:10D900000000000000000000000000000000000017
:10D910000000000000000000000000000000000007
:10D9200000000000000000000000000000000000F7
:10D9300000000000000000000000000000000000E7
:10D9400000000000000000000000000000000000D7
:10D950002D6BFFFFFFFFFFFFFFFFFFFFFFFFFFFF3D
:10D96000FFFF38C6000000000000000000000000BB
:10D970000000D7BDFFFFFFFF9AD6000000000000A7
:10D980000000000000000000D7BD9AD60000000093
:10D990000000000000000000000000000000000087
:10D9A0000000000000000000000000000000000077
:10D9B0000000000000000000000000000000000067
:10D9C00000002421BEF7FFFFFFFFFFFFD7BD0000CF
:10D9D0000000000000000000000000000000000047
:10D9E0000000000000000000000000000000000037
:10D9F0000000000000000000000000000000000027
:10DA0000000000002D6BFFFFFFFFFFFFFFFFFFFF88
:10DA1000FFFFFBDE0000000000000000000000002F
:10DA200000000000000000000000000000000000F6
:10DA300000000000000000000000000000000000E6
:10DA400000000000000000000000000000000000D6
:10DA500000000000000000000000000000000000C6
:10DA600000000000000000000000000000000000B6
:10DA700000000000000000000000000000000000A6
:10DA80000000000000000000000000000000000096
:10DA900038C6FFFFFFFFFFFFFFFFFFFFFFFFFFFF96
:10DAA000FFFF3084000000000000000000000000C4
:10DAB00000000842FFFFFFFF2D6B00000000000088
:10DAC0000000000000000000AA52FFFF2D6B0000C4
:10DAD0000000000000000000000000000000000046
:10DAE0000000000000000000000000000000000036
:10DAF0000000000000000000000000000000000026
:10DB0000000000003084FFFFFFFFBEF7242100006B
:10DB10000000000000000000000000000000000005
:10DB200000000000000000000000000000000000F5
:10DB300000000000000000000000000000000000E5
:10DB4000000000000000AA52D7BDBEF7FFFFFFFF94
:10DB5000FFFFFFFF000000000000000000000000C9
:10DB600000000000000000000000000000000000B5
:10DB700000000000000000000000000000000000A5
:10DB80000000000000000000000000000000000095
:10DB90000000000000000000000000000000000085
:10DBA0000000000000000000000000000000000075
:10DBB0000000000000000000000000000000000065
:10DBC000000000000000000000000000000008420B
:10DBD000FFFFFFFFFFFFFFFFFFFFFFFFFFFFFFFF55
:10DBE000BEF7000000000000000000000000000080
:10DBF0000000000075AD9AD6000000000000000093
:10DC000000000000000000000000FBDED7BD0000A7
:10DC10000000000000000000000000000000000004
:10DC200000000000000000000000000000000000F4
:10DC300000000000000000000000000000000000E4
:10DC40000000000000009AD6FFFF14A500000000AD
:10DC500000000000000000000000000000000000C4
:10DC600000000000000000000000000000000000B4
:10DC700000000000000000000000000000000000A4
:10DC800000000000000000000000242114A5BEF7E1
:10DC9000FFFFFFFF00000000000000000000000088
:10DCA0000000000000000000000000000000000074
:10DCB0000000000000000000000000000000000064
:10DCC0000000000000000000000000000000000054
:10DCD0000000000000000000000000000000000044
:10DCE0000000000000000000000000000000000034
:10DCF0000000000000000000000000000000000024
:10DD000000000000000000000000000000000842C9
:10DD10002D6B2D6B2D6B2D6B2D6B2D6B2D6B2D6B43
:10DD2000AA520000000000000000000000000000F7
:10DD30000000000024212D6B000000000000000006
:10DD4000000000000000000000000842084200003F
:10DD500000000000000000000000000000000000C3
:10DD600000000000000000000000000000000000B3
:10DD700000000000000000000000000000000000A3
:10DD80000000000000002D6B5CE724210000000073
:10DD90000000000000000000000000000000000083
:10DDA0000000000000000000000000000000000073
:10DDB0000000000000000000000000000000000063
:10DDC000000000000000000000000000000024210E
:10DDD00014A5BEF7000000000000000000000000D5
:10DDE0000000000000000000000000000000000033
:10DDF0000000000000000000000000000000000023
:10DE00000000000000000000000000000000000012
:10DE10000000000000000000000000000000000002
:10DE200000000000000000000000000000000000F2
:10DE300000000000000000000000000000000000E2
:10DE400000000000000000000000000000000000D2
:10DE500000000000000000000000000000000000C2
:10DE600000000000000000000000000000000000B2
:10DE700000000000000000000000000000000000A2
:10DE80000000000000000000000000000000000092
:10DE90000000000000000000000000000000000082
:10DEA0000000000000000000000000000000000072
:10DEB0000000000000000000000000000000000062
:10DEC0000000000000000000084200000000000008
:10DED0000000000000000000000000000000000042
:10DEE0000000000000000000000000000000000032
:10DEF0000000000000000000000000000000000022
:10DF00000000000000000000000000000000000011
:10DF100000000842000000000000000000000000B7
:10DF200000000000000000000000000000000000F1
:10DF300000000000000000000000000000000000E1
:10DF400000000000000000000000000000000000D1
:10DF500000000000000000000000000000000000C1
:10EC000000000000000000F800F800F800F800F82C
:10EC100000F800F800F800F800F800F800F800F834
:10EC200000F800F800F800F800F80000000000000C
:10EC30000000E007E007E007E007E007E007E00783
:10EC4000E007E007E007E007E007E007E007E0078C
:10EC5000E007E007E00700000000000000001F00E0
:10EC60001F001F001F001F001F001F001F001F00AC
:10EC70001F001F001F001F001F001F001F001F009C
:10EC80001F00000000000000000000000000000065
:10EC90000000000000000000000000000000000074
:10ECA0000000000000000000000000000000000064
:10ECB0000000000000000000000000000000000054
:10ECC0000000000000000000000000000000000044
:10ECD0000000000000000000000000000000000034
:10ECE0000000000000000000000000000000000024
:10ECF0000000000000000000000000000000000014
:10ED00000000000000000000000000000000000003
:10ED100000000000000000000000000000000000F3
:10ED200000000000000000000000000000000000E3
:10ED300000000000000000000000000000000000D3
:10ED400000000000000000F800F800F800F800F8EB
:10ED500000F800F800F800F800F800F800F800F8F3
:10ED600000F800F800F800F800F8000000000000CB
:10ED70000000E007E007E007E007E007E007E00742
:10ED8000E007E007E007E007E007E007E007E0074B
:10ED9000E007E007E00700000000000000001F009F
:10EDA0001F001F001F001F001F001F001F001F006B
:10EDB0001F001F001F001F001F001F001F001F005B
:10EDC0001F00000000000000000000000000000024
:10EDD0000000000000000000000000000000000033
:10EDE0000000000000000000000000000000000023
:10EDF0000000000000000000000000000000000013
:10EE00000000000000000000000000000000000002
:10EE100000000000000000000000000000000000F2
:10EE200000000000000000000000000000000000E2
:10EE300000000000000000000000000000000000D2
:10EE400000000000000000000000000000000000C2
:10EE500000000000000000000000000000000000B2
:10EE600000000000000000000000000000000000A2
:10EE70000000000000000000000000000000000092
:10EE800000000000000000F800F800F800F800F8AA
:10EE900000F800F800F800F800F800F800F800F8B2
:10EEA00000F800F800F800F800F80000000000008A
:10EEB0000000E007E007E007E007E007E007E00701
:10EEC000E007E007E007E007E007E007E007E0070A
:10EED000E007E007E00700000000000000001F005E
:10EEE0001F001F001F001F001F001F001F001F002A
:10EEF0001F001F001F001F001F001F001F001F001A
:10EF00001F000000000000000000000000000000E2
:10EF100000000000000000000000000000000000F1
:10EF200000000000000000000000000000000000E1
:10EF300000000000000000000000000000000000D1
:10EF400000000000000000000000000000000000C1
:10EF500000000000000000000000000000000000B1
:10EF600000000000000000000000000000000000A1
:10EF70000000000000000000000000000000000091
:10EF80000000000000000000000000000000000081
:10EF90000000000000000000000000000000000071
:10EFA0000000000000000000000000000000000061
:10EFB0000000000000000000000000000000000051
:10EFC00000000000000000F800F800F800F800F869
:10EFD00000F800F800F800F800F800F800F800F871
:10EFE00000F800F800F800F800F800000000000049
:10EFF0000000E007E007E007E007E007E007E007C0
:10F00000E007E007E007E007E007E007E007E007C8
:10F01000E007E007E00700000000000000001F001C
:10F020001F001F001F001F001F001F001F001F00E8
:10F030001F001F001F001F001F001F001F001F00D8
:10F040001F000000000000000000000000000000A1
:10F0500000000000000000000000000000000000B0
:10F0600000000000000000000000000000000000A0
:10F070000000000000000000000000000000000090
:10F080000000000000000000000000000000000080
:10F090000000000000000000000000000000000070
:10F0A0000000000000000000000000000000000060
:10F0B0000000000000000000000000000000000050
:10F0C0000000000000000000000000000000000040
:10F0D0000000000000000000000000000000000030
:10F0E0000000000000000000000000000000000020
:10F0F0000000000000000000000000000000000010
:10F1000000000000000000F800F800F800F800F827
:10F1100000F800F800F800F800F800F800F800F82F
:10F1200000F800F800F800F800F800000000000007
:10F130000000E007E007E007E007E007E007E0077E
:10F14000E007E007E007E007E007E007E007E00787
:10F15000E007E007E00700000000000000001F00DB
:10F160001F001F001F001F001F001F001F001F00A7
:10F170001F001F001F001F001F001F001F001F0097
:10F180001F00000000000000000000000000000060
:10F19000000000000000000000000000000000006F
:10F1A000000000000000000000000000000000005F
:10F1B000000000000000000000000000000000004F
:10F1C000000000000000000000000000000000003F
:10F1D000000000000000000000000000000000002F
:10F1E000000000000000000000000000000000001F
:10F1F000000000000000000000000000000000000F
:10F2000000000000000000000000000000000000FE
:10F2100000000000000000000000000000000000EE
:10F2200000000000000000000000000000000000DE
:10F2300000000000000000000000000000000000CE
:10F2400000000000000000F800F800F800F800F8E6
:10F2500000F800F800F800F800F800F800F800F8EE
:10F2600000F800F800F800F800F8000000000000C6
:10F270000000E007E007E007E007E007E007E0073D
:10F28000E007E007E007E007E007E007E007E00746
:10F29000E007E007E00700000000000000001F009A
:10F2A0001F001F001F001F001F001F001F001F0066
:10F2B0001F001F001F001F001F001F001F001F0056
:10F2C0001F0000000000000000000000000000001F
:10F2D000000000000000000000000000000000002E
:10F2E000000000000000000000000000000000001E
:10F2F000000000000000000000000000000000000E
:10F3000000000000000000000000000000000000FD
:10F3100000000000000000000000000000000000ED
:10F3200000000000000000000000000000000000DD
:10F3300000000000000000000000000000000000CD
:10F3400000000000000000000000000000000000BD
:10F3500000000000000000000000000000000000AD
:10F36000000000000000000000000000000000009D
:10F37000000000000000000000000000000000008D
:10F3800000000000000000F800F800F800F800F8A5
:10F3900000F800F800F800F800F800F800F800F8AD
:10F3A00000F800F800F800F800F800000000000085
:10F3B0000000E007E007E007E007E007E007E007FC
:10F3C000E007E007E007E007E007E007E007E00705
:10F3D000E007E007E00700000000000000001F0059
:10F3E0001F001F001F001F001F001F001F001F0025
:10F3F0001F001F001F001F001F001F001F001F0015
:10F400001F000000000000000000000000000000DD
:10F4100000000000000000000000000000000000EC
:10F4200000000000000000000000000000000000DC
:10F4300000000000000000000000000000000000CC
:10F4400000000000000000000000000000000000BC
:10F4500000000000000000000000000000000000AC
:10F46000000000000000000000000000000000009C
:10F47000000000000000000000000000000000008C
:10F48000000000000000000000000000000000007C
:10F49000000000000000000000000000000000006C
:10F4A000000000000000000000000000000000005C
:10F4B000000000000000000000000000000000004C
:10F4C000000000000000000000000000000000003C
:10F4D0000000000000000000003F400000000000AD
:10F4E0000000003000400030004000000009000B28
:10F4F000C03D000BC03D00090018C024407FE02241
:10F500004031800000180024C01B000D80324001F3
:10F510008003801C4027401C800740004010006092
:10F520000000000000000000000000000000001FBC
:10F5300080204040200000402020401F800000002C
:10F5400000090006001F80060009000000040004F6
:10F55000003F800400040000000010006000000074
:10F560000000000000040004000400040004000087
:10F57000000000004000000000000000000020012A
:10F58000C006003800400000001F802040204020BE
:10F59000401F800000000010403FC00040000000FD
:10F5A0000018C02140224024401840000010802054
:10F5B00040244024401B80000002000D0011003F49
:10F5C000C0014000003C80244024402440238000AF
:10F5D000001F80244024403440038000003000207D
:10F5E0000027C03800200000001B80244024402455
:10F5F000401B8000001C0022C0224022401F8000CF
:10F6000000000000000840000000000000000000B2
:10F61000000460000000000000000004000A001167
:10F62000002080404009000900090009000900008D
:10F630000000004040208011000A00040018002053
:10F640000023402400180000001F8020402740298C
:10F65000401F400000004007C039000F0001C000FB
:10F660004020403FC0244024401B8000001F8020D9
:10F6700040204020403080000020403FC0204020FB
:10F68000401F80000020403FC024402E4030C0007A
:10F690000020403FC024402E00300000000F00102A
:10F6A00080204022403380020020403FC0040004FC
:10F6B000003FC02040204020403FC020402040006C
:10F6C000000060202020203FC02000200020403F7C
:10F6D000C024400B0030C0204020403FC0204000EC
:10F6E00040004000C03FC03C0003C03C003FC000A1
:10F6F0000020403FC00C4023003FC020001F80205E
:10F7000040204020401F80000020403FC024402473
:10F7100000180000001F802140214020E01FA000B1
:10F720000020403FC02440260019C0004018C024DB
:10F73000402440224031800000300020403FC02063
:10F74000403000000020003F80004000403F80200B
:10F750000020003E0001C0070038002000380007EC
:10F76000C03C0007C038000000204039C006003906
:10F77000C0204000002000384007C0384020000072
:10F7800000304021C02640384020C000000000006A
:10F79000007FE0402040200000000070000C0003CB
:10F7A00080004000000000402040207FE00000007A
:10F7B00000000020004000200000000000001000B9
:10F7C00010001000100010001000000000400000A9
:10F7D0000000000000000002800540054003C0005A
:10F7E0004020003FC00440044003800000000003AC
:10F7F00080044004400640000000000380044024D0
:10F80000403FC00040000003800540054003400029
:10F8100000000004401FC0244024402000000002DB
:10F82000E0055005500650042020403FC00440042D
:10F830000003C000400000044027C000400000005A
:10F840000000100010041027E00000000020403FDE
:10F85000C00140070004C00440204020403FC000D9
:10F86000400040000007C0040007C0040003C000BF
:10F8700000044007C00440040003C000400000032F
:10F88000800440044003800000041007F00450048A
:10F890004003800000000003800440045007F00093
:10F8A00010044007C00240040004000000000006ED
:10F8B000400540054004C00000000004001F800413
:10F8C0004000400000040007800040044007C000E2
:10F8D000400400070004C001800600040006000187
:10F8E000C0070001C006000000044006C001000679
:10F8F000C0044000000410071004E001800600046A
:10F90000000000044005C006400440000000000064
:10F910000004007BE040200000000000000000FF29
:10F92000F000000000000040207BE0040000000028
:10F930000040008000400020002000400000000047
:10F9400000000000000000000000000000000000B7
:10F950000000001FCC000C000000000000000008A8
:10F96000003000600008003000600000000220034A
:10F97000FC1E20022003FC1E200220000000000EBE
:10F980001811043FFF10840C78000000000F0010D5
:10F99000840F3800C0077818840078000000780FC2
:10F9A0008410C411240E9800E40084000808006844
:10F9B00000700000000000000000000000000000D7
:10F9C00000000007E018182004400200000000407A
:10F9D000022004181807E0000000000000024002A6
:10F9E0004001800FF00180024002400000008000D2
:10F9F0008000800FF800800080008000000001007F
:10FA00000D000E00000000000000000000000000DB
:10FA10008000800080008000800080008000000066
:10FA20000C000C00000000000000000000000000BE
:10FA30000600180060018006001800200000000782
:10FA4000F0080810041004080807F000000000087F
:10FA50000408041FFC000400040000000000000E65
:10FA60000C10141024104411840E0C000000000C23
:10FA70001810041104110412880C7000000000001A
:10FA8000E00320042408241FFC0024000000001FC1
:10FA900098108411041104108810700000000007F1
:10FAA000F008881104110418880070000000001C80
:10FAB00000100010FC13001C001000000000000EDD
:10FAC0003811441084108411440E380000000007DF
:10FAD00000088C10441044088807F0000000000063
:10FAE000000000030C030C000000000000000000F8
:10FAF00000000101060000000000000000000000FE
:10FB000080014002200410080810040000022002B6
:10FB1000200220022002200220022000000000100B
:10FB20000408080410022001400080000000000EBC
:10FB3000001200100C106C10800F00000003E00C8D
:10FB40001813E4142417C4082807D0000000040088
:10FB50003C03C41C40074000E4001C000410041FC8
:10FB6000FC1104110411040E880070000003E00C65
:10FB70001810041004100410081C10000010041FBA
:10FB8000FC100410041004080807F0000010041F03
:10FB9000FC1104110417C410040818000010041FFD
:10FBA000FC1104110017C010000800000003E00C55
:10FBB000181004100410441C780040000010041FAA
:10FBC000FC10840080008010841FFC1004000010D2
:10FBD0000410041FFC1004100400000000000300C7
:10FBE00001100110011FFE10001000000010041F82
:10FBF000FC110403801464181C1004000010041F7E
:10FC0000FC1004000400040004000C000010041F99
:10FC1000FC1F0000FC1F001FFC1004000010041F4C
:10FC2000FC0C04030000E010181FFC100007F00893
:10FC300008100410041004080807F0000010041F46
:10FC4000FC10841080108010800F00000007F00866
:10FC50001810241024101C080A07F2000010041FBA
:10FC6000FC1104110011C011300E0C000400000E34
:10FC70001C11041084108410441C3800001800105B
:10FC80000010041FFC100410001800000010001FDA
:10FC9000F810040004000410041FF8100010001EE7
:10FCA0000011E0001C007013801C0010001FC01029
:10FCB0003C00E01F0000E0103C1FC00000100418D2
:10FCC0000C163401C001C01634180C100410001CAE
:10FCD00000130400FC13041C0010000000080410B2
:10FCE0001C1064108413041C041018000000000091
:10FCF0000000007FFE400240024002000000003091
:10FD0000000C0003800060001C00030000000040A5
:10FD100002400240027FFE000000000000000000E0
:10FD200000200040004000400020000000000100D2
:10FD3000010001000100010001000100010000407C
:10FD40000040002000000000000000000000000053
:10FD500098012401440144014400FC000410001FE8
:10FD6000FC0088010401040088007000000000000D
:10FD700070008801040104010400880000000000F4
:10FD80007000880104010411081FFC000400000039
:10FD9000F8014401440144014400C800000000018E
:10FDA0000401040FFC1104110411001800000000EC
:10FDB000D601290129012901C90106000010041FEB
:10FDC000FC008401000100010400FC0004000001AB
:10FDD00004190419FC0004000400000000000000E5
:10FDE0000300010101190119FE0000000010041FA9
:10FDF000FC0024004001B4010C01040000000010CC
:10FE00000410041FFC0004000400000000010401B1
:10FE1000FC0104010001FC0104010000FC010401DB
:10FE2000FC008401000100010400FC00040000004B
:10FE3000F8010401040104010400F80000010101BB
:10FE4000FF0085010401040088007000000000002C
:10FE500070008801040104010501FF000101040193
:10FE60000401FC0084010401000180000000000086
:10FE7000CC01240124012401240198000000000188
:10FE800000010007F8010401040000000001000166
:10FE9000F8000400040004010801FC000401000152
:10FEA000800170000C001001600180010001F00170
:10FEB0000C003001C00030010C01F0010000000115
:10FEC00004018C00740170018C0104000001010127
:10FED000810171000E001801600180010000000125
:10FEE00084010C013401440184010C000000000075
:10FEF000000000000001003EFC4002400200000043
:10FF00000000000000FFFF000000000000000040B3
:10FF10000240023EFC010000000000000000006002
:10FF20000080008000400040002000200000000011
:10FF300040000000C0000000800000000000000041
:10FF40002000000060000000E0000000A0000000B1
:10FF500070FF000800000024A0010000E603000874
:10FF600078000108A0010024D0410000A08B000807
:10FF700041320142102C90D003041A811113456DB7
:10FF80001B0871041A7D041AA1041AC9041A290451
:10FF90001A5104116226031108120A142217311291
:10FFA000021A80021B08200123FFFF13A55E14081C
:10FFB000E95A1408B56214083D5B1B08ED0C136781
:10FFC000631C08F15D7812651B08F9081A6D101A98
:10FFD000911C1A1D0C138D5C1B08DD041AB90C1A38
:10FFE000053C1B0D662819081A7D041B12015E21B1
:10FFF000164083042A571D02010203C01704030997
:020000040801F1
:1000000004B1721408E1711C083773B4711ACD1071
:100010001AD704C11A69281A49041A8D041A3D0412
:10002000140902201808010104C0320904B8200A8A
:100030000806500507058102402C070501074B0AF9
:1000400006701967111A81881A6D041A85041A89B5
:10005000041A8D041AED041A7D04133890041A084A
:100060001A038BB987881389881B08CD101A610879
:080070001A35045AB51C00000A
:04000005080002AD40
:00000001FF
